S01A000053696E655F47656E657261746F725F4253502E7372656331
S113000050200020250100002101000021010000F2
S113001000000000000000000000000000000000DC
S113002000000000000000000000000021010000AA
S11300300000000000000000210100002101000078
S11300402101000021010000210100002101000024
S11300502101000021010000210100002101000014
S11300602101000021010000210100002101000004
S113007021010000210100002101000021010000F4
S113008021010000210100008D0A0000210100006F
S113009021010000210100002101000021010000D4
S11300A021010000210100002101000021010000C4
S11300B00000000010B5064C2378002B07D1054B37
S11300C0002B02D0044800E000BF0123237010BDC0
S11300D00400002000000000F00B0000084B10B5E5
S11300E0002B03D00749084800E000BF0748036815
S11300F0002B00D110BD064B002BFBD09847F9E72D
S11301000000000008000020F00B0000F00B0000CD
S11301100000000010B5014B984710BDAD0200006F
S1130120FEE70000F8B5234A234B9A4209D0224B3C
S1130130204A03E011681960043304321F498B42DA
S1130140F8D31F4B02E000221A6004331D4A934285
S1130150F9D31D4AFF211D4B8B439360FD39902336
S11301605B001B4AD1501B4AD3780325AB430224BE
S11301702343D370D3780C27BB4308263343D3706F
S1130180154B987B30229043202210439873997B1F
S1130190B943314399739A7BAA4322439A730F4A12
S11301A0516880230B4353600D4B98470D4B984780
S11301B0FEE7C046F00B0000000000200400002011
S11301C0040000205000002000ED00E000000000CA
S11301D000700041005000410048004100400041CF
S11301E0F50A0000A10A000010B5084A116A80232C
S11301F01B010B431362064A064B5A80064B984771
S1130200020006490648074B984710BD0004004009
S11302101B410000000C0040890A0000002C004231
S113022034000020AD05000010B50422C023DB0516
S11302305A600A490A4B8B62C0231B068B62422315
S1130240CA5C012082430243D2B2CA5431228B5C7D
S11302500F24A3430343DBB28B5410BD004400417D
S113026004000040044A116A8023DB020B4313623A
S1130270024A034B5A8070470004004021400000AA
S1130280000C004010B5044B984704490448054B42
S11302909847054B984710BD65020000004800428E
S11302A028000020CD03000029020000F8B5DE4636
S11302B057464E464546E0B53E4B9847C022D205C8
S11302C08021890291603C4B8020C00598623B48A4
S11302D09862516151605124185D0425AC4665460D
S11302E02843C0B218559161185D0126B043012519
S11302F02843C0B21855193C185D0F2738406137A0
S11303003843C0B21855882081468020C0014C462D
S1130310105120342A4F1F51C0273F061F519827E0
S1130320D051143FB846D0514A37BA46DF5D6546CE
S11303302F43FFB255465F559427D051585DB043C3
S1130340CD3D2843C0B255465855B7208246185C67
S1130350BF3DA8430725AB465D462843C0B255467A
S11303605855484611508020C0051851134818515B
S1130370D151404611504D301C5C65462C43E4B2CB
S11303801C54D1511A5CB24301251543EDB21D54DE
S1130390B8215A5CC238024061300243D2B25A5486
S11303A0084B9847084B98473CBC90469946A24650
S11303B0AB46F8BD5906000000440041020000C0ED
S11303C000400040E90100008502000070B504000F
S11303D00D00002810D000290CD0012032220C4935
S11303E00C4B9847290020000B4B984700280ED14E
S11303F000230AE00020F1E70020EFE7DA00A2186A
S11304000021516091600133DBB2002BF6D070BD46
S11304103C0B0000F1050000D506000070B5040097
S11304200D0000280CD000290CD0002052220649CF
S1130430064B984729002000054B9847002070BDC3
S11304400020F3E70120F1E73C0B0000F105000078
S113045001070000F0B5CE4600B582B007000D00DC
S113046014009946002807D0002907D1002A18D083
S1130470002B18D1002002E0002000E000206A22B6
S11304801749184B9847019729003800164B98478D
S1130490002822D02E00EB00FB185C604A469A60CC
S11304A011E00020EBE70120E9E7F4003C19636860
S11304B019882A0001980D4B9847636802336360DA
S11304C0A368013BA360F300FB189B68002BECD1ED
S11304D0002002B004BC9146F0BD1D204042F8E764
S11304E03C0B0000F1050000150700002707000081
S11304F0F8B50668002E02D0330000250CE0104B3E
S1130500984718E09F68BC466444A41A01348F6875
S1130510BC420BD21D001B68002B07D05C689442C0
S1130520F0D8A41A9F68BC466444F0E7B34203D0F1
S11305302800044B9847F8BD014B9847FBE7C04699
S1130540110600003D060000F8B505004469036982
S11305505E1C0661037EDB0702D4037E9B070AD57B
S11305602B7E02221343DBB22B76F8BD6F69E3685E
S1130570200098473C00002CF7D06368F31AA26867
S11305809342F2D32F0014373800064B9847237C4C
S1130590012BEBD16660320021003800024B9847F2
S11305A0E4E7C04645060000F104000070B504000D
S11305B00D00002812D000290ED001203B2208494A
S11305C0084B984729002000074B984700232361D4
S11305D0064B2360002070BD0020EFE70020EDE70C
S11305E0580B0000F10500007109000049050000E6
S11305F0002800D100BE70470368002B03D08B4253
S113060003D01B68F9E7002070470120FCE70000D5
S113061070B504000D00064B984701235840C0B242
S113062039220449044B984723682B60256070BD28
S1130630F9050000700B0000F105000003680B6071
S1130640016070470368002B03D01A680260180029
S113065070470020FCE7000010B5074B5A685A6049
S1130660064B9847064B98470820064CA047064B74
S11306709847F720A04710BD00400041CD07000077
S1130680ED0700003507000031080000C379DB09DD
S1130690FCD1C379DB09FCD103789B0707D5002380
S11306A00370C379DB09FCD1C379DB09FCD10123D5
S11306B00370C379DB09FCD1C379DB09FCD18370F6
S11306C0413343703D3B0370C379DB09FCD1002007
S11306D07047000070B505000C00431E9841C0B27D
S11306E049220449044B98472C602000034B984747
S11306F070BDC046900B0000F10500008D0600009F
S11307000268137802210B43DBB21370D379DB093F
S1130710FCD170470268D379DB09FCD113785B08FC
S113072001201840704702681181D379DB09FCD19C
S113073070470000C30709D51C4B802252009A6001
S11307401B4A5A60194B5B78DB09FBD1830709D537
S1130750164B0222FF329A60164A5A60134B5B789A
S1130760DB09FBD1430708D5104B134A9A60134A9F
S11307705A600E4B5B78DB09FBD1030708D50B4BA2
S11307800F4A9A600F4A5A60084B5B78DB09FBD129
S1130790030609D5054B0822FF329A600A4A5A60BB
S11307A0024B5B78DB09FBD17047C046000C00406C
S11307B0000629000107290002040000020629009E
S11307C0030800000306290007030900064B1A7AF0
S11307D0D2B21A725A7AD2B25A729A7AD2B29A723D
S11307E0DA7AD2B2DA727047000400400E4A116A13
S11307F0090C136A9B0F9B0709040C4801400B4327
S113080002210B43136293690B439361137F1D31E0
S11308100B401377044BDB681B07FBD5024A136AB2
S113082080210B4313627047000800400000FF0F53
S11308300222274B9A84264BDB68DB06FBD5254A2C
S1130840234BDA62244B1B689B0E3F2B38D09B0250
S1130850802292001A431E4B9A62932252009A8479
S11308601E491F4A5180022144229954153A9A6420
S11308700F3ADA649B8C5B0725D5154BDB68DB06E6
S1130880FBD55023124AD35C5B0707D45023D35CB7
S1130890DB0703D45023D35C9B07F2D50C494422D5
S11308A08B5C802040420343DBB28B540C4B5B785F
S11308B0DB09FBD1064A936902218B43936170479C
S11308C0FC22D201C7E7024BDB68DB06FBD5D8E785
S11308D00008004080BB0104246080000143000044
S11308E0000C004010B5C3689A7BD20700D410BD39
S11308F001229A7303689847F9E70000024B9C466B
S11309006044800AC0B2704700D4FFBD034B9842D4
S113091000D07047024B1960FBE7C046002C004230
S11309202000002010B50E4B98470330C0B20023BE
S1130930002B08D09F2252000A4900200A4B9847F6
S11309400120404210BD9A00D2189100074A8A5CE7
S1130950904202D00133DBB2EAE758B2F2E7C04674
S1130960FD080000BC0B0000F1050000A80B00000E
S113097070B506000C0008003C4B98470500F46075
S11309808B223B4901203B4B9847E37BDB09FCD19D
S113099023889B0704D500232380E37BDB09FCD158
S11309A001232380E37BDB09FCD1AA0052199100C7
S11309B0314B5B185A88228019792172DB88638154
S11309C00C231340082B37D0002B3FD1AB005D190B
S11309D0AA00294B9B189B8923830023638301234B
S11309E0637331002000254B98472000244B98471F
S11309F01230C0B243B2002B0ADB1F210140012296
S1130A008A4080211F4C6250BFF34F8FBFF36F8F1A
S1130A10002B07DB1F21014001228A40C02149002D
S1130A20184C6250002B05DB1F2318401E3B8340EB
S1130A30144A1360002070BDAB005D19AA000E4B70
S1130A409B18DB68A3610023E361C8E7042BC6D1CC
S1130A50094AAB005819810008005118097B217616
S1130A60002161761218137A2375B8E7250900006E
S1130A70BC0B0000F1050000A80B00000D090000EC
S1130A80FD08000000E100E00020704710B5024BB3
S1130A901868024B984710BD20000020E5080000AC
S1130AA070B50D4B984700210C480D4B9847012415
S1130AB00AE00C4B0C4A13800123002107480B4D1C
S1130AC0A84701235C40E4B2094B1B78002BFBD000
S1130AD0002CEED00023EDE71501000028000020D3
S1130AE01D040000FF030000240000205504000042
S1130AF00000002070B500260C4D0D4C641BA410A2
S1130B00A64209D1002600F063F80A4D0A4C641B82
S1130B10A410A64205D170BDB300EB589847013626
S1130B20EEE7B300EB5898470136F2E7DC0B000020
S1130B30DC0B0000DC0B0000E00B00002E2E2F6805
S1130B40616C2F7372632F68616C5F6461635F73A0
S1130B50796E632E630000002E2E2F68616C2F7354
S1130B6072632F68616C5F74696D65722E63000037
S1130B702E2E2F68616C2F7574696C732F737263DA
S1130B802F7574696C735F6C6973742E6300000055
S1130B902E2E2F68706C2F6461632F68706C5F64F5
S1130BA061632E6300000000030068000000000081
S1130BB00000000030000000000000002E2E2F680E
S1130BC0706C2F74632F68706C5F74632E63000005
S1130BD0F8B5C046F8BC08BC9E467047DD0000006E
S1130BE0F8B5C046F8BC08BC9E467047B500000086
S1070BF001000000FC
S9030000FC
