:10000000382600202D0100002901000029010000F0
:1000100000000000000000000000000000000000E0
:1000200000000000000000000000000029010000A6
:10003000000000000000000029010000290100006C
:100040002901000029010000290100002901000008
:10005000DD11000029010000290100001925000020
:1000600029010000290100002901000029010000E8
:10007000AD14000029010000290100002901000041
:100080002901000029010000A9180000BD18000086
:1000900029010000290100002901000029010000B8
:1000A00029010000290100002901000029010000A8
:1000B0000000000010B5064C2378002B07D1054B3B
:1000C000002B02D0044800E000BF0123237010BDC4
:1000D000680000200000000084310000084B10B5CB
:1000E000002B03D00749084800E000BF0748036819
:1000F000002B00D110BD064B002BFBD09847F9E731
:10010000000000006C0000208431000084310000F9
:100110000000000010B5024B9847024B984710BDF5
:10012000A5060000B92F0000FEE700002148224983
:1001300070B5884204D00023204CCA18A24232D3A2
:1001400000211F4B1F4A934231D3FF211E4B1F4AF0
:100150008B43936002220C25082430261C4B1D483B
:100160005A62C378FC398B431343C370C378AB43E3
:100170002343C370184B987BB043060020203043C4
:100180009873987BA84304439C73987B88430243ED
:100190009A738023114A51680B435360104B984760
:1001A000104B9847FEE7C55804331560C5E702C3F6
:1001B000C9E7C0468431000000000020680000202C
:1001C00068000020380600200000000000ED00E07C
:1001D000FC700041005000410048004100400041D7
:1001E00041300000E926000070B51F244209C0B26A
:1001F0000440FF234D1C09D11A40D201144BA21810
:10020000D218137802318B43137070BD012513404F
:10021000104ADB019B181E1940363278AA432A4344
:1002200032706208284209D00F209A1830321378B1
:10023000090103401943C9B21170E6E70F209B186A
:1002400030331A780140824311431970DDE7C0460C
:1002500040440041004400411F22430910401E3A1F
:100260008240012916D0002902D0022920D07047EF
:10027000C021DB01C90559184A60802190B2C90527
:10028000014313481B189962110CC02212060A433D
:100290009A62ECE7C021DB01C90559184A600D4993
:1002A00090B201430A481B189962110C0A4AEEE702
:1002B000C021DB01C90559188A60802190B2C905A7
:1002C00001430348120C1B189962C0210906DEE79E
:1002D0000044004100000240000002C00A4A0B4BEB
:1002E00010B501215A800E20094B98470421094A74
:1002F0000E2013788B43E02113700903064B9847B7
:10030000064B984710BDC04605400000000C004059
:10031000590200004E440041E90100006508000058
:1003200070B5C0261023F60573610E4D022104201E
:10033000A8470D4C0D490420A047202302217361DA
:100340000520A8470A490520A04701210620A84703
:100350000421084A062013788B4313700649A047EE
:1003600070BDC04659020000E9010000030004000E
:100370000300050046440041030006000423044A2C
:10038000116A0B431362034A034B5A807047C046FD
:100390000004004014400000000C004010B5044B65
:1003A00098470449044B05489847054B984710BDAA
:1003B0007D0300000008004289080000EC050020D1
:1003C0002103000070B58023C0265B02F60573612F
:1003D0000E4D02211020A8470D4C0E491020A047B9
:1003E00080239B02736102211120A8470A49112032
:1003F000A04701211220A8470421084A122013789F
:100400008B4313700649A04770BDC04659020000D7
:10041000E9010000020010000200110052440041F6
:10042000020012000823044A116A0B431362034AB4
:10043000034B5A807047C04600040040154000003E
:10044000000C004010B5044B98470449044B054884
:100450009847054B984710BD25040000000C00424A
:100460008908000078050020C503000070B58023CE
:10047000C0265B01F60573610E4D02210C20A847D2
:100480000D4C0E490C20A04780239B007361022174
:100490000920A8470A490920A04701210F20A847A1
:1004A0000421084A0F2013788B4313700649A04794
:1004B00070BDC04659020000E901000002000C00B6
:1004C000030009004F44004102000F001023044ABA
:1004D000116A0B431362034A034B5A807047C046AC
:1004E0000004004016400000000C004010B5044B12
:1004F00098470449044B05489847054B984710BD59
:10050000CD0400000010004289080000040600200D
:100510006D0400002023044A116A0B431362034A4E
:10052000034B5A807047C04600040040174000004B
:10053000000C004010B50449044C1620A0470449A3
:100540001720A04710BDC04602001600E9010000B8
:100550000200170013B5064B98470023054A009385
:1005600005491033054C0648A047064B984713BD74
:10057000150500008400002000140042ED0A000070
:100580009C0500203505000010B50248024B984735
:1005900010BDC04610E000E01D08000010B50021AD
:1005A0000220034B984703490220034B984710BD94
:1005B0005902000001000200E90100008023044A02
:1005C000DB02116A0B431362024A034B5A807047E5
:1005D0000004004021400000000C004010B5044B16
:1005E00098470449044B05489847054B984710BD68
:1005F000BD050000004800420508000090050020ED
:100600009D050000F8B50221104F1820104CB84786
:10061000C026802322000425F6055B04583273614E
:1006200013780C49AB43137018200B4B98470221E9
:100630001920B84780239B047361593423780749F4
:10064000AB4323701920044B9847F8BD59020000B2
:100650000044004106001800E901000006001900EE
:100660002022064BD9690A43DA61402259690A43BC
:100670005A61034A034B5A807047C0460004004049
:1006800006440000000C004010B5034B9847034B94
:100690009847034B984710BD61060000310D0000DC
:1006A00005060000F8B53B4BC02598470823ED052B
:1006B000394C3A4FAB6102210320B8472200012692
:1006C000433213780221B3431370802307206B61F8
:1006D000B8472200473213780221B34313708023B6
:1006E0001B03AB611320B847220053321378022159
:1006F000B34313708023DB05AB611E20B847220093
:100700005E3213780221B34313702B00802294339E
:10071000D2001A602A20B8472200CA3213789835CE
:10072000B34313708023DB0502213E202B60DE34AF
:10073000B84723781A4FB34323701A4B98471A4B84
:1007400098471A4B98471A4B98471A4B98471A4B99
:1007500098478023194C1B01226A194E13432362C8
:10076000184B7B80B047184D020018491848A8471D
:100770008023226A5B0113432362164B7B80B047C0
:10078000154902001548A847154B9847154B98473F
:10079000F8BDC046D91000000044004159020000D5
:1007A000000C0040DD0200009D0300004504000035
:1007B000ED0400005505000089050000000400401C
:1007C000A51800001B400000C9090000002C0042D1
:1007D0005C0500201C430000003000421C06002085
:1007E000DD05000089060000EFF31083036072B698
:1007F000BFF35F8F7047BFF35F8F036883F3108889
:100800007047000010B5044B04009847002801D140
:100810006060A06010BDC0465111000010B5024BD1
:100820001860024B984710BD9400002091170000FB
:100830000122F8B500211600FF27094D6C685318F6
:100840005B1005D1844204D12B68002B00D098475F
:10085000F8BD844201D33A00F1E73100EFE7C0462A
:10086000980000200122054B524210B55A60002228
:1008700003481A60034B984710BDC04698000020FB
:10088000310800007111000010B5074B04004160F1
:1008900004309847002806DB0020044BA382044B59
:1008A0002361044BE36010BD191500000080FFFFB9
:1008B000F5080000D90800007FB50B6804300393E9
:1008C0004B6804938B6803A901930593014B9847E8
:1008D00007B000BDE51500001FB50023019102938C
:1008E00001A9034B0C380392984705B000BDC046E0
:1008F000B90800001FB500230291019301A9034B21
:100900000C380392984705B000BDC046B9080000F6
:10091000F7B50568002D02D1114B9847F7BD0126A8
:100920002C0000278B680093B31A0193A6686368B4
:10093000B44693420DD863449B1A009EB3420CD236
:1009400023682700002B02D13800064BE5E71C0086
:10095000ECE7019EF3186344EFE7A542F4D1DBE72F
:100960003D10000045100000F8B5036905005E1C4D
:10097000037E44690661DB0702D4037E9B0717D51B
:1009800002232A7E13432B76F8BD2F0014370C4B1D
:1009900038009847237C012B05D166603200210086
:1009A0003800084B98476F69E368200098473C007F
:1009B000002CE9D06368A268F31A9342E5D2E3E71A
:1009C000671000001109000010B5044B040098479F
:1009D0000020034B2061236010BDC046B917000002
:1009E000690900000023083810B50363436A002B2F
:1009F00000D0984710BD0023083810B50363C36AC0
:100A0000002B00D0984710BD10B50400044B2C30CB
:100A10009847236A083C002B01D02000984710BD5E
:100A2000AF10000070B514000200831D4C32DE8F41
:100A30001588AE420AD1816414800022DA8701232E
:100A400008308362034B9847200070BD1C20404251
:100A5000FBE7C0469D140000010010B50400838F21
:100A600044300088083998420AD0896C581CA08705
:100A7000C95C2000044B98472000044B984710BDE8
:100A80002000034BFAE7C046951400009D140000B7
:100A9000A5140000F0B5050085B003A80F4B343550
:100AA0000E00140098470E4B280098470D4B070086
:100AB00003A8984733193400F7190193A01B80B29B
:100AC000BC4202D0019B9C4201D105B0F0BD210087
:100AD0002800054B98470134F0E7C046E9070000BD
:100AE000D1100000F70700008D10000070B5040061
:100AF0000D00343011001A000D4B9847002813D117
:100B00002000290008300B4B984700280BD10A4BD6
:100B100063600A4B23600A4BA3600A4BE3600A4BF5
:100B200023610A4B636170BD0D204042FBE7C04664
:100B3000751000003D140000950A0000250A000011
:100B4000590A0000090A0000E5090000F709000041
:100B50000F22002370B50A4C02405E01A5196D7882
:100B600059B2854209D0365D002E01D1AA4204D087
:100B70000133042BF1D101214942080070BDC04668
:100B8000A00000200020704770B5084B04000D0045
:100B90009847074B40011B189A780020032A03D17D
:100BA0009B6929002000984770BDC046510B00008A
:100BB000A0000020F0B5394B87B000900F000192E3
:100BC0009847374D4401002F42D12E19F770295D07
:100BD000002934D12200B7780C327078F369032FE2
:100BE00028D10C27AA180131F757984773780028A5
:100BF0000DD00522B270033AF2701800002F01DB0D
:100C0000802018430121274B984707B0F0BD0422EC
:100C1000B27003AA03905060002F08DB80200343CA
:100C200013720123100053721F4B9847EDE70F20FA
:100C30000340F5E7AA1898470223B370E5E70123BC
:100C4000B3702C19E178E369019A00989847DCE7C2
:100C50002B19012F0CD10222DA70295D002904D151
:100C60009A7000980F4B9847EBE705229A70E8E7D7
:100C7000022F08D10422DA702A5D002A01D19F7068
:100C8000C3E70122F2E7032F04D100229A70053254
:100C9000DA70D6E706229A70FAE7C046510B0000D8
:100CA000A000002089220000B1230000F0B51C4BF9
:100CB00085B0040098471B4F430103930C33FB1886
:100CC000019319002000184B98478026C0B2174D99
:100CD0007642082808D001212000A847012134438A
:100CE000E0B2A84705B0F0BD002126432000A84788
:100CF000F3B2002118000293A847039B0199FE1844
:100D000001272000B770736998470028EAD10523AE
:100D10003900B3702000A84739000298E1E7C046C7
:100D2000510B0000A0000020592300008922000080
:100D300010B5114B984700281DDB104C8022200075
:100D40000F4B00219847FF200E4A631C8134190085
:100D50001870133120330A604A608A60A342F6D1CA
:100D6000094C0A490020A04709490120A047022058
:100D70000849A047002010BDDD1E0000A000002093
:100D80009B300000850B0000ED240000AD0C00003E
:100D9000890B0000B50B000010B5014B984710BD42
:100DA000C924000010B5014B984710BDA11F0000D9
:100DB00010B5014B984710BDE91F000010B5014B5D
:100DC000984710BDF91F0000F8B5104C06000D0043
:100DD0001700A047002813DAFF20A047041E12DBEB
:100DE0003A00290030000A4B9847002807DB094BDE
:100DF00064011A195670032200201540E554F8BD0D
:100E000014204042FBE71520FBE7C046510B0000D1
:100E100009200000A0000020002110B582B2024B82
:100E20000800984710BDC046C90D000070B5074BBB
:100E300005009847041E07DB054B28009847054B23
:100E400064011C19FF23637070BDC046510B000084
:100E5000D1200000A000002070B50C4B0500984781
:100E600000280FDB0A4C4001035D24185A4253410D
:100E70000133A3702800074B9847002801DA0023AC
:100E8000A37070BD12204042FBE7C046510B00002A
:100E9000A00000204D210000F0B5037A8BB00500C2
:100EA00001931800354B98476B7A061E03936C68C4
:100EB00062DB334B06A8984773010093009A314BCD
:100EC0009E18B37804AAD71D3B703B78DBB202931F
:100ED000029A2D4B012A1DD10232B27006A8984702
:100EE000284B009AD35C002B25D0019BDA09039B89
:100EF000591E8B41DBB2297A2D6807A807954460FB
:100F0000002A36D080220A434372204B027298474F
:100F10000BB0F0BD06A898473B780220DBB2052B4A
:100F2000F6D0062B04D00120002BF1D1132000E0D5
:100F300010204042ECE7F27CB37C12029B189BB27B
:100F4000002B05D104221C00029BB2701A00D2E7CC
:100F50009C4200D91C000B49009A8C466244127BCB
:100F60007F2A04D99C429B4101225B42C3E70023B4
:100F7000ECE70F220A40C7E71220DAE7510B000026
:100F8000E9070000A0000020F7070000B1230000DF
:100F9000F8B504000D1E1BD1124B9847061E1EDB30
:100FA00002212000104FB847002810D0290020004F
:100FB000B84700280BDB0D4B76019E190321012356
:100FC000F170B3702A00F369200098472800F8BD3B
:100FD000054B012900D0022120009847F7E7122095
:100FE0004042F4E7510B000089220000A0000020DD
:100FF00070B50F4B15000C009847002D00D10D4D1A
:10100000002805DB012C09D0002C02D0022C0AD0CC
:1010100070BD094B400118184561F9E7064B4001C6
:1010200018188561F4E7044B40011818C561EFE713
:10103000510B0000850B0000A000002003680B602E
:101040000160704703680B60016070470368002B04
:1010500003D101600B60704713001A68002AFBD1AE
:1010600019600A60F7E70368002B01D01A68026074
:1010700018007047531E1A4005D143608260C26059
:101080000160100070470D204042FBE78368C26892
:101090009A4209D0426813400268D35C0B7083689F
:1010A00001338360002070470A204042FBE7C2689A
:1010B000436813400268D154C36881684268591A72
:1010C000914201D99A1A82600133C36000207047AF
:1010D000C3688068181A704710B5064B5A685A6082
:1010E000054B9847054B9847054B9847FF20054B04
:1010F000984710BD0040004139130000A5160000BC
:10110000F516000079120000C379DB09FCD17047A5
:1011100070B504000D4DA8472000A84723789B0711
:1011200005D5002320002370A8472000A8470123ED
:1011300020002370A8472000A84700264123A6705E
:10114000200063702670A847300070BD09110000B0
:1011500010B5024B01600800984710BD1111000046
:10116000024A5378DB09FCD17047C04600180040A2
:10117000F8B5154C154D0700A847A84723789B07DD
:1011800003D500232370A847A84701230026237016
:10119000A847A8470223A67066606661A661E6615B
:1011A000227813432370A84710230949094ACB67C3
:1011B000BFF34F8FBFF36F8FC021490053501360AF
:1011C000054B30001F60F8BD0018004061110000A1
:1011D00004E100E000E100E020010020F7B5012675
:1011E0001D4D76422B69EA6813400193019B2B61E8
:1011F000019B002B1CD1F7BD184B012000229C46FF
:10120000674683185B10D9B2DB00DB5DA34220D0B8
:101210001CDA0131CAB29042F2D2731C03D0104BD7
:1012200030001B6898470122A240019B9343019321
:1012300001980C4B9847013844B2631CDCD12B69F0
:10124000EA6813400193019B2B61D1E70139C8B2D1
:10125000E1E70E26E3E7C04600180040AC3000008E
:1012600020010020ED2F0000024A5378DB09FCD159
:101270007047C046000C004010B50400C30707D5F6
:101280008022204B52009A601F4A5A601F4B984799
:10129000A30706D51B4B1E4A9A601E4A5A601B4B79
:1012A0009847630706D5174B1B4A9A601B4A5A603A
:1012B000164B9847230706D5124B194A9A60194ACC
:1012C0005A60124B9847E30607D582220D4B520015
:1012D0009A60154A5A600D4B9847A30606D5094BEC
:1012E000124A9A60124A5A60084B9847630607D51B
:1012F0008322044B52009A600E4A5A60034B98476F
:1013000010BDC046000C0040000829006912000012
:10131000010600000108010002040000020621008D
:101320000308000003062900040709000503000064
:101330000508010006042100064B1A7AD2B21A727F
:101340005A7AD2B25A729A7AD2B29A72DA7AD2B2FD
:10135000DA72704700040040002805DB1F231840A4
:101360001E3B8340014A13607047C04600E100E025
:10137000002809DB1F2318401E3B8340034AD36724
:10138000BFF34F8FBFF36F8F7047C04604E100E09B
:10139000002807DB1F23C02218401E3B8340024960
:1013A00052008B507047C04600E100E0C36919420B
:1013B000FCD17047C3691942FCD17047022210B5B5
:1013C0000368032193430360014B984710BDC04657
:1013D000B513000070B5C3690400154DDB0710D4C8
:1013E00002260321A8472368334205D02000114B71
:1013F000984731002000A8470523032123602000DF
:10140000A84720000121A8470B4B2000236003219F
:10141000A847C0239B02636020000721A847D2236E
:1014200000205B42A381A0733034207070BDC046A1
:10143000B5130000BD1300000400104070B50E4B42
:10144000060008000C009847051E13D10B4BB46131
:101450009C4201D10A4B1E600A4BE418A40A0934CD
:1014600064B22000084B98472000084B98472000A2
:10147000074B9847280070BDD513000000140042A8
:101480002401002000F8FFBD71130000911300003B
:1014900059130000836989B2198570470122836955
:1014A0009A757047022283699A757047194B10B577
:1014B000186801238469227E1A4206D0A27D1A424E
:1014C00003D023750368984710BD237E01229B0734
:1014D00007D5A37DD340134203D00223237583682D
:1014E000F1E7237E5B070BD53723628B1A4202D0CC
:1014F00008336383E8E7218D4368C9B29847E3E77F
:10150000237EDB09E0D080232376C3689847638B72
:101510009BB2EEE7240100202E4BF7B5CB189B0AB7
:10152000DFB206000C00002F05D0012F03D00D20E4
:101530004042022F4DD1E369274DDB0714D403212C
:101540002000A84702222368134208D02368032101
:10155000934320002360A84702212000A8470D23C1
:10156000032123602000A84720000121A847112360
:101570007B431A4A3460D3181F007A7E01931B7E86
:1015800012021A43BB7E20001B041A43FB7E032178
:101590001B061343124A13402360A84780239B0273
:1015A000636020000721A8470722019B0020053324
:1015B000DB7F23733B7F303413405A1E934101334A
:1015C00020703371019B20339A79DB791B0213431E
:1015D000F380FEBD00F8FFBDAD130000B430000085
:1015E000FCFEFFFFF0B585B001900291056803791C
:1015F0000720EC690F684E680393044031D1284BF3
:101600000321280098472B689B072DD50123210033
:101610009C4604232A7ED2B21A4227D0AB6A002EFF
:1016200004D003983370012812D80136013152B228
:10163000002A2DDA012313205B426B8381332B7642
:10164000404203232A7E1A42FCD02B7605B0F0BD1F
:101650001B0A73700236E9E77B7802371B020343EB
:1016600013E004204042F1E71420FBE7A142DED35F
:1016700063461A42DBD0019BDB88002F05D0039B19
:101680003878012BE8D8030001370134AB62CEE78C
:10169000029B9B68A342BCD88B42BAD82000D0E7FB
:1016A000AD1300006622114B11489A82196A1A6A1A
:1016B00001400220920F920702430A43FE211A6260
:1016C0009A69C903114046220A431F219A611A7F71
:1016D0000A401A77DA680242FCD00422D968114223
:1016E000FCD00822D9681142FCD0704700080040A5
:1016F0000000FF0F02221F4B10B59A840E32D968EA
:101700001142FCD01C4ADA621C4A1268920E3F2A2F
:1017100016D08021920289000A439A6293224221C4
:1017200052009A84164A1170164A9A640022DA64AA
:101730009A8C520707D41022D9681142FCD006E0D7
:10174000FC22D201E9E71022D9681142FCD0042022
:10175000012402220C4B1978014205D1197821424B
:1017600002D119781142F6D0084A5378DB09FCD12E
:1017700010BDC0460008004080BB0104246080000A
:1017800044080040B7050E0050080040000C00401F
:10179000024B034A5A6005221A60704710E000E0CD
:1017A000FFFFFF00012210B5C368997B114202D0F0
:1017B0009A730368984710BD334B30B5CB189B0A1A
:1017C000DCB2E21CD2B2032A3FD001235B42042ADE
:1017D00001D102335BB2C160CA7BD209FCD10D8852
:1017E000AD0734D401220A80CA7BD209FCD114325D
:1017F0005343264AD3185A881D790A800D72DD8812
:101800004D810C252A40082A26D1DA681B698A6195
:10181000CB6101234B731E4B99422ED11D4B186097
:101820001234E2B223060ED41F231A401E3B93400B
:1018300019491A4ACB67BFF34F8FBFF36F8FC0218F
:10184000490053501360002030BD0023C2E70A80D6
:10185000CA7BD209FCD1C5E7002A05D19A891B6948
:101860000A839BB24B83D4E7042AD2D11A7B0A762F
:101870001A7C1B7A4A760B75CBE7094B9942CFD17C
:10188000044B5860CCE7C04600D4FFBD00310000D7
:10189000002C00422801002004E100E000E100E00B
:1018A000003000420020704710B5024B1868024B10
:1018B000984710BD28010020A517000010B5024B65
:1018C0005868024B984710BD28010020A51700005A
:1018D00000207047074B9A8C920605D4D021DA6815
:1018E0000A40D02AFBD170471022D9681142FCD09F
:1018F000F9E7C04600080040002803D0002901D0C5
:101900000430C0B21423013043430148C01870476B
:10191000300100200F2370B50100807C07250340B3
:101920001A00CC7C083225405B01012D08D01449F7
:10193000520152181021D171124A9B18597270BD70
:1019400040252C4206D08026AC43CC740D4C1C198B
:101950006671A5710825CC7C5201AC43CC7400247F
:1019600009494831C9188C728C76054952186F2183
:10197000D171044A9B185972044B9B689847DEE763
:1019800000500041FF500041B00100203001002014
:1019900020220F238A4010B50400807C05490340B3
:1019A0005B015B18D2B25A72034BA2681B6901211A
:1019B000984710BDFF5000413001002010B50300D2
:1019C000807CFF2809D04024DA7C224205D0A24343
:1019D000DA74024A14699A68A04710BD30010020E9
:1019E000F7B5252401AD837C2C70241994466C70C6
:1019F000FF2B1AD04027C47C3C4216D00F24234032
:101A00001C0008346601002910D00A4FF6198027FF
:101A10003771084A6401A418074A695C5B019B1886
:101A2000E17159726146054B9847F7BD014AB618F6
:101A30007771EEE700500041FF500041BD190000F2
:101A4000F7B50F22847C01AF14400B3A3A70043290
:101A50007A70220008320B002D4D61015601002BD7
:101A600024D0AD5D6D066D0F2A4E4836B4461E017A
:101A70007618B4446646B67AF6B2022D1AD1013D04
:101A80002E4217D06446A47A5201AC436546AC722C
:101A90001F4DFC5C5219D4711F4A89184C72591E93
:101AA0008B410422D9B21D4B9847F7BDAE5D072587
:101AB0003540D9E702252E4019D06646B67AC47C57
:101AC000AE436546AE72124EFD5C52019219D5715D
:101AD000114A891807224D722240012AE5D1620677
:101AE000E3D5C17CC9098B42DFD00022DBE760006F
:101AF000084AC0184832000112189672084A640158
:101B0000A418054AFB5C8918E3714B72CDE7C04607
:101B100000500041B0010020FF500041E1190000D9
:101B20000051004170B50A4DFF262C00C835143411
:101B300003212000074B98470021A674E174143458
:101B4000AC42F5D10448A022044B4830984770BD00
:101B500030010020BD190000B00100209B300000C2
:101B6000F0B50F2585B00091837C04001D400193E2
:101B70006B0102930023994206D04D4B6A01483312
:101B80009B185B699B049B0C268A4A4A03969642E3
:101B900002D0721E92B20392E27C94460722614602
:101BA0001140009A0291002A04D043496A01521858
:101BB0000221D171A26867689918A1606A01B942CF
:101BC00040D260467F1ABBB2394F80062ED5321CF8
:101BD0009E4200D91A1C236896B259183200374B1E
:101BE000E0689847324BE26869015B189A656B01BF
:101BF000FF18FB6DB604B20C9E0BB6031643FE65D0
:101C0000FB6D2F4A1340FB65009B002B08D1029B04
:101C10004E22012B00D0043A2A496B015B189A72BC
:101C2000254B6D01ED1880236B713AE080201E1C5E
:101C30008001834200D9061C2368BA185918B6B22D
:101C40009165D4E71027604638420ED0E37C6A01E4
:101C5000BB43E374164B1A499B18DA6D920B92033F
:101C6000DA65DA6D0A40DA65CEE7029801281AD102
:101C70004B25144812185572039A13409E420CD1FA
:101C80004025E37C0198AB43E3740F4BDB68984736
:101C9000002806D1E37C2B43E374002120000B4B8A
:101CA000984705B0F0BD07484A251218E3E7C0463B
:101CB000B0010020FF030000005100418930000006
:101CC000FF3F00F0FF50004130010020BD1900002F
:101CD0000F23F0B5827C87B01A40530104000D1E1B
:101CE0000192059368D0059A674B9B18D86C000148
:101CF000820C0392DF6CBF04BF0C238A0293029A0A
:101D0000624B9A4203D01300013B9BB2029307231C
:101D1000E27C029E13403E400493002D05D0019BBF
:101D20005B495B015B180121D97193060DD562688F
:101D3000002A0AD0A0682368121A92B21818E16823
:101D4000964200D23200534B9847019A6368510182
:101D5000002B34D11020E27C024200D18BE0824380
:101D600020331A43E274484B059AE1689B18996442
:101D7000218A1A004848DB6C8904090903400B4397
:101D8000D364D36C9B0B9B03D364002D0DD1019BBB
:101D900004995A012523012904D13B4B48339B1850
:101DA0009D762D233D4952189372019B384A5B0161
:101DB0009B1840221A711FE003910F009DE7002D30
:101DC0001CD0228AB24219D91022E37C9343E374D7
:101DD000A368DF19A760049B012B48D12F4BC918BA
:101DE0002D234B72019B002B02D1274BE2689A6492
:101DF000002120002A4B984707B0F0BDA668039A3F
:101E0000B44662441000A2609342E4D920269B1A93
:101E1000E27C9BB2278A324212D0381C9F4200D902
:101E2000181C019A83B25001174AE46810188464A0
:101E3000154A19485218D16C9B041B0901409EE7B2
:101E4000BB420DD98026B601B3420ED8029A934305
:101E50002468019A201854010B4A1419A064E7E77A
:101E6000BB42F5D21643E674F2E73300F0E70B4BC2
:101E7000C9182523B5E7002DA3D1A268039B94467A
:101E80006344A360A7E7C046B0010020FF03000041
:101E90000051004189300000FF3F00F0FF50004139
:101EA000BD190000802302009B0007209A4214D82D
:101EB000013BFF3B01389A420FD80138802A0CD8E9
:101EC0000138402A09D80138202A06D80138102ABA
:101ED00003D80630904280414042704710B52A4CEA
:101EE000A378DB070DD40323A2781A42FCD1022287
:101EF000237813423CD1012323700233A2781A4283
:101F0000FCD10123A2781A42FCD1204B204A1A604E
:101F10005A609A60DA601A611E4B98471F201E4B68
:101F20001A68530B910C920103400140520F8342F7
:101F300000D105231F2900D10239072A00D1023A16
:101F40009B010B431203134323850323E2781A43B7
:101F5000E2700C22E1780A43E27004222270A07839
:101F60001840FCD10D4B483363620123238110BD1F
:101F70002378934323700323A2781A42FCD10223CF
:101F8000A2781A42FCD1B6E700500041300100208F
:101F9000D1180000251B000024608000B001002043
:101FA00003220E4B9978114215D199781142FCD138
:101FB00002221978C9B2114206D080210020084AB5
:101FC0001160084A1A8370470A431A7003229978ED
:101FD0001142FCD1F1E711204042F4E700500041EA
:101FE00000E100E08D0200000121024A13898B43C9
:101FF000138170470050004180231843014B9872B1
:102000007047C04600500041F7B500266B460F24CC
:10201000009001929E5704400F002B4BF10F2000BF
:102020009847032305001F40042C44D8837CFF2BD2
:1020300044D1002F0FD1F143234BC90F2000984703
:10204000837CFF2B3AD1F33B6343204A9B58002B00
:1020500036D1132030E0002E16DA0C2262431B4BDF
:102060009B185A68002A1BD10C236343174CE418B1
:102070006368EB606B469B8800202B826B461B7865
:102080000137EF74AB74FEBD0C2363430F4A9B58BA
:10209000002B0BD00C2262430C4B9B181B8900E0D9
:1020A0005B89019A9342D4DB002EDDDB0C235C4379
:1020B000064BE358DDE712204042E4E71420FBE73B
:1020C000002EE7DAC9E7C046F91800002831000001
:1020D000F7B50F2543B2DF0F054001930400390027
:1020E0002800164B98470600042D14D8837CFF2B3C
:1020F00011D00322124B390098470722F37C13407A
:10210000012B09D1002208340E4B6401E254002354
:10211000F374FF33B374F7BD63B2002B07DA702298
:10212000094B6D01ED186B7893436B70EFE7064B2D
:102130006401E418637893436370E8E7F9180000DA
:10214000E119000000500041FF500041F7B50F2594
:1021500044B20540E10F464B28009847454B6901C2
:10216000CE1872780700D2B2042D00D97BE0837CB0
:102170000193FF2B00D176E03F4DC37C48356D18AD
:1021800007201900014001293BD17724144000D0D9
:102190006CE0112373703B8A00931800374B98470B
:1021A000E0230007DB051840009B354A9B031340E2
:1021B00003436B60009B40219B049B0C80221843CF
:1021C00068610F20B1717271019AAC7202402A48A5
:1021D0005201AC7685182800FE68AE64ED6C9E0353
:1021E000284B2B403343C364C36C9B0B9B03C364DA
:1021F000204BD318B0225A71A03A99719A722000DC
:10220000FEBD002C17DA7020140004402ED11B01F3
:102210000340134373703F8A184B38009847E023FC
:102220000007DB0518408023BF04BF0C38436861FA
:102230007371AC76E3E71040041E17D15B075B0FA8
:10224000134373703F8A0D4B380098470C4ABB0309
:102250001340E0220007D205104018434023686075
:10226000B371AC72CBE712204042C9E71420FBE700
:10227000F9180000FF500041B0010020A51E000029
:1022800000C0FF0FFF3F00F0F8B507000F25C4099D
:102290002F400E00380021002B4B9847042F4FD8B9
:1022A000012E15D11022A240837C28491D406B01CC
:1022B000D2B25B185A712023A340254A6D01DBB2CC
:1022C000AD18AB720823C27C1343C3740020F8BD61
:1022D000837C002E29D12B401E4A5B0199181C4A91
:1022E0009B181022A240DD792A42EFD0D2B25A7157
:1022F0002022A240D5B25D721E7A324204D0012261
:10230000A240D2B21D725A710723C27C1340012B26
:1023100008D1FF31CB7930210B40D7D128398A43FE
:10232000C274D3E708239A43FAE71D40074B6D01B7
:10233000ED181023A340A8791840431E9841C6E722
:1023400012204042C3E7C046F91800000051004186
:10235000FF50004100500041F8B50F231840114BC9
:10236000440148331B190F0019685D68AD04AD0CBA
:10237000042812D8002F10D00B4BE4186378112BCF
:102380000ED11026237A0020334205D008223800CF
:10239000064B984728002672F8BD12204042FBE702
:1023A0001320FBE7B0010020FF50004189300000FE
:1023B000F0B50F25037A87B01D405BB20193DB0FA8
:1023C000039319000700384B28009847374A038ABF
:1023D00004001E00934201D05E1EB6B27A68164019
:1023E0000296042D5DD83D6831498D420BD93148A4
:1023F0005119814207D803210D4004D101990029C8
:102400000EDB9A4206D2E3680125002B08D1132087
:10241000404215E0029B002B14D0E368002B40D013
:10242000E37C02201B070BD4234B05A89847E17CD3
:1024300040230E00214A1E4006D005A890470120E7
:1024400007B0F0BD029DEBE70B43E37405A890478E
:102450007F213B6823607B68A6606360039BDA0191
:10246000E37C0B40134369011D0020239D430D4372
:10247000E5747B7A002B03D0029E73425E41F6B274
:102480001022E37C360193431E43019BE674002136
:102490002000002B03DA0A4B98470020D0E7094BB5
:1024A000FAE71220B4E7C046F9180000FF03000065
:1024B000FFFFFF1FFF7F0020E9070000F707000074
:1024C000611B0000D11C0000002900D10549012832
:1024D00002D1054B596070470028FCD1024B1960AE
:1024E000F9E7C046D118000030010020002900D1D2
:1024F0000749002802D1074B99607047012802D193
:10250000044BD960F9E70228F7D1024B1961F4E7CF
:10251000D118000030010020F7B5664B1A8C92B23A
:102520000192002A58D19A8B198B04200A4014007A
:10253000044004D09883604B1B689847F7BD802106
:10254000890011401FD05D4A5D499A839A82923A70
:10255000FF3A1A83483162018A1810001289083044
:102560001207120F032A09D10023018803804904AE
:10257000490D0320504B5B689847DFE70134042C7A
:10258000E9D10021F5E7802516004B4C2E4003D001
:102590009D8363680520EFE7702715003D4009D053
:1025A000464A9F839F821A83464B9847636831004F
:1025B0000220E1E70826110031400BD0424A557055
:1025C0003E4A9E839F821A83404B98476368290046
:1025D0000120D1E7D20727D4374F00263C00012540
:1025E0001434A27CFF2A3ED00F231A402B009340C4
:1025F0000199194237D0364953015B1832495201CB
:1026000052181B78927A13402DD01422472172431E
:10261000BA181032D27D1140012915D1DA0609D538
:1026200020002C4B98471EE0244A9A839A821F83ED
:102630006368A1E74021194001D0290001E09B0611
:1026400011D52000244B0DE051B200291ADA5906A9
:10265000F3D4190701D529001BE0990708D52900F3
:1026600020001E4B984701361434092EB9D165E776
:1026700007210A40012AF6D100215A0709D4DB06B6
:10268000F1D5CDE72021194001D00021D9E7580725
:1026900002D52000124BE5E72B4203D02900200091
:1026A000104BDFE707210A40012ADCD11A07E6D5E3
:1026B000D1E7C04600500041300100200102000077
:1026C000B0010020D5180000FF500041251B00007C
:1026D000075100411519000091190000611B00000D
:1026E000411A0000D11C000010B5014B9847FEE7CD
:1026F00015010000F0B516000A7885B05306019068
:102700000C009B0F012B56D1637909792C4D1B02CC
:102710000B432978994202D0697899424BD152B241
:10272000002A12DA0020012E0DD06378212B18D157
:10273000E279A37912021A43072A3FD10300A91DA7
:102740000198204CA04705B0F0BDE379A7791B02A2
:102750001F431D4B984763780100202B03D0222B89
:102760001AD00D2028E0072F28D1002E02D13300E7
:102770003A00E5E73A0002A8144CA0472B69002B69
:1027800005D1A81D072202A9A0470020DBE702A867
:1027900098470028F5D1F8E700230A4E1A001900DF
:1027A0001800B0476B69002BEFD0E078A2780002E8
:1027B00010439847E9E70A204042C4E70120FBE7BD
:1027C00098040020BD2A0000C12E000089300000BE
:1027D000F7B51500012950D0002904D01B2002298B
:1027E0000AD00D2008E08368106800931E000233B1
:1027F0000193002802D10A20404220E008214379B9
:1028000082788B43022BF6D133789A425FD0FF2B2C
:102810005FD1327069680522304B9847041E0FD192
:102820002868042203786968C0182C4B9847019BDC
:102830000136B342DDD101222000294B5A71FEBD81
:10284000637922791B02A778D21892B2E178380016
:10285000244B984700283ED17BB2234A002B09DA4B
:10286000B770380090472C602078696820181F4B9B
:102870009847D3E7009B1F71F3E78468002A05D0CF
:10288000136808225B799343022BB4D12378FF2B82
:1028900007D0FF25A0782570A84202D0144B984796
:1028A000A5706378FF2B07D0FF25E0786570A842FC
:1028B00002D00F4B9847E5702079FF2803D00C4BCE
:1028C0009847FF2323710020054B5871B7E712206A
:1028D00092E71C2090E714208EE7C046E12E00000E
:1028E00098040020C90D0000590E0000FB2E0000C6
:1028F0002D0E000010B50A4B984701280CD8094846
:10290000094B0062C3611830084B98470120084901
:10291000084B9847002010BD11204042FBE7C046FD
:10292000CD2E000098040020D1270000692E000061
:1029300000000020F52D0000064B10B51C69002C8E
:1029400000D110BD2000636800220121984724684F
:10295000F5E7C046BC04002070B505000E00064B2C
:10296000DC68002C00D170BD6368002B02D0310000
:10297000280098472468F4E7BC040020F8B5050057
:102980000E0017000B4B9C68002C01D12000F8BDF5
:102990006368002B01D12468F6E73A003100280073
:1029A0009847002804D00A30F5D001204042EEE7D5
:1029B0000120ECE7BC040020054B10B55C68002C3E
:1029C00000D110BD6368002B00D098472468F6E75B
:1029D000BC04002010B51400002903D0012923D025
:1029E000002010BD1378002BFAD15378052B0FD09F
:1029F000092BF5D1D1789378090219430D4BD9767B
:102A00004A1E91410331997601200B4B9847E7E725
:102A10000A4B90789847E178A378090219434B1E36
:102A20009941044B0231EEE70A00054B21000020DA
:102A30009847D5E7BC04002059290000BD0D0000CF
:102A40007D29000070B5002402260C4B98470C4DE0
:102A500020000C4BAE76EC766C7798470A4B287FBB
:102A600098470A4D21002000094AA8473100094A29
:102A70002000A8472000084B984770BD3929000066
:102A8000BC0400202D0E0000190E0000F10F000004
:102A9000D92A0000D5290000590E000010B50028E1
:102AA00002D0012803D010BD024B9847FBE7024B30
:102AB0009847F8E759290000452A00001FB501ACE6
:102AC000207263722000034B01910292984704B078
:102AD00010BDC046990E0000F7B5B34B00220400AC
:102AE0000D0098470022431C00D15AE10132904268
:102AF00000D156E129781F230A009A4304D0802A86
:102B000000D1B1E000224CE1687801380A28F9D8F8
:102B100000F058FA42F854F80BF8F8F806F85E009E
:102B2000AA78002A05D1A14B984700220123110061
:102B3000CBE09F4D2B6803CB9E4B9847021E00D1E4
:102B40002FE1C37881781B02C91889B241189A4BCA
:102B5000042201919847FF230090009A002AE4D0B4
:102B600096789E4216D02F69002F0AD10098042231
:102B700003780199C018904B00909847330000905B
:102B8000EBE76A46002138007B6898470028EDD0C3
:102B90003F68E9E71E00E9E70229B3D1EE79AB7996
:102BA00036021E43AED131002879844B9847012369
:102BB000320031002000824CA047F1E00229A1D16F
:102BC000EB79AE791B021E439CD128790139ECE7E1
:102BD000EC78AB7824021C432B796D79744E2D026E
:102BE0001D433368F27E03CB724B9847002889D08F
:102BF00004220090C37881781B02C91889B2411859
:102C00006D4F0191B847002800D17BE78378AB4234
:102C100010D1C378A3420DD137690090002F00D1A5
:102C200070E701216A4638007B689847011E08D08A
:102C30003F68F3E70098042203780199C0180090D8
:102C4000E0E77B686A4638009847002800D059E7DB
:102C5000002C04D00122AA40737F13437377002312
:102C60001A0019001800A6E768780A2800D949E771
:102C700000F0B2F9680048FF48FF48FF48FF48FFEE
:102C80000B0048FF600048FF8500E978AA78090238
:102C900011430B0A022B1FD0032B3BD0012B00D07A
:102CA00030E7EB79AA791B0213431D1C122B00D9C4
:102CB00012253F4B01221B68ADB203CB3E4B984718
:102CC0000023011E00D11DE72A0020003C4CA04734
:102CD00042424241D2B264E0AB79ED7901312D023A
:102CE0001D43334BCAB21E7F1B6803CB314B984741
:102CF000011E00D106E7C37882781B02D21892B277
:102D000000239542E0D9013E35406B426B411500EE
:102D1000DBB2D9E7AB79ED79CAB22D021D43244B62
:102D20001E7F1B6803CB274B9847011E00D1E9E6A5
:102D30000278E5E71E49CB7E4A6913704969002392
:102D4000012237E71F23194001290CD9022900D09D
:102D5000D8E62879194B98470022904221DB0123BD
:102D60001840009001E000230093114D02226946B3
:102D7000154B686998470023022269691AE70C4ECF
:102D80006B792A79707F1B0213431841012420407C
:102D90002ED173692200187071690300084DA8478D
:102DA00001221000FEBDC0467D2900003929000027
:102DB000BC040020192F0000E12E0000910F00003C
:102DC000BD2A0000552F0000893000002A00022192
:102DD000200063689847002803DA2468002CF5D1A6
:102DE00090E6736901221870002371691800E2E609
:102DF0003469F3E710B5012809D0002802D0022871
:102E000008D010BD05480430054B9847F9E7034842
:102E10000830F9E701480C30F6E7C046BC04002052
:102E20004D10000070B50A4B0500984700280EDBD6
:102E3000084C2022084B0021200098476561074973
:102E40000020074CA04701200649A047002070BD84
:102E5000310D0000BC0400209B300000B9290000A7
:102E6000990D00009D2A000010B501000248034B97
:102E70001030984710BDC046BC0400204D10000023
:102E800010B50A4B9C7E002C0BD100280CD0026898
:102E90001860D2791A7701229A76054B984720005C
:102EA00010BD04204042FBE70920FBE7BC040020E2
:102EB000A50D000010B5014B984710BDB10D0000E5
:102EC000014B58697047C046BC040020034B987EF4
:102ED0001023184200D018007047C046BC040020E0
:102EE00010B5884201D3002010BD0378012BFAD918
:102EF00044789442F8D0C018F3E7884201D3002008
:102F000070470378012BFAD94278042AF7D0052AB2
:102F1000F6D0C018F1E7000070B50D4B1500022285
:102F20000C00984700280FD170BD0378012B0DD9F4
:102F30004378022B0AD14379AB42F5D0C27883782B
:102F400012029B189BB2C018A042EED30020EBE700
:102F5000E12E000070B50D0016000024A84201D338
:102F6000002070BD03222900054B98470028F8D0A7
:102F70000378012BF4D9B442F3D0C0180134EDE743
:102F8000E12E0000064810B5064B40309847064B2E
:102F90009847064B06489847064B984710BDC046D1
:102FA000DC040020252E0000F5280000812E000002
:102FB00008000020B52E000010B5014B984710BD49
:102FC000852F000002B4714649084900095649009E
:102FD0008E4402BC7047C04603B4714649084000A5
:102FE0004900095E49008E4403BC704710B50023B8
:102FF000002802D000F004F8431C180010BDC046A1
:10300000414208401C2101231B04984201D3000CBB
:1030100010391B0A984201D3000A08391B0998424B
:1030200001D30009043902A2105C401A7047C0465F
:103030001B1C1D1D1E1E1E1E1F1F1F1F1F1F1F1FAF
:1030400070B500260C4D0D4C641BA410A64209D18E
:10305000002600F087F80A4D0A4C641BA410A64213
:1030600005D170BDB300EB5898470136EEE7B300C9
:10307000EB5898470136F2E77031000070310000DC
:103080007031000074310000002310B59A4200D165
:1030900010BDCC5CC4540133F8E70300821893429E
:1030A00000D1704719700133F9E700000E000000ED
:1030B0000E00000000000000000000000000000002
:1030C0000000000000000000000000000C002000D4
:1030D00000000200000000003B00FF01000C002087
:1030E0000000000200000000000500FF01010C00CC
:1030F000300000000200000000001700FF01020085
:1031000003006803000000000000000070170000CA
:103110000000000004006803000000000000000040
:103120007D000000000000005804002000000000A6
:103130004000000018040020D80300204000400098
:10314000980300205803002040004000180300208E
:10315000D80200204000400098020020000000003B
:1031600040000000F8B5C046F8BC08BC9E46704759
:10317000DD000000F8B5C046F8BC08BC9E467047AC
:04318000B500000096
:1031840000000000F526000010000020650000206B
:103194001201000202000040EB03042400010000BD
:1031A4000001090243000201008032090400000109
:1031B400020200000524000110052401010004247A
:1031C400020205240600010705820340000A0904DF
:1031D4000100020A00000007050102400000070583
:0831E400810240000000000020
:00000001FF
