:100000000C947A000C9499000C9499000C9499002B
:100010000C9499000C94F3000C9499000C949900A2
:100020000C9499000C9499000C9499000C949900EC
:100030000C9499000C9499000C94BC000C949900B9
:100040000C9499000C94DA000C9499000C9499008B
:100050000C9499000C9499000C9499000C949900BC
:100060000C9499000C9499000C9499000C949900AC
:100070000C949E000C9499000C9499000C94CB0065
:100080000C9499000C9499000C9499000C9499008C
:100090000C9499000C948C020C9499000C94990087
:1000A0000C9499000C9499000C9499000C9499006C
:1000B0000C9499000C9499000C9499000C9499005C
:1000C0000C9499000C9499000C9499000C9499004C
:1000D0000C94AD000C9499000C9499000C94990028
:1000E0000C9499000C9499000C9499000C9499002C
:1000F0000C94990011241FBECFEFCDBFDFE7DEBF08
:1001000010E4A0E0B0E4EAE1FCE000E00BBF02C0D4
:1001100007900D92A831B107D9F720E4A8E1B0E427
:1001200001C01D92A632B207E1F70E9405010C94AE
:100130000B060C9400000E94050208951F920F9276
:100140000FB60F9211248F9381E08093C3068F9195
:100150000F900FBE0F901F9018951F920F920FB621
:100160000F9211248F9381E08093CB068F910F9093
:100170000FBE0F901F9018951F920F920FB60F92FF
:1001800011248F9381E08093060B8F910F900FBE07
:100190000F901F9018951F920F920FB60F92112477
:1001A0008F9381E08093260B8F910F900FBE0F905D
:1001B0001F9018951F920F920FB60F9211248F93D4
:1001C0008CE080938D0B8F910F900FBE0F901F903E
:1001D00018958091410180FDFCCFE0E4F1E0808141
:1001E0008160808308951F920F920FB60F921124A1
:1001F0008F9386B1886086B981E0809343018F91A7
:100200000F900FBE0F901F9018950E949B000E94A8
:10021000E900789478948EE090E49F938F930E9405
:1002200043030F900F9000002FEF8DE399E42150CE
:1002300080409040E1F700C000000000F4CF109231
:10024000A90080E0089545E868ED8CE790E00E9401
:100250005F0241E868ED80E790E00E945F024CE0B9
:1002600068ED80E890E00E945F0244E268ED88E675
:1002700090E00E945F028091650085FFFCCF80E0E6
:100280000895789480E0089580E008C0E82FF0E0B9
:10029000E05FFB4F9081986090838F5F8830B0F370
:1002A00080E008C0E82FF0E0E05DFB4F90819860AF
:1002B00090838F5F8830B0F380E008C0E82FF0E0D3
:1002C000E05BFB4F9081986090838F5F8830B0F344
:1002D00080E008C0E82FF0E0E059FB4F9081986083
:1002E00090838F5F8830B0F380E008C0E82FF0E0A3
:1002F000E057FB4F9081986090838F5F8830B0F318
:1003000080E008C0E82FF0E0E055FB4F9081986056
:1003100090838F5F8830B0F30895E7E7F4E0808141
:10032000887F846080838081877F8083E5E7F4E035
:100330008081887F846080838081877F80830E9422
:100340004F02089584B18D7F84B9E1E3F4E08081A8
:10035000877F808385B18E7F85B984B1816084B9C0
:100360000E94170308950E943E020895E1E7F4E019
:100370008081887F846080838081877F80830E94E2
:1003800033030895E3E9F4E08081887F846080830B
:100390008081877F80830E943B03089580B18F7D99
:1003A00080B9E5E1F4E08081877F808381B18F7E31
:1003B00081B980B1806180B981B18F7B81B980B111
:1003C000806480B90E947702089588B18D7F88B9D2
:1003D000E1E5F4E08081877F808389B18E7F89B9F0
:1003E00088B1816088B989B18B7F89B988B184600F
:1003F00088B90E94800208950E94E30208950E9435
:10040000F50208950E94010308950E94440181B1FC
:100410008F7781B980B1806880B985B1877F85B9D0
:1004200084B1886084B989B1886089B988B18860ED
:1004300088B98DB18B7F8DB98CB184608CB90E94E5
:100440008D010E9423010E94A2010E94B3010E941B
:1004500075020E9441010E94B6010E94C2010E94E1
:10046000CE010E94E5010E9464020E94FC010E94EC
:10047000FF010E9402020E941F010895E0E0F2E0E5
:1004800080E3808B81E3818B91E096AF82E0809363
:100490004202909348028093490280E00895E0E090
:1004A000F7E081E0808387E182838FE7848F85E8AE
:1004B000808F89EE828F84E1838F80E008951BBE58
:1004C000FC0164BF40830895809141018111FCCFFC
:1004D000E0E4F1E088EA80838FEF91E08287938700
:1004E000178281E0828380E0089580E00895E0E44F
:1004F000F9E081E2808381E0828310921F400895B9
:10050000E0E6F9E081E2808381E08283E8E1F0E4E3
:1005100010821582168208951F920F920FB60F92C5
:1005200011240BB60F922F933F934F935F936F93CA
:100530007F938F939F93AF93BF93EF93FF93E0E6E7
:10054000F9E0948180E8838380911C40823029F017
:10055000E0911940F0911A409083E8E1F0E4A18124
:10056000B2819D012F5F3F4F21833283813019F08B
:1005700011969C9101C090E0E8E1F0E48381815004
:100580008383882319F0909364090AC0E8E1F0E4BA
:1005900083E080830580F681E02D309709F009958E
:1005A000FF91EF91BF91AF919F918F917F916F914B
:1005B0005F914F913F912F910F900BBE0F900FBE07
:1005C0000F901F901895E0E0FBE08FEF9FEF84877E
:1005D00095878287938783E4818381E08087848302
:1005E000858381E4808380E00895E0E2FBE083E49A
:1005F000818381E080878483858381E4808380E0B8
:100600000895E0E8FBE08FEF9FE080A791A784A723
:1006100095A785E1808781878CE0848780918E0B08
:1006200080FFFCCF81E28093800B80E00895E0E6BC
:10063000F8E081E493E08087918780EC868380E016
:1006400090E4809322409093234080E0089590911D
:10065000640895FFFCCF8093620808950E942703E9
:1006600080E090E00895E0ECF6E081E8808381E0AE
:10067000828380E00895E8ECF6E081E8808382E000
:10068000828380E00895CF93DF93CDB7DEB7AE01CC
:100690004B5F5F4FFA0161917191AF0180912240F0
:1006A000909123400E945703DF91CF9108952F929C
:1006B0003F924F925F926F927F928F929F92AF92F2
:1006C000BF92CF92DF92EF92FF920F931F93CF933F
:1006D000DF93CDB7DEB72B97CDBFDEBF6C017B01BB
:1006E0008A01FC0116821782838181FFCCC1CE0171
:1006F00001963C01F6019381F70193FD859193FFEB
:1007000081917F01882309F4BAC1853239F493FDC0
:10071000859193FF81917F01853229F4B60190E0A4
:100720000E947105E7CF912C212C312CFFE1F315AC
:10073000D8F08B3279F038F4803279F08332A1F43A
:10074000232D20611DC08D3261F0803369F4232D8B
:10075000216016C0832D8260382EE32DE4603E2E8A
:100760002AC0F32DF8601DC037FC2DC020ED280FE6
:100770002A3040F08E32B9F436FC81C1232D20643A
:10078000322E19C036FE06C08AE0989E200D112434
:10079000922E11C0EAE02E9E200D1124222EF32D60
:1007A000F0623F2E08C08C3621F4832D8068382EED
:1007B00002C0883641F4F70193FD859193FF819142
:1007C0007F018111B3CF982F9F7D9554933028F4EA
:1007D0000C5F1F4F9FE399830DC0833631F0833741
:1007E00071F0833509F059C021C0F80180818983F7
:1007F0000E5F1F4F88248394912C530113C028014E
:10080000F2E04F0E511CF801A080B18036FE03C00B
:10081000692D70E002C06FEF7FEFC5010E94660591
:100820004C018201F32DFF773F2E16C0280122E0F4
:10083000420E511CF801A080B18036FE03C0692D24
:1008400070E002C06FEF7FEFC5010E945B054C01B5
:10085000F32DF0683F2E820133FC1BC0822D90E007
:1008600088169906B0F4B60180E290E00E94710506
:100870002A94F4CFF50137FC859137FE81915F0111
:10088000B60190E00E94710521102A9421E0821A9D
:1008900091088114910471F7E8C0843611F089360B
:1008A00041F5F80137FE07C0608171818281938133
:1008B0000C5F1F4F08C060817181072E000C880BF0
:1008C000990B0E5F1F4FF32DFF763F2E97FF09C048
:1008D00090958095709561957F4F8F4F9F4FF068F1
:1008E0003F2E2AE030E0A3010E94AD05882E861835
:1008F00045C0853731F4232D2F7EB22E2AE030E01B
:1009000025C0932D997FB92E8F36C1F018F4883504
:1009100079F0B5C0803719F0883721F0B0C0E92FE1
:10092000E061BE2EB4FE0DC0FB2DF460BF2E09C0E9
:1009300034FE0AC0292F2660B22E06C028E030E01F
:1009400005C020E130E002C020E132E0F801B7FE4E
:1009500007C060817181828193810C5F1F4F06C047
:100960006081718180E090E00E5F1F4FA3010E94C3
:10097000AD05882E8618FB2DFF773F2E36FE0DC065
:10098000232D2E7FA22E891458F434FE0BC032FC86
:1009900009C0832D8E7EA82E05C0B82CA32C03C0C1
:1009A000B82C01C0B92CA4FE0FC0FE01E80DF11D4A
:1009B0008081803321F49A2D997EA92E09C0A2FE50
:1009C00006C0B394B39404C08A2D867809F0B3941A
:1009D000A3FC11C0A0FE06C0B21488F4280C922C0F
:1009E0009B180EC0B21460F4B60180E290E00E9441
:1009F0007105B394F7CFB21418F42B1802C0982CD9
:100A0000212CA4FE10C0B60180E390E00E94710585
:100A1000A2FE17C0A1FC03C088E790E002C088E5F1
:100A200090E0B6010CC08A2D867859F0A1FE02C074
:100A30008BE201C080E2A7FC8DE2B60190E00E944B
:100A40007105891438F4B60180E390E00E947105C5
:100A50009A94F7CF8A94F301E80DF11D8081B601D5
:100A600090E00E9471058110F5CF222009F442CE5A
:100A7000B60180E290E00E9471052A94F6CFF6015B
:100A80008681978102C08FEF9FEF2B96CDBFDEBF8F
:100A9000DF91CF911F910F91FF90EF90DF90CF905A
:100AA000BF90AF909F908F907F906F905F904F908E
:100AB0003F902F900895FC01059061507040011007
:100AC000D8F7809590958E0F9F1F0895FC01615077
:100AD000704001900110D8F7809590958E0F9F1F60
:100AE00008950F931F93CF93DF93FB01238121FD83
:100AF00003C08FEF9FEF2CC022FF16C046815781A5
:100B0000248135814217530744F4A081B1819D01AE
:100B10002F5F3F4F208331838C93268137812F5F56
:100B20003F4F2683378314C08B01EC01FB01008407
:100B3000F185E02D0995892BE1F6D80116968D9166
:100B40009C911797019616968D939C931797CE01BB
:100B5000DF91CF911F910F910895FA01AA272830B4
:100B600051F1203181F1E8946F936E7F6E5F7F4F7A
:100B70008F4F9F4FAF4FB1E03ED0B4E03CD0670FF6
:100B8000781F891F9A1FA11D680F791F8A1F911D49
:100B9000A11D6A0F711D811D911DA11D20D009F499
:100BA00068943F912AE0269F11243019305D3193DB
:100BB000DEF6CF010895462F4770405D4193B3E0C4
:100BC0000FD0C9F7F6CF462F4F70405D4A3318F06B
:100BD000495D31FD4052419302D0A9F7EACFB4E01C
:100BE000A6959795879577956795BA95C9F70097D4
:100BF0006105710508959B01AC010A2E0694579575
:100C0000479537952795BA95C9F7620F731F841FCB
:0A0C1000951FA01D0895F894FFCF72
:100C1A0000000002000000002E03000000006865CA
:080C2A006C6C6F200A0D000044
:00000001FF
