S0180000414446353631305F53414D445F4C49422E73726563BB
S113000008250020BD0A0000B90A0000B90A000052
S113001000000000000000000000000000000000DC
S1130020000000000000000000000000B90A000009
S11300300000000000000000B90A0000B90A000036
S1130040B90A0000B90A0000B90A0000B90A0000A0
S1130050B90A0000B90A0000B90A0000B12500007D
S1130060B90A0000B90A0000B90A0000B90A000080
S1130070B90A0000B90A0000B90A0000B90A000070
S1130080B90A0000B90A0000B90A0000B90A000060
S1130090B90A0000B90A0000B90A0000B90A000050
S11300A0B90A0000B90A0000B90A0000B90A000040
S11300B00000000010B5064C2378002B07D1054B37
S11300C0002B02D0044800E000BF0123237010BDC0
S11300D0700000200000000068610000084B10B5AB
S11300E0002B03D00749084800E000BF0748036815
S11300F0002B00D110BD064B002BFBD09847F9E72D
S113010000000000740000206861000068610000C5
S1130110000000007047000010B50400D42149001D
S1130120014B9847200010BDCB25000010B50128D5
S113013000D010BD064B9942FBD1064C0649200065
S1130140064B9847064A07492000074B9847F0E7B3
S1130150FFFF00008C000020EC0400200D0C0000C8
S113016000000020190C0000BD25000030B5164B1E
S1130170083303600022154B8260C36000239E2273
S11301805200835001211C328150114A0261AE2277
S11301905200835400240F4D8461C56100240E4D28
S11301A00462456202004932FF3200240B4D1460A0
S11301B05560083280242406044D1460556076226C
S11301C0FF32835430BDC046CC5F00000020AC40F9
S11301D08C0000200024AC40001CAC400000503FC8
S11301E030B583B0050001A80B4B9847C022D20557
S11301F010680A4B1B6A14695C4004405C4001A807
S1130200074B984740202040431E9841C0B2AE237C
S11302105B00E85403B030BDD10E0000004400413F
S1130220DF0E000010B50020032807DC03231B1A8F
S1130230DB001400DC400C540130F5E710BD0B006A
S113024020339B00C3185B680A3189000B50704748
S113025000230EE01A0038329200022111501A00D5
S11302603832920011581A002032920082185160DC
S11302700133162B66DC5FD89A0033498A589746B7
S11302801A003832920001211150E8E71A0038327E
S1130290920031211150E2E71A00383292002B49C2
S11302A01150DCE71A003832920000211150D6E7D1
S11302B01A003832920026491150D0E71A00383219
S11302C0920024491150CAE71A0038329200224998
S11302D01150C4E71A003832920020491150BEE789
S11302E01A00383292001E491150B8E71A00383209
S11302F092001C491150B2E71A0038329200812151
S11303001150ACE71A003832920020211150A6E7B0
S1130310F42281581A003832920011509FE71A00D3
S1130320383292001049115099E71A00383292007D
S1130330E4218900115092E71A003832920000211A
S113034011508CE77047C046205F0000A370FD0089
S11303504A2F00004D210000FFBEC900FF3F0000EE
S11303604720000061800F0008BE000070B5050042
S11303700024132C05DCE1B22800024B9847013419
S1130380F7E770BD3F02000070B506000D001400D1
S1130390002916D0002A16D0914209DB110028004A
S11303A00A4B98470A0021003000FFF7EDFF09E0EF
S11303B01000064B98470A0029003000FFF7E4FFBD
S11303C000E0100070BD0800FCE7C04601420000D8
S11303D0F0B5DE4657464E464546E0B589B00400C2
S11303E00022B0235B00C25006005136FF369C4BFE
S11303F098463268736800209A49C0479A4B9847D8
S11304009A4A9B4BC0479B4B98479B4B9847072561
S11304102D1AEBB29B4677683668984B98470200D2
S11304200B0000208021C905954DA84702000B0050
S11304309449894630003900C8470022894BC04797
S11304400022914BC8470090019100228F4B904E9F
S1130450B04700285CD000228E4B02920393804F59
S1130460029A039B00980199B847824B984705006C
S11304700E000495059623008933FF3301003200F2
S113048019605A607F4B9946029A039B28003100F9
S1130490C84723007933FF33069007910A0001000F
S11304A019605A60744E02980399B0470500009889
S11304B00199B04701002A002000774B98476F4B01
S11304C0984702000B0021008131FF310A604B6024
S11304D002980399B847714B984698470600D2236F
S11304E05B00E050069A079B009801996C4DA84761
S11304F000226C4BC847029A039BB8476A4B984743
S1130500C0478146D0235B00E0500027DA4610E064
S11305100022664B02920393A1E704980599564B77
S113052098470002000A3B0020339B00E318586000
S11305300137162F00DD8CE0FB1E132BF8D89B002F
S11305405B4AD3589F464B461A02120A3B0020339B
S11305509B00E3185A60EBE73B0038339B001A59C1
S11305603B0020339B00E3185A60E1E70022474B2D
S113057000980199464DA847002808D03B00203335
S11305809B00E3184B4A59680A405A60D0E73B0085
S113059020339B00E3188022120359680A435A60EF
S11305A0C6E7B204920C3B0020339B00E3185A6068
S11305B0BEE79823E258C833E2503B0020339B0047
S11305C0E3185A60B4E73B0038339B001A593B00E8
S11305D020339B00E3185A60AAE70323554622E020
S11305E0D91E02220A41D20709D5012199403A00B5
S11305F020329200A21850680143516012E0012198
S113060099403A0020329200A21850688843506002
S113061008E0012199403A0020329200A218506863
S11306208843506001330F2B11DC062BD8DDDA1F11
S1130630290011410A00D207EBD5012199403A0063
S113064020329200A218506801435160EAE7AA469A
S11306506EE709B03CBC90469946A246AB46F0BD55
S1130660E54800000084CC4039280000EF39FAFE48
S1130670422EE63F09270000B95C0000215D00001E
S1130680492900004D5100000084BC400040AF40A7
S113069039420000000049408903000089420000FB
S11306A04D56000000007041DD2500000000594057
S11306B07C5F0000FFFFF7FF10B5014B984710BDAA
S11306C0D103000010B50800074B994203DC012058
S11306D0064B984710BDFA218900054B984780B214
S11306E0024B9847F6E7C046CF070000010F000011
S11306F03540000070B504000D000023B222520002
S11307008354283A835013291ADD162913DD172937
S11307100CDD182904D00322B2235B00C25412E07A
S1130720393AFF3AB2235B00C2540CE00322B223ED
S11307305B00C25407E00522B2235B00C25402E00E
S1130740B2235B00E154B2235B00E35C103BDBB2F9
S1130750032B00D870BD00212069194EB047B22385
S11307605B00E25CD2002035AD0065196B681B02AA
S11307701A439E235B00E25025007135FF352900A2
S11307802000104B98470422290020690E4B9847FB
S1130790012120000D4B984701212069B047AE2369
S11307A05B00E35C002BD5D101212000074B984767
S11307B0B2235B00E15C2000054B9847CAE7C046C2
S11307C0750C000025020000550C0000C506000051
S11307D03F02000070B505000C000DE01626132E34
S11307E005DDF1B228000D4B9847013EF7E70521DE
S11307F028000A4B98470134132C06DC052CEDD055
S1130800E1B22800054B9847F5E703212800034C83
S1130810A04704212800A04770BDC046F50600008B
S113082070B50400002120000D4B984720000D4BAB
S11308309847E36A590801221A40534253410B4036
S11308407625FF3563556420074B98472000074BF6
S11308509847635D0028E5D0002BE3D0180070BDF5
S1130860D50700006D030000010F0000E101000046
S113087010B5040005482061054B98472000054B3E
S113088098472000044B984710BDC0468C000020B8
S11308901D0C0000510200002108000070B5050085
S11308A01621044CA04714212800A0470521280044
S11308B0A04770BDF506000070B504000821064D80
S11308C0A8472000054B984703212000A84704218E
S11308D02000A84770BDC046F50600009D08000032
S11308E0F0B5D6464F464646C0B582B007008946A5
S11308F00122AC235B00C2500023984628E0012269
S113090052425833FF33FA50AC235B00F858574B2C
S11309109847009A019B564EB04702000B002000F6
S11309202900544CA0473B005133FF3318605960F1
S11309303800514B98473800504B9847FA218900AA
S113094038004F4B98470023984601204D4B984759
S1130950BD68FE6801236A4613702A003300386AB2
S1130960796A494CA047002802D100236A461370D3
S11309706B461B789A460124BA69FB69280031004A
S1130980414EB047002800D10024534623401C1E8A
S113099063D04B46002B61DD38003C4B9847041E66
S11309A03AD00122AE235B00FA543B005133FF33AB
S11309B01C685D68BC60FD60083B1A685B68009257
S11309C00193B869F969324EB04702000B00200068
S11309D02900304EB047002804D0AC235B00FB58FC
S11309E0012B8CD03A6A7B6A00980199214EB0475A
S11309F002000B0020002900274EB047002800D138
S1130A0082E7AC235B00FB58013300D07CE7012272
S1130A10AC235B00FA5077E701239C46E0445C3347
S1130A20FF33FB5C002B03D00022AE235B00FA549F
S1130A303800114B984700213800184B9847012380
S1130A40172B01DC0133FBE7154938000C4B9847A1
S1130A504346642B00DC78E700E00124200002B068
S1130A601CBC90469946A246F0BDC046215D0000DC
S1130A704D510000C5420000B9060000B90800004D
S1130A80C5060000010F00004D420000E101000016
S1130A904D5600006142000039420000D5070000B5
S1130AA0A086010010B502490120024B984710BDF1
S1130AB0FFFF00002D010000FEE70000F8B5234A07
S1130AC0234B9A4209D0224B204A03E01168196053
S1130AD0043304321F498B42F8D31F4B02E0002237
S1130AE01A6004331D4A9342F9D31D4AFF211D4B5A
S1130AF08B439360FD3990235B001B4AD1501B4A02
S1130B00D3780325AB4302242343D370D3780C2733
S1130B10BB4308263343D370154B987B3022904354
S1130B20202210439873997BB943314399739A7B7C
S1130B30AA4322439A730F4A516880230B4353609C
S1130B400D4B98470D4B9847FEE7C046686100007F
S1130B50000000206C00002070000020040500202C
S1130B6000ED00E000000000007000410050004172
S1130B700048004100400041095E0000BD0B000038
S1130B8010B5012800D010BD064B9942FBD1064C8C
S1130B902000064B9847064A06492000064B984712
S1130BA0F1E7C046FFFF0000B00000206D01000027
S1130BB00000002015010000BD25000010B5094B00
S1130BC098470948094B9847074C01212000084BD6
S1130BD09847FA208000074B98472000034B98471A
S1130BE0F2E7C0468D0C0000B00000207108000040
S1130BF0E1080000010F000010B502490120024B7A
S1130C00984710BDFFFF0000810B0000C160014B3D
S1130C1018607047580200207047000010B50400A7
S1130C2001001031C068084B9847E068074B9847AB
S1130C30074B04336360A360E3685A1E9341DBB23D
S1130C4023702078C0B210BD99100000B10F0000CD
S1130C505802002010B504000123037692B2006903
S1130C60034B984703005A1E9341237610BDC04698
S1130C70210F0000002904D18022C023DB055A6122
S1130C8070478022C023DB059A61F9E710B5014B58
S1130C90984710BD850E0000F0B5C64600B5C022C9
S1130CA0D205102353619360254B26499962C021D4
S1130CB009068C4699624420195C0127B943012630
S1130CC03143C9B219543221585C0F25A843032477
S1130CD0A04644462043C0B258542020506190603E
S1130CE0194898626046986245208446185CB84367
S1130CF03043C0B264461855585C363C204030241A
S1130D00A44664462043C0B258540E3151600F4A81
S1130D109A620F4A9A624622995C0420814399544C
S1130D20995CB9433143C9B2995433215A5CAA43FB
S1130D3040460243D2B25A5404BC9046F0BDC04669
S1130D4000440041100000402000004040000240E8
S1130D50000002C0044A136A04210B431362034ACD
S1130D60034B5A807047C046000400401440000002
S1130D70000C004010B5044B984704490448054B47
S1130D809847054B984710BD550D000000080042D8
S1130D90EC040020590F0000990C000010B5024823
S1130DA0024B984710BDC04610E000E0ED0E000075
S1130DB0F0B5C64600B5C024E40580225204A26002
S1130DC01C4B8027FF059F621B4999626261582072
S1130DD0195C0422904691431954195C0126B143CD
S1130DE001252943C9B219541C38195C0B329143AB
S1130DF00622944662461143C9B2195480218904DB
S1130E00A1609F620D4F9F62616159215C5C424603
S1130E1094435C545A5CB2432A43D2B25A541A5C87
S1130E204A390A4060210A43D2B21A5404BC90469B
S1130E30F0BDC04600440041000100C0000200C0F3
S1130E40064BDA6920210A43DA615A6920310A43E0
S1130E505A61034A034B5A807047C046000400405D
S1130E6006400000000C004010B5034B9847034BAC
S1130E709847034B984710BD410E0000151300001E
S1130E80B10D000010B50C4B9847C023DB05802240
S1130E909A619A60094B0A4A9A62C02212069A62BF
S1130EA047215A5C012082435A54064B9847064B0B
S1130EB09847064B984710BD951300000044004125
S1130EC080000040750D00009D0D0000690E0000BB
S1130ED0EFF31083036072B6BFF35F8F7047BFF305
S1130EE05F8F036883F310887047000010B5024BCE
S1130EF01860024B984710BD7C020020E9170000DF
S1130F0010B5044B1C68044B984701002000034BA8
S1130F10984710BD7C02002089130000F5170000DB
S1130F2070B504000D00160000280ED000290AD068
S1130F30012034220649074B9847236832002900D0
S1130F402000984770BD0020F3E70020F1E7C04679
S1130F50DC5F00008113000070B504000D00002860
S1130F6017D0002913D0012040220B490B4B98477E
S1130F706560201D29000A4B9847002806DB094BB1
S1130F80A382094B2361094BE360002070BD00205C
S1130F90EAE70020E8E7C046F05F000081130000A4
S1130FA0351400000080FFFF5D10000021100000D8
S1130FB010B50400431E9841C0B257220349044BA4
S1130FC09847201D034B984710BDC046F05F0000B2
S1130FD0811300003116000030B587B004000D0005
S1130FE0002815D0002911D00120B32209490A4B49
S1130FF098472B6803936B680493AB68019305933C
S1131000201D03A9054B984707B030BD0020ECE72D
S11310100020EAE7F05F000081130000651600007D
S113102070B584B004000E001500431E9841C0B290
S1131030A3220749074B984720000C38002302934A
S11310400196039501A9044B984704B070BDC046AE
S1131050F05F000081130000D90F000070B584B068
S113106004000E001500431E9841C0B287220749B0
S1131070074B984720000C380296002301930395F0
S113108001A9044B984704B070BDC046F05F00004E
S113109081130000D90F000070B504000D00002872
S11310A00CD0002908D00120BD220549054B9847E2
S11310B00C342C60002070BD0020F5E70020F3E71D
S11310C0F05F00008113000010B50100002001E072
S11310D0013040B203280FDC4201094B9B185A78B7
S11310E08A420BD04301064C1B5D002BF0D10F3319
S11310F00B409342ECD101E00120404210BDC046B8
S1131100800200200020704770B504000D00084BD9
S113111098474201074B9B189B78032B01D0002072
S113112070BD044B98188369290020009847F7E79D
S1131130C910000080020020F0B587B005000F0040
S113114001924A4B984704004601494A9619002FD8
S113115051D1130042010020F070D35C002B0ED05B
S11311606201434B9B1801229A706401404B1C1985
S1131170E369E178019A2800984707B0F0BDB37895
S11311800C243457032B08D032000C327078002121
S1131190F36998470223B370EFE7707832000C329A
S11311A00121F3699847002810D00523B370033B4D
S11311B0F370002C08DB7378802040421843C0B2DF
S11311C001212C4B9847D8E77078F9E70423B370D2
S11311D07178002203920492002C09DB843B0B43B8
S11311E0DAB203A8027201234372234B9847C4E77F
S11311F00F220A40F5E7012F0AD0022F1DD0032F3A
S11312002CD042011A4B9B1806229A70DA70ACE774
S1131210174B420199180220C870D35C002B05D0EB
S11312206201134B9B1805229A709EE702228A7072
S1131230002128000F4B984797E70D4B420199185E
S11312400420C870D35C002B05D06201084B9B18A6
S113125001229A7089E702238B708EE74201044BC6
S11312609B1800229A700532DA707EE7C9100000DC
S113127080020020D9210000A9230000F0B5C64651
S113128000B505001F4B98470600430108331E4C68
S1131290E4180434210028001C4B9847C0B20828E5
S11312A00CD0012128001A4CA0478020404228433A
S11312B0C0B20121A04704BC9046F0BD0021280023
S11312C0134B9846984780277F422F43FFB2002153
S11312D03800C04772010C4B9B1801229A705B695D
S11312E02100280098470028E5D17601064B9E1975
S11312F00523B37001212800054CA04701213800C3
S1131300A047D8E7C9100000800200203123000064
S1131310D921000010B5124B984700281EDB80220B
S113132000211048104B984700220AE051010D4B50
S11313305B18FF2159700D4959619961D9610132D6
S1131340D2B2032AF2D90A4900200A4CA0470A491A
S11313500120A04709490220A047002010BDC04633
S11313603521000080020020775E00000511000096
S11313707D120000812500000911000039110000D0
S1131380002800D100BE70476423584383001B1813
S11313905800704710B5064B5A685A60054B984779
S11313A0054B9847054B9847FF20054B984710BDC0
S11313B000400041E513000079170000C517000044
S11313C0C5130000C3070AD5054B802252009A605A
S11313D0832252025A60024B5B78DB09FBD17047CF
S11313E0000C0040064B1A7AD2B21A725A7AD2B260
S11313F05A729A7AD2B29A72DA7AD2B2DA7270479E
S113140000040040024B9C466044800AC0B270470E
S113141000F8FFBDC369DB0708D403680222134345
S11314200360C3699B07FCD100207047042040423D
S1131430FBE7000070B506000C000800714B9847EC
S11314400023002B00D184E00025002E00D18DE084
S1131450002C00D188E001206B4A6C496C4B984702
S1131460002D00D1CBE0E369DB0721D42A786B7827
S11314701B021343AA7812041343EA7812061A4390
S11314801C231A40E3699B07FCD123689B0709D5F9
S1131490236802218B432360E3699B07FCD1E36942
S11314A09B07FCD4012313432360E3699B07FCD10E
S11314B0E369DB07FCD434602B786A7812021A43A0
S11314C0AB781B041A43EB781B0613431C2213400E
S11314D0082B4DD0002C00D18DE0002D00D188E0E8
S11314E001204C4A49494A4B98472B786A781202A2
S11314F01A43AB781B041A43EB781B061343464A82
S113150013402360E3699B07FCD12B796A791202AB
S11315101A43AB791B041A43EB791B0613433F4A66
S113152013408022920213436360E3695B07FCD19A
S11315302B7B23736A7B3023E2542B795B075CD1CA
S113154001233371AA7BEB7B1B021343F38000203E
S113155070BD002802D00133DBB272E71D01EA1826
S11315602F4D3C35AD1870E7002075E7002073E778
S1131570002C3CD0002D38D001202A4A2349244B8A
S113158098472B786A7812021A43AB781B041A43E3
S1131590EB781B061343204A13402360E3699B073F
S11315A0FCD12B796A7912021A43AB791B041A43D2
S11315B0EB791B0613431C4A13401C4A1343636014
S11315C0E3695B07FCD12B7A6A7A12021A43AB7A7D
S11315D01B041A43EB7A1B06134363626A7B3023B2
S11315E0E254E369002BFCD1A7E70020C5E7002003
S11315F0C3E7002075E7002073E70223A1E70D206D
S11316004042A5E705140000250900005C600000C5
S113161081130000EF080000FCFEFFFFBF1DFDFF6B
S11316200C60000003090000BFDDFDFF4002020062
S113163010B5041E0ED00368002B09D00120982297
S113164012010549054B98472068054B984710BD82
S11316500020F4E70020F2E75C6000008113000042
S113166015140000F0B5CE46474680B589B08146D2
S11316700D0004680B6803934B68049300230593DF
S113168006930679002814D0002C10D00120374A84
S11316903749384B9847E3695B0764D1E3699B0793
S11316A0FCD123689B0720D41420404256E000203C
S11316B0EDE70020EBE700222DE0487800024746E2
S11316C00743B84602310391013205924246A262B1
S11316D05BB2002B35DB002000283ADB0598AB68B1
S11316E0984202D3069A934233D9237EDBB25A0737
S11316F0E1D5A16A049A002A08D0501C0490117004
S1131700012E03D9901C0490090A5170069A019283
S1131710013206920122002ADAD10699059A9142F1
S1131720D6D34946C888D907D2D50399002906D00B
S1131730481C039008788046012EBED8C4E7804632
S1131740C2E701235B426383813323761320404243
S1131750C2E7237E9B07FCD00323237609B00CBC8D
S113176090469946F0BD04204042F7E7850A000000
S11317705C600000811300000F4B196A090C1A6A9F
S1131780920F920709040D4801400A430C490A4389
S11317901A629A6902210A439A611A7F1D310A402A
S11317A01A77054BDB681B07FBD5034A136A8021B4
S11317B00B4313627047C046000800400000FF0F4F
S11317C002030000024A936902218B43936170472C
S11317D000080040024B034A5A6005221A60704711
S11317E010E000E0FFFFFF0010B5014B984710BD6B
S11317F0D5170000080E0BE00B4B0C48586098609E
S1131800094B1B68DB03FBD5094B9C466144100064
S1131810421ED2B20028EFD1034B59609960024BAB
S11318201B68DB03FBD5704710E000E0FFFFFF00FF
S1131830010000FF00207047124B1A68530B1F2150
S11318400B40900C0140D00D072202401F2B12D0F8
S11318501F2912D0072A12D09B010B4312031343F2
S1131860094A1385D37803210B43D370D3780C2111
S11318700B43D37070471A3BEAE70239EAE7023AAE
S1131880EAE7C046246080000050004170B5837CC4
S11318900F221340C17C083A0A40012A0DD01A00D5
S11318A00832520119498C4662441021D1715B01FE
S11318B0174A94466344197070BD4A060CD5C27C1D
S11318C040218A43C2741A00083252010F4CA446C4
S11318D06244802414715171C27C08218A43C27409
S11318E00C495A018C180025A572A57608335B01B2
S11318F0064CA44663446F24DC71054B9C46624449
S113190014708B6E807C9847D6E7C0460050004127
S1131910085100410003002010B5827C0F231340BE
S113192020228A40D2B25B0105498C4663441A7076
S1131930044B1B6F8268807C0121984710BDC04610
S1131940085100410003002010B5837CFF2B02D016
S1131950C27C520600D410BDC27C4024A243C2748F
S1131960024A146F82681800A047F4E700030020BD
S1131970F0B583B0847C0F232340184D2E8801AD2D
S11319802E80FF2C1ED0C47C64061BD500291BD0DE
S11319901C0008346401124DAC4664448025257152
S11319A001AD6E5C1C00083464010D4FBC466444F8
S11319B0E671695C5B010B4CA44663441970110029
S11319C0094B984703B0F0BD1C0008346401044D72
S11319D0AC46644440256571E2E7C0467860000087
S11319E0005000410851004149190000F0B583B08E
S11319F0837C0F2213403C4A948801AA14805A0124
S1131A003A4CA418002933D01A0008325201384D38
S1131A10525D120907251540C27C072616400A01AB
S1131A20A218947AE4B2022D2AD0A40744D5947A59
S1131A300225AC43947201AC655C1A000832520171
S1131A402B4FBC466244D571625C5B01294CA446B1
S1131A5063441A70012E45D1C37C5B0642D5C37C16
S1131A60DB0999423ED000221900234B984739E004
S1131A701A00083252011E4D555D07221540CBE76E
S1131A80E507D2D5947A0125AC43947201AC655C28
S1131A901A0008325201164EB4466244D571625C93
S1131AA05B01144CA44663441A704B1E9941C9B29D
S1131AB00422114B984715E05A00521812010B48A2
S1131AC082180020907201A8445C1A000832520166
S1131AD0074DAC466244D471425C5B0105498C46B7
S1131AE063441A7003B0F0BD786000000003002066
S1131AF000500041085100417119000070B50025E3
S1131B0018E0104C6034AE0073199800103020189F
S1131B10043003210C4B984772199300E3182633C1
S1131B20FF221A707619B300E418273400232370B7
S1131B300135EDB2082DE4D9602200210148034BA0
S1131B40984770BD0003002049190000775E00002B
S1131B50F0B5C64600B505000E00837C0F241C407A
S1131B606201564B9B18002958D059698904890C85
S1131B702B8A534A934253D0013B1BB20B40EA7C5D
S1131B8007271740002E07D02200083252014D4883
S1131B90844662440220D071AA6894466144A960D4
S1131BA06A6891424ED292B28BB2D21A92B2EB7C54
S1131BB09B0637D52B8A98469A4200D890462B68C4
S1131BC09C4661444246E8683F4B9847E968620195
S1131BD03A4B9B1819616301384AD218516943463C
S1131BE09B049B0C890B89030B4353615169374B4D
S1131BF00B405361002E07D1012F5DD04A226301AF
S1131C0033498C4663441A70083464012D4B9C4656
S1131C1064448023637104BC9046F0BD0021A7E7AF
S1131C201BB2ABE780239B019A4207D890462B68EE
S1131C3059186201214B9B181961CCE780239B0141
S1131C409846F4E7EA7CD2060FD5EB7C1022934346
S1131C50EB746201194B9B185A69920B91035961F9
S1131C6059691A4A0A405A61C4E7012F0DD0640128
S1131C70184A944664444A2222702A8A93420BD01A
S1131C8000212800144B9847C5E76401114A944683
S1131C9064444B222270F0E7EB7C40229343EB74C4
S1131CA0064BDB6EA87CA96898470028B3D1EB7C6F
S1131CB040221343EB74E3E74E22A0E70003002025
S1131CC0FF03000000500041655E0000FF3F00F08C
S1131CD0095100410851004149190000F8B5DE4698
S1131CE057464E464546E0B504000F00837C0F2559
S1131CF01D40002959D06A01714B9B185B681B0178
S1131D009B0C9A46002F53D06A016D4B9B185B685D
S1131D109B049B0C9846268A6A4B9E4201D0013E46
S1131D20B6B2434633409B46E37C07221A409146B1
S1131D30002F07D02B0008335B01634A94466344A9
S1131D400122DA71E37C9B0611D56268002A0ED069
S1131D5092B22389D21A92B22368A1688C46634452
S1131D601800E168934500D25A46584B9847636877
S1131D70002B20D1E27CD2061DD5E37C10229343B4
S1131D8020221343E3744E496A01E3685350238AC3
S1131D908A1851689B041B094D4801400B4353604A
S1131DA053689B0B9903516047E000239A46A9E7C7
S1131DB000239846AFE7002F1DD0228A93451AD2FC
S1131DC0E37C10229343E374A3684344A3604B462B
S1131DD0012B66D06B013F4A9446634425221A7056
S1131DE0002D03D16D01364BE268EA50002120003A
S1131DF0394B984733E0A2685244A2609342E6D933
S1131E009BB291B25B1A9BB2E17C89062DD5218AE3
S1131E108B4200D81900E0686B01294A98506B0185
S1131E202748C01842688B041B0929490A401343F8
S1131E30436043689B0B9A034260002F08D14B46D2
S1131E40012B35D025226B0124498C4663441A703A
S1131E5008356D011C4B9C46654440232B713CBCEA
S1131E6090469946A246AB46F8BD218A8B420BD9CF
S1131E70802189018B420FD8B343190023689A1833
S1131E806B010F481A50CAE78B4208D2E17C20202C
S1131E900143E1741900F1E780218901EEE719009B
S1131EA0ECE76B010B4A944663442D221A7097E7C2
S1131EB06A01034B9B1800229A762D32C3E7C04671
S1131EC000030020FF03000000500041655E000095
S1131ED0FF3F00F008510041491900000951004139
S1131EE070B5894B1D8CADB2002D01D00024BFE02C
S1131EF0998B1B8B0B405A070DD49A0515D41A06DF
S1131F0037D470221A423ED11A0757D4DB0700D5C2
S1131F1068E0002306E004227B4B9A837B4B1B6E14
S1131F2098470123002BE1D070BD774B784A9A8300
S1131F309A82923AFF3A1A830023012B12D858014D
S1131F40724A121812891207120F032A02D001339F
S1131F50DBB2F2E76D4B1B1819894904490D0022C5
S1131F601A8100E00021694B5B6E0320984701232E
S1131F70D8E78022644B9A83644B5B6E0021052072
S1131F8098470123CEE7604B9A839A82604A1A836A
S1131F90604B9B8C9B060CD45E4BDA68D0231340B9
S1131FA0D02BF9D1594B5B6E0021022098470123B5
S1131FB0B8E7584BDB68DB06FBD5F3E7524B00214F
S1131FC0802252009954F83A9A8368329A82504A8D
S1131FD01A83514B98474D4B5B6E00210120984763
S1131FE001239FE7484B4A4A9A839A82923AFF3ADE
S1131FF01A83464B5B6E002104209847012391E726
S1132000DA0607D45A0608D49B062FD50021434B81
S113201098472BE0424B984728E001213F4B9847D3
S113202024E05A060FD41A0711D49A0713D4C17C9A
S113203007220A40012A19D15A0710D4DB0615D504
S1132040374B984712E00121344B98470EE00121A9
S1132050344B98470AE00121334B984706E00021AE
S1132060304B984702E000212C4B98470134E4B2EE
S1132070082C00D958E7254B6033A20011198800B9
S113208001001030181804305B1826331B78FF2B1E
S1132090ECD0827C0F23134001229A402A42E5D0DF
S11320A01A000832520118498C466244D2795B0105
S11320B01E498C4663441B781340D7D0C27C472109
S11320C0114001299CD052B2002AAADB9A06CAD434
S11320D05A070DD4DA070FD4C17C07220A40012A1B
S11320E0C4D11A070CD4DB06C0D50D4B9847BDE705
S11320F000210C4B9847B9E701210D4B9847B5E7F0
S11321000121084B9847B1E700500041000300202B
S11321100102000000080040FD1A00001919000027
S11321208D180000ED190000511B000009510041F9
S1132130DD1C000000B583B0002201AB5A70214BB6
S11321409B78DB071BD41F4B9B789B07FBD11D4B54
S11321501B789B070CD51B4A137802218B43137001
S1132160184B9B789B07FBD1164B9B789B07FBD4A2
S11321700122144B1A70134B9B789B07FBD1114B14
S11321809B78DB07FBD4104B104A1A665A669A6692
S1132190DA661A670E4B98470E4B98470422094B90
S11321A01A70084B9B789B07FBD1064A064B536277
S11321B001AB5B7801210B43DBB21381002003B038
S11321C000BDC04600500041000300203518000047
S11321D0FD1A000039180000F0B50F22024040B289
S11321E0C40F002A05D0002801DB130002E0931C71
S11321F000E013001D009800C0188300103318007D
S1132200474B60331B180433022A00D984E00129A8
S113221018D000293DD0AA0052199100404B6033D8
S11322205B1826331A780F23134008335B013D4AA9
S11322309446634498791023A3401840431E984160
S1132240C0B2F0BD364803006033AA005619B1008D
S11322505B1826331B780F210B401026A640F6B2DC
S11322601900083149012F4FBC4661444E712021A9
S1132270A140CCB259012C4B9C4661440C705219BC
S11322809300C3188033DA7908210A43DA710020F5
S1132290D7E79A7C0F310A401100083149012148DF
S11322A08446614488791021A140084224D0C9B2EF
S11322B0100008304001604401712021A140CEB2D9
S11322C055011A4FBC4665442E70C07908420AD0A5
S11322D0110008314901134884466144CE7101203C
S11322E0A040C0B20871D87C07210140012905D063
S11322F0DA7C08218A43DA740020A2E7083252010A
S113230008498C466244917930221142F4D102008A
S113231008218A43DA74EFE71220404291E7C0466D
S113232000030020005000410951004108510041C0
S113233070B50E000F2404406201184B9B181968F5
S11323405D68AD04AD0C022C1FD8002E20D02300F4
S113235008335B01124A9B5C112B1CD12300083308
S11323605B0194466344DB79DB0601D4002070BD35
S1132370082230000B4B984708346401084B9C46F4
S113238064441023E3712800F1E712204042EEE791
S113239012204042EBE713204042E8E7000300200C
S11323A000500041655E0000F0B5DE4657464E46DB
S11323B04546E0B585B08046057A0F222A406DB2C5
S11323C0EB0F9946002A05D0002D01DB100002E036
S11323D0901C00E010000600614B603381000F1870
S11323E0BC0010341C190434B8001B189B8C5D49C4
S11323F08B4244D05F1EBFB2414649680F40022A57
S113240000D9A3E042461268574882420CD9881882
S11324100190564884460198604505D8920703D137
S1132420002D2EDB99422FD2B200921991004C4B11
S11324305B1880331B68002B00D18AE001230193D1
S1132440002D0BDB002F09D0B20092199100444BF0
S11324505B1880331B68002B00D17DE0B200921919
S113246091003F4B5B188033DB791B070FD50220AB
S113247005B03CBC90469946A246AB46F0BD1F0051
S1132480BAE700230193DBE700230193D8E703A80D
S1132490374B9847B20092199100314B5B18803347
S11324A0DB795B0630D4B3009B199A002C4B9B4616
S11324B0934480235B449A46DB794022134352467B
S11324C0D37103A82B4B98475B46424612685A6760
S11324D0424652689A6700235A46D3674B46DB014B
S11324E05246D2797F211140019A52010B43202197
S11324F08B431A435346DA7143465B7A002B08D068
S1132500002F1BD0002205E003A81A4B9847012096
S1132510AEE70022B3009E19B100114B5B18803363
S11325201101DA79102082430A43DA71002D07DBA6
S113253000212000104B9847002099E70122E9E789
S1132540002120000D4B9847002091E712204042C3
S11325508EE7132040428BE71220404288E7C046B2
S113256000030020FF030000FFFFFF1FFF7F002088
S1132570D10E0000DF0E0000DD1C0000511B000026
S1132580002908D0002808D0012809D0022806D143
S1132590054B196703E00549F4E7034B9966704757
S11325A0014BD966FBE7C046000300203518000044
S11325B010B5014B984710BDE11E00000B0010B58B
S11325C00100180003F00CFC10BD10B500F001F878
S11325D010BD10B503F03CFC10BD0000F8B5574623
S11325E04E464546DE464B00414A5B0DE0B59F181A
S11325F005000C0080460E0089468246132F26DC17
S1132600002F56DB3B4B3B4198460B0042461340A0
S1132610034316D0384A394B01F054FE00220023FC
S113262001F01EFE00280AD0002C03DD80235B038A
S11326303B41994443464E469E4300239A465046A6
S113264031003CBC90469946A246AB46F8BD332FB8
S113265008DD8023DB009F42F3D102000B0001F070
S113266031FEEEE7264A9446012263445242DA40A0
S113267093460242E5D0204A204B01F023FE00227B
S1132680002301F0EDFD0028D9D0002C28DD142F03
S113269023D03423DB1B01279F407F19AF429B418A
S11326A05B4299445B469F434E46BA4631005046CE
S11326B0C7E7114A114B01F005FE0022002301F087
S11326C0CFFD0028BBD0002C0CDB00232C439A4602
S11326D00026002CB3D00B4EB1E701239C46E14405
S11326E04746DFE7002380269A463606A7E7C0461A
S11326F001FCFFFFFFFF0F009C7500883CE4377E60
S1132700EDFBFFFF0000F03F454AF8B557469246FF
S11327104B005B0D9A444E464546DE465246E0B5B4
S11327200C0005000E0089460700132A22DC002A4B
S113273047DB52463B4B134198460B00424613403D
S1132740034311D0384A394B01F0BCFD0022002369
S113275001F086FD002805D0002C41DB4E4643469F
S113276000279E43380031003CBC90469946A2465F
S1132770AB46F8BD5246332A08DD8023DB009A4578
S1132780F2D102000B0001F09DFDEDE7284A9446CA
S1132790012263445242DA4093460242E4D0224A80
S11327A0224B01F08FFD0022002301F059FD002887
S11327B0D8D0002C1ADB5B464E469F4338003100CC
S11327C0D2E7194A194B01F07DFD0022002301F0E4
S11327D047FD0028C6D0002C16DB00270026C1E7E1
S11327E0802352465B0313419944B7E75346142BA5
S11327F012D03423524601279B1A9F407F19AF42BF
S11328009B415B429944D6E7640064082543002752
S1132810002DA7D0074EA5E7133B9C46E144CAE729
S113282001FCFFFFFFFF0F009C7500883CE4377E2E
S1132830EDFBFFFF0000F0BFF0B5C64600B58CB05D
S113284004000D0000F02CFA3A4B06001B780F0030
S11328505BB2984601330FD022002B0020002900E0
S113286003F00AFA002807D10022002320002900DF
S113287001F0F6FC002805D0300039000CB004BC8F
S11328809046F0BD2C4B0A9003934346049405955F
S113289006940795002B1AD1E022284B12060892C1
S11328A00993200000220023290001F0BFFC002826
S11328B038D00223029302A801F018FA002817D096
S11328C00A9B0193002B18D1089E099FD4E700228C
S11328D01B4B20000892099329000022002301F0D9
S11328E0A5FC00280FD0022302934346022BE2D119
S11328F003F084FA22230360E2E703F07FFA0A9BE1
S113290001930360E0E7012302934346022B0BD1BA
S113291003F074FA212303600A4801F0E9F90890EE
S11329200991CDE70123029302A801F0DFF9002801
S1132930F2D1EDE704000020A4600000FFFFEFC720
S11329400000F0FFA8600000F0B557464E46DE4692
S11329504546E0B58FB01D0006000F00140000F0DE
S1132960A1FBC74B009001919A461B785BB2994634
S113297001333ED022002B002000290003F07CF913
S11329808346002835D132003B003000390003F083
S113299073F900220390002800D0B6E00023300031
S11329A0390001F043FC00282CD000220023200031
S11329B0290001F03BFC8346002800D177E004ABFA
S11329C09846012342460493AE4B53604346039A10
S11329D01C615D611A629E60DF6042460023002430
S11329E09361D4614B46002B4DD00023A64C009339
S11329F00194009801990FB03CBC90469946A246B8
S1132A00AB46F0BD0098019901F066F981460028B3
S1132A1000D19BE0009801990022002301F006FCFC
S1132A200028E6D03000390001F056F90028E0D043
S1132A302000290001F050F90028DAD004AB9846B0
S1132A400423424604938F4B146155615360002361
S1132A500024136200239361D46153461B7896606B
S1132A60D7605BB2022B04D0404601F03FF9002846
S1132A700ED103F0C3F92223036009E04246002388
S1132A8000249361D461404601F030F9002837D026
S1132A9043461B6A002B04D003F0B0F943461B6A7B
S1132AA003604346DC699B6900930194A1E720001D
S1132AB0290001F011F900289BD0002200232000F6
S1132AC0290001F0B9FB002800D192E704AB984635
S1132AD00123424604936B4B536043465A469E601F
S1132AE0DF601A621C615D6153461B785BB2002B88
S1132AF0C4D00020424665499061D161022BC2D105
S1132B0003F07CF921230360C2E70023200029009D
S1132B1001F08CFB002800D16BE704AB984601233D
S1132B2042460493574B4146536043465A461A6201
S1132B3000229E60DF601C615D61534B8A61CB6142
S1132B40009201934B46022B9DD152E7300039008D
S1132B5001F0C2F8002800D15CE72000290001F050
S1132B60BBF8002800D155E7009801990B0002003A
S1132B7003F082F804AB9846002861D1032342464F
S1132B800493404B1062536053461B789660D760A1
S1132B905BB2146155619946002B2FD1E022414666
S1132BA03B4B12068A61CB613000002200233900BE
S1132BB001F042FB002800D156E70022354B2000EB
S1132BC0290002F0C3FA04000D0001F097F8020096
S1132BD00B002000290001F029FB002805D1E02288
S1132BE02D4B120641468A61CB6153461B785BB27A
S1132BF099464B46022B00D036E73AE7002241467D
S1132C00264B30008A61CB6100220023390001F099
S1132C1013FB0028EDD000221E4B2000290002F0F7
S1132C2095FA04000D0001F069F802000B00200081
S1132C30290001F0FBFA0028D7D10022134BD1E779
S1132C400123424604930F4B536043464A461C619A
S1132C505D611A629E60DF60002453461C57002C9D
S1132C6000D10BE7002300221900100001F03AFE06
S1132C7043469861D961022C00D141E703E7C0467D
S1132C8004000020AC6000000000F03F0000F0FFF2
S1132C90FFFFEF470000E03FFFFFEFC70000F07FBA
S1132CA0F0B5D6464F464646C0B5DA4A88B00B0062
S1132CB0914255DC4A005208024300D1EFE000295A
S1132CC000DA79E1D44B002202F040FA3625D34CE5
S1132CD00B006D42A34247DC1A15D14C1B031B0B9E
S1132CE09846A4468024CF4B640343442340CE4CEF
S1132CF0624452195C4045461B1599462543CA4B0C
S1132D0029009144002202F0A1FC434602331B0334
S1132D1006000F001B0B0022022B2FDC002301F006
S1132D2085FA002800D1C1E04B46002B00D14CE1CC
S1132D30484602F0F5FFBD4ABD4B04000D0002F009
S1132D4005FABC4A06000F00BB4B2000290002F024
S1132D50FDF902000B003000390001F0B3FA07E07E
S1132D60AE4C0025A342B7DD02000B0001F0AAFA25
S1132D7008B01CBC90469946A246F0BD8023DB05F2
S1132D8001F0A0FA02000B003000390001F0AAFDA6
S1132D90040048460D0002F0C3FF22000290039194
S1132DA02B00200029000494059502F0CFF90400BB
S1132DB00D00A24B020043449A460B000094019577
S1132DC002F0C4F904000D009D4A9E4B02F0BEF9C6
S1132DD09D4A9E4B01F076FA22002B0002F0B6F9D0
S1132DE09B4A9C4B01F06EFA22002B0002F0AEF9D4
S1132DF0994A9A4B01F066FA009A019B02F0A6F9EF
S1132E00974A00900191974B2000290002F09EF907
S1132E10954A964B01F056FA22002B0002F096F9DF
S1132E20934A944B01F04EFA22002B0002F08EF9E3
S1132E300B0002000098019901F044FA0D0041468C
S1132E408D4B04005B1A51460B43002B54DD0022CA
S1132E508A4B3000390002F079F932003B0002F06D
S1132E6075F94B460A00010000910192002B72D1C2
S1132E70130029000200200001F024FA049A059BA3
S1132E8002F064F902000B000098019902F0DEFBE5
S1132E9002000B003000390002F0D8FB68E7002282
S1132EA000230020764901F01DFD61E7754A764B49
S1132EB03000390002F04AF902000B0000206F498B
S1132EC002F0C4FB320004000D003B003000390066
S1132ED002F03CF90B0002002900200002F036F950
S1132EE04B4604000D00002B72D102000B00300091
S1132EF0390002F0ABFB3BE74B46002B00D1C5E0A9
S1132F0002980399494A4A4B02F020F922000090A2
S1132F1001912B003000390002F098FB049A059BC4
S1132F2002F014F9434A04000D0002980399424B3D
S1132F3002F00CF902000B002000290002F086FBCD
S1132F4032003B0002F082FB02000B000098019962
S1132F5002F07CFB0CE7354A354B0298039902F0EA
S1132F60F5F8009A019B069007912000290001F0D2
S1132F70A9F9049A059B02F0E9F82E4A04000D0011
S1132F80029803992C4B02F0E1F802000B00200098
S1132F90290001F097F902000B000098019902F052
S1132FA055FB32003B0002F051FB02000B00069877
S1132FB0079902F04BFBDBE602000B0002F046FB34
S1132FC00022002301F08EFCD2E600200021CFE68F
S1132FD0484602F0A5FE154A154B0090019102F0F7
S1132FE0B5F8144A0290039100980199124B02F02B
S1132FF0ADF802000B002000290002F027FB32008C
S11330003B0002F023FB02000B000298039902F03C
S11330101DFBADE6FFFF0F0000005043FFFFEF7FF5
S113302001FCFFFF645F09000000F03F0000E0FEC8
S1133030422EE63F763C7935EF39EA3D86EBF9FFDF
S113304044523EDF12F1C23FDE03CB966446C73FD3
S1133050599322942449D23F935555555555E53FEC
S11330609FC678D0099AC33FAF788E1DC571CC3FF7
S113307004FA97999999D93F51B806000000E03FA6
S1133080000050C3555555555555D53F22002B00CA
S11330903000390002F0DAFA049A059B02F056F87F
S11330A0F6E6C046F0B557464E464546DE461C0099
S11330B01300E0B5650091B06D080093019407001A
S11330C00E0080468946A2462B4331D0674B7400DC
S11330D064089C4227DC24D09D4224DC634B9D423F
S11330E000D181E000239B464B46002B00DA7FE0B1
S11330F0002A2CD15D4B9D4200D197E05C4B9D4250
S113310066D08023DB059A4500D1B9E3594B9A4533
S11331101DD14B46002B1ADB3800310000F0F8FCBF
S113312008E000280DD0544B9C46644427430AD140
S113313000204F4911B03CBC90469946A246AB468C
S1133140F0BDA542CADD4D4800F0D2FDF2E73800DB
S1133150310000F0BDFD4346002B1DD1002C04D0EE
S1133160434AB3009B08934216D15346002B00DA1E
S1133170C5E34B46002BDDDA3F4B9C465B4664447B
S11331801C4301D100F053FC5B46012BD2D18024B7
S113319024060B191900CDE7F30F013B98465B4653
S11331A04246134357D0364B9D4277DD354B9D4203
S11331B000DCB1E3344B9C4200DCA8E35346002B13
S11331C043DD324A324B1000190001F0BFFFB1E772
S11331D0534638003100002BACDA3A0033000020AB
S11331E0234901F07FFBA5E7002A00D17AE79AE79B
S11331F0284B9D422CDC244B9D4200DC78E7264979
S11332002B158C466344142B01DC00F0F3FB3421B2
S1133210CB1A0099D94008009840824200D067E751
S11332200123194001335B1A9B4661E7124BE318F3
S11332301F4300D17CE7144B9C4200DC27E3009839
S113324001995346002B00DB74E70020002171E74D
S113325002239B464CE73A0033003800310002F069
S1133260F5F902000B0001F03DFB63E70000F07F7D
S11332700000F03F0000E03F000010C0A860000024
S11332800000E0410000F043FFFFEF3F9C75008821
S11332903CE4377EFFFF3F4301FCFFFFE94B002284
S11332A09C4206DC0022E84B01F050FF35220C0062
S11332B05242E64D2315AC46634499462403E44D3B
S11332C0E44B240B914425439C4209DDE24B9C4290
S11332D000DCB6E301239C46E04BE1449C46654494
S11332E0002300240022089309940C930D940024D5
S11332F0D74B06920793069A079B29000A900B91D5
S113330002F0A4F9069A079B06000F000A980B998D
S113331000F0D8FF02000B000020CD4901F0E2FAD2
S11333200A00010013000E910F92020039003000D0
S113333001F00CFF0A0001008020049105921300A3
S11333400022691080250003844602920393002220
S1133350AD050D4365442B190298039914001D0013
S113336001F0F4FE02000B003000390002F06EF9A7
S1133370069A079B06000F002000290002F066F958
S113338002000B000A980B9902F060F9029A039B61
S113339001F0DCFE02000B003000390002F056F9A7
S11333A00E9A0F9B01F0D2FE049D059E0690079194
S11333B02A0033002800310001F0C8FE06000F0087
S11333C0A74AA84B01F0C2FEA74AA84B00F07AFF17
S11333D032003B0001F0BAFEA54AA64B00F072FF92
S11333E032003B0001F0B2FEA34AA44B00F06AFF96
S11333F032003B0001F0AAFEA14AA24B00F062FF9A
S113340032003B0001F0A2FE9F4AA04B00F05AFF9D
S1133410320004000D003B003000390001F096FE3C
S113342002000B002000290001F090FE029E039F81
S113343004000D000498059932003B0000F042FF9F
S1133440069A079B01F082FE22002B0000F03AFF4F
S113345032000A900B913B0030003900029603972A
S113346001F074FE00228A4B04000D0000F02AFFD4
S11334700A9A0B9B00F026FF00260F0032000B0077
S11334800298039901F062FE002202900391804B9E
S11334903000390002F0DAF822002B0002F0D6F8EE
S11334A002000B000A980B9902F0D0F8049A059BCD
S11334B001F04CFE320004000D00069807993B0011
S11334C001F044FE02000B002000290000F0FAFE87
S11334D004000D0002000B000298039900F0F2FEB4
S11334E00026E0226B4B120630000F0001F02EFE86
S11334F0029A039B049005913000390002F0A6F86B
S113350002000B002000290002F0A0F8624A614B7F
S113351001F01CFE614A04000D00614B30003900CB
S113352001F014FE02000B002000290000F0CAFE86
S11335300C9A0D9B00F0C6FE060048460F0002F0F0
S1133540EFFB04000D000498059932003B0000F0E5
S1133550B9FE089A099B00F0B5FE22002B0000F08A
S1133560B1FE002022002B000290039102F06EF8BD
S1133570089A099B02F06AF8049A059B02F066F81F
S113358002000B003000390002F060F8049005914D
S11335905B464246013B134300D1ABE100232C4C74
S11335A0069307940098019900260B0032000F003F
S11335B002F04CF8029A039B01F0C8FD009A019BAB
S11335C004000D000498059901F0C0FD02000B00F1
S11335D02000290000F076FE04000D0002980399F3
S11335E032003B000094019501F0B0FD02000B0095
S11335F006000F002000290000F064FE294B04009F
S11336000D0002008B46994200DC4FE1264BCB189B
S1133610034300D0E2E100980199244A244B00F0CE
S113362051FE3200029003913B002000290002F079
S11336300DF802000B000298039900F011FEAA464F
S113364038E0C046FFFF0F000000404301FCFFFFCD
S11336500000F03F8E98030079B60B000000F0FFE5
S1133660EF4E454A287ECA3F65DBC9934A86CD3F63
S113367001411DA96074D13F4D268F515555D53F49
S1133680FFAB6FDBB66DDB3F033333333333E33FE1
S11336900000084009C7EE3FFD033ADCF5015B1466
S11336A0E02F3EBEFFFF8F40000070BFFE822B65FF
S11336B04715973C002800D090E1EC4A53469446C5
S11336C08022520311001B15634419410B009046DC
S11336D0E74A5B4494465C00640DE64D644425412E
S11336E01A00AA43110042461B031B0B1343142266
S11336F0141B234199465B460020002B00DAB0E1FD
S113370002000B003000390001F0A0FF0B000200A2
S113371006000F000098019900F0D4FD4B461B05EC
S11337200D00984600240022D34B2000290001F00C
S11337300DFD3200029003913B002000290001F0AE
S113374085FF02000B000098019901F07FFFCB4A2E
S1133750CB4B01F0FBFCCB4A06000F00CA4B200008
S1133760290001F0F3FC02000B003000390000F0E6
S1133770A9FD04000D0002000B000298039900F05B
S1133780A1FD029A039B06000F0001F05FFF0200F7
S11337900B002000290001F059FF32000090019134
S11337A03B003000390001F0D1FC04000D00B74AA1
S11337B0B74B01F0CBFCB74AB74B01F047FF2200EF
S11337C02B0001F0C3FCB54AB54B00F07BFD220091
S11337D02B0001F0BBFCB34AB34B01F037FF2200CE
S11337E02B0001F0B3FCB14AB14B00F06BFD220099
S11337F02B0001F0ABFC02000B003000390001F09B
S113380025FF04000D0002000B003000390001F018
S11338109DFC8023029003910022DB0520002900F7
S113382001F014FF02000B000298039901F05AF80A
S1133830009A019B04000D003000390001F086FC61
S1133840009A019B00F03EFD02000B0020002900BD
S113385001F0FCFE32003B0001F0F8FE02000B0018
S11338600020944901F0F2FE43465B181A15002A21
S113387000DC49E11900069A079B01F067FC59E452
S11338803A0033003800310001F060FC52E4534642
S1133890002B00DBD9E4009C019D802212062B0042
S11338A09446634420001900FFF744FC4B005B0876
S11338B09A46814B9A4500DCB1E0804B5B441A4345
S11338C00CD132003B0001F0C1FE02000B00009855
S11338D0019900F0BBFC002800D1EEE60698079998
S11338E0774A784B01F032FC754A764B01F02EFC96
S11338F0FFF720FC0023744C0693079452E6020061
S11339000B0000206B4900F0EDFFFFF732FC53463B
S1133910002B00DB99E454E46C4B9C42F7DD654BCF
S11339209C4200DD4AE40022624B01F08FFEC0227B
S1133930674BD20504000D0001F008FC654A06003F
S11339400F00654B2000290001F000FC00220290CA
S11339500391624B2000290001F0F8FB02000B00E8
S11339605F48604901F072FE22002B0001F0EEFB7B
S113397002000B0000205C4901F068FE2200049064
S113398005912B002000290001F0E0FB02000B0050
S11339900498059901F0DAFB544A4D4B01F0D6FB2B
S11339A002000B000298039901F050FE02000B0084
S11339B004000D003000390000F084FC00203200C7
S11339C03B000290039101F041FE02000B00200035
S11339D0290001F03BFE04900591D9E5444A454B8A
S11339E00698079901F0B2FB414A424B01F0AEFB45
S11339F0FFF7A0FB002A01D0FFF7A9FB1432D31A6A
S1133A002A001A41110099408D4201D0FFF776FB3C
S1133A1001231A40DB189B1A9B46FFF76FFB002219
S1133A20314B904691469A4500DC7BE645E6020020
S1133A300B0001F00BFE02000B0000F053FFFFF738
S1133A4079FB80232C4CDB05089309942B4B2C4CDD
S1133A5000220C930D9480242A4BE40206920793CF
S1133A6049E44B465B4299464AE6C04602FCFFFFE6
S1133A7001FCFFFFFFFF0F00432EE63FEF39FAFE84
S1133A80422EE63F396CA80C615C20BED0A4BE7205
S1133A906937663EF16BD2C541BDBB3E2CDE25AF16
S1133AA06A56113F93BDBE166CC1663F3E555555CF
S1133AB05555C53F0000F03FFFCB904000346F3FA9
S1133AC059F3F8C21F6EA5010000F0BFFEFFEF3FDF
S1133AD04715F73F44DF5DF80BAE543E0000D03F7E
S1133AE0555555555555D53F0000E03FFE822B6591
S1133AF09C7500883CE4377E03B8E23F06D0CF4390
S1133B00EBFD4C3E0000F83F4A4600F099F9B2E65E
S1133B106C4BF0B50A0046460D00D6464F461900D8
S1133B20C0B5040006002940994200D1A7E0002D49
S1133B3000DC81E02F1500D18EE0634B12039C461C
S1133B408023120B5B0367441A43FB0768D47B1082
S1133B509C46E30F9B189B18802216210026002503
S1133B6064009203A818984202DC85181B1AB61840
S1133B70E00F5B0001391B18640052080029F1D1E1
S1133B8000229246904680222020120609E0AB4291
S1133B9038D0E10FC9180138CB1864005208002846
S1133BA018D041465118AB42F1DD8F18B846A946EA
S1133BB0002930DB5B1B8C42AD416D425B1B641AF8
S1133BC0E10FC918013892444D46CB1864005208DD
S1133BD00028E6D1234328D153465B083B497210A1
S1133BE088464244F10702D5802109060B43614609
S1133BF01E000F05BD18300029001CBC90469946D4
S1133C00A246F0BDA142C4D88F18B846002942DBB1
S1133C1099460023D3E7002F2FDB6F1CB946C9E771
S1133C20E10F52008A18640091E75346013335D0FE
S1133C30534601335B08D1E76B005B080343DAD0DA
S1133C400027002D32D1E20A153F6405002AFAD07C
S1133C5080235B031A4224D180200023400300E028
S1133C600B005200591C0242FAD02020401AFF1ABD
S1133C702300C3408C401A435FE7A9469AE72B0010
S1133C800200290001F062FA32002B0000F01AFB56
S1133C9006000D00AFE7002FBFDAB9E701360023B5
S1133CA09CE70123002120205B42E0E72B00020077
S1133CB0290001F0CBFC02000B0000F013FE06000B
S1133CC00D0098E70000F07F01FCFFFF0000E03FDB
S1133CD049004B0819007047034B48009C464008B4
S1133CE06044C00F7047C046000010800020704739
S1133CF0002001497047C0460000F87FF0B5C64671
S1133D0000B5CB0F98464A4C4B005B0D1E1982B090
S1133D1007000A00132E35DC002E57DB454B040048
S1133D2033411F000F4007430D00002F24D05B08D0
S1133D301C000C4020430027002807D0132E00D17C
S1133D4073E08022D202324199430A434346DE00A3
S1133D50394B11009E1934687568380022002B0015
S1133D6000F0B0FA009001910098019922002B0014
S1133D7001F06CFC04000D002000290002B004BC1A
S1133D809046F0BD332E0CDD80230400DB000D00D3
S1133D909E42F1D102000B0000F094FA04000D00E1
S1133DA0EAE7264C0D00A446012463446442DC4047
S1133DB0A446614604000142DED049080142C5D050
S1133DC08027FF051F4188430743BFE74B005B087B
S1133DD0034304000D00002BCED00B031B0B034345
S1133DE01A005B42134380221B0B120313404A0C3C
S1133DF05204134319004346DA000F4B9B181C6806
S1133E005D6822002B0000F05DFA0090019100989B
S1133E10019922002B0001F019FC42464B005B087B
S1133E20D607334304001D00A6E780273F0688E732
S1133E3001FCFFFFFFFF0F00B0600000EDFBFFFF80
S1133E404B0070B55B0D14000A00002B1AD14B0017
S1133E505B08034315D00022224B01F077F9224B73
S1133E600A009C4222DB4B005B0D363B1F4DE318DE
S1133E70AB4220DC002B0DDD1D4C1B0522401A43F8
S1133E80110070BD1B4DAB42F0D102000B0000F0DD
S1133E9019FAF6E71D00353518DA174B02009C4273
S1133EA00ADC0B001548164900F032F8134A144B8B
S1133EB001F04CF9E5E702000B001248124900F04A
S1133EC027F8104A104B01F041F9DAE7084C363371
S1133ED022401B051343190000220C4B01F036F954
S1133EE0CFE7C04600005043B03CFFFFFE07000090
S1133EF0FFFF0F80FF07000050C3000059F3F8C212
S1133F001F6EA5019C7500883CE4377E0000903C40
S1133F1030B54A00DB0FDB0752081A43110030BDED
S1133F20002243088B4274D303098B425FD3030AF4
S1133F308B4244D3030B8B4228D3030C8B420DD307
S1133F40FF22090212BA030C8B4202D31212090295
S1133F5065D0030B8B4219D300E0090AC30B8B42D3
S1133F6001D3CB03C01A5241830B8B4201D38B0381
S1133F70C01A5241430B8B4201D34B03C01A524126
S1133F80030B8B4201D30B03C01A5241C30A8B4269
S1133F9001D3CB02C01A5241830A8B4201D38B0254
S1133FA0C01A5241430A8B4201D34B02C01A5241F8
S1133FB0030A8B4201D30B02C01A5241CDD2C3096A
S1133FC08B4201D3CB01C01A524183098B4201D3E6
S1133FD08B01C01A524143098B4201D34B01C01AD1
S1133FE0524103098B4201D30B01C01A5241C30849
S1133FF08B4201D3CB00C01A524183088B4201D3B8
S11340008B00C01A524143088B4201D34B00C01AA3
S11340105241411A00D20146524110467047FFE70F
S113402001B5002000F0F0F802BDC0460029F7D029
S113403076E7704703460B437FD4002243088B4244
S113404074D303098B425FD3030A8B4244D3030B1B
S11340508B4228D3030C8B420DD3FF22090212BAE0
S1134060030C8B4202D31212090265D0030B8B425C
S113407019D300E0090AC30B8B4201D3CB03C01A46
S11340805241830B8B4201D38B03C01A5241430B21
S11340908B4201D34B03C01A5241030B8B4201D311
S11340A00B03C01A5241C30A8B4201D3CB02C01A7C
S11340B05241830A8B4201D38B02C01A5241430AF4
S11340C08B4201D34B02C01A5241030A8B4201D3E3
S11340D00B02C01A5241CDD2C3098B4201D3CB018A
S11340E0C01A524183098B4201D38B01C01A524139
S11340F043098B4201D34B01C01A524103098B423D
S113410001D30B01C01A5241C3088B4201D3CB0027
S1134110C01A524183088B4201D38B00C01A52410A
S113412043088B4201D34B00C01A5241411A00D2BA
S113413001465241104670475DE0CA0F00D0494223
S1134140031000D34042534000229C4603098B4293
S11341502DD3030A8B4212D3FC22890112BA030A1B
S11341608B420CD3890192118B4208D3890192119D
S11341708B4204D389013AD0921100E08909C30922
S11341808B4201D3CB01C01A524183098B4201D324
S11341908B01C01A524143098B4201D34B01C01A0F
S11341A0524103098B4201D30B01C01A5241C30887
S11341B08B4201D3CB00C01A524183088B4201D3F6
S11341C08B00C01A5241D9D243088B4201D34B0011
S11341D0C01A5241411A00D20146634652415B1053
S11341E0104601D34042002B00D549427047634634
S11341F05B1000D3404201B5002000F005F802BD79
S11342000029F8D016E770477047C0468446101C52
S113421062468C46191C634600E0C0461FB500F098
S113422033FF002801D40021C8421FBD10B500F09F
S11342308DFE4042013010BD10B500F025FF00286E
S113424001DB002010BD012010BDC04610B500F0F8
S11342501BFF002801DD002010BD012010BDC04659
S113426010B500F0ADFE002801DC002010BD0120D7
S113427010BDC04610B500F0A3FE002801DA0020EE
S113428010BD012010BDC04670B500220C4B0400C7
S11342900D00FFF7EFFF002804D12000290001F0F2
S11342A00BFD70BD064B00222000290001F0CEF961
S11342B001F002FD80231B069C466044F1E7C046E2
S11342C00000E041F8B54546DE4657464E460C032D
S11342D0E0B54E00C90F88460D00610A440F0C4337
S11342E0C70019035800DB0F9B464B0A510F0B43C1
S11342F0760D400D1900D200D84500D1AEE0351A34
S1134300002D00DCF6E000280FD1134300D1DBE0E0
S11343106B1E002B00D037E1BA1A9742BF41641AD2
S11343207F42E41B0126170024E0C64B9E424DD079
S113433080231B041943382D00DD07E11F2D00DD08
S113434038E12020431B9A460B005046834099468F
S113435013004846EB401843030050468240501E69
S11343608241E9401A43BA1A611A9742A4411700DC
S113437064420C1B230262D56402650A002D00D13D
S1134380DFE0280001F00EFD0300083B1F2B00DDD9
S1134390D2E020223C00D21A9D40D4409F402543C5
S11343A09E4200DDC4E09E1B731C1F2B00DDF1E068
S11343B0202238002900D21AD840914097402C007E
S11343C00143781E8741DC4000260F437B0709D058
S11343D00F233B40042B05D03B1DBB42BF417F4212
S11343E0E4191F0023022CD5964B01369E4200D1BE
S11343F09AE04546944BFF081C406007760564022A
S11344000743240B760D00212403230B0C0D8F4A44
S113441024051C431440330523435B00ED075B086C
S11344202B43380019003CBC90469946A246AB4643
S1134430F8BD6446044300D111E2040067467B07DB
S1134440C6D145466007FF080743E4087D4B9E42FA
S113445030D024037605240B760DD4E7331A9A461C
S1134460002B78DD002831D076488642AED08020FB
S1134470000401435346382B00DCE9E00A43511E93
S11344808A410021D219BA42BF4109197C4217005E
S11344900C192302D3D56B4B01369E4200D13AE16D
S11344A00120694B1C407B0807401F43E00707437A
S11344B064088BE723003B4300D1CBE18022120345
S11344C014432403240B9EE72E007FE708001043C7
S11344D000D1B4E0581E002800D0DEE0BA18BA4279
S11344E09B4164185B42E418170001262302A6D5F9
S11344F00226D5E7002D6ED1701C4005400D012821
S113450000DCF9E0B81A844687428041E51A40424B
S11345102D1A280200D489E0D71BBA4292411C1BF1
S11345205242A51AD84629E74546002400276AE7DF
S1134530454CF61A2C4049E73D00283885400027B1
S11345402EE7380001F02EFC20301DE70A43511EEF
S11345508A41002107E7002B00D0F3E0701C4305DB
S11345605B0D012B00DCADE0364B984200D1D1E06D
S1134570BA18BA42BF4164187F42E419E7075208E7
S113458017436408060021E72E48854200D193E0D2
S11345901D00D0E629001F3EF140202B00D18DE004
S11345A04022D31A9D402F437D1EAF4100240F4368
S11345B0002644E72B000800203BD8400300202DB0
S11345C000D17DE04020451BA9400A43511E8A4189
S11345D000211A43C7E6002E50D01A4EB04257D0DD
S11345E080266B429946360434434B46382B00DD13
S11345F0D6E01F2B00DD35E12026F51A2600AE405B
S1134600B2463E00DE40AC46350056462E43654673
S1134610AF407D1EAF41DC403743D71BBA429241C5
S11346200C1B5242A41A0600D846A3E66446674609
S11346302C4300D0A2E600250026002706E71E0032
S1134640C4E6C046FF070000FFFF7FFFFFFF0F80A7
S11346501F2B63DC2020C31A080098409C46834625
S113466053461000D84003005846184363469A4006
S1134670531E9A4153460243D94003E726003E4362
S113468006D0EB439946002BC7D0944EB042ACD130
S11346900C0017000600D84698E6904B9A450BD0BC
S11346A08246E7E6002800D09EE01800104300D1BF
S11346B0E9E01C001700D846884E87E6002572E71B
S11346C0002182E723003B43002E00D0ABE0002B07
S11346D000D1E7E00B00134300D177E6BA18BA42E1
S11346E0BF4164187F42E419230200D4F2E07C4BFA
S11346F017001C40060069E620003843002ED1D183
S113470000285BD11C00144300D1A8E01C00170052
S1134710D8465BE606000024002797E650460B00C7
S11347202038C34099465346202B00D195E04023BE
S113473050461B1A99400A43511E8A414B46002198
S11347401A439FE6002E30D126003E4367D0DB4358
S11347509A46002B1CD0614EB04260D05346382B91
S113476000DD96E01F2B00DD9FE02026F31A2600D3
S11347709E409C46B34653463E00DE4033005E46B0
S11347801E4363469F407B1E9F415346DC40374394
S1134790BF189742924164185242A418060078E662
S11347A027437C1EA741002437E74C4EB04236D045
S11347B080265B4236049A463443CFE71800104300
S11347C000D103E6B81A84466745AD41E01A6D424C
S11347D0401B050200D42CE6D71BBA4292411C1B95
S11347E05242A41AD846F1E51800104300D163E7F9
S11347F0F808670707438020E4080003044208D050
S1134800DD08054205D1D208590711430F002C00D9
S1134810D8467B0FE4001C43FF00304ED6E50C0065
S113482017000600D2E5002B38D00B00134300D14B
S113483042E7F808670707438020E40800030442BE
S1134840E7D0CB080342E4D1D208490711430F0053
S11348501C00DEE700270024D5E500216BE70025D6
S11348600027F3E54E462500203EF5404B462E003A
S1134870202B2DD04025ED1AAC4027437C1EA741A8
S113488000243743C9E6802400252403134E00275F
S1134890DCE527437C1EA741002479E70C001700C0
S11348A00E4E93E50C00170090E556462300203E7B
S11348B0F34099465346202B0ED0402356469B1B6B
S11348C09C4027437C1EA7414B4600241F435FE7BF
S11348D00024D2E71700B2E50024F2E7FF07000046
S11348E0FFFF7FFFF0B557464546DE464E46E0B52E
S11348F04C000E0387B0834692461D008046360B5B
S1134900640DCF0F002C4FD06F4B9C4235D08023C9
S1134910420F1B04F600134333439946C3009846E1
S11349206A4B00269C460023644403932B031B0B11
S11349309B466B00ED0F50465B0D01955ED0624ABD
S1134940934253D05A46D1008022400F12040243AE
S11349500A4393465246D1005C4A9446002263447B
S11349603800684084460290E41A16430F2E00D99A
S1134970B4E0574BB6009B599F4603003343994616
S11349806CD100239846023308260393CEE7CB4626
S11349904146039A0197022A65D1019B4A4C9C46E1
S11349A00023002298466BE00300334399464ED01F
S11349B0002E00D1BCE1300001F0F4F903000B3B00
S11349C01C2B00DDACE11D22D31A5A460100DA404B
S11349D008398E401300334399465B468B40984612
S11349E000233C4C0026241A03939FE751465A4661
S11349F0114329D1002293460232B1E759460143BB
S1134A001ED05B46002B00D19EE1584601F0CAF946
S1134A1003000B3B1C2B00DD8FE102005946083AD2
S1134A2091408B461D21CB1A5146D9400B00594663
S1134A300B4351469B469140264B00221B1A8FE79D
S1134A40002301229B468BE75146032288E700237B
S1134A509846013304260024039367E70323B146F1
S1134A6003930C2662E7032A00D15CE2019B012A2E
S1134A7000D0E4E113409C46002300240022984621
S1134A8000211203130B0A0D12051A432305124CBD
S1134A9040462240134362465B00D2075B0813433F
S1134AA0190007B03CBC90469946A246AB46F0BDFF
S1134AB0002380229C4612039846034CE0E700231F
S1134AC0014C00229846DBE7FF07000001FCFFFFD2
S1134AD0C06000000DFCFFFFFFFF0F80D94500D927
S1134AE039E100D134E1002346464D469A46013C63
S1134AF05B460A0E1B021A430B02170C03931304A2
S1134B001B0C3900280090460193FFF709FA0200B4
S1134B10019B83465A43280039009146FFF786FAE1
S1134B20350C09040D43A9450DD95B464544013BA9
S1134B30A84500D93AE1A94500D837E102235B42F0
S1134B409C464544E3444B46EB1A39001800049351
S1134B50FFF7E6F9019B05004343390004989946A1
S1134B60FFF764FA330409041B0C0B43994509D974
S1134B7043446A1E984500D91AE1994500D817E1C3
S1134B80023D43444A469B1A5A4612042A43039957
S1134B909346100C0A0C914609045A46090C4E46D9
S1134BA00D001204120C45430591514372437043A6
S1134BB052190E0CB218954203D980256D02AC46E9
S1134BC06044150C09041204090C28185218834275
S1134BD000D2CEE000D1C8E01D1A53469E1AB24559
S1134BE092415242AB1A9A46984500D117E13900D6
S1134BF01800FFF795F9019B05004343390050461F
S1134C000493FFF713FA04980B04310C19438842F8
S1134C1009D941446B1E884500D907E1884200D870
S1134C2004E1023D4144049BCB1A1800390004936B
S1134C30FFF776F9019B82464343390004980193B8
S1134C40FFF7F4F901980B043104090C1943884265
S1134C500DD953464144013B884500D9E8E08842D8
S1134C6000D8E5E002235B429C464144E244019BB8
S1134C702D04CE1A51462943059D4F462A000B04A4
S1134C80080C1B0C5A4345437B4378435B19170CB0
S1134C90FB189D4203D980256D02AC4660441D0C6F
S1134CA012041B04120C28189B18864200D293E0AD
S1134CB000D18EE001231943A04BE318002B00DC44
S1134CC099E04A0700D09EE05A46D20106D55A46DA
S1134CD09B4B1A4080239346DB00E318994A934286
S1134CE068DD0123029A984C1A40002394469846A2
S1134CF00022C5E680224B46120313420AD05B46CB
S1134D00134206D11A431203120BAC4688468E4C4A
S1134D10B6E64B461A431203120BBC468A4CAFE666
S1134D2003005A46283B9A4000239146984657E68A
S1134D30584601F037F8203040E603005246283B3D
S1134D409A400021934677E601F02CF820305FE684
S1134D50884500D2C7E64B46DE075D0843465B083C
S1134D601E434346DB079A46C2E60025924500D31C
S1134D7033E7039E5946B446E244B245AD416D4221
S1134D804544EB180139984507D2984200D97FE091
S1134D9000D1BCE01D1A8B461FE79845FAD1039D4C
S1134DA05545F2D943468B461D1A16E79B46CAE67B
S1134DB01500E7E65A46C90852070A435B059046C0
S1134DC05C0D5A460123029952021940120B8C467B
S1134DD056E6002B00D16FE746444A1EB04529D958
S1134DE01100864200D065E7039A934200D061E740
S1134DF062E7012149420120C21A382A21DD029BBF
S1134E0003409C4638E60F220A40042A00D15BE79F
S1134E100A00111D914292415242934454E7474B78
S1134E20E318002BE5DD01225242F2E71D00FAE609
S1134E309A461CE7B04239D86ED011003AE7029383
S1134E403AE71F2A3CDC20239B1A0C005846994061
S1134E5098404B1E99415B46D440D34020430843BD
S1134E601A00430709D00F230340042B05D0010087
S1134E70081D88429B415B42D21813023AD5012394
S1134E80029A01241A400023944698460022F7E52A
S1134E90022149428C46039DE344AC46E244AA45C0
S1134EA0AD416D424544ED182D1A96E68A1E0399CC
S1134EB04D008D42894149424144761803958FE75C
S1134EC01F204042C31A5846D8400300202A28D045
S1134ED040205D46821A954029434A1E9141194358
S1134EE0072300220B4009D00F2300220B400800A7
S1134EF0042BBDD1010053075202120BC9081943F8
S1134F00012388460299002419408C46B8E552458D
S1134F10BED88B46002560E6039D9D42C6D3110092
S1134F2062E70025D8E780225B4612031A43019BFF
S1134F301203120B9C468846034CA1E5FF030000B4
S1134F40FFFFFFFEFE070000FF070000F0B54F461D
S1134F504646D6465C00C0B51F03DB0F9A46174B86
S1134F600E034D0084468046360B6D0DC90F9146E5
S1134F703F0B640D01209D4208D09C4201D0A54204
S1134F800BD01CBC90469946A246F0BD6346334301
S1134F90F7D1AC42F5D13A43F3D10120BE42F0D16E
S1134FA0C845EED1514507D0002DEAD163461E43D2
S1134FB03000461EB041E4E70020E2E7FF070000AE
S1134FC0F0B54546DE4657464E46E0B51F033D0B59
S1134FD02C4F0E034C00AB465D008446360B640D2B
S1134FE0C90F90466D0DDB0FBC422AD0254FBD4240
S1134FF02DD0002C0FD130430700814678427841F0
S1135000C0B2002D17D15F463A4314D14B4600205D
S1135010002B0AD006E0002D02D15846024301D0ED
S1135020994218D04842012108433CBC9046994615
S1135030A246AB46F0BD0028F2D00120013B184344
S1135040F3E737000743D1D002204042EDE75F4643
S11350501743CED0F8E7AC42E4DC03DA481E012162
S11350600843E2E75E45DDD806D000205E45DCD289
S11350700123481E1843D8E7C445D3D80020C445AB
S1135080F6D3D2E7FF070000F0B54E464546DE46AC
S113509057465C00E0B51F03DB0F99462A4B0E030D
S11350A04D00C90F8446360B6D0D8B4690463F0B61
S11350B0640D9D4220D0244B9C4222D0002D12D15D
S11350C0304343424341DBB2002C1FD0002B0CD0B1
S11350D04B460120013B034318003CBC90469946D3
S11350E0A246AB46F0BD002C16D0CB4517D05B468C
S11350F0594201230B43EFE7310002230143EBD173
S1135100D9E7390002231143E6D1D7E73A43DDD189
S113511000230028E0D0EAE73A43E6D1E7E7A542D6
S1135120E5DC05DBBE42E2D807D00023BE42D3D281
S11351305946012301390B43CEE7C445D7D8002390
S1135140C445F5D3C8E7C046FF070000F0B557468D
S11351504546DE464E46E0B50C0398464E00230B0A
S113516087B0070092469B46760DCD0F002E6BD07C
S11351706D4B9E4235D080245B46420F2404DB00F5
S113518014431C43C3009946684BA3469C46002322
S113519000276644029343461C035A00DB0F504623
S11351A0240B520D984600D176E05F4B9A426DD0A5
S11351B08023410F1B040B435C49E4008C461C43D1
S11351C0C300002062444146B6186940721C019134
S11351D0944607430F2F00D9B0E0554ABF00D25977
S11351E097465B460343994600D087E000239B46DD
S11351F0023308270293CEE742460192022867D081
S1135200032800D10EE2012800D062E1002300242B
S11352100022994601990140CDB2002112030B0DE1
S1135220120B1B051343434A240513401C4364001B
S1135230ED0764082C434846210007B03CBC904667
S11352409946A246AB46F0BD034399464FD05B4610
S1135250002B00D189E1584600F0A4FD03000B3B6C
S11352601C2B00DD7AE11D22D31A3A0001005C46B2
S1135270DA4008398C4013008F4023439B46B946DB
S113528000232D4E0027361A029384E75346234306
S11352902AD10024022096E75346234320D0002C31
S11352A000D157E1200000F07DFD03000B3B1C2BD7
S11352B000DD49E11D21CB1A51460200D940534675
S11352C0083A944093400C431B4A121A00207AE790
S11352D00125019B144C1D400023002299469CE7A4
S11352E00024002201206EE7534603206BE70023CD
S11352F09B4601330427002602934CE7032381468F
S11353000C27029347E780220023002512039946C5
S1135310054C82E75C464B4602986FE75C464B4679
S1135320019502986AE7C046FF07000001FCFFFFF1
S113533000610000FFFF0F800DFCFFFF4A46494655
S1135340170C1A0C1B041B0C08041900000C414315
S11353501500884619007D43794303958946290041
S1135360150045434D44029545462D0CAA46029D21
S11353705544A94506D98A46802149028946CA442A
S113538051460391290C0491414609042D04090C4A
S113539088462900250C24044144240C059121004D
S11353A041438846210079438A4668434146504434
S11353B08146080C48446F43824503D98021490241
S11353C089464F44010C89463900494402914146BB
S11353D00F0404993F0C88460004C01980444146D8
S11353E0049159460F0C0904090C884659438A460E
S11353F039005143894641464A435146090C8B467C
S11354007B43D2185A44934203D980235B029B46C0
S1135410D94451460904090C8A46414661437C43F8
S1135420130C12044B445244A1468A463C004146A4
S11354306C434D4351464D440F0C7D19A94503D986
S11354408021490288464444049F0399B846414454
S11354508B468345804141428846514608042F04C7
S1135460000C3F1858460299101889469042924100
S11354704F44BA46524299469346C244D144CB441F
S11354808F42BF41C245894199459B419345924111
S11354907F4249422D0C52420F435B4213437F1912
S11354A0FF185B463C19DB0D059A64021C4343025A
S11354B013435D1EAB415A46C00D034352021343CE
S11354C0E20156D501205A0803401343E20713436F
S11354D064085A48604400284DDD5A0709D00F2259
S11354E01A40042A05D01A1D9A429B415B42E418D3
S11354F01300E20104D58020514AC00014406044E6
S1135500504A904200DDE3E60125DB0862071A43B6
S11355106402019B9146220B4405640D1D407CE608
S1135520802259461203114208D0144206D1224364
S11355301203120B45469946434C6EE65B461A43EA
S11355401203120B404C68E603005446283B9C406F
S11355500023B9E600F026FC2030A6E60300283B31
S11355609F400023BB4699468AE600F01BFC20308E
S113557074E6B446ADE701252A1A382A06DD019BF4
S113558000241D4000230022994646E61F2A21DC00
S113559020252000AD1A1E00AB40A840D6405D1E59
S11355A0AB4130431843D440430709D00F23034091
S11355B0042B05D00300181D98429B415B42E4185C
S11355C0230221D50125019B01241D400023002233
S11355D0994622E61F2521006D42281AC140080081
S11355E0202A1DD05F35AA1A944023435C1EA34190
S11355F0072503431D400022002D09D00F2200245B
S11356001A401800042AD6D1030065076402220B4D
S1135610DB082B4301259946019B00241D40FCE532
S11356200024E2E780220125120322430199120398
S1135630120B0D409946044CEFE5C046FF030000F1
S1135640FFFFFFFEFE070000FF070000F0B546461F
S1135650D6464F460C03C0B5CD0F4E00610A440F29
S11356600C43C1005800400D84468A460F001903BC
S1135670500F490A0143C648760DA846DB0FD200F5
S1135680844500D1D8E001204340AB4200D1A6E0DC
S11356906046351A002D00DC05E1002810D10B000E
S11356A0134300D1D7E06B1E002B00D04BE15346CF
S11356B09F1ABA458041641A4042241A01261EE00A
S11356C0B34B9E4248D080231B041943382D00DD80
S11356D019E11F2D00DD4CE120230F005B1B10009E
S11356E09A409F40E840531E9A41E94007431743BC
S11356F05346DF1B611ABA45A44164420C1B2302C2
S113570000D4C5E06402650A002D00D1F6E028004B
S113571000F048FB0300083B1F2B00DDE9E02022DA
S11357203C00D21A9D40D4409F4025439E4200DD58
S1135730DBE09E1B731C1F2B00DD0AE120223800D6
S1135740D21A290097402C009140D8407A1E9741E4
S1135750DC40002601430F437B0709D00F233B4065
S1135760042B05D03B1DBB42BF417F42E4191F00FF
S1135770230225D5864B01369E4200D1AFE0854BEE
S113578001251C4043466207FF086402760517435F
S1135790240B760D1D4000212403230B0C0D7E4A9F
S11357A024051C431440330523435B00ED075B08C9
S11357B02B43380019001CBC90469946A246F0BD04
S11357C0012543466207FF081743E4081D40704B58
S11357D09E4236D024037605240B760DDBE7634620
S11357E0F31A002B00DC94E06046002835D06848AA
S11357F08642B1D080273F043943382B00DCFDE0DA
S11358000A43170000217A1E9741574457458041A7
S1135810091944420C1923023AD55D4B01369E42C4
S113582000D14BE101225B4B1C407B0817401F4316
S1135830E207174364088FE70800104300D024E709
S113584021E723003B4300D1B9E180221203144332
S11358502403240B9FE72E007EE70800104300D1A9
S1135860CAE0581E8446002800D0E7E0524452455E
S1135870804164184042241817000126230207D5EA
S11358800226CFE764462C4300D1B3E12C006746DF
S11358907B0700D062E76307FF081F4301254346E7
S11358A0E4081D4093E7002D78D1751C6D056D0D3E
S11358B0012D00DCF2E05046801A8245BF41651A92
S11358C07F42ED1B8446280200D48CE05046171A10
S11358D0BA4292410C1B5542651B984614E70125B8
S11358E0434600241D40002755E72A4CF61A2C4055
S11358F032E73D0028388540002717E7380000F0DC
S113590051FA203006E70A43170000217A1E974116
S1135910EEE6002B00D0E5E0731C9C465B055B0DB6
S1135920012B00DC9FE01A4B9C4500D1C5E052449A
S113593052458041641840422418E707520817432F
S11359406408664608E71248854200D185E01D00D8
S1135950BCE629001F3EF140202B00D17FE040220D
S1135960D31A9D402F437D1EAF4100240F430026D0
S11359708EE72B000F00203BDF40202D71D0402309
S11359805D1BA9400A43511E8A4100211743AFE61B
S1135990FF070000FFFF7FFFFFFF0F80002E3ED0B8
S11359A0B34EB44545D0802636046D423443382D79
S11359B000DDA8E01F2D00DD1FE120262700504652
S11359C0761BB740E84007435046B040461EB041FE
S11359D0EC403843171ABA4292410C1B5242A41AA3
S11359E0664698468BE6644667462C4300D08BE6B1
S11359F0002500260027EAE61E00ADE61F2B60DC2A
S1135A002027F81A0F00844687401000D840074327
S1135A1060468240501E8241D9401743F5E6260075
S1135A205046064305D0ED43002DD3D0904EB445E7
S1135A30BDD10C001700664698468DE68C4883421B
S1135A400BD06346D9E6002D00D096E00800104341
S1135A5000D1E2E00C0017009846854E7CE6002554
S1135A6080E700218EE7230050460343002E00D038
S1135A70A8E0002B00D1DEE00B00134300D16BE65D
S1135A8052445245804164184042241817002302AE
S1135A9000D4FDE6774B66461C405DE62500504683
S1135AA00543002ECFD1002D4FD10C00144300D15B
S1135AB0A0E00C00170098464EE666460024002736
S1135AC085E61F000800203FF8400700202B00D186
S1135AD08EE04020C31A99400A43511E8A41002196
S1135AE0174392E6002E14D126005046064362D096
S1135AF0DB43002B5CD187189742924164185242D1
S1135B00A418664687E650462043441EA04100245C
S1135B1060E7574EB4454ED0802636045B4234438A
S1135B20382B00DD7FE01F2B00DD8BE020262700D3
S1135B305046F61AB740D84007435046B040461E78
S1135B40B0410743DC40BF18D6E70D00154300D130
S1135B5002E65046801A8245BF41651A7F42ED1B1A
S1135B608446280200D48DE65046171ABA42924160
S1135B700C1B5242A41A9846EEE50D00154300D1C1
S1135B806BE750466707C00807438020E40800031A
S1135B90044207D0CD08054204D12C009846D7080A
S1135BA049070F437B0FE4001C43FF00304ED3E54D
S1135BB02F4EB445B4D10C0017006646CCE500273F
S1135BC00024E8E5002B39D00B00134300D144E74F
S1135BD0C008670707438020E40800030442E1D0BB
S1135BE0CB080342DED1D70849070F431C00D9E78D
S1135BF0002171E700250027E9E52E002700203E5B
S1135C00F740202D2FD04026751BAC405046204332
S1135C10441EA04100243843DCE6802400252403EC
S1135C20134E0027D3E5504620430700781E8741D2
S1135C300024BF1860E70C0017008DE50C00170066
S1135C400B4E89E51E002700203EF740202B0CD088
S1135C504026F31A9C4050462043441EA04107436B
S1135C600024BF1848E70024D0E70024F3E7C04627
S1135C70FF070000FFFF7FFF70B50E4E0D031C03EE
S1135C8049005B002D0B490D240B5B0DB14204D080
S1135C90084900208B4208D070BD05430120002D27
S1135CA0FAD1044900208B42F6D114432000441E4B
S1135CB0A041F1E7FF07000030B5134D0A034B0084
S1135CC0120B5B0DC90F0024AB4210DD0F4CA34235
S1135CD00FDC80240E4D64032243ED1A1F2D0BDDCF
S1135CE00C48C31ADA405442002900D114002000A1
