S014000041565231323844425F4253502E73726563C2
S11300000C947A000C9499000C9499000C94990027
S11300100C9499000C9499000C9499000C949900F8
S11300200C9499000C9499000C9499000C949900E8
S11300300C9499000C9499000C94BC000C949900B5
S11300400C9499000C94D6000C9499000C9499008B
S11300500C94D7010C9499000C9499000C94990079
S11300600C9499000C9499000C9499000C949900A8
S11300700C949E000C9499000C9499000C94990093
S11300800C9499000C9499000C9499000C94990088
S11300900C9499000C9442020C9499000C949900CD
S11300A00C9499000C9499000C9499000C94990068
S11300B00C9499000C9499000C9499000C94990058
S11300C00C9499000C9499000C9499000C94990048
S11300D00C94AD000C9499000C9499000C94990024
S11300E00C9499000C9499000C9499000C94990028
S11300F00C94990011241FBECFEFCDBFDFE7DEBF04
S113010010E4A0E0B0E4EEEDF5E000E00BBF02C0C7
S113011007900D92AE30B107D9F720E4AEE0B0E419
S113012001C01D92A232B207E1F70E94E5000C94CF
S1130130ED020C9400000E947C0108951F920F921E
S11301400FB60F9211248F9381E08093C3068F9191
S11301500F900FBE0F901F9018951F920F920FB61D
S11301600F9211248F9381E08093CB068F910F908F
S11301700FBE0F901F9018951F920F920FB60F92FB
S113018011240BB60F928F93EF93FF93E0E0FBE003
S113019081E0868382E08683FF91EF918F910F90B7
S11301A00BBE0F900FBE0F901F9018951F920F92C9
S11301B00FB60F9211248F938CE080938D0B8F9147
S11301C00F900FBE0F901F9018950E949B00FFCFB9
S11301D01092A90080E0089541E068ED8CE790E07A
S11301E00E94AE0141E068ED80E890E00E94AE011B
S11301F044EA68ED88E690E00E94AE0140E868EDCC
S113020080E690E00E94AE0180E0089580E00895C9
S1130210E0E1F4E0808188608193E83184E0F807CC
S1130220C9F7E0E3F4E0808188608193E83384E0F7
S1130230F807C9F7E0E5F4E0808188608193E83548
S113024084E0F807C9F7E0E7F4E0808188608193EF
S1130250E83784E0F807C9F7E0E9F4E080818860D2
S11302608193E83984E0F807C9F7E0EBF4E0808192
S113027088608193E83B84E0F807C9F708952198E2
S1130280E1E3F4E08081877F80832898209A0E94AC
S1130290C0020895E1E7F4E08081887F8460808370
S11302A08081877F80830E94DD020895E3E9F4E082
S11302B08081887F846080838081877F80830E949F
S11302C0E50208950598E5E1F4E08081877F808365
S11302D00C98049A0E98069A0E94CB0108954198AE
S11302E0E1E5F4E08081877F80834898409A4A98CA
S11302F0429A0E94360208950E9408010F98079AB4
S11303004B9A439A4E9A469A0E94EC000E943F01EF
S11303100E949F010E94C9010E9406010E944A0195
S11303200E9456010E9462010E946F010E94B30163
S11303300E94A1020E94AB020E94E8000895E0E03E
S1130340F2E080E3808B81E3818B81E086AF809350
S1130350480282E08093490280E008951BBEFC01BC
S113036064BF40830895E0E4F1E081818111FDCF11
S1130370E0E4F1E089E2808380E094E0828793877F
S1130380178281898111FDCF81E08093500180E043
S1130390089580E00895E0E4F9E081E2808381E05B
S11303A08283E5E1F0E410821582168208951F929B
S11303B00F920FB60F9211240BB60F922F933F9307
S11303C04F935F936F937F938F939F93AF93BF9359
S11303D0CF93DF93EF93FF93E0E4F9E0948180E817
S11303E0838380911940823019F1C5E1D0E4A98159
S11303F0BA81FD019193E983FA83813019F0119652
S11304009C9101C090E0E5E1F0E483818150838315
S1130410882319F09093440914C0E5E1F0E483E0E3
S113042080830580F681E02D309759F0099509C045
S1130430E5E1F0E4A181B281CD010196818392834B
S1130440DECFFF91EF91DF91CF91BF91AF919F915B
S11304508F917F916F915F914F913F912F910F9069
S11304600BBE0F900FBE0F901F901895E0E6F9E0B9
S113047081E2808381E08283EEE0F0E410821582E1
S1130480168208951F920F920FB60F9211240BB685
S11304900F922F933F934F935F936F937F938F9319
S11304A09F93AF93BF93CF93DF93EF93FF93E0E6D4
S11304B0F9E0948180E8838380911240823019F1BD
S11304C0CEE0D0E4A981BA81FD019193E983FA8356
S11304D0813019F011969C9101C090E0EEE0F0E4B7
S11304E0838181508383882319F09093640914C015
S11304F0EEE0F0E483E080830580F681E02D309720
S113050059F0099509C0EEE0F0E4A181B281CD0172
S1130510019681839283DECFFF91EF91DF91CF919A
S1130520BF91AF919F918F917F916F915F914F9107
S11305303F912F910F900BBE0F900FBE0F901F9005
S11305401895E0E0FBE093E0918381E08483958358
S1130550808380E00895E0E8FBE08FEF9FE080A7D0
S113056091A784A795A785E1808781878CE08487FC
S1130570868580FFFDCF81E08093800B80E0089525
S1130580E0E6F8E080E197E28087918780EC86835B
S113059080E090E480931E4090931F4080E0089593
S11305A0E0E6F8E0948195FFFDCF8093620808951A
S11305B00E94D00280E090E00895E0ECF6E080E84C
S11305C0808381E0828380E00895E8ECF6E081E0B6
S11105D0808382E0828380E00895F894FFCF58
S11105DE0000000200000000D802000000002F
S9030000FC
