:1000000058330020190100001501000015010000FF
:1000100000000000000000000000000000000000E0
:1000200000000000000000000000000015010000BA
:100030000000000000000000150100001501000094
:100040001501000015010000150100001501000058
:100050001501000015010000150100002D730000BE
:100060001501000015010000150100001501000038
:100070001501000015010000150100001501000028
:100080001501000015010000150100001501000018
:100090001501000015010000150100001501000008
:1000A00015010000150100001501000015010000F8
:1000B0000000000010B5064C2378002B07D1054B3B
:1000C000002B02D0044800E000BF0123237010BDC4
:1000D000300A002000000000EC130100084B10B5AE
:1000E000002B03D00749084800E000BF0748036819
:1000F000002B00D110BD064B002BFBD09847F9E731
:1001000000000000340A0020EC130100EC13010091
:1001100000000000FEE70000F8B5234A234B9A4296
:1001200009D0224B204A03E01168196004330432DD
:100130001F498B42F8D31F4B02E000221A600433A0
:100140001D4A9342F9D31D4AFF211D4B8B439360F7
:10015000FD3990235B001B4AD1501B4AD3780325FD
:10016000AB4302242343D370D3780C27BB43082628
:100170003343D370154B987B302290432022104399
:100180009873997BB943314399739A7BAA4322436D
:100190009A730F4A516880230B4353600D4B984765
:1001A0000D4B9847FEE7C046EC130100000000200D
:1001B000300A0020300A00205413002000ED00E037
:1001C0000000000000700041005000410048004164
:1001D00000400041B9B60000510C000010B50128E4
:1001E00000D010BD064B9942FBD1064C2000064BB7
:1001F0009847064A06492000064B9847F1E7C04653
:10020000FFFF00004C0A0020B90C00000000002095
:10021000C50C0000198C00000A4B103383600A4B98
:10022000783343600123212283540022C277074A96
:100230004264074A0260074A426349228354293ACA
:10024000835470474C0A0020CC0A00200000C83EAE
:1002500000007A4540067A457047022906D0826838
:100260005A23D35ADB0A03201840704782685C2364
:10027000D35C03201840F8E7002907D182684423A3
:10028000D35A1B044831525A9B184362406A704744
:10029000002907D182685423D35A1B045631525A7D
:1002A0009B188362806A7047002907D182684C23BB
:1002B000D35A1B044E31525A9B18C362C06A70470E
:1002C000F8B50400002901D0A06BF8BD0E4B98478B
:1002D0000E4DA847061C002120000D4B9847A8474B
:1002E000071C002120000B4B9847A847011C381C15
:1002F000094B9847011C301C084B98470849094B8B
:100300009847A063E0E7C04679020000B99F00006B
:1003100091020000A9020000819500005D9200009A
:10032000000048436199000070B506000D001400FC
:10033000002916D0002A16D0914209D311002800B6
:100340000A4B98470A0021003000FFF7EDFF09E053
:100350001000064B98470A0029003000FFF7E4FF21
:1003600000E0100070BD0800FCE7C046198E0000D8
:1003700070B5050000240DE0A300174A99581748EE
:10038000174B9847174B9847696B174B98470028AE
:100390001AD001340D2C10DC022CEDDDA3000E4A26
:1003A000995812480E4B98470E4B9847696B0E4B65
:1003B00098470028EDD1013CEC77E87F8300064A9E
:1003C000D25C2123EA5470BD002C02DD013CEC77A5
:1003D000F3E70023EB77F0E7740B0100FC3A000031
:1003E000218E0000199F000045900000EC2C0000B9
:1003F000F0B583B00400081C9F21C9050F4B984736
:100400000F4B98470190012676420E4FB8470100E6
:10041000320020000C4B9847050020630B4B984797
:10042000011C01980A4B9847B847A0622900300088
:10043000084B9847E06203B0F0BDC04661990000E8
:10044000C58C0000AD90000029030000B99F00009A
:10045000819500000D8D000030B50022022A08DCD5
:1004600002239B1AD4000D00E540C3181D7401320D
:10047000F4E730BD70B504000021C0680A4DA847FC
:100480000A4920000A4B9847210010310322E068F6
:10049000084B9847A061C317181AC00FA075012117
:1004A000E068A847A07D70BD350D0000192100004F
:1004B00059040000050D0000F0B583B004000021D0
:1004C000C068164DA84716492000164FB84710239C
:1004D0009C46A4446346032201936146E068124EA1
:1004E000B047A0610121E068A84764200F4B9847FE
:1004F0000021E068A8470E492000B847032201996F
:10050000E068B047A061C317181AC00FA075012199
:10051000E068A847A07D03B0F0BDC046350D0000DF
:100520001E21000059040000050D0000FD1A000006
:100530001C21000070B50023012B08DC0224E41A02
:10054000DD0016002E41041926740133F4E701740E
:1005500070BD0000F8B504000E0015004F00836860
:10056000DB5BC27DAB4203D1002A01D0A069F8BD9C
:100570000021E0680B4B98472A00310020000A4B0D
:100580009847210010310322E068084B9847A0618A
:10059000002801DDA368DD530121E068014B984785
:1005A000E4E7C046350D000035050000050D0000EC
:1005B00070B504000D1C2023C35C002B02D005D0B5
:1005C000012B15D0A2684A23D05A70BD1749281CA8
:1005D000174B9847002805D0164A25212000164BB6
:1005E0009847EFE7154A25212000134B9847E9E784
:1005F0000E49281C0E4B984700280BD11049281C87
:100600000B4B984700280BD10C4A252120000A4BA0
:100610009847D7E70B4A25212000074B9847D1E799
:10062000044A25212000044B9847CBE7005043465D
:100630004590000004820000550500000481000080
:1006400000401C460483000010B5040000290ED1B0
:1006500083681B88082293438383A28B0021200098
:10066000064B9847A061431E9841C0B210BD8368F5
:100670001B88082213438383EFE7C046550500001B
:1006800070B504000021054DA8476420044B98472D
:1006900001212000A847A07570BDC0464906000092
:1006A000FD1A000070B505000022722A0ADC500015
:1006B00072239B1A5B000B49CB181B8F69680B5286
:1006C0000132F2E77324002C0BDD611EC9B2064B28
:1006D000E3185B006A68D25A2800044B9847013C33
:1006E000F1E770BD740B0100FFFFFF7F55050000AF
:1006F00010B5040000290BD143681B8804229343E2
:100700008383A28B00212000044B9847A06110BD79
:1007100043681B88042213438383F2E755050000D6
:10072000F8B504000E0000211B4B98470023A3835B
:10073000A28B531E9BB219498B4224D90021E06839
:10074000174FB84780235B423343A377032200212E
:10075000250013352800134B9847012221001E3134
:10076000E068114B9847A06102222900E0680F4B16
:100770009847A061E37C1B02227D9B18A383012183
:10078000E068B847D4E7760063689A5301212000F7
:10079000014B9847A08BF8BDF1060000FDFF00005B
:1007A000350D000085B70000050D00001D0D00008F
:1007B00010B5040000290BD196238268D25A9211F9
:1007C000773B1340C377E37F9B00054A985810BDE1
:1007D0004B21044B984783111F201840E077F2E724
:1007E000740B01002107000070B582B00500684657
:1007F0002A4B9847C023DB051C68294A126A1B69EB
:1008000053401C4054406846264B98478023DB02E7
:100810001C40631E9C41E4B2EC75002C10D0EB7DB3
:10082000002B0AD0022128001F4B9847002820DD0A
:10083000002128001D4B98472860E87D02B070BD5C
:100840000A201B4B984701A8144B9847C023DB058F
:100850001C68134A126A1B6953401C40544001A88B
:10086000104B98478023DB021C40631E9C41EC75B3
:10087000D5E7002128000F4B984721242855002157
:1008800028000A4B9847061C285D0B4B9847011C13
:10089000301C0A4B98472860CFE7C046911A0000E9
:1008A00000440041B31A00005B020000C1020000D6
:1008B000FD1A0000B1070000199F0000819500009B
:1008C00070B504000E48E0600E4B98470121E068C7
:1008D0000D4B984720000D4B984720000C4B984734
:1008E00020000C4B98470A200B4DA84720000B4BCB
:1008F00098476420A8472000094B984770BDC04620
:100900004C0A0020DD0C0000350D000075040000CD
:10091000B9040000A5060000FD1A000081060000D1
:10092000E907000070B50400456B0B49281C0B4B10
:100930009847002805D0A563A16B2000084B984775
:1009400070BD00212000074B9847074B9847291C92
:10095000064B9847A063EFE700F0EB454590000099
:10096000B1050000B1070000199F00006199000067
:1009700070B50400028D2B210C4DA847628D2A21F1
:100980002000A847A28D27212000A847E28D26211C
:100990002000A8472000064B9847A28C2421200065
:1009A000A847E28C22212000A84770BD5505000011
:1009B0002509000070B504000D1C4049281C404B5F
:1009C0009847002838D13F49281C3D4B98470028BC
:1009D00034D065633C49281C394B984700283AD0ED
:1009E00039492068364B9847002829D00122212315
:1009F000E2542123E05C354B9847291C344B98473F
:100A00003449354B9847051CE063344B9847344BC9
:100A100098476062334B9847011C281C324B98471B
:100A2000011C20642000314B98472000304B984730
:100A30002000304B984701E0204B6363206C70BD71
:100A40005C23A268D25A01231A4392B22E212000BD
:100A5000294B9847CAE71C492068284B984700282B
:100A60001AD09623A268D25A254B1A40A28316B2F6
:100A70002000244B98478201324392B24B21200040
:100A80001D4B98472123E35C022B0FDD1E4A1F21DB
:100A90002000194B9847ACE75C23A268D25A593B17
:100AA0009A432E212000144B9847DAE7FB2292004C
:100AB0001F212000104B98479BE7C04600F06B4673
:100AC000459000000000C84300F0EB45199F00006E
:100AD000619900000000484381950000298C0000C6
:100AE000AD900000B99F0000A19B0000F103000041
:100AF0007109000081060000550500001D900000EE
:100B00003FF8FFFF71030000EC43000070B50400E4
:100B100000224823C25425E0616C20682C4B984782
:100B20002C492D4B9847002802D001224923E2543A
:100B30004923E35C002B2FD0616C2068274B98473A
:100B40006063274B984702000B00264826498847D8
:100B5000616B2000254B984700224823E2540A206D
:100B6000234B98474823E35CFE2B2FDC2000214BCE
:100B70009847002815D04923E35C002BCCD0616C4A
:100B80002068164B98471C491C4B98470028CFD02B
:100B900000224923E254CBE7616C20680C4B984754
:100BA000CEE74822A35C0133DBB2A3549BB29A0088
:100BB0009B18580080B2643080B20D4DA847216860
:100BC00020000A4B98476420A847CBE7002070BD5F
:100BD000A19B0000000061451D9000005D92000097
:100BE00035B30000940C010019B80000B5090000ED
:100BF000FD1A0000E90700000080894545900000CB
:100C000010B502490120024B984710BDFFFF0000BC
:100C1000DD01000010B5012800D010BD064B99423F
:100C2000FBD1064C2000064B9847064A0649200097
:100C3000064B9847F1E7C046FFFF00002C0C002050
:100C4000190200000000002059020000198C000069
:100C500010B50F4B98470F480F4B9847002809D104
:100C600064300E4B98478021C9059C23C022D205D1
:100C7000D150F0E78021C9059823C022D205D15078
:100C80000448074B98476420044B9847F8E7C04650
:100C9000510D00002C0C0020C1080000FD1A0000BE
:100CA0000D0B000010B502490120024B984710BD02
:100CB000FFFF0000150C0000014B18607047C04694
:100CC000800C00207047000010B50248024B984786
:100CD000002010BDF0120020651C000010B50400BB
:100CE00001000C310448054B98472000044B9847FD
:100CF0000123237010BDC046F0120020D91D000052
:100D0000C90C000010B5140000230370C06892B233
:100D1000014B9847200010BD351B000010B5140092
:100D200000230370C06892B2014B9847200010BDA9
:100D3000891B0000002905D180221203C023DB0596
:100D40005A61704780221203C023DB059A61F8E7DD
:100D500080B500AF044B9847044B9847044B984725
:100D6000C046BD4680BDC046D9190000A57300002D
:100D70004173000080B582B000AF78600A00BB1CF0
:100D80001A807B68BA1C12885A80C046BD4602B0E1
:100D900080BD80B584B000AFF8607A600B23FB188B
:100DA0000A1C1A700B23FB181B78FA68DB01D31896
:100DB00008337A681A60C046BD4604B080BD80B56D
:100DC00084B000AFF8607A600B23FB180A1C1A701D
:100DD0000B23FB181B78FA68DB01D31804337A68FD
:100DE0001A60C046BD4604B080BD80B584B000AF77
:100DF000F8607A600B23FB180A1C1A700B23FB188F
:100E00001B78FA68DB01D31818337A681A60C04679
:100E1000BD4604B080BD80B584B000AFF8607A6094
:100E20000B23FB180A1C1A700B23FB181B78FA689B
:100E3000DB01D31814337A681A60C046BD4604B08B
:100E400080BD90B585B000AF78600C00100019002F
:100E5000FB1C221C1A70BB1C021C1A707B1C0A1C77
:100E60001A70FB1C1978BB1C1A780F23FB187868C2
:100E70003024C90141188A18121912781A700F23E8
:100E8000FB180F22BA1812780F218A431A707B1CA4
:100E90001B780F221340D9B20F23FB180F22BA1868
:100EA00012780A431A70FB1C1A78BB1C1B787968ED
:100EB0003020D2018A18D3181B180F22BA181278C2
:100EC0001A70C046BD4605B090BD90B585B000AF64
:100ED00078600C0010001900FB1C221C1A70BB1C4F
:100EE000021C1A707B1C0A1C1A70FB1C1978BB1C94
:100EF0001A780F23FB1878683024C90141188A1822
:100F0000121912781A700F23FB180F22BA181278D0
:100F10000F210A401A707B1C1B781B01D9B20F23CA
:100F2000FB180F22BA1812780A431A70FB1C1A78A1
:100F3000BB1C1B7879683020D2018A18D3181B1883
:100F40000F22BA1812781A70C046BD4605B090BD7F
:100F500090B585B000AF78600C0010001900FB1C44
:100F6000221C1A70BB1C021C1A707B1C0A1C1A70F3
:100F7000FB1C1978BB1C1A780F23FB1878684024D7
:100F8000C90141188A18121912781A700F23FB1818
:100F90000F22BA18127801218A431A707B1C197823
:100FA0000F23FB180F22BA1812780A431A70FB1C81
:100FB0001A78BB1C1B7879684020D2018A18D31894
:100FC0001B180F22BA1812781A70C046BD4605B019
:100FD00090BDB0B582B000AF786008001100FB1C76
:100FE000021C1A70BB1C0A1C1A70FB1C1A78BB1C52
:100FF0001B78F91C0878B91C09787C684025C00169
:101000002018411849190978C9B204200143CCB20B
:1010100079684020D2018A18D3181B18221C1A7034
:10102000C046BD4602B0B0BDB0B582B000AF78607A
:1010300008001100FB1C021C1A70BB1C0A1C1A7051
:10104000FB1C1A78BB1C1B78F91C0878B91C0978A2
:101050007C684025C0012018411849190978C9B297
:1010600004208143CCB279684020D2018A18D31879
:101070001B18221C1A70C046BD4602B0B0BD80B518
:1010800084B000AFF8607A600B23FB180A1C1A705A
:101090000B23FB181B78FA68DB01D31828337A6816
:1010A0001A60C046BD4604B080BD000080B582B065
:1010B00000AF39601100FB1D021C1A70BB1D0A1C19
:1010C0001A70BB1D1B78012B23D0022B3FD0002BA5
:1010D0005DD13A68FB1D1978C023DB051800314B40
:1010E00098473B681B041B0C8022D2051A43FB1D4A
:1010F0001B782D4819002D4B98473B681B0CC022CC
:1011000012061A43FB1D1B7827481900274B9847E6
:1011100043E03A68FB1D1978C023DB051800214B1A
:1011200098473B681B041B0C214A1A43FB1D1B7884
:101130001D4819001D4B98473B681B0C1D4A1A435C
:10114000FB1D1B7818481900184B984725E03A6892
:10115000FB1D1978C023DB051800174B98473B6827
:101160001B041B0C8022D2051A43FB1D1B780E4862
:1011700019000E4B98473B681B0CC02212061A43FD
:10118000FB1D1B7808481900084B984705E00B4BDE
:101190004522190000200A4B9847C046BD4602B0C0
:1011A00080BDC046BF0D0000004400417F1000001C
:1011B00000000240000002C0930D0000B00C0100CE
:1011C000E12A000080B582B000AF39601100FB1D3C
:1011D000021C1A70BB1D0A1C1A70BB1D1B78002B49
:1011E00008D03A68FB1D1978C023DB051800074BAF
:1011F000984707E03A68FB1D1978C023DB05180003
:10120000034B9847C046BD4602B080BDEB0D0000C1
:10121000170E000090B583B000AF04000800110065
:10122000FB1D221C1A70BB1D021C1A707B1D0A1CA0
:101230001A707B1D1B78012B0CD0022B29D0002BA0
:1012400046D1BB1D1A78FB1D1B7827481900274B78
:10125000984744E0BB1D1B7801229A40FB1D19787A
:10126000C023DB051800224B9847BB1D1A78FB1DD5
:101270001B781D4819001F4B9847BB1D1B78012286
:101280009A40FB1D1978C023DB0518001A4B9847BC
:1012900025E0BB1D1B7801229A40FB1D1978C02355
:1012A000DB051800124B9847BB1D1A78FB1D1B78F5
:1012B0000D4819000F4B9847BB1D1B7801229A401F
:1012C000FB1D1978C023DB0518000C4B984706E07E
:1012D0000B4B8822190000200A4B9847C046C04695
:1012E000BD4603B090BDC046004400412910000037
:1012F000BF0D0000D30F0000EB0D0000170E000023
:10130000B00C0100E12A000090B585B000AF786014
:1013100039607B685A090F23FB181A707B68DAB2B0
:101320000E23FB181F210A401A703B6801330AD1B3
:101330000E23FB181A780F23FB1819781B4800237B
:101340001B4CA0472EE00E23FB181A780F23FB1826
:10135000197816480123164CA0470E23FB181B785A
:10136000012213400FD00E23FB181B785B08DAB262
:101370003B68D8B20F23FB1819780C4C03002000EF
:101380000C4CA0470EE00E23FB181B785B08DAB26A
:101390003B68D8B20F23FB181978044C03002000D7
:1013A000054CA047C046BD4605B090BD0044004175
:1013B000510F0000CB0E0000430E000080B582B03C
:1013C00000AF0200FB1D1A70BB1D0A1C1A70FB1D2A
:1013D0001B785B09D8B2FB1D1B781F221340D9B2C2
:1013E000BB1D1B781A00034B9847C046BD4602B090
:1013F00080BDC0461512000080B582B000AF786095
:1014000039603A687B6811001800034B9847C04662
:10141000BD4602B080BDC0460913000080B582B051
:1014200000AF0200FB1D1A70BB1D0A1C1A70FB1DC9
:101430001B785B09D8B2FB1D1B781F2213400122C9
:101440009A401100BB1D1B781A00034B9847C046F9
:10145000BD4602B080BDC046AD10000080B582B070
:1014600000AF0200FB1D1A70BB1D0A1C1A70FB1D89
:101470001B785B09D8B2FB1D1B781F221340012289
:101480009A401100BB1D1B781A00034B9847C046B9
:10149000BD4602B080BDC046C511000080B500AF9A
:1014A000024B9847C046BD4680BDC0464D2D00004A
:1014B00080B582B000AF0200FB1D1A70BB1D0A1C74
:1014C0001A70FB1D1B789BB23F2213409AB2BB1DC2
:1014D0001B789BB21B0299B2F0231B010B409BB2FD
:1014E00013439BB28022D20113439BB2044A1900DA
:1014F0001000044B9847C046BD4602B080BDC046B0
:10150000000C0040750D000080B582B000AF78601F
:101510007B68012B01D1002323E07B68022B01D1E2
:1015200001231EE07B68032B01D1022319E07B68B5
:101530000E4A934201D1032313E07B680C4A934285
:1015400001D104230DE07B680A4A934201D10523AF
:1015500007E07B68084A934201D1062301E00D238E
:101560005B421800BD4602B080BDC046002000416D
:1015700000400041004800410050004180B582B069
:1015800000AF78607A688223DB059A4201D100239C
:101590001FE07B68114A934201D1012319E07B6867
:1015A0000F4A934201D1022313E07B680D4A934214
:1015B00001D103230DE07B680B4A934201D1042340
:1015C00007E07B68094A934201D1052301E00D231E
:1015D0005B421800BD4602B080BDC04600200041FD
:1015E00000400041004400410048004100500041DB
:1015F00080B584B000AF02003960FB1D1A703B68F3
:101600009B0A3F221340FB60FB1D1B78012B1ED061
:1016100002DC002B05D044E0022B22D0032B36D075
:101620003FE03B681800264B9847031E40DB3B68B1
:101630001800234B98470300FB60224B214A526954
:101640000120F968884001000A435A6130E01D4BCF
:101650001C4A92690120F968884001000A439A6196
:1016600029E03B681800184B9847031E22DB3B68B3
:101670001800154B98470300FB60124B114AD269C2
:101680000120F968884001000A43DA6112E00D4B3D
:101690000C4A126A0120F968884001000A431A6264
:1016A00009E00A4B9B2219000020094B984702E0F1
:1016B000C04600E0C046C046BD4604B080BDC0463E
:1016C00009150000000400407D150000CC0C01004D
:1016D000E12A000080B500AF00210420134B984799
:1016E00002210420124B9847124B19000420124B80
:1016F0009847002105200D4B9847022105200C4BEF
:1017000098470E4B190005200B4B984701210620E6
:10171000074B984700210620094B9847094B1900B1
:101720000620054B9847C046BD4680BD5D140000AD
:101730001D14000003000400F9130000030005005D
:10174000BD1300000300060080B500AF054B190073
:101750000320054B984700211420044B9847C046AE
:10176000BD4680BD00080042F1150000B114000024
:1017700080B500AF064B9847064A074B110018008A
:10178000064B9847064B9847C046BD4680BDC046AD
:10179000491700000008004214130020DD1B000060
:1017A000D516000080B500AF00211020134B9847DC
:1017B00002211020124B9847124B19001020124B97
:1017C0009847002111200D4B9847022111200C4B06
:1017D00098470E4B190011200B4B984701211220FE
:1017E000074B984700211220094B9847094B1900D5
:1017F0001220054B9847C046BD4680BD5D140000D1
:101800001D14000002001000F91300000200110076
:10181000BD1300000200120080B500AF054B190097
:101820000320054B984700211520044B9847C046DC
:10183000BD4680BD000C0042F1150000B11400004F
:1018400080B500AF064B9847064A074B11001800B9
:10185000064B9847064B9847C046BD4680BDC046DC
:1018600019180000000C0042F0120020DD1B0000DF
:10187000A517000080B500AF064B19001620064BD7
:101880009847064B19001720034B9847C046BD46A2
:1018900080BDC04602001600F913000002001700C8
:1018A00080B500AF054B19000320054B9847002178
:1018B0001720044B9847C046BD4680BD0014004227
:1018C000F1150000B114000080B500AF064B984739
:1018D0000649074B00221800064B9847064B9847CD
:1018E000C046BD4680BDC046A1180000001400429D
:1018F00008130020251E00007518000080B500AFF9
:10190000034B1800034B9847C046BD4680BDC046F8
:1019100010E000E0D51A000080B500AF02211820C9
:10192000114B984700211820104B98470021182090
:101930000F4B98470F4B190018200F4B9847022167
:101940001920094B984700211920084B984700217E
:101950001920074B9847094B19001920064B984747
:10196000C046BD4680BDC0461D1400005D14000089
:10197000BD13000006001800F9130000060019004E
:1019800080B500AF084B19000220084B9847064B62
:1019900019000020054B984704210620044B984766
:1019A000C046BD4680BDC04600500041F115000054
:1019B000B114000080B500AF044B9847044B984722
:1019C000044B9847C046BD4680BDC0468119000003
:1019D000A92400001919000080B500AF234B9847D7
:1019E00000210720224B984702210720214B9847CE
:1019F00001235B42190007201F4B98470121132048
:101A00001B4B9847022113201A4B984701235B4236
:101A100019001320184B984701211E20144B98479A
:101A200002211E20134B984701235B4219001E2000
:101A3000114B984701213E200D4B984702213E2033
:101A40000C4B984701235B4219003E200A4B9847F4
:101A50000A4B98470A4B98470A4B98470A4B9847B6
:101A60000A4B9847C046BD4680BDC0469D14000045
:101A70005D1400001D140000F91300007117000030
:101A800041180000C9180000FD180000B519000039
:101A900080B584B000AF7860EFF31083FB60FA6824
:101AA0007B681A6072B6BFF35F8FC046BD4604B054
:101AB00080BD80B584B000AF7860BFF35F8F7B6876
:101AC0001B68FB60FB6883F31088C046BD4604B00A
:101AD00080BD000080B582B000AF7860054B7A68A9
:101AE0001A60044B1B681800034B9847C046BD465C
:101AF00002B080BD840C0020E544000090B583B0A6
:101B000000AF0200BB1D1A80074B1C68BB1D1B8861
:101B10001800064B9847030019002000044B984713
:101B2000C046BD4603B090BD840C0020FD2C0000D3
:101B30000145000080B584B000AFF860B960BB1DFE
:101B40001A80FB68002B04D0BB68002B01D0012356
:101B500000E000231A1C01231340DBB208493422A1
:101B60001800084B9847FB681B68BA1D1288B968B3
:101B7000F868984703001800BD4604B080BDC04611
:101B8000E40C0100E12A000080B584B000AFF860E9
:101B9000B960BB1D1A80FB68002B04D0BB68002B0A
:101BA00001D0012300E000231A1C01231340DBB203
:101BB00008493D221800084B9847FB685B68BA1D2E
:101BC0001288B968F868984703001800BD4604B049
:101BD00080BDC046E40C0100E12A000080B584B05D
:101BE00000AF786039600023FB607B68002B04D075
:101BF0003B68002B01D0012300E000231A1C0123C5
:101C00001340DBB2114940221800114B98477B6802
:101C10003A685A607B6804333A68110018000D4B2B
:101C200098470300FB60FB68002B01DAFB6809E0C2
:101C30007B68094A9A827B68084A1A617B68084A6D
:101C4000DA6000231800BD4604B080BDF80C010026
:101C5000E12A0000A53A00000080FFFF9D1C000063
:101C6000011D000080B582B000AF78607B685A1E0D
:101C70009341DBB2064957221800064B98477B6810
:101C800004331800044B9847C046BD4602B080BDDF
:101C9000F80C0100E12A0000093C000080B588B082
:101CA00000AFF860B960BB1D1A80FB685A1E9341F3
:101CB000DBB21049872218000F4B9847FB680C3B9A
:101CC000FB611023FB18BA685A601023FB1800222E
:101CD0001A60BB1D1A881023FB189A601023FA188B
:101CE000FB6911001800054B984703001800BD461A
:101CF00008B080BDF80C0100E12A0000651D00005D
:101D000080B588B000AFF860B960BB1D1A80FB6871
:101D10005A1E9341DBB21049A32218000F4B98477B
:101D2000FB680C3BFB611023FB1800225A60102358
:101D3000FB18BA681A60BB1D1A881023FB189A603A
:101D40001023FA18FB6911001800054B984703008F
:101D50001800BD4608B080BDF80C0100E12A000063
:101D6000651D000080B586B000AF786039607B6883
:101D7000002B04D03B68002B01D0012300E000239E
:101D80001A1C01231340DBB21049B3221800104B78
:101D900098473B681A680C23FB181A603B685A681E
:101DA0000C23FB185A603B689A680C23FB189A6056
:101DB0007B6804330C22BA1811001800054B9847B1
:101DC00003001800BD4606B080BDC046F80C0100F7
:101DD000E12A0000C13D000080B582B000AF78600C
:101DE00039607B68002B04D03B68002B01D00123B5
:101DF00000E000231A1C01231340DBB20749BD2277
:101E00001800074B98477B680C331A003B681A6030
:101E100000231800BD4602B080BDC046F80C01008A
:101E2000E12A000080B586B000AFF860B9607A6042
:101E3000FB68002B04D0BB68002B01D0012300E01D
:101E400000231A1C01231340DBB20F49342218006F
:101E50000E4B9847FB680833BA68110018000C4B0A
:101E6000984703007B617B69002B01D07B6906E00A
:101E7000FB68084A5A60FB68074A1A60002318008A
:101E8000BD4606B080BDC046140D0100E12A000029
:101E90007D340000AD1F0000D91E000080B582B067
:101EA00000AF78607B685A1E9341DBB2074953222A
:101EB0001800074B98477B6808331800054B984774
:101EC00000231800BD4602B080BDC046140D0100BD
:101ED000E12A0000BD34000080B586B000AFF86094
:101EE000B960BB1D1A8000237B61FB683B61FB6806
:101EF000002B08D0BB68002B05D0BB1D1B88002B16
:101F000001D0012300E000231A1C01231340DBB29F
:101F10002149F1221800214B9847C0463B690833FC
:101F200018001F4B984703001A0001235340DBB2EF
:101F3000002BF3D13B6908331800BA687B69D318CA
:101F40001B781900174B9847C0463B6908331800A7
:101F5000134B984703001A0001235340DBB2002BB8
:101F6000F3D17B6901337B61BB1D1B887A699A427F
:101F7000E0D3C0463B69083318000B4B9847030079
:101F80001A0001235340DBB2002BF3D17B69180008
:101F9000BD4606B080BDC046140D0100E12A000018
:101FA0002D350000DD3400004D35000090B587B0C0
:101FB00000AFF860B960BB1D1A8000237B61FB682D
:101FC0003B61FB68002B08D0BB68002B05D0BB1D14
:101FD0001B88002B01D0012300E000231A1C0123E1
:101FE0001340D8B286235A00134B1900134B98475D
:101FF000C0463B6908331800114B984703001A008C
:1020000001235340DBB2002BF3D1BA687B69D418AB
:102010003B69083318000B4B9847030023707B691A
:1020200001337B61BB1D1B887A699A42E0D37B69CF
:102030001800BD4607B090BD140D0100E12A000054
:102040006D3500000935000080B584B000AF020096
:10205000FB1D1A700F23FB1800221A7038E00F23A3
:10206000FB181B785BB2204A5B01D31801331B7845
:10207000FA1D12789A4204D10F23FB181B785BB229
:102080002EE00F23FB1800229A56174B5201D35C07
:10209000002B13D1FB1D1B780F2213400F22BA18FF
:1020A000127852B2104952018A18013212789342C2
:1020B00004D10F23FB181B785BB211E00F23FB1830
:1020C0001B785BB2DBB20133DAB20F23FB181A7054
:1020D0000F23FB181B785BB2072BC0DD01235B428B
:1020E0001800BD4604B080BD880C002080B588B0C3
:1020F00000AFBA607B600F23FB18021C1A700E231E
:10210000FB180A1C1A701423FB18BA681A601423EF
:10211000FB187A685A600E23FB181B78002B07D037
:102120000F23FB181B78802252421343DBB205E0D9
:102130000F23FB181B780F221340DBB21422BA18AE
:1021400013721423FB182822BA1812785A72142317
:10215000FB181800034B984703001800BD4608B051
:1021600080BDC0465570000080B584B000AFF860F7
:10217000B9607A6000231800BD4604B080BD00003D
:1021800090B587B000AF0200FB1D1A701723FC1832
:10219000FB1D1B781800334B98470300237017234F
:1021A000FB181B785BB25A012F4BD3183B613B697C
:1021B0000C33FB60FA68FB1D1B78110018002B4BD9
:1021C000984702000B23FB181A700B23FB181B788F
:1021D000082B10D0FB1D1B7801211800244B9847B9
:1021E000FB1D1B78802252421343DBB201211800F1
:1021F0001F4B984733E0FB1D1B78002118001C4B38
:102200009847FB1D1B78802252421343DBB200210A
:102210001800174B98473B6901229A703B695B692C
:10222000F968FA1D12781000984703001A0001237C
:102230005340DBB2002B12D03B6905229A70FB1D84
:102240001B78012118000A4B9847FB1D1B78802240
:1022500052421343DBB201211800054B9847BD469B
:1022600007B090BD49200000880C0020856F000059
:10227000A16D000090B585B000AF02003960FB1D74
:102280001A700F23FC18FB1D1B7818000E4B984783
:10229000030023700F23FB181B785BB25A010B4B12
:1022A000D318BB60BB689B78032B08D1BB689B69C4
:1022B0003968FA1D127810009847030000E00023E7
:1022C0001800BD4605B090BD49200000880C0020D4
:1022D00090B587B002AF78600F23FB187A689278C8
:1022E0001A707B681B7B1A0080231A400E23FB1890
:1022F000511E8A411A700F23FB181B78032B42D101
:102300007B68DB697A6850787A680C320D217C181A
:1023100001219847030023700D23FB181B78002B25
:1023200018D07B6805229A707B680222DA700E232F
:10233000FB181B78002B02D07B685B7805E07B687C
:102340005B78802252421343DBB201211800154B07
:10235000984723E07B6804229A707B6858780E23A4
:10236000FB181B785A1E9341DBB201225340DBB2AB
:102370001A1C01231340D9B2012300930023002229
:10238000094CA0470AE07B68DB697A6850787A6874
:102390000C32002198477B6802229A70C046BD46E5
:1023A00005B090BDA16D0000ED20000090B587B094
:1023B00000AFB9607A600F23FB18021C1A70172354
:1023C000FC180F23FB181B781800334B98470300A9
:1023D00023701723FB181B785BB25A012F4BD318BD
:1023E0003B61BB68002B0FD13B690022DA703B696F
:1023F0001B78002B04D13B691800294B984748E013
:102400003B6901229A703AE0BB68012B15D13B6908
:102410000222DA703B691B78002B0AD13B69022249
:102420009A700F23FB181B78002118001D4B98474A
:1024300025E03B6905229A7021E0BB68022B0ED192
:102440003B690422DA703B691B78002B03D13B699E
:1024500002229A701DE03B6901229A700FE0BB686E
:10246000032B06D13B6900229A703B690522DA7082
:1024700005E03B6906229A703B690622DA703B69E7
:10248000DB693A69D1787C680F22BA18107822008B
:102490009847BD4607B090BD49200000880C002039
:1024A000D1220000A16D000080B582B000AF284BA2
:1024B000984703003B603B68002B01DA3B6843E030
:1024C00080235A00234B00211800234B9847FB1D03
:1024D00000221A7024E0FB1D1B781E4A5B01D318F2
:1024E0000133FF221A70FB1D1B781A4A5B01D318B7
:1024F00014331A4A1A60FB1D1B78164A5B01D31865
:102500001833164A1A60FB1D1B78124A5B01D31858
:102510001C33124A1A60FB1D1A78FB1D01321A7017
:10252000FB1D1B78072BD6D90D4B190000200D4B36
:1025300098470D4B190001200A4B98470B4B190087
:102540000220084B984700231800BD4602B080BD0A
:1025500055640000880C002085B700006921000048
:1025600081210000D172000075220000AD2300001F
:1025700080B582B000AF02003960FB1D1A703A6866
:10258000FB1D1B7811001800024B9847C046BD4642
:1025900002B080BD8572000080B500AF024B984745
:1025A00003001800BD4680BD6165000080B500AF26
:1025B000024B9847C046BD4680BDC046E565000059
:1025C00080B582B000AF0200FB1D1A70FB1D1B78A6
:1025D0001800034B9847C046BD4602B080BDC046B8
:1025E0000166000080B582B000AF0200FB1D1A70CA
:1025F000FB1D1B789BB21A0000210020034B98475B
:1026000003001800BD4602B080BDC0461126000080
:1026100090B587B000AF040008001100FB1D221C1C
:102620001A70BB1D021C1A703B1D0A1C1A8017234E
:10263000FC18FB1D1B781800254B984703002370DE
:102640001723FB181B785BB25A01224BD3183B614E
:102650001723FB181B787F2B02D814235B4232E030
:102660001723FC18FF201A4B9847030023701723E9
:10267000FB181B787F2B02D915235B4223E017231D
:10268000FB181B785BB25A01124BD3183B613B1D00
:102690001A88BB1D1978FB1D1B7818000E4B984734
:1026A0000300FB60FB68002B01DAFB680BE03B6971
:1026B000FA1D12785A70BB1D1B7803221340DAB240
:1026C0003B691A7000231800BD4607B090BDC04694
:1026D00049200000880C0020C966000090B585B034
:1026E00000AF0200FB1D1A700F23FC18FB1D1B78A6
:1026F00018000F4B9847030023700F23FB181B781B
:102700005BB25A010B4BD318BB600F23FB181B782D
:102710007F2B08D8FB1D1B781800074B9847BB6818
:10272000FF225A7000E0C046BD4605B090BDC046CD
:1027300049200000880C00204568000090B587B053
:1027400000AF0200FB1D1A701723FC18FB1D1B783D
:102750001800174B9847030023701723FB181B78AA
:102760005BB25A01134BD3183B611723FB181B783C
:102770007F2B02D912235B4216E03B691B78002BAA
:1027800001D1022200E001223B699A70FB1D1B78F7
:102790001800094B98470300FB60FB68002B02DA26
:1027A0003B6900229A70FB681800BD4607B090BDD7
:1027B00049200000880C002045690000B0B58CB0AD
:1027C00002AF78607B681B7A1F22BC1818005E4B32
:1027D0009847030023701F23FB181B785BB25A0134
:1027E0005A4BD318BB617B681B7A1A0080231A40AE
:1027F0002723FB18511E8A411A707B685A7A2623B8
:10280000FB18511E8A411A707B685B683B621F236C
:10281000FB181B787F2B02D912235B4290E0082320
:10282000FB1818004A4B9847BB699A780F23FB188E
:102830001A700F23FB181B78DBB2012B0CD1BB697C
:1028400003229A700823FB181800424B9847BB6973
:102850001B78002B61D119E00823FB1818003D4BB1
:1028600098470F23FB181B78DBB2052B04D0062BEF
:1028700004D0002B05D007E0022361E010235B4267
:102880005EE013235B425BE0012359E0BB699B7C64
:1028900099B2BB69DB7C9BB21B029AB21623FB1870
:1028A0008A181A801623FB181B88002B0DD12723AA
:1028B000FB1801221A7000233B622623FB18012219
:1028C0001A70BB6904229A7027E0BB691B7B1A004F
:1028D00080231A402723FB18511E8A411A701623A1
:1028E000FB181A883B6A9A4203D21623FB181B88EE
:1028F0003B622723FB181B78002B0AD01623FB18FA
:102900001A882623FB18396A9142924152421A7062
:1029100003E02623FB1800221A707B68187A7B6874
:102920001C682623FB181B783D6A2722BA181178E9
:1029300000932B002200084CA04703003B613B6939
:102940001800BD460AB0B0BD49200000880C002028
:10295000911A0000B31A0000ED20000090B587B076
:1029600000AF0200FB1D1A701723FC18FB1D1B781B
:1029700018001D4B9847030023701723FB181B7882
:102980005BB25A01194BD3183B611723FB181B7814
:102990007F2B02D912235B4222E0FB1D1B78022110
:1029A0001800134B9847031E19D0FB1D1B780021FC
:1029B00018000F4B98470300FB60FB68002B01DAFF
:1029C000FB680DE03B6901229A703B690322DA70D3
:1029D0003B69DB69FA1D1078002203219847002328
:1029E0001800BD4607B090BD49200000880C0020AB
:1029F000A16D000080B582B000AF0200FB1D1A700F
:102A0000BB1D0A1C1A70BB1D1B78002B06D1FB1DB9
:102A10001B7818000D4B9847030012E0BB1D1B7874
:102A2000012B07D1FB1D1B7801211800084B98478B
:102A3000030006E0FB1D1B7802211800044B984799
:102A400003001800BD4602B080BDC0465D290000ED
:102A5000A16D000090B587B000AF3A60FB1D021C6D
:102A60001A70BB1D0A1C1A701723FC18FB1D1B785B
:102A70001800184B9847030023701723FB181B7886
:102A80005BB25A01144BD3183B613B68002B01D059
:102A90003B6800E0114BFB601723FB181B787F2B72
:102AA00014D8BB1D1B78012B08D0022B0AD0002B99
:102AB00000D00CE03B69FA685A6108E03B69FA68AB
:102AC0009A6104E03B69FA68DA6100E0C046BD46FD
:102AD00007B090BD49200000880C0020692100004B
:102AE00080B584B000AFB9607A600F23FB18021C78
:102AF0001A700F23FB181B7801225340DBB2002B06
:102B000000D000BEC046BD4604B080BD90B583B0C5
:102B100000AF39601100BB1D021C1A807B1D0A1C0E
:102B20001A707B1D1B78043B042B59D89A00344B38
:102B3000D3181B689F46BB1D1C883A68314B32492D
:102B400010009847030063435A1E2E4B0A211000C1
:102B50009847030001334EE0BB1D1C883A68294B9F
:102B60002A4910009847030063435A1E254B6421ED
:102B700010009847030001333DE0BB1D1C883868F6
:102B8000204BFA229100984703006343581E1D4BC7
:102B9000FA2291009847030001332CE0BB1D1C88EA
:102BA0003A68184B642110009847030063435A1E8B
:102BB000144B164910009847030001331BE0BB1D5E
:102BC0001C883A680F4B0A211000984703006343A2
:102BD0005A1E0C4B0C4910009847030001330AE0C1
:102BE000BB1D1B883A6853435A1E064B0849100008
:102BF0009847030001331800BD4603B090BDC0469E
:102C0000540D01000D8D0000A0860100102700006A
:102C100040420F0090B583B000AF39601100BB1D7A
:102C2000021C1A807B1D0A1C1A707B1D1B78043B3A
:102C3000042B4BD89A002D4BD3181B689F46BB1D05
:102C40001C883A682A4B2B491000984703006343BD
:102C50006422534345E0BB1D1C883A68244B264937
:102C600010009847030063431A0013009B009B1851
:102C70005B0036E0BB1D1C8838681D4BFA229100B2
:102C80009847030063432CE0BB1D1C883A68184B2F
:102C9000642110009847030063435A1E144B0A2115
:102CA00010009847030001331BE0BB1D1C883A68E5
:102CB0000F4B0A2110009847030063435A1E0C4B28
:102CC000642110009847030001330AE0BB1D1B88F4
:102CD0003A685343581E064BFA2291009847030066
:102CE00001331800BD4603B090BDC046680D010019
:102CF0000D8D0000A08601001027000080B582B075
:102D000000AF0200BB1D1A800549BB1D1B880822AD
:102D10001800044B984703001800BD4602B080BD60
:102D20000070DC02152C000080B582B000AF786026
:102D300039607B685A683B685B001E210B401A4370
:102D40007B685A60C046BD4602B080BD80B500AF0A
:102D5000084B00211800084B9847084B9847084B30
:102D60009847084B9847FF20074B9847C046BD46F9
:102D700080BDC04600400041292D0000CD2F00003D
:102D80002142000041430000E92D000080B582B0DF
:102D900000AF7860C0467B685B781B06DB0FDBB258
:102DA000002BF8D1C046BD4602B080BD80B582B0D0
:102DB00000AF786039607B683A685A607B681800B9
:102DC000024B9847C046BD4602B080BD8D2D000025
:102DD00080B582B000AF786039607B683A689A60ED
:102DE000C046BD4602B080BD80B582B000AF7860FD
:102DF0007B68012213400CD080235B00384A190005
:102E00001000384B9847384A354B11001800374BA3
:102E100098477B68022213400CD00223FF33304ACC
:102E2000190010002F4B9847314A2D4B1100180004
:102E30002E4B98477B68042213400BD02D4A284B19
:102E400011001800274B98472B4A254B11001800FA
:102E5000264B98477B68082213400BD0274A204B0B
:102E6000110018001F4B9847254A1D4B11001800F0
:102E70001E4B98477B68102213400CD082235B00C6
:102E8000174A19001000174B98471E4A144B11009F
:102E90001800164B98477B68202213400BD01A4A23
:102EA0000F4B110018000F4B9847184A0C4B11009C
:102EB00018000E4B98477B68402213400CD08323A8
:102EC0005B00074A19001000064B9847104A044B54
:102ED00011001800054B9847C046BD4602B080BDA2
:102EE000000C0040D12D000000082900AD2D00008D
:102EF0000106010002040000020621000308000090
:102F00000306290004070900050300000508010065
:102F10000604210080B582B000AF78600A00FB1C77
:102F20001A707B681B7ADAB2FB1C1B7807210B40F6
:102F3000DBB21343DAB27B681A72C046BD4602B0F8
:102F400080BD80B582B000AF78600A00FB1C1A70AB
:102F50007B685B7ADAB2FB1C1B7807210B40DBB283
:102F60001343DAB27B685A72C046BD4602B080BDD8
:102F700080B582B000AF78600A00FB1C1A707B68D5
:102F80009B7ADAB2FB1C1B7807210B40DBB21343A0
:102F9000DAB27B689A72C046BD4602B080BD80B589
:102FA00082B000AF78600A00FB1C1A707B68DB7A85
:102FB000DAB2FB1C1B7807210B40DBB21343DAB2F9
:102FC0007B68DA72C046BD4602B080BD80B500AFF6
:102FD0000B4B002118000B4B9847094B00211800A0
:102FE000094B9847064B00211800084B9847044BA3
:102FF00000211800064B9847C046BD4680BDC0461C
:1030000000040040152F0000432F0000712F000026
:103010009F2F000080B582B000AF78603960C04655
:103020007B68DB693A681340FAD1C046BD4602B0FE
:1030300080BD80B582B000AF786039607B68DB69A5
:103040003A6813405A1E9341DBB21800BD4602B0E5
:1030500080BD80B582B000AF78603960C0467B68C3
:10306000DB693A681340FAD1C046BD4602B080BD64
:1030700080B582B000AF786039607B68DB693A6800
:1030800013405A1E9341DBB21800BD4602B080BD0A
:1030900080B584B000AF78600A00FB1C1A700F2363
:1030A000FB187A68127E1A700F23FB180F22BA18C9
:1030B000F91C127809780A401A700F23FB181B7844
:1030C0001800BD4604B080BD80B582B000AF786006
:1030D0007B681B7EDBB21800BD4602B080BD80B5A8
:1030E00082B000AF78600A00FB1C1A707B68FA1C83
:1030F00012781A76C046BD4602B080BD80B582B057
:1031000000AF78607B681B7EDBB21A00012313409E
:103110005A1E9341DBB21800BD4602B080BD80B597
:1031200082B000AF78607B681B7EDBB25B08012257
:1031300013405A1E9341DBB21800BD4602B080BD59
:1031400080B582B000AF78607B681B7EDBB29B08E5
:10315000012213405A1E9341DBB21800BD4602B053
:1031600080BD000080B582B000AF78607B681B68CE
:1031700002221A437B681A607B6803211800034B04
:103180009847C046BD4602B080BDC046153000001D
:1031900080B584B000AF78607B6803211800094BCC
:1031A00098477B681B68FB60FB685B080122134043
:1031B000FB60FB685A1E9341DBB21800BD4604B0A9
:1031C00080BDC0461530000080B582B000AF786089
:1031D0007B681B68022293431A007B681A607B6835
:1031E00003211800024B9847C046BD4602B080BD7F
:1031F0001530000080B584B000AF786039607B681E
:1032000003211800064B98477B681B68FB60FB682E
:103210003A681340FB60FB681800BD4604B080BDEF
:103220001530000080B582B000AF786039607B68EF
:103230003A681A607B6803211800034B9847C04620
:10324000BD4602B080BDC0461530000080B582B0DA
:1032500000AF78607B681B6802221A437B681A60A3
:103260007B6803211800034B9847C046BD4602B057
:1032700080BDC0465330000080B582B000AF78609A
:103280007B681B68022293431A007B681A607B6884
:1032900003211800024B9847C046BD4602B080BDCE
:1032A0005330000080B584B000AF786039607B682F
:1032B00003211800064B98477B681B68FB60FB687E
:1032C0003A681340FB60FB681800BD4604B080BD3F
:1032D0005330000080B582B000AF786039607B6801
:1032E0003A681A607B6803211800034B9847C04670
:1032F000BD4602B080BDC0465330000080B582B0EC
:1033000000AF786039607B683A685A607B68072153
:103310001800034B9847C046BD4602B080BDC0466A
:103320001530000080B582B000AF786039607B68EE
:103330003A685A607B6807211800034B9847C046DB
:10334000BD4602B080BDC0465330000080B582B09B
:1033500000AF78600A00FB1C1A707B68FA1C1278B8
:103360001A73C046BD4602B080BD80B582B000AFC2
:1033700078600A00BB1C1A807B68BA1C12889A818C
:10338000C046BD4602B080BD80B582B000AF786057
:103390000A00FB1C1A707B68FA1C12789A73C046EC
:1033A000BD4602B080BD80B582B000AF78603960A4
:1033B0007B683A685A62C046BD4602B080BD80B59F
:1033C00082B000AF786039607B683A689A62C04624
:1033D000BD4602B080BD80B582B000AF78607B682A
:1033E0009B6A1800BD4602B080BD80B582B000AFB8
:1033F00078600A00BB1C1A807B68BA1C12881A8588
:10340000C046BD4602B080BD80B582B000AF7860D6
:103410007B681B8D9BB21800BD4602B080BD80B595
:1034200082B000AF78600A00FB1C1A707B68FA1C3F
:10343000302112785A54C046BD4602B080BD80B5D6
:1034400082B000AF78600A00FB1C1A707B68FA1C1F
:10345000302112785A54C046BD4602B080BD80B5B6
:1034600082B000AF78600A00BB1C1A807B68BA1C6F
:1034700012885A83C046BD4602B080BD80B582B076
:1034800000AF786039607B685A1E9341DBB208490F
:10349000B4221800074B98477B683A681A603B686B
:1034A0001800054B984703001800BD4602B080BDC8
:1034B0007C0D0100E12A00003536000080B582B0A5
:1034C00000AF78607B681B681800034B9847C046C4
:1034D000BD4602B080BDC0464D32000080B582B00E
:1034E00000AF78600A00FB1C1A707B681A68FB1C2E
:1034F0001B789BB219001000024B9847C046BD468E
:1035000002B080BDEB33000080B582B000AF7860C0
:103510007B681B681800044B98470300DBB2180057
:10352000BD4602B080BDC0460934000080B582B0FF
:1035300000AF78607B681B681800034B9847030056
:103540001800BD4602B080BDFD30000080B582B0DD
:1035500000AF78607B681B681800034B9847030036
:103560001800BD4602B080BD1F31000080B582B09A
:1035700000AF78607B681B681800034B9847030016
:103580001800BD4602B080BD4131000080B582B058
:1035900000AF78607B68044A944663449B0ADBB2C0
:1035A0001800BD4602B080BD00F8FFBD90B585B0E3
:1035B00000AF78600E23FC187B681800184B984702
:1035C000030023700F23FB1800221A7018E00F234A
:1035D000FB181A78134913009B009B189B005B5C37
:1035E0000E22BA1812789A4203D10F23FB181B78C7
:1035F00012E00F23FB181A780F23FB1801321A7000
:103600000F23FB181B78002BE1D0074A074B19004A
:103610000020074B984700231800BD4605B090BD19
:103620008D350000040000203A0200007C0D0100EE
:10363000E12A000090B585B000AF78600F23FC1838
:103640007B6818006F4B9847030023707B6801214B
:1036500018006D4B984703001A0001235340DBB25A
:10366000002B25D00F23FB181A78684913009B0004
:103670009B189B00CB1804331B681C221340BB60B3
:103680007B6802211800624B9847031E08D07B68B4
:103690001800604B98477B68022118005E4B9847E2
:1036A000BB6801221A437B68110018005B4B9847E6
:1036B0007B6801211800584B98470F23FB181A7894
:1036C000524913009B009B189B00CB1804331A68C7
:1036D0007B6811001800514B98470F23FB181A788C
:1036E0004A4913009B009B189B00CB1808331A68AB
:1036F0007B68110018004A4B98470F23FB181A7873
:10370000424913009B009B189B00CB1804331A6896
:1037100080239B0113400ED10F23FB181A783B49DD
:1037200013009B009B189B00CB1804331A68C0231E
:10373000DB01134030D00F23FB181A7833491300F4
:103740009B009B189B00CB180C331B88DB04DB0C05
:1037500099B27A689389C904C80C5B0B5B03191C86
:10376000031C0B4393810F23FB181A78274913007E
:103770009B009B189B00CB180E331B781A1C072349
:103780001340D9B27A6893894803DB04DB0C191C17
:10379000031C0B4393810FE00F23FB181A781B497E
:1037A00013009B009B189B00CB180C331A887B6876
:1037B000110018001B4B98470F23FB181A78134968
:1037C00013009B009B189B00CB180F331A787B6863
:1037D00011001800144B98470F23FB181A780B4957
:1037E00013009B009B189B00CB1810331A787B6842
:1037F000110018000D4B984700231800BD4605B076
:1038000090BDC046AD3500007130000004000020BE
:10381000A53200007932000053300000D53200009C
:10382000253300006B330000893300003F34000073
:1038300080B582B000AF78607B6801211800084B2A
:103840009847031E02D004235B4204E07B68180003
:10385000044B984700231800BD4602B080BDC04607
:10386000333000006531000080B582B000AF786071
:1038700039607B68002B04D03B68002B01D001230A
:1038800000E000231A1C01231340DBB21F4A204929
:103890001800204B98473B681A78597809020A4368
:1038A000997809040A43DB781B0613431A001A4B64
:1038B0001A407B6811001800184B98473B681A792A
:1038C000597909020A43997909040A43DB791B06ED
:1038D00013431A00124B1340802292021A437B6852
:1038E000110018000F4B98473B681A7B7B6811004A
:1038F00018000D4B98473B685A7B7B6811001800F5
:103900000A4B9847C046BD4602B080BDEF08000094
:103910007C0D0100E12A0000FCFEFFFF25320000C3
:10392000BF1DFDFFFD3200004D3300001F340000BD
:1039300080B582B000AF786039607B68002B04D01E
:103940003B68002B01D0012300E000231A1C012357
:103950001340DBB2294A2A4918002A4B98473B6892
:103960001A78597809020A43997809040A43DB78DE
:103970001B0613431A00244B1A407B6811001800E1
:10398000224B98473B681A79597909020A43997979
:1039900009040A43DB791B0613431A001C4B13402E
:1039A0001C4A1A437B68110018001B4B98473B6860
:1039B0001A7A597A09020A43997A09040A43DB7A86
:1039C0001B0613431A007B6811001800134B98471D
:1039D0003B685A7B7B6811001800114B9847C04622
:1039E00001235A427B68110018000E4B9847031EB2
:1039F000F6D1C046BD4602B080BDC04603090000F6
:103A00007C0D0100E12A0000FCFEFFFF25320000D2
:103A1000BFDDFDFF40020200FD320000A7330000C1
:103A20001F3400003330000090B585B000AF7860DF
:103A30007B680E22BC181800184B984703002370AF
:103A40000F23FB1800221A701EE00F23FB181A78B0
:103A5000134913001B019B18CB1810331B780E223F
:103A6000BA1812789A4208D10F23FB181A7813005B
:103A70001B019B180A4A9B180CE00F23FB181A78AD
:103A80000F23FB1801321A700F23FB181B78012B30
:103A9000DBD900231800BD4605B090BD8D35000070
:103AA000980D010080B584B000AF786039603B6844
:103AB00018004A4B98470300FB607B68002B04D03A
:103AC0003B68002B01D0012300E000231A1C0123D6
:103AD0001340DBB2424A43491800434B9847FB6806
:103AE000002B02D10D235B4274E03B6801211800DA
:103AF0003E4B984703001A0001235340DBB2002BD2
:103B000026D0FB681A78597809020A439978090483
:103B10000A43DB781B0613431A001C231340BB60C7
:103B20003B6802211800324B9847031E08D03B68BF
:103B30001800304B98473B68022118002E4B9847DD
:103B4000BB6801221A433B68110018002B4B9847B1
:103B50003B6801211800284B98477B683A681A6037
:103B6000FB681A78597809020A43997809040A43CC
:103B7000DB781B0613431A001C231340082B06D1C5
:103B8000FA683B68110018001D4B984705E0FA6879
:103B90003B68110018001B4B9847FB681A7959794C
:103BA00009020A43997909040A43DB791B06134386
:103BB0001A000723134001D1012200E002227B6892
:103BC0001A71FB689A7BDB7B1B0213439AB27B68FA
:103BD000DA8000231800BD4604B080BD293A0000F9
:103BE000250900007C0D0100E12A000033300000AF
:103BF000F5310000C9310000153000002532000009
:103C0000313900006938000080B582B000AF7860BB
:103C10007B68002B05D07B681B68002B01D001233B
:103C200000E000231A1C01231340D8B298231A0184
:103C3000064B1900064B98477B681B681800054B1C
:103C4000984703001800BD4602B080BD7C0D0100FE
:103C5000E12A00003138000080B582B000AF786002
:103C6000C0467B6803211800064B9847031EF8D016
:103C70007B6803211800044B9847C046BD4602B03C
:103C800080BDC04691300000DF30000080B586B0B6
:103C900000AFF860B9607A60BB680422134001D1BC
:103CA000002324E0FB681800134B984703007B6156
:103CB0007B685B68002B14D07B685B68591C7A6852
:103CC00051607A69D2B21A707B681B7C012B08D9CB
:103CD0007B685B68591C7A6851607A69120AD2B2B3
:103CE0001A707B68DB685A1C7B68DA600123180055
:103CF000BD4606B080BDC046D733000080B586B053
:103D000000AFF860B9607A601A00BB1C1A80BB680B
:103D1000012213402BD07B681B68002B18D07B68D6
:103D20001B68591C7A6811601B787B617B681B7C5F
:103D3000012B10D97B681B681B781B021A007B695A
:103D400013437B617B681B685A1C7B681A6002E026
:103D5000BB1C1B887B617B689B685A1C7B689A60D4
:103D60007A69FB6811001800034B984700E0C046D1
:103D7000BD4606B080BDC046BF33000080B582B0EE
:103D800000AF786039607B68802213400DD0094A0B
:103D90003B6811001800084B98473B6880211800C9
:103DA000064B984713235B4200E000231800BD46F2
:103DB00002B080BDFFFF00005F340000DF30000074
:103DC00090B58BB000AF786039607B681B683B6250
:103DD00000237B623B681A680823FB181A603B6863
:103DE0005A680823FB185A600823FB1800229A60BF
:103DF0000823FB180022DA607B681A790823FB1875
:103E00001A747B68002B04D03B6A002B01D001237D
:103E100000E000231A1C01231340DBB2344A354969
:103E20001800354B98473B6A07211800334B9847D9
:103E3000031E02D004235B4255E03B6A1800304B5E
:103E4000984703001A0001235340DBB2002B02D035
:103E500014235B4247E03B6A18002A4B9847030053
:103E6000FB610823FA18F9693B6A1800264B98474A
:103E700003001A0001235340DBB2002B0FD00823AC
:103E8000FB18DA680823FB189B689A4207D37B6803
:103E9000DB880822BA18F969386A1C4CA0473A6ACC
:103EA000FB69110018001A4B984703007B627B6A7C
:103EB000002B12DB0823FB189A683B689B689A4228
:103EC000C9D30823FB18DA683B689B689A42C2D3BF
:103ED0000823FB189B687B6200E0C0463B6A180021
:103EE0000C4B98477B6A1800BD460BB090BDC0468E
:103EF000850A00007C0D0100E12A0000333000003B
:103F000091310000C93000008D3C0000FD3C0000F4
:103F10007D3D0000593C000080B582B000AF786064
:103F20007B685B78DBB2DB09012213405A1E9341A8
:103F3000DBB21800BD4602B080BD80B582B000AFD4
:103F400078607B68DB685B08012213405A1E93414E
:103F5000DBB21800BD4602B080BD80B582B000AFB4
:103F600078607B68DB689B08012213405A1E9341EE
:103F7000DBB21800BD4602B080BD80B582B000AF94
:103F800078607B68DB68DB08012213405A1E93418E
:103F9000DBB21800BD4602B080BD80B582B000AF74
:103FA00078607B68DB681B09012213405A1E93412D
:103FB000DBB21800BD4602B080BD80B584B000AF52
:103FC000786039607B68DB68FB60FB683A681340A7
:103FD000FB60FB681800BD4604B080BD80B582B0B0
:103FE00000AF78607B6850229B5CDBB21A00012333
:103FF00013405A1E9341DBB21800BD4602B080BD8B
:1040000080B582B000AF78607B6850229B5CDBB2E9
:104010005B08012213405A1E9341DBB21800BD46D3
:1040200002B080BD80B582B000AF78607B6850225E
:104030009B5CDBB29B08012213405A1E9341DBB20A
:104040001800BD4602B080BD80B582B000AF786078
:104050000A00BB1C1A807B68BA1C12889A82C04670
:10406000BD4602B080BD80B584B000AF78607B688B
:104070009B69FB60FB681B0C7F221340FB60FB68A5
:104080001800BD4604B080BD80B582B000AF786036
:1040900039607B683A689A61C046BD4602B080BD0F
:1040A00080B584B000AF78600F23FB187A68127F68
:1040B0001A700F23FB180F22BA1812781F210A401A
:1040C0001A700F23FB181B781800BD4604B080BD82
:1040D00080B582B000AF78600A00FB1C1A707B6864
:1040E000FA1C12781A77C046BD4602B080BD80B572
:1040F00084B000AF78607B681B6AFB60FB681B0CB8
:104100001B051B0DFB60FB681800BD4604B080BD9D
:1041100080B584B000AF78607B681B6AFB60FB6889
:104120009B0FFB60FB681800BD4604B080BD80B5E6
:1041300082B000AF786039607B683A681A62C04626
:10414000BD4602B080BD80B584B000AF78600E235C
:10415000FB187A68928C1A800E23FB181B889B0828
:104160009AB20E23FB1801210A401A800E23FB1875
:104170001B885A1E9341DBB21800BD4604B080BDB7
:1041800080B582B000AF78600A00BB1C1A807B68E3
:10419000BA1C12889A84C046BD4602B080BD80B564
:1041A00082B000AF786039607B683A689A62C04636
:1041B000BD4602B080BD80B582B000AF7860396086
:1041C0007B683A68DA62C046BD4602B080BD80B501
:1041D00082B000AF78600A00FB1C1A707B68FA1C82
:1041E000442112785A54C046BD4602B080BD80B505
:1041F00082B000AF786039607B683A689A64C046E4
:10420000BD4602B080BD80B582B000AF7860396035
:104210007B683A68DA64C046BD4602B080BD0000E3
:1042200080B582B000AF394B7B607B686621180097
:10423000374B98477B681800364B98470200BB1CE9
:104240001A807B681800344B984703009A07BB1C00
:104250001B881B041900314B0B40134302221A43E5
:104260007B68110018002E4B98477B6818002D4B77
:1042700098470200BB1C1A80BB1C1B881B041A0039
:10428000FE23DB03134046221A437B68110018000B
:10429000254B98477B681800244B984703001A0069
:1042A000BB1C1A80BB1C1B88DBB21F221340DAB276
:1042B0007B68110018001E4B9847C0467B681800A9
:1042C0001C4B984703001A0001235340DBB2002B1C
:1042D000F4D1C0467B681800174B984703001A00BA
:1042E00001235340DBB2002BF4D1C0467B68180099
:1042F000124B984703001A0001235340DBB2002BF6
:10430000F4D1C046BD4602B080BDC04600080040A2
:1043100049400000EF400000114100000000FF0F85
:104320002F4100006740000089400000A1400000CC
:10433000D14000003B3F00005B3F00007B3F00009E
:1043400080B584B000AF4C4BFB60FB6802211800C5
:104350004A4B9847C046FB681800494B98470300F2
:104360001A0001235340DBB2002BF4D1454AFB680D
:1043700011001800444B9847444B1B689B0E3F2B81
:1043800009D0424B1B689B0E9B021B041B0C802216
:104390009200134301E0FC23DB01FA6819001000CE
:1043A0003B4B98470A23FB18932252001A800A239A
:1043B000FB181A88FB6811001800304B9847FB68FF
:1043C00042211800334B9847334AFB68110018000C
:1043D000324B9847FB6800211800314B9847FB6827
:1043E0001800304B9847031E0DD010237B60C04649
:1043F0007A68FB68110018002B4B984702007B6815
:104400009A42F5D10BE0C046FB6818001C4B984758
:1044100003001A0001235340DBB2002BF4D1C04645
:10442000FB681800214B984703001A0001235340F2
:10443000DBB2002B15D0FB6818001D4B984703001A
:104440001A0001235340DBB2002B0AD0FB6818008E
:10445000184B984703001A0001235340DBB2002B8E
:10446000DED1C046144B1800144B9847031EF9D1F7
:10447000C046BD4604B080BD000800408141000038
:104480009B3F000080BB0104B74100002460800016
:104490009F410000CF410000B7050E00EF41000032
:1044A0000742000047410000BB3F000025400000DC
:1044B000DD3F000001400000000C0040193F0000FB
:1044C00080B582B000AF7860044B054A5A60034B58
:1044D00005221A60C046BD4602B080BD10E000E073
:1044E000FFFFFF0080B582B000AF78607B681800E6
:1044F000024B9847C046BD4602B080BDC144000093
:1045000080B584B000AF786039603B681A0E0F2325
:10451000FB181A703B68BB6011E0164B164A5A60D4
:10452000144B154A9A60C046124B1A6880235B02EE
:104530001340F9D0BB68114A94466344BB600F2313
:10454000FB181B780F22BA18591E1170002BE4D1EA
:10455000084BBA685A60074BBA689A60C046054B68
:104560001A6880235B021340F9D0C046BD4604B0F0
:1045700080BDC04610E000E0FFFFFF00010000FF2B
:1045800080B582B000AF0200FB1D1A70FB1D1B78C6
:104590007F2B09D8064BFA1D127811001F220A4002
:1045A000012191400A001A60C046BD4602B080BD9C
:1045B00000E100E080B584B000AF786039607B68CE
:1045C000DB68FB60FB683A681340FB60FB6818001F
:1045D000BD4604B080BD80B584B000AF78600A00ED
:1045E000FB1C1A700F23FB187A685021525C1A705A
:1045F0000F23FB180F22BA18F91C127809780A4009
:104600001A700F23FB181B781800BD4604B080BD3C
:1046100080B582B000AF78600A00FB1C1A70C046FB
:104620007B689B78DBB2FA1C12781340DBB2002B5C
:10463000F6D1C046BD4602B080BD80B582B000AFA5
:1046400078600A00FB1C1A707B689B78DBB2FA1C4E
:1046500012781340DBB25A1E9341DBB21800BD46FC
:1046600002B080BD80B584B000AF78600800110052
:10467000FB1C021C1A70BB1C0A1C1A70FB1C1A784B
:104680000F23FB187968083252018A180732127812
:104690001A700F23FB180F22BA18B91C1278097868
:1046A0000A401A700F23FB181B781800BD4604B08F
:1046B00080BD80B582B000AF78600A00FB1C1A7024
:1046C000FB1C1B787A6808335B01D31807331B780F
:1046D000DBB21800BD4602B080BD80B582B000AF2D
:1046E000786008001100FB1C021C1A70BB1C0A1C1D
:1046F0001A70FB1C1B787A6808335B01D3180733E8
:10470000BA1C12781A70C046BD4602B080BD80B592
:1047100082B000AF786008001100FB1C021C1A7008
:10472000BB1C0A1C1A70FB1C1B787A6808335B01DF
:10473000D3180533BA1C12781A70C046BD4602B0B1
:1047400080BD80B582B000AF78600A00FB1C1A7093
:10475000FB1C1B787A6808335B01D31806331B787F
:10476000DBB21800BD4602B080BD80B582B000AF9C
:10477000786008001100FB1C021C1A70BB1C0A1C8C
:104780001A70FB1C1B787A6808335B01D31804335A
:10479000BA1C12781A70C046BD4602B080BD80B502
:1047A00082B000AF78600A00FB1C1A70FB1C1A78FC
:1047B000796884235B0052018A18D31810221A707A
:1047C000C046BD4602B080BD80B582B000AF786003
:1047D00008001100FB1C021C1A70BB1C0A1C1A707A
:1047E000FB1C1A7879680A23FF3352018A18D31800
:1047F000BA1C12781A70C046BD4602B080BD80B5A2
:1048000082B000AF786008001100FB1C021C1A7017
:10481000BB1C0A1C1A70FB1C1A78796884235B0085
:1048200052018A18D318BA1C12781A70C046BD46B5
:1048300002B080BD80B584B000AF78600A00FB1C78
:104840001A70FB1C19780F23FB187A68083149018C
:104850008A5C1A700F23FB180F22BA1812780721EE
:104860000A401A700F23FB181B781800BD4604B0CD
:1048700080BD80B584B000AF78600A00FB1C1A7060
:10488000FB1C19780F23FB187A68083149018A5CF0
:104890001A700F23FB181B781B09DAB20F23FB18C1
:1048A00007210A401A700F23FB181B781800BD4619
:1048B00004B080BD80B582B000AF78600800110000
:1048C000FB1C021C1A70BB1C0A1C1A70FB1C1A78F9
:1048D0007B6808325201B91C0978D154C046BD46E4
:1048E00002B080BD80B582B000AF78600A00FB1CCA
:1048F0001A70FB1C1A787B6808325201D35CDBB259
:104900001800BD4602B080BD80B582B000AF7860AF
:104910007B689B8B9BB21800BD4602B080BD80B502
:1049200082B000AF78600A00BB1C1A807B68BA1C9A
:1049300012889A83C046BD4602B080BD80B582B061
:1049400000AF78600A00BB1C1A807B68BA1C128812
:104950001A83C046BD4602B080BD80B582B000AFAC
:1049600078607B681B8B9BB21800BD4602B080BD8F
:1049700080B582B000AF78600A00BB1C1A807B68EB
:10498000BA1C12889A82C046BD4602B080BD80B56E
:1049900084B000AF78600A00FB1C1A700F23FB186C
:1049A0007A6892781A700F23FB180F22BA18F91C34
:1049B000127809780A401A700F23FB181B78180028
:1049C000BD4604B080BD000080B582B000AF786005
:1049D0007B681B78DBB202229343DAB27B681A70E1
:1049E0007B6803211800034B9847C046BD4602B0C0
:1049F00080BDC0461146000080B584B000AF78602D
:104A00000A00FB1C1A707B68032118000B4B9847A7
:104A10000F23FB187A6812781A700F23FB180F22E5
:104A2000BA18F91C127809780A401A700F23FB187B
:104A30001B781800BD4604B080BDC046114600007A
:104A400080B582B000AF78600A00FB1C1A707B68EA
:104A5000FA1C12781A707B6803211800024B9847E1
:104A6000C046BD4602B080BD1146000080B582B090
:104A700000AF78607B6803211800044B98477B687F
:104A80001B78DBB21800BD4602B080BD11460000A5
:104A900080B582B000AF78607B681B899BB2012231
:104AA00093439AB27B681A81C046BD4602B080BD6E
:104AB00080B582B000AF78600A00BB1C1A807B68AA
:104AC000BA1C12881A81C046BD4602B080BD80B5AE
:104AD00082B000AF78600A00FB1C1A707B68FA1C79
:104AE00012789A72C046BD4602B080BD80B582B0D1
:104AF00000AF786039607B683A685A62C046BD464C
:104B000002B080BD80B582B000AF7860396000230C
:104B10001800BD4602B080BD80B584B000AF264B02
:104B20003B60264B1B685B0B1F221340FB60234B33
:104B30001B689B0C1F221340BB60204B1B68DB0DC6
:104B4000072213407B60FB681F2B01D10523FB600C
:104B5000BB681F2B01D11D23BB607B68072B01D1D4
:104B600005237B60FB689BB29B019AB2F823DB00B4
:104B700013409AB2BB689BB21F210B409BB21343F8
:104B80009AB27B689BB21B0399B2E023DB010B4016
:104B90009BB213439AB23B681A853A68D3780321D3
:104BA0000B43D3703A68D3780C210B43D370C046C3
:104BB000BD4604B080BDC046005000412460800066
:104BC00080B500AFC046054B07211800044B98473D
:104BD0000300072BF7D1C046BD4680BD000800404A
:104BE000D745000080B500AF0E4B9B8C9BB21A00DE
:104BF0002023134009D1C0460A4BD02118000A4B8C
:104C000098470300D02BF7D108E0C046054B102190
:104C10001800054B98470300102BF7D1C046BD463E
:104C200080BDC04600080040B545000080B582B098
:104C300000AF0200FB1D1A70FB1D1B78002B02D178
:104C4000064B984705E0FB1D1B78012B01D1044B57
:104C50009847C046BD4602B080BDC046E54B000047
:104C6000C14B000080B582B000AF02003960FB1D6F
:104C70001A703B68DAB2FB1D1B7804481900044B1C
:104C80009847C046BD4602B080BDC04600500041B6
:104C9000DB46000080B582B000AF02003960FB1D2A
:104CA0001A703B68DAB2FB1D1B7804481900044BEC
:104CB0009847C046BD4602B080BDC0460050004186
:104CC000C947000080B582B000AF02003960FB1D0B
:104CD0001A703B68DAB2FB1D1B7804481900044BBC
:104CE0009847C046BD4602B080BDC0460050004156
:104CF000FF47000080B582B000AF0200FB1D1A70B4
:104D0000FB1D1B78064A19001000064B984703004C
:104D1000113B5A425341DBB21800BD4602B080BD80
:104D200000500041E548000090B583B000AF04009A
:104D300008001100FB1D221C1A70BB1D021C1A70FA
:104D40007B1D0A1C1A707B1D1B78002B0CD0BB1D11
:104D50001B7810229A401300DAB2FB1D1B780A4818
:104D600019000A4B98470BE0BB1D1B7810229A4094
:104D70001300DAB2FB1D1B7803481900044B984757
:104D8000C046BD4603B090BD005000410F47000033
:104D90006B47000080B584B000AF0200FB1D1A70A5
:104DA000BB1D0A1C1A700C4BFB60FB1D1A78FB68BC
:104DB00011001800094B984703001900BB1D1B7810
:104DC00010229A4013000B405A1E9341DBB2180088
:104DD000BD4604B080BDC0460050004143470000BE
:104DE00080B584B000AF0200FB1D1A70BB1D0A1C09
:104DF0001A700C4BFB60FB1D1A78FB681100180041
:104E0000094B984703001900BB1D1B7820229A40CC
:104E100013000B405A1E9341DBB21800BD4604B08C
:104E200080BDC04600500041B346000080B582B04E
:104E300000AF0200FB1D1A70BB1D0A1C1A70BB1DBF
:104E40001B7820229A40FB1D1B7811001800034B91
:104E50009847C046BD4602B080BDC046654C0000C4
:104E600090B583B000AF040008001100FB1D221CA8
:104E70001A70BB1D021C1A707B1D0A1C1A707B1D48
:104E80001B78002B0AD0BB1D1B7820229A40FB1DEB
:104E90001B7811001800084B984709E0BB1D1B78D0
:104EA00020229A40FB1D1B7811001800034B9847E5
:104EB000C046BD4603B090BD954C0000C54C0000F7
:104EC00080B582B000AF0200FB1D1A70FB1D1B787D
:104ED000044A19001000044B9847C046BD4602B072
:104EE00080BDC046005000419F47000080B582B0A1
:104EF00000AF0200FB1D1A70FB1D1B780648102234
:104F00001900064B984703005A1E9341DBB2180064
:104F1000BD4602B080BDC04600500041654600005D
:104F200080B582B000AF0200FB1D1A70FB1D1B781C
:104F300010211800024B9847C046BD4602B080BD04
:104F4000654C000090B583B000AF0400080011006C
:104F5000FB1D221C1A70BB1D021C1A707B1D0A1C33
:104F60001A707B1D1B78002B0CD0BB1D1B780122F7
:104F70009A401300DAB2FB1D1B780A4819000A4B4D
:104F800098470BE0BB1D1B7801229A401300DAB250
:104F9000FB1D1B7803481900044B9847C046BD46CB
:104FA00003B090BD005000410F4700006B47000068
:104FB00080B582B000AF0200FB1D1A70BB1D0A1C39
:104FC0001A70BB1D1B7801229A40FB1D1B78110033
:104FD0001800034B9847C046BD4602B080BDC0468E
:104FE000654C000080B584B000AF3A60FB1D021C28
:104FF0001A70BB1D0A1C1A70FB1D1A78BB1D1B788A
:105000005200D3181A01054BD318FB60FB683A68AD
:105010001A60C046BD4604B080BDC046F0100020F6
:1050200090B585B000AF040008001100FB1D221CE4
:105030001A70BB1D021C1A703B1D0A1C1A80FB1D36
:105040001A78BB1D1B785200D3181A010A4BD318CB
:10505000FB603B1D1B889B049B0C99B2FB685A6844
:105060008904890C8903054802400A435A60C046F6
:10507000BD4605B090BDC046F0100020FF3F00F0D7
:1050800090B585B000AF040008001100FB1D221C84
:105090001A70BB1D021C1A703B1D0A1C1A80FB1DD6
:1050A0001A78BB1D1B785200D3181A01094BD3186C
:1050B000FB603B1D1B889B049B0C99B2FB685A68E4
:1050C0008904890C920B92030A435A60C046BD467C
:1050D00005B090BDF010002090B585B000AF040081
:1050E00008001100FB1D221C1A70BB1D021C1A7047
:1050F0003B1D0A1C1A80FB1D1A78BB1D1B78520031
:10510000D3181A01094BD318FB603B1D1B889B0465
:105110009B0C99B2FB685A688904890C920B920324
:105120000A435A60C046BD4605B090BDF01000204D
:1051300090B585B000AF040008001100FB1D221CD3
:105140001A70BB1D021C1A703B1D0A1C1A80FB1D25
:105150001A78BB1D1B785200D3181A010A4BD318BA
:10516000FB603B1D1B889B049B0C99B2FB685A6833
:105170008904890C8903054802400A435A60C046E5
:10518000BD4605B090BDC046F0100020FF3F00F0C6
:1051900080B584B000AFBA607B600F23FB18021C9F
:1051A0001A700E23FB180A1C1A70BB689AB20E23E1
:1051B000FB1819780F23FB181B781800084B984729
:1051C0007B689AB20E23FB1819780F23FB181B7803
:1051D0001800044B9847C046BD4604B080BDC04689
:1051E000815000002150000080B584B000AFBA604B
:1051F0007B600F23FB18021C1A700E23FB180A1C7D
:105200001A70BB689AB20E23FB1819780F23FB188B
:105210001B781800084B98477B689AB20E23FB183E
:1052200019780F23FB181B781800044B9847C046C9
:10523000BD4604B080BDC04631510000D9500000C9
:1052400080B584B000AF0200FB1D1A70BB1D0A1CA4
:105250001A70FB1D1A78BB1D1B785200D3181A0157
:10526000044BD318FB60FB6800229A72C046BD460F
:1052700004B080BDF010002090B583B000AF0400F2
:1052800008001100FB1D221C1A70BB1D021C1A70A5
:105290007B1D0A1C1A707B1D1B78002B0CD0BB1DBC
:1052A0001B7840229A401300DAB2FB1D1B780A4893
:1052B00019000A4B98470BE0BB1D1B7840229A400F
:1052C0001300DAB2FB1D1B7803481900044B984702
:1052D000C046BD4603B090BD005000410F470000DE
:1052E0006B47000090B583B000AF040008001100C8
:1052F000FB1D221C1A70BB1D021C1A707B1D0A1C90
:105300001A707B1D1B78002B0CD0BB1D1B78402214
:105310009A401300DAB2FB1D1B780A4819000A4BA9
:1053200098470BE0BB1D1B7840229A401300DAB26D
:10533000FB1D1B7803481900044B9847C046BD4627
:1053400003B090BD005000416B4700000F470000C4
:1053500080B582B000AF0200BB1D1A80BB1D1A8849
:1053600080239B009A4227D8BB1D1A8880235B00AC
:105370009A421FD8BB1D1B88802B19D8BB1D1B88C8
:10538000402B13D8BB1D1B88202B0DD8BB1D1B88A1
:10539000102B07D8BB1D1B8808229A429B415B42F9
:1053A000DBB20AE0022308E0032306E0042304E062
:1053B000052302E0062300E007231800BD4602B0E3
:1053C00080BD000080B584B000AF0200FB1D1A70E4
:1053D000BB1D0A1C1A70FB1D1B78002B0BD0BB1DBC
:1053E0001B78002B04D0FB1D1B780733DBB203E0D6
:1053F000FB1D1B7800E000230F22BA1813700F2347
:10540000FB181A7813009B009B189B0010331A009E
:10541000034BD31804331800BD4604B080BDC0460A
:10542000880F002080B500AF054B04211800054B04
:105430009847054B1B689847C046BD4680BDC0468F
:10544000005000411F490000880F002080B584B043
:1054500000AF0023BB60224A224B11001800224BF0
:1054600098471F4A1F4B11001800204B98471D4BAF
:10547000702118001E4B98470F23FB1800221A704A
:105480001EE00F23FB181B785A011A4BD3187B60C0
:105490007B681B891B071B0FDBB2032B09D17B68C1
:1054A0001B895B045B0D9BB2BB607B6800221A8189
:1054B0000BE00F23FB181A780F23FB1801321A7028
:1054C0000F23FB181B78062BDBD90B4B5B68BA68E4
:1054D000110003209847C046BD4604B080BDC046B9
:1054E00001020000005000411F4900007149000006
:1054F0003D490000F0100020880F002080B500AF6B
:10550000064B80211800064B9847064B5B6800212C
:1055100005209847C046BD4680BDC04600500041AA
:105520001F490000880F002080B500AF0D4B70218F
:1055300018000D4B98470B4B702118000B4B9847E8
:105540000B4A084B110018000A4B984700200A4BE1
:1055500098470A4B5B68002102209847C046BD4629
:1055600080BDC046005000411F4900007149000045
:10557000010200003D4900002D4C0000880F002072
:1055800080B500AF0F4B0022002118000E4B98474A
:105590000C4B082118000D4B98470A4B702118003E
:1055A0000B4B98470B4A074B110018000A4B9847C2
:1055B0000A4B98470A4B5B68002101209847C04678
:1055C000BD4680BD00500041B54800001F490000A5
:1055D00071490000010200003D490000C163000064
:1055E000880F002080B500AF0C4A0D4B1100180049
:1055F0000C4B9847094A0A4B110018000A4B984770
:10560000074B70211800094B9847094B5B68002134
:1056100004209847C046BD4680BDC0460102000038
:10562000005000411F490000714900003D49000041
:10563000880F002090B583B000AFFB1D01221A70C7
:105640003C1D264B1800264B984703002380234B14
:105650001800244B9847030019003B1D3A1D12887F
:105660000A401A803B1D1B880422134003D01E4BA6
:10567000984701232DE03B1D1A8880239B0013408F
:1056800002D01A4B984722E03B1D1B888022134012
:1056900002D0174B98471AE03B1D1B88702213401D
:1056A00002D0144B984712E03B1D1B880822134080
:1056B00002D0114B98470AE03B1D1B880122134082
:1056C00002D00E4B984702E0FB1D00221A70FB1D12
:1056D0001B781800BD4603B090BDC0460050004185
:1056E000094900005B490000255400004D540000AA
:1056F000FD5400002955000081550000E5550000CB
:1057000090B589B000AF78600A00FB1C1A70984B06
:10571000BB617B689A7C1723FB180F210A401A7023
:105720001723FB181B785A01924BD3183B61FB1CC3
:105730001B78002B07D03B6910335B689B049B0CE4
:105740009BB21A0000E000220E23FB181A807B682F
:105750001B8A894A934203D17B681B8A1BB204E0EF
:105760007B681B8A013B9BB21BB20E22BA18002138
:10577000525E13401AB20C23FB181A801D23FB182B
:1057800000221A707B68DB7C07221340DAB20B23FD
:10579000FB18013A51424A411A70FB1C1B78002B3E
:1057A00006D01723FB181B7801211800734B98476C
:1057B0007B689A680E23FB181B88D2187B689A6056
:1057C0007B689A687B685B689A4258D27B685B68A2
:1057D00099B27B689B689AB21E23FB188A1A1A80BA
:1057E0007B68DB7C20221340DBB2002B23D07B685C
:1057F0001B8A1E22BA1812889A4204D91E23FB184B
:105800007A68128A1A807B68D8687B681A687B6815
:105810009B68D1181E23FB181B881A00584B984709
:105820007B68DB681A001723FB181B78012118001E
:10583000544B984718E01E23FB181A8880239B01BD
:105840009A4204D91E23FB18802292011A807B6899
:105850001A687B689B68D3181A001723FB181B78FB
:1058600001211800474B98471E23FB181A8817235D
:10587000FB18187800230121434CA0474BE07B68BC
:10588000DB7C10221340DBB2002B0DD07B68DA7C6E
:1058900010218A43DA741723FB181878002300229A
:1058A0000121394CA04736E00B23FB181B78002B55
:1058B00008D01723FB181978BB694B221800334B0B
:1058C000984707E01723FB181978BB694A2218008C
:1058D0002E4B98477B681B8A0C22BA1812889A4272
:1058E00013D17B68DA7C40218A43DA74284BDA686A
:1058F0007B68987C7B689B6819009047031E32D1B7
:105900007B68DA7C40210A43DA747B680021180046
:10591000204B984728E0FB1C1B7801225340DBB248
:10592000002B17D00B23FB181B78002B04D01D2352
:10593000FB184E221A7003E01D23FB184A221A702E
:105940001D23FB181A781723FB181978BB69180058
:10595000114B98471723FB181B78012201211800CF
:105960000E4B984700E0C046BD4609B090BDC0460A
:1059700000500041F0100020FF030000B14F000074
:1059800001B70000E54F000091510000FF47000003
:10599000880F0020656E0000C947000079520000A2
:1059A00090B58BB000AF78600A00FB1C1A70C74B33
:1059B0003B627B689A7C1F23FB180F210A401A70F8
:1059C0001F23FB181B785A01C14BD318BB61FB1C6A
:1059D0001B78002B06D0BB695B681B019B0C9BB23C
:1059E0001A0000E000221623FB181A80FB1C1B780B
:1059F000002B06D0BB695B689B049B0C9BB21A0012
:105A000000E000221423FB181A807B681B8AB14A2D
:105A1000934204D07B681B8A013B9AB200E0AD4AF6
:105A20001223FB181A801023FB181422BA18122113
:105A30007918128809880A401A807B68DB7C072263
:105A40001340DAB20F23FB18013A51424A411A704F
:105A5000FB1C1B78002B06D01F23FB181B78002192
:105A600018009D4B98477B68DB7C20221340DBB2FB
:105A7000002B26D07B685B68002B22D07B685B689C
:105A800099B27B689B689AB20C23FB188A1A1A8019
:105A90007B681A687B689B68D0187B68D9680C2380
:105AA000FA181023FB1812881B889A4203D9102376
:105AB000FB181B8802E00C23FB181B881A00874B7D
:105AC00098477B685B68002B25D17B68DB7C1022C4
:105AD0001340DBB2002B1ED07B68DA7C10218A4396
