S01C00004C5443353534385F41565231323844425F4C49422E73726563B0
S11300000C946F010C9499010C9499010C9499012E
S11300100C9499010C9499030C9499010C949901F2
S11300200C9499010C9499010C9499010C949901E4
S11300300C9499010C9499010C94F3230C94352499
S11300400C9499010C94B8230C9499010C94990183
S11300500C9499010C9499010C9499010C949901B4
S11300600C9499010C9499010C9499010C949901A4
S11300700C9424230C9499010C9499010C949901E7
S11300800C9499010C9499010C9499010C94990184
S11300900C9499010C9499010C9499010C94990174
S11300A00C9499010C9499010C9499010C94990164
S11300B00C9499010C9499010C9499010C94990154
S11300C00C9499010C9499010C9499010C94990144
S11300D00C9445230C9499010C9499010C94990166
S11300E00C9499010C9499010C9499010C94990124
S11300F00C9499012F0A460A5D0A740A8B0AA20A13
S1130100B40ACB0AE20AF90A100B270BB50BB50B9C
S1130110B50B3E0B550BB50BB50BB50B6C0B870B29
S11301209E0B000E220E3E0E0E100E10610E0E10CF
S11301300E100E100E100E100E100E100E100E10CB
S11301400E100E10B50EE20E050F08000000BE9250
S11301502449123EABAAAA2ABECDCCCC4C3E000008
S11301600080BEABAAAAAA3E00000000BF000000A7
S1130170803F0000000000084178D3BB4387D113BF
S11301803D190E3CC3BD4282AD2B3E68EC8276BE67
S1130190D98FE1A93E4C80EFFFBE01C4FF7F3F0031
S11301A00000000007634236B79BD8A71A39685687
S11301B018AEBAAB558C1D3CB7CC5763BD6DEDFD85
S11301C0753EF6177231BF000000803F6E616E000D
S11301D0696E660000407A10F35A00A0724E180946
S11301E00010A5D4E80000E87648170000E40B549A
S11301F0020000CA9A3B000000E1F5050000809669
S11302009800000040420F000000A086010000009A
S1130210102700000000E803000000006400000054
S113022000000A00000000000100000000002C761D
S1130230D888DC674F0823DFC1DFAE59E1B1B79638
S1130240E5E3E453C63AE651997696E8E6C2842695
S1130250EB898C9B62ED407C6FFCEFBC9C9F40F271
S1130260BAA56FA5F490055A2AF75C936B6CF967ED
S11302706DC11BFCE0E40D47FEF520E6B500D0EDB2
S1130280902E0300943577050080841E080000201A
S11302904E0A000000C80C333333330F986E1283B8
S11302A01141EF8D2114893BE65516CFFEE6DB188C
S11302B0D1844B381BF77C1D901DA4BBE424203251
S11302C084725E228100C9F124ECA1E53D27640318
S11302D0BD035D1131226B03C4036A113E22112454
S11302E01FBECFEFCDBFDFE7DEBF11E4A0E0B0E477
S11302F0E4ECFCE500E00BBF02C007900D92AA3DC0
S1130300B107D9F725E4AAEDB1E401C01D92A639DD
S1130310B207E1F711E0CBE6D1E004C02197FE017A
S11303200E94952CC736D107C9F70E94AB030C94E1
S1130330552E0C9400000F931F93CF93DF93EC0181
S11303408B01019779F46F3F7F4F61F48BE493E461
S11303500E94561486EE91E40E94F4038AED91E41F
S11303600E946223CD2B79F40F3F1F4F61F48AED75
S113037091E40E94672386EE91E40E9495048BE445
S113038093E40E94B514DF91CF911F910F910895CA
S1130390FC0113861486158616861786108A118A20
S11303A0128A138A148A158A168A178A108E118E55
S11303B0128E08950895CF93DF93EC01888199817B
S11303C00E94C21481110DC02FEF82E597E02150E5
S11303D080409040E1F700C0000086B1886086B993
S11303E0EDCF81E0DF91CF910895CF93DF93EC01BE
S11303F08A819B810E94A20481110DC02FEF82E5A6
S113040097E0215080409040E1F700C0000086B1A1
S1130410886086B9EDCF81E0DF91CF910895FC012A
S11304206683662321F08DB184608DB903C08DB1DC
S11304308B7F8DB9862F0895CF93DF93EC010E94B3
S1130440F501882309F44FC040E050E061E675E40B
S11304508A819B810E94AE058A819B810E94A006AD
S1130460811112C02FEF82E597E021508040904027
S1130470E1F700C0000040E050E061E675E48A81E5
S11304809B810E94AE05E8CFCE010E94DB01882348
S113049029F140E050E061E675E4888199810E9489
S11304A09618888199810E94DD15811112C02FEF61
S11304B082E597E0215080409040E1F700C00000C1
S11304C040E050E061E675E4888199810E949618C5
S11304D0E8CF61E0CE010E940F0209C060E0CE01C6
S11304E00E940F0204C060E0CE010E940F028E81C0
S11304F0DF91CF910895CF93DF93EC0160E00E94E8
S11305000F028BE493E48883998386EE91E48A83D3
S11305109B838AED91E48C839D83CE010E941C020F
S11305208C819D810E9481239E8181E08927DF91B6
S1130530CF9108950F931F93CF93DF93EC010C8118
S11305401D81F80185819681892B71F02581368181
S113055040E050E060E076E38EE691E00E94762C85
S11305602F8B388F498F5A8F4F85588969897A899B
S11305708F89988DA98DBA8D481759076A077B070B
S1130580C9F0F80125813681232BA1F08F87988B40
S1130590A98BBA8BBF93AF939F938F9382EA90E416
S11305A09F938F930E94E32D0F900F900F900F90C5
S11305B00F900F900C811D81F80183819481892B08
S11305C071F02381348140E050E060E076E38EE610
S11305D091E00E94762C2B8B3C8B4D8B5E8B4B8554
S11305E05C856D857E858B899C89AD89BE8948171C
S11305F059076A077B07C9F0F80123813481232B4B
S1130600A1F08B879C87AD87BE87BF93AF939F93E1
S11306108F938CEB90E49F938F930E94E32D0F9024
S11306200F900F900F900F900F90DF91CF911F912B
S11306300F910895CF93DF93EC018E81882301F10C
S11306408A819B810E94A00681113AC060E0CE019C
S11306500E940F028A819B810E94A20440E050E024
S113066061E675E48A819B810E94AE052FEF82E5E5
S113067097E0215080409040E1F700C0000020C086
S11306808A819B810E94A006882329F061E0CE0123
S11306900E940F0215C08A819B810E94A20440E03F
S11306A050E061E675E48A819B810E94AE052FEFDC
S11306B082E597E0215080409040E1F700C00000BF
S11306C08E81DF91CF9108956FEF7FEF81E090E00D
S11306D00E949B0108956FEF7FEF80E090E00E94FD
S11306E09B0108950F931F93CF93DF93EC018B012C
S11306F0019739F46F3F7F4F21F483E993E40E941B
S1130700C801CD2B39F40F3F1F4F21F483E993E443
S11307100E94DA01DF91CF911F910F91089580918A
S1130720410180FDFCCFE0E4F1E0808181608083C1
S113073008951F920F920FB60F9211248F9386B1D2
S1130740886086B981E0809343018F910F900FBE3A
S11307500F901F9018950E9454120E948F0383E9F2
S113076093E40E947B02789483E993E40E949A02C2
S113077083E993E40E941A03F7CF6FEF7FEF81E0E0
S113078090E00E94720308956FEF7FEF80E090E0A5
S11307900E9472030895CF93DF931F92CDB7DEB703
S11307A0898380E090E0FC018281882F90E0298198
S11307B0222F30E002C0959587952A95E2F7817043
S11307C0992721E0892B09F420E0822F0F90DF91F3
S11307D0CF910895CF93DF93CDB7DEB787E00E9422
S11307E0CB03DF91CF910895CF93DF9300D0CDB7A2
S11307F0DEB789839A8329813A8180E090E0A1E67B
S1130800B5E4F90180839183A283B38389819A81BA
S11308108E5D9E4FFC0110821182128213828981A7
S11308209A818D5C9E4F21E030E0FC01208331836E
S113083089819A812EEA33E4FC01248335838981FA
S11308409A818B5C9E4FFC01108229813A8180E061
S113085090E8A9E8B5E4F90186839783A087B18776
S113086029813A8180E090E0A1E6B5E4F90182872C
S11308709387A487B58789819A81FC0186819781B2
S1130880A085B18529813A81F90122853385448582
S11308905585BC01CD010E946F24DC01CB0120E011
S11308A030E040E854E4BC01CD010E94E124DC01C5
S11308B0CB019C01AD01BC01CD010E947024DC017F
S11308C0CB0129813A81255D3E4FF90180839183D3
S11308D0A283B38389819A81FC0180819181A28161
S11308E0B38129813A81255D3E4FF901208131810F
S11308F042815381BC01CD010E947024DC01CB01F3
S113090029813A81215D3E4FF90180839183A2833D
S1130910B38389819A81885B9E4FFC011082000019
S11309200F900F90DF91CF910895CF93DF9300D074
S1130930CDB7DEB789839A8300000F900F90DF91C3
S1130940CF910895CF93DF9300D0CDB7DEB78983DD
S11309509A8389819A812EEA33E4FC0124833583C6
S113096089819A81FC01848195810E94E0118981A9
S11309709A818D5B9E4F44E050E060E070E00E94FD
S1130980952D89819A819C012D5B3E4F89819A81A5
S1130990FC018481958144E0B9010E94051289819A
S11309A09A81FC018481958161E00E9441128981D0
S11309B09A810E940B0A89819A810E94E4040F9013
S11309C00F90DF91CF910895CF93DF93CDB7DEB72A
S11309D06097CDBFDEBF8F87988B8F85988960E045
S11309E070E00E94F60B8F8598890E94900C8F8589
S11309F09889FC0182899389A489B589B695A795BC
S1130A0097958795282F21708F859889FC01828975
S1130A109389A489B58981709927AA27BB2731E0D6
S1130A20892B8A2B8B2B09F030E023238F8598891F
S1130A30885B9E4FFC01208380E090E0A8ECB2E448
S1130A4089839A83AB83BC8320E030E84BEB55E485
S1130A5069817A818B819C810E94E826DC01CB012B
S1130A608D839E83AF83B88720E030E040E85FE366
S1130A706D817E818F8198850E94DC2488232CF4EB
S1130A8081E090E089879A873EC020E03FEF4FE7FE
S1130A9057E46D817E818F8198850E949326181674
S1130AA044F520E030E040E251E469817A818B81B1
S1130AB09C810E94E826DC01CB01BC01CD010E948F
S1130AC05A25DC01CB0189879A8789859A85892BE8
S1130AD021F188E592E08B879C878B859C85019723
S1130AE0F1F78B879C8789859A85019789879A87EF
S1130AF0ECCF6D817E818F8198850E945A25DC011F
S1130B00CB0189879A8789859A858D879E878D856C
S1130B109E850197F1F78D879E8700008F859889C0
S1130B200E94A006982F81E0292F28278F85988975
S1130B30885B9E4FFC01908181E08927822B88236A
S1130B4009F04BCF8F859889885B9E4FFC0180818B
S1130B506096CDBFDEBFDF91CF910895CF93DF9331
S1130B60CDB7DEB72697CDBFDEBF89839A834B838B
S1130B705C836D837E8389819A819C01215D3E4FD4
S1130B808B819C81AD81BE81F90180839183A28395
S1130B90B38389819A810E94B10C89819A810E94D0
S1130BA0540C00002696CDBFDEBFDF91CF9108958F
S1130BB0CF93DF9300D000D0CDB7DEB789839A837B
S1130BC06B837C838B819C818231910509F4AEC057
S1130BD08331910509F4ACC0892BC1F58C818F93C5
S1130BE08B818F938EE090E4892F8F938EE090E435
S1130BF08F930E94E32D0F900F900F900F902981F7
S1130C003A818B819C81880F991F880F991F820FCD
S1130C10931F0E96FC0180819181A281B3812B2FB9
S1130C202F932A2F2F93292F2F938F9387E190E4CB
S1130C30892F8F9387E190E48F930E94E32D0F9087
S1130C400F900F900F900F900F9073C08C818F9323
S1130C508B818F9383E290E4892F8F9383E290E4D6
S1130C608F930E94E32D0F900F900F900F90298186
S1130C703A818B819C81880F991F880F991F820F5D
S1130C80931F86599F4FFC0180819181A281B3817A
S1130C902B2F2F932A2F2F93292F2F938F938DE26E
S1130CA090E4892F8F938DE290E48F930E94E32D3B
S1130CB00F900F900F900F900F900F908C818F9347
S1130CC08B818F938EE090E4892F8F938EE090E454
S1130CD08F930E94E32D0F900F900F900F90298116
S1130CE03A818B819C81880F991F880F991F820FED
S1130CF0931F0E96FC0180819181A281B3812B2FD9
S1130D002F932A2F2F93292F2F938F9387E190E4EA
S1130D10892F8F9387E190E48F930E94E32D0F90A6
S1130D200F900F900F900F900F9003C0000001C020
S1130D30000000002496CDBFDEBFDF91CF9108955F
S1130D40CF93DF9300D0CDB7DEB789839A830E9417
S1130D50EA03282F89819A818B5C9E4FFC012083B2
S1130D6089819A818B5C9E4FFC0180810F900F904A
S1130D70DF91CF910895CF93DF9300D01F92CDB729
S1130D80DEB789839A836B8389819A81865C9E4FBF
S1130D90FC01108289819A818E5D9E4FFC01108234
S1130DA01182128213828B81843148F18B818731C5
S1130DB0F0F08B81883198F08B81883141F48981FE
S1130DC09A81865C9E4F24E0FC0120831FC08981A8
S1130DD09A81865C9E4F23E0FC01208317C08981A1
S1130DE09A81865C9E4F23E0FC0120830FC0898199
S1130DF09A81865C9E4F25E0FC01208307C089818F
S1130E009A81865C9E4F2B81FC01208389819A8183
S1130E10865C9E4FFC018081882F90E08131910592
S1130E2009F4D8C08231910524F4409709F4D4C060
S1130E3007C08231910509F4D1C0439709F4D0C0A9
S1130E4089819A81FC018481958160E00E9441122C
S1130E5089819A81865C9E4FFC018081882F90E075
S1130E60A0E0B0E0880F991FAA1FBB1F880F991F2D
S1130E70AA1FBB1F880F991FAA1FBB1F9C01AD018E
S1130E808B81882F90E069817A81880F991F880F60
S1130E90991F860F971F86599F4FFC01808191816E
S1130EA0A281B381BA2FA92F982F8827822B932B45
S1130EB0A42BB52B29813A812E5D3E4FF901808305
S1130EC09183A283B38389819A818E5D9E4FFC01B5
S1130ED080819181A281B38129813A81B9016D5BBD
S1130EE07E4FE981FA819C01AD01CF010E94FA078E
S1130EF089819A819C012D5B3E4F89819A81FC01F5
S1130F008481958144E0B9010E94051289819A8106
S1130F104AE050E060E070E00E94221089819A81EA
S1130F20FC018481958161E00E94411289819A814A
S1130F308B5C9E4FFC01908181E08927882309F412
S1130F4051C089819A8141E050E060E070E00E94E4
S1130F50221089819A81865C9E4FFC0120818981BF
S1130F609A81622F0E943E0889819A81865C9E4FF5
S1130F70FC018081882F90E029813A81880F991F94
S1130F80880F991F820F931F0E96FC0120813181D7
S1130F90428153818B81882F90E069817A81880F07
S1130FA0991F880F991F860F971F86599F4FFC0121
S1130FB080819181A281B381281739074A075B0791
S1130FC089F08B81282F30E089819A81B9010E94B0
S1130FD0D80508C0000007C0000005C0000003C019
S1130FE0000001C0000000002396CDBFDEBFDF91EA
S1130FF0CF910895CF93DF93CDB7DEB72A97CDBFB6
S1131000DEBF8B839C836D837E832F8338874987E0
S11310105A8719821A8289819A81049744F58981B1
S11310209A812D813E81280F391F43E050E0898148
S11310309A81BA01681B790BCB01AC01440F551F8F
S1131040440F551F440F551F8F819885A985BA8574
S113105004C0B695A795979587954A95D2F7F90157
S1131060808389819A81019689839A83D4CF0000F1
S11310702A96CDBFDEBFDF91CF910895EF92FF9204
S11310800F931F93CF93DF93CDB7DEB76197CDBF97
S1131090DEBF8F87988B698B8F859889FC0184814B
S11310A0958160E00E9441128F8598898D5B9E4FE7
S11310B0FC0110828F8598898C5B9E4FFC01108205
S11310C08F8598898B5B9E4F2989FC0120838F85AE
S11310D098898A5B9E4FFC0110828F8598899C01B8
S11310E02D5B3E4F8F859889FC018481958144E076
S11310F0B9010E9405128F859889FC01848195812C
S113110061E00E94411280E090E0A0E8BFE389839F
S11311109A83AB83BC8320E030E84BEB55E46981D0
S11311207A818B819C810E94E826DC01CB018D832E
S11311309E83AF83B88720E030E040E85FE36D81B1
S11311407E818F8198850E94DC2488232CF481E0A1
S113115090E089879A873EC020E03FEF4FE757E44D
S11311606D817E818F8198850E949326181644F59F
S113117020E030E040E251E469817A818B819C81F6
S11311800E94E826DC01CB01BC01CD010E945A2556
S1131190DC01CB0189879A8789859A85892B21F17E
S11311A088E592E08B879C878B859C850197F1F776
S11311B08B879C8789859A85019789879A87ECCF45
S11311C06D817E818F8198850E945A25DC01CB0137
S11311D089879A8789859A858D879E878D859E853F
S11311E00197F1F78D879E878F859889FC0184810B
S11311F0958160E00E9441128F8598899C01255C4D
S11312003E4F8F859889FC018481958144E0B90122
S11312100E9423128989882F90E02F853889880FAE
S1131220991F880F991F820F931F0E96FC0110823D
S11312301182128213828989882F90E02F85388940
S1131240880F991F880F991F820F931F0E96FC0118
S113125010821182128213828989682F70E08F852F
S11312609889855C9E4FFC0180819181A281B38124
S1131270582F4427332722278F859889855C9E4FD2
S1131280FC0180819181A281B3818827AA27BB2791
S1131290BA2FA92F982F8827822B932BA42BB52BF9
S11312A04F8558899B01220F331F220F331F240FB0
S11312B0351F225F3F4FF90180839183A283B3835B
S11312C08989682F70E08989882F90E02F85388973
S11312D0880F991F880F991F820F931F0E96FC0188
S11312E020813181428153818F859889855C9E4F0D
S11312F0FC0180819181A281B381EB2EFF24002720
S113130011278F859889855C9E4FFC01808191818E
S1131310A281B38188279927BB27892F9A2FAB2FC6
S1131320BB278E299F29A02BB12B822B932BA42B77
S1131330B52B4F8558899B01220F331F220F331F72
S1131340240F351F225F3F4FF90180839183A283CD
S1131350B3838989282F30E08989882F90E04F85CD
S11313605889880F991F880F991F840F951F0E960F
S1131370FC0180819181A281B381689416F8B695AD
S1131380A795979587951694D1F74F855889220F7D
S1131390331F220F331F240F351F225F3F4FF901E4
S11313A080839183A283B3838989282F30E089893C
S11313B0882F90E04F855889880F991F880F991FAF
S11313C0840F951F0E96FC0180819181A281B381C7
S11313D0BE7F4F855889220F331F220F331F240FDE
S11313E0351F225F3F4FF90180839183A283B3832A
S11313F08F859889FC018481958161E00E94411266
S113140000006196CDBFDEBFDF91CF911F910F9198
S1131410FF90EF900895CF93DF9300D000D0CDB725
S1131420DEB78B839C8319821A8289819A814797BC
S11314300CF0D5C189819A81092E000CAA0BBB0B33
S113144040E050E026E130E0841B950B2817390773
S113145008F48BC186589F4FFC010C94952C2B816A
S11314603C8189819A81880F991F880F991F820F67
S1131470931F9C012A533F4F80E290E0A0E0B0E02C
S1131480F90180839183A283B38381C12B813C8141
S113149089819A81880F991F880F991F820F931F42
S11314A09C012A533F4F82E090E0A0E0B0E0F901B4
S11314B080839183A283B3836AC12B813C81898118
S11314C09A81880F991F880F991F820F931F9C017F
S11314D02A533F4F81E090E0A0E0B0E0F90180831F
S11314E09183A283B38353C12B813C8189819A81E7
S11314F0880F991F880F991F820F931F9C012A53ED
S11315003F4F81E390E0A0E0B0E0F9018083918354
S1131510A283B3833CC12B813C8189819A81880F4A
S1131520991F880F991F820F931F9C012A533F4FC5
S113153083EA90E7ADEFB0E0F90180839183A28361
S1131540B38325C12B813C8189819A81880F991F9E
S1131550880F991F820F931F8A539F4FFC0110829B
S113156011821282138213C12B813C8189819A8159
S1131570880F991F880F991F820F931F9C012A536C
S11315803F4F8AE49FE2A0E0B0E0F90180839183B9
S1131590A283B383FCC02B813C8189819A81880F0B
S11315A0991F880F991F820F931F9C012A533F4F45
S11315B08DE491E2A0E0B0E0F90180839183A283FD
S11315C0B383E5C02B813C8189819A81880F991F5F
S11315D0880F991F820F931F9C012A533F4F8FEF4F
S11315E09EEBA9ECB0E0F90180839183A283B383DD
S11315F0CEC02B813C8189819A81880F991F880FE5
S1131600991F820F931F9C012A533F4F8FEF9FE333
S1131610A0E0B0E0F90180839183A283B383B7C0D3
S11316202B813C8189819A81880F991F880F991F8A
S1131630820F931F9C012A533F4F87E490E2A0E05E
S1131640B0E0F90180839183A283B383A0C02B818E
S11316503C8189819A81880F991F880F991F820F75
S1131660931F9C012A533F4F81E690E8AFE0B0E01E
S1131670F90180839183A283B38389C02B813C8148
S113168089819A81880F991F880F991F820F931F50
S11316909C012A533F4F81E890E0A0E0B0E0F901BB
S11316A080839183A283B38372C02B813C8189811F
S11316B09A81880F991F880F991F820F931F9C018D
S11316C02A533F4F80E290E0A0E0B0E0F90180832C
S11316D09183A283B3835BC08B819C8186529F4F8D
S11316E0FC0180819181A281B3814B815C8129813C
S11316F03A81220F331F220F331F240F351F2A5321
S11317003F4FF90180839183A283B38340C02B812F
S11317103C8189819A81880F991F880F991F820FB4
S1131720931F9C012A533F4F88E09EEBAFEFBFEF1E
S1131730F90180839183A283B38329C02B813C81E7
S113174089819A81880F991F880F991F820F931F8F
S11317509C012A533F4F80E993E0A0E0B0E0F901F7
S113176080839183A283B38312C02B813C818981BE
S11317709A81880F991F880F991F820F931F8A538C
S11317809F4FFC01108211821282138200002B8170
S11317903C8189819A81880F991F880F991F820F34
S11317A0931F8A539F4FFC0180819181A281B38151
S11317B04B815C8129813A81220F331F220F331F11
S11317C0240F351F26593F4FF90180839183A2834B
S11317D0B38389819A81019689839A8326CE0000F6
S11317E02496CDBFDEBFDF91CF910895CF93DF93D1
S11317F0CDB7DEB72897CDBFDEBF8D839E836F83C1
S113180078878F81988589839A8389819A8144977F
S1131810D4F589819A810597D1F486E190E08B8390
S11318209C838B819C81449764F02B818D819E8164
S1131830622F0E94BB068B819C8101978B839C83C2
S1131840F0CF8D819E8165E00E94BB0616C031E019
S113185089819A81049709F430E021E089819A8191
S1131860039709F420E0832F822B882331F0298108
S11318708D819E81622F0E94BB0689819A81019687
S113188089839A83C2CF8D819E8163E00E94BB06C7
S11318908D819E8164E00E94BB0600002896CDBF26
S11318A0DEBFDF91CF910895CF93DF9300D0CDB702
S11318B0DEB789839A8389819A8168E00E94BB0696
S11318C089819A810E94740C89819A8163E00E94C3
S11318D0BB0689819A8164E00E94BB0600000F90D8
S11318E00F90DF91CF910895CF93DF9300D0CDB7C0
S11318F0DEB789839A8389819A8166E10E94BB0657
S113190089819A8164E10E94BB0689819A8165E09C
S11319100E94BB0600000F900F90DF91CF910895B5
S1131920CF93DF9300D000D0CDB7DEB78B839C83F9
S113193019821A8289819A81449764F429818B815E
S11319409C81622F0E943E0889819A810196898335
S11319509A83F0CF00002496CDBFDEBFDF91CF91F4
S11319600895CF92DF92EF92FF92CF93DF93CDB79A
S1131970DEB76A97CDBFDEBF898F9A8F1986898DAE
S11319809A8D8A5C9E4FFC0110821182128213820E
S113199080E090E0A8E4B2E48A879B87AC87BD87A7
S11319A0898D9A8D815D9E4FFC0180819181A281F8
S11319B0B3818E879F87A88BB98B2E853F854889F5
S11319C0598960E070E284E696E40E94E124DC0137
S11319D0CB01BC01CD010E94A026DC01CB0128E192
S11319E032E741E35FE3BC01CD010E94E124DC0165
S11319F0CB01BC01CD010E94C625DC01CB01BC0199
S1131A00CD010E945325DC01CB018A8B9B8B8A89F3
S1131A1097E0F92FF81B8F2F8C8B898D9A8D815D20
S1131A209E4FFC01C080D180E280F3808A899B892B
S1131A30092E000CAA0BBB0BBC01CD010E948B2507
S1131A40DC01CB019C01AD0160E070E080E090E43A
S1131A500E945527DC01CB019C01AD01C701B601F1
S1131A600E94E826DC01CB0120E030E244E656E4A3
S1131A70BC01CD010E94E124DC01CB0120E030E275
S1131A8044EE55E4BC01CD010E94E826DC01CB0103
S1131A908D8B9E8BAF8BB88F20E030E04AE755E406
S1131AA06D897E898F89988D0E94DC2488234CF46B
S1131AB08A859B85AC85BD8589839A83AB83BC83EA
S1131AC010C08A859B85AC85BD859C01AD01BC0198
S1131AD0CD010E947024DC01CB0189839A83AB83FE
S1131AE0BC8329813A814B815C816D897E898F8990
S1131AF0988D0E94E124DC01CB01298D3A8D2B5A6B
S1131B003E4FF90180839183A283B38329813A8173
S1131B104B815C816D897E898F89988D0E94E12437
S1131B20DC01CB01BC01CD010E94C625DC01CB0147
S1131B30298D3A8D2F5A3E4FF90180839183A283D8
S1131B40B383898D9A8D8B5A9E4FFC01808191813C
S1131B50A281B381298D3A8D2F5A3E4FF9012081FC
S1131B60318142815381BC01CD010E946F24DC018B
S1131B70CB0120E030E040E85BE4BC01CD010E94F1
S1131B80E826DC01CB01298D3A8D275A3E4FF90115
S1131B9080839183A283B383898D9A8D875A9E4FC4
S1131BA0FC0180819181A281B381BC01CD010E949D
S1131BB05A25DC01CB01298D3A8D235A3E4FF90178
S1131BC080839183A283B3831D821E828D819E8133
S1131BD047970CF02CC28D819E81092E000CAA0B14
S1131BE0BB0B43E050E023E130E0841B950B281746
S1131BF0390708F413C28F569F4FFC010C94952C9F
S1131C00898D9A8D8F5A9E4FFC0180819181A2818A
S1131C10B381BC01CD010E945325DC01CB01BB275C
S1131C20498D5A8D2D813E81220F331F220F331F80
S1131C30240F351F26593F4FF90180839183A283D6
S1131C40B383EFC1898D9A8D835A9E4FFC018081A5
S1131C509181A281B381BB27498D5A8D2D813E810B
S1131C60220F331F220F331F240F351F26593F4FD6
S1131C70F90180839183A283B383D3C1298D3A8DE3
S1131C808D819E81880F991F880F991F820F931F42
S1131C908A539F4FFC0180819181A281B381498D38
S1131CA05A8D2D813E81220F331F220F331F240FA3
S1131CB0351F26593F4FF90180839183A283B38353
S1131CC0B0C120E030E04AE755E46D897E898F8910
S1131CD0988D0E94DC24882324F5298D3A8D8D81EA
S1131CE09E81880F991F880F991F820F931F865911
S1131CF09F4FFC0180819181A281B381A77F498D8F
S1131D005A8D2D813E81220F331F220F331F240F42
S1131D10351F26593F4FF90180839183A283B383F2
S1131D2080C1298D3A8D8D819E81880F991F880FDE
S1131D30991F820F931F86599F4FFC0180819181C7
S1131D40A281B381A860498D5A8D2D813E81220FD5
S1131D50331F220F331F240F351F26593F4FF9011C
S1131D6080839183A283B3835CC1898D9A8D8258C9
S1131D709F4FFC0180819181A281B381298D3A8D8D
S1131D802A5C3E4FF90180839183A283B383898DBA
S1131D909A8D8A5C9E4FFC0180819181A281B381DE
S1131DA0498D5A8D2D813E81220F331F220F331FFF
S1131DB0240F351F26593F4FF90180839183A28355
S1131DC0B3832FC1298D3A8D8D819E81880F991FF0
S1131DD0880F991F820F931F8A539F4FFC018081A4
S1131DE09181A281B381498D5A8D2D813E81220F2B
S1131DF0331F220F331F240F351F26593F4FF9017C
S1131E0080839183A283B3830CC182E0898783E0BA
S1131E1090E08F8398878F81988540970CF000C15C
S1131E208F81988507970CF07AC08985882F90E078
S1131E302F8138852350310902C0959587952A95BD
S1131E40E2F781709927892B99F1298D3A8D8D813B
S1131E509E81880F991F880F991F820F931F86599F
S1131E609F4FFC01208131814281538181E090E0C8
S1131E70A0E0B0E00F8004C0880F991FAA1FBB1F09
S1131E800A94D2F7822B932BA42BB52B498D5A8D10
S1131E902D813E81220F331F220F331F240F351F44
S1131EA026593F4FF90180839183A283B383B0C045
S1131EB0298D3A8D8D819E81880F991F880F991FD6
S1131EC0820F931F86599F4FFC01208131814281EB
S1131ED0538181E090E0A0E0B0E00F8004C0880F5F
S1131EE0991FAA1FBB1F0A94D2F780959095A095BD
S1131EF0B09582239323A423B523498D5A8D2D8134
S1131F003E81220F331F220F331F240F351F265902
S1131F103F4FF90180839183A283B38379C08C8975
S1131F20882F90E02F8138852750310902C095957C
S1131F3087952A95E2F781709927892B99F1298D44
S1131F403A8D8D819E81880F991F880F991F820F6A
S1131F50931F86599F4FFC01208131814281538117
S1131F6081E090E0A0E0B0E00F8004C0880F991FEA
S1131F70AA1FBB1F0A94D2F7822B932BA42BB52B39
S1131F80498D5A8D2D813E81220F331F220F331F1D
S1131F90240F351F26593F4FF90180839183A28373
S1131FA0B38336C0298D3A8D8D819E81880F991F08
S1131FB0880F991F820F931F86599F4FFC01208120
S1131FC031814281538181E090E0A0E0B0E00F8054
S1131FD004C0880F991FAA1FBB1F0A94D2F78095CB
S1131FE09095A095B09582239323A423B523498D7E
S1131FF05A8D2D813E81220F331F220F331F240F50
S1132000351F26593F4FF90180839183A283B383FF
S11320108F81988501968F839887FDCE000001C03B
S113202000008D819E8101968D839E83CFCD00001B
S11320306A96CDBFDEBFDF91CF91FF90EF90DF9026
S1132040CF900895CF93DF93CDB7DEB7A297CDBFDE
S1132050DEBF8D8F9E8F4F8F58A369A37AA38F8D78
S113206098A1A9A1BAA1803D9740A105B1050CF49E
S113207083C08F8D98A1A9A1BAA128EE33E040E0D6
S113208050E0BC01CD010E94762CDA01C901BC01EB
S1132090CD010E948B25DC01CB018D839E83AF8310
S11320A0B88720E030E84BEB55E46D817E818F8169
S11320B098850E94E826DC01CB0189879A87AB8743
S11320C0BC8720E030E040E85FE369857A858B8552
S11320D09C850E94DC2488232CF481E090E08D8789
S11320E09E873FC020E03FEF4FE757E469857A853C
S11320F08B859C850E94932618164CF520E030E0D1
S113210040E251E46D817E818F8198850E94E826AA
S1132110DC01CB01BC01CD010E945A25DC01CB01BD
S11321208D879E878D859E85892B09F496C088E5C9
S113213092E08F87988B8F8598890197F1F78F8725
S1132140988B8D859E8501978D879E87EBCF6985BA
S11321507A858B859C850E945A25DC01CB018D876D
S11321609E878D859E85898B9A8B89899A8901970B
S1132170F1F7898B9A8B71C080E090E0A0E8BFE30F
S113218089839A83AB83BC8320E030E84BEB55E42E
S113219069817A818B819C810E94E826DC01CB01D4
S11321A08B8B9C8BAD8BBE8B20E030E040E85FE3F3
S11321B06B897C898D899E890E94DC2488232CF478
S11321C081E090E08F8B988F3EC020E03FEF4FE797
S11321D057E46B897C898D899E890E949326181601
S11321E044F520E030E040E251E469817A818B815A
S11321F09C810E94E826DC01CB01BC01CD010E9438
S11322005A25DC01CB018F8B988F8F89988D892B70
S113221021F188E592E0898F9A8F898D9A8D0197B3
S1132220F1F7898F9A8F8F89988D01978F8B988F6B
S1132230ECCF6B897C898D899E890E945A25DC01AB
S1132240CB018F8B988F8F89988D8B8F9C8F8B8DE3
S11322509C8D0197F1F78B8F9C8F0000A296CDBFC8
S1132260DEBFDF91CF910895CF93DF9300D000D0EC
S1132270CDB7DEB789839A836B837C8389819A8106
S1132280019741F48B819C81019621F48EEA93E4B9
S11322900E94C01189819A81892B41F48B819C8190
S11322A0019621F48EEA93E40E94D311000024964F
S11322B0CDBFDEBFDF91CF910895CF93DF93CDB72C
S11322C0DEB76FEF7FEF81E090E00E943411DF9181
S11322D0CF910895CF93DF93CDB7DEB76FEF7FEF44
S11322E080E090E00E943411DF91CF910895CF9364
S11322F0DF9300D0CDB7DEB789836A838A818823D0
S1132300A9F020E030E080E090E0FC018181682FBA
S11323108981482F50E081E090E002C0880F991F26
S11323204A95E2F7862BF901818315C020E030E05D
S113233080E090E0FC018181682F8981482F50E082
S113234081E090E002C0880F991F4A95E2F78095DA
S11323508623F901818300000F900F90DF91CF91C4
S11323600895CF93DF931F92CDB7DEB78983698138
S113237087E00E94771100000F90DF91CF910895BC
S1132380CF93DF9300D0CDB7DEB789839A83898159
S11323909A818093B3439093B44300000F900F90BD
S11323A0DF91CF910895CF93DF9300D0CDB7DEB7FF
S11323B089839A8300000F900F90DF91CF91089545
S11323C0CF93DF9300D0CDB7DEB789839A83898119
S11323D09A810E94F61189819A8121E0FC0120836F
S11323E000000F900F90DF91CF910895CF93DF936A
S11323F000D0CDB7DEB789839A830E94731380E03F
S11324000F900F90DF91CF910895CF93DF93CDB7C5
S1132410DEB72597CDBFDEBF89839A836B837C8328
S11324204D8389819A81FC011082F8948B819C816F
S11324306D810E94791378948D812596CDBFDEBF7E
S1132440DF91CF910895CF93DF93CDB7DEB7259772
S1132450CDBFDEBF89839A836B837C834D8389815F
S11324609A81FC011082F8948B819C816D810E9479
S1132470891378948D812596CDBFDEBFDF91CF91EE
S11324800895CF93DF9300D01F92CDB7DEB7898331
S11324909A836B838B810E94B11100002396CDBF78
S11324A0DEBFDF91CF9108950E940913089580E063
S11324B008C0E82FF0E0E05FFB4F908198609083C4
S11324C08F5F8830B0F380E008C0E82FF0E0E05D73
S11324D0FB4F9081986090838F5F8830B0F380E0E9
S11324E008C0E82FF0E0E05BFB4F90819860908398
S11324F08F5F8830B0F380E008C0E82FF0E0E05947
S1132500FB4F9081986090838F5F8830B0F380E0B8
S113251008C0E82FF0E0E057FB4F9081986090836B
S11325208F5F8830B0F380E008C0E82FF0E0E0551A
S1132530FB4F9081986090838F5F8830B0F308954B
S1132540E7E7F4E08081887F846080838081877FEF
S11325508083E5E7F4E08081887F846080838081E4
S1132560877F80830E944913089584B18D7F84B945
S1132570E1E3F4E08081877F808385B18E7F85B934
S113258084B1816084B90E94EE1308950E943A13C5
S11325900895E3E9F4E08081887F8460808380810A
S11325A0877F80830E940F14089580B18F7D80B946
S11325B0E5E1F4E08081877F808381B18F7E81B9FA
S11325C080B1806180B981B1806481B980B1806457
S11325D080B90E946D13089588B18D7F88B9E1E5B3
S11325E0F4E08081877F808389B18E7F89B988B147
S11325F0816088B989B18B7F89B988B1846088B9D1
S11326000E949A1308950E94C71308950E94D91333
S113261008950E94571281B18F7781B980B1806883
S113262080B985B1877F85B984B1886084B989B15F
S1132630886089B988B1886088B90E94A0120E9414
S113264018140E94B5120E94C6120E946B130E94B5
S113265026140E94C9120E94D5120E94EC120E94F4
S11326605A130E9403130E9406130E940A140E9424
S113267014140895E0E0F2E080E3808B81E3818B21
S113268081E086AF92E0909340028093480280E01C
S11326900895E0E0F7E081E08083818387E182832D
S11326A08FE7848F85E0808F89EE828F84E1838F2A
S11326B080E00895809141018111FCCFE0E4F1E0D4
S11326C088EA80838FEF91E082879387178281E085
S11326D0828380E0089580E0089581E28093400938
S11326E01092B6430895E0E4F9E08081816080832C
S11326F00895FC0109C09081909344099091430985
S11327009923E4F73196682F8FEF860F6111F3CF89
S11327100895FC010AC01092440990914309992339
S1132720E4F7909144099193682F8FEF860F61111C
S1132730F2CF089581E2809360091092B543089521
S1132740E0E6F9E08081816080830895FC0109C09E
S1132750908190936409909163099923E4F73196E9
S1132760682F8FEF860F6111F3CF0895FC010AC023
S113277010926409909163099923E4F79091640994
S11327809193682F8FEF860F6111F2CF0895E0E1E6
S1132790FBE08FEF9FEF848795878287938783E49D
S11327A0818381E080878483858381E1808380E0E5
S11327B00895E0E8FBE08FEF9FE080A791A782A750
S11327C093A785E5808784E0848780918E0B80FFC2
S11327D0FCCF81E28093800B80E00895E0E6F8E08E
S11327E081E493E08087918780EC868380E090E4A5
S11327F0809392459093934580E008959091640866
S113280095FFFCCF8093620808950E94FE1380E038
S113281090E0089585E88093B40080E0089589E409
S11328208093C80680E008951092A90080E008957E
S113283041E868ED80E790E00E94281444E268EDE6
S113284088E690E00E94281480E0089580E00895CE
S11328501BBEFC0164BF40830895CF93DF931F9296
S1132860CDB7DEB7898388E090E0FC018281882FB0
S113287090E02981222F30E002C0959587952A9512
S1132880E2F78170992721E0892B09F420E0822F57
S11328900F90DF91CF910895CF93DF93CDB7DEB73B
S11328A081E00E942D14DF91CF910895CF93DF939F
S11328B000D0CDB7DEB789839A8389819A812CEBC6
S11328C033E4FC012683378389819A8122EA34E444
S11328D0FC012483358389819A8121E0FC01218FC5
S11328E089819A81FC01178A29813A8180E090E0EC
S11328F0A8ECBEE3F90182AF93AFA4AFB5AF2981D1
S11329003A8180E090E0AAE7B5E4F90180839183FD
S1132910A283B38389819A81FC0180819181A28100
S1132920B38129813A81F90122AD33AD44AD55AD6E
S1132930BC01CD010E947024DC01CB0129813A81C4
S1132940F90182A793A7A4A7B5A789819A8121E059
S1132950FC0127AF89819A8121E0FC01208F0000CE
S11329600F900F90DF91CF910895CF93DF9300D014
S1132970CDB7DEB789839A8300000F900F90DF9163
S1132980CF910895CF93DF93CDB7DEB76E97CDBFC8
S1132990DEBF8D8F9E8F8D8D9E8D27EB33E4FC01E2
S11329A0208731878D8D9E8DFC01808591850E94C5
S11329B0B4228D8D9E8DFC018085918561E00E94FD
S11329C011238D8D9E8D0E94941C8D8D9E8D0E9451
S11329D03C1E8D8D9E8D0E942C2080E090E0A0E214
S11329E0B1E489839A83AB83BC8320E030E84BEB6A
S11329F055E469817A818B819C810E94E826DC01FF
S1132A00CB018B8B9C8BAD8BBE8B20E030E040E800
S1132A105FE36B897C898D899E890E94DC248823ED
S1132A202CF481E090E08F8B988F3EC020E03FEF44
S1132A304FE757E46B897C898D899E890E94932690
S1132A40181644F520E030E040E251E469817A81CF
S1132A508B819C810E94E826DC01CB01BC01CD0165
S1132A600E945A25DC01CB018F8B988F8F89988D1A
S1132A70892B21F188E592E0898F9A8F898D9A8D2F
S1132A800197F1F7898F9A8F8F89988D01978F8B92
S1132A90988FECCF6B897C898D899E890E945A25F9
S1132AA0DC01CB018F8B988F8F89988D8B8F9C8FB6
S1132AB08B8D9C8D0197F1F78B8F9C8F8D8D9E8DC7
S1132AC00E942B1D80E090E0A8ECB2E48D839E83ED
S1132AD0AF83B88720E030E84BEB55E46D817E810D
S1132AE08F8198850E94E826DC01CB0189879A872B
S1132AF0AB87BC8720E030E040E85FE369857A85F6
S1132B008B859C850E94DC2488232CF481E090E052
S1132B108D879E873EC020E03FEF4FE757E46985ED
S1132B207A858B859C850E949326181644F520E0AF
S1132B3030E040E251E46D817E818F8198850E946E
S1132B40E826DC01CB01BC01CD010E945A25DC0141
S1132B50CB018D879E878D859E85892B21F188E504
S1132B6092E08F87988B8F8598890197F1F78F87EB
S1132B70988B8D859E8501978D879E87ECCF69857F
S1132B807A858B859C850E945A25DC01CB018D8733
S1132B909E878D859E85898B9A8B89899A890197D1
S1132BA0F1F7898B9A8B8D8D9E8D0E94DD156E9623
S1132BB0CDBFDEBFDF91CF910895CF92DF92EF9228
S1132BC0FF92CF93DF9300D0CDB7DEB789839A838A
S1132BD00E944C14282F89819A81FC01218B8981C0
S1132BE09A81FC018189882339F40E944C14282F8E
S1132BF089819A81FC01218B89819A81FC018189D7
S1132C00882309F44BC089819A8162E00E945B1693
S1132C10982F81E0992309F480E0882379F0898151
S1132C209A8160E00E949F17DC01CB0129813A81DF
S1132C30F90180839183A283B38330C089819A810F
S1132C4060E00E948916282F89819A81FC01218FD6
S1132C5089819A8160E00E949F176B017C018981C0
S1132C609A81FC01818D882F90E0092E000CAA0B1B
S1132C70BB0BBC01CD010E948B25DC01CB019C0167
S1132C80AD01C701B6010E94E124DC01CB01298119
S1132C903A81F90180839183A283B38389819A81E4
S1132CA0FC0181890F900F90DF91CF91FF90EF90FD
S1132CB0DF90CF900895CF93DF9300D01F92CDB7CC
S1132CC0DEB789839A836B838B81823061F4898137
S1132CD09A81FC0186819781845A9F4FFC018081EF
S1132CE09181837010C089819A81FC0186819781CA
S1132CF0865A9F4FFC0180819181892F992786955F
S1132D008695869583702396CDBFDEBFDF91CF91E4
S1132D100895CF93DF9300D01F92CDB7DEB7898398
S1132D209A836B838B818823A9F089819A816BE4D0
S1132D300E940D210024880F991F001C880F991FE1
S1132D40001C892F902D282F2F7189819A81FC01D5
S1132D50278B19C089819A81FC01868197818A56C3
S1132D609F4FFC01808191810024880F991F001CD2
S1132D70880F991F001C892F902D282F2F7189816E
S1132D809A81FC01278B89819A81FC018789882F8C
S1132D9090E0880F991F83549E4BFC0180819181A0
S1132DA02396CDBFDEBFDF91CF910895CF93DF93FC
S1132DB000D01F92CDB7DEB789839A836B838B8152
S1132DC0882341F589819A81FC01868197818C5BF6
S1132DD09F4FFC0180819181CC01A0E0B0E0AC0167
S1132DE03327222789819A81FC0186819781885B18
S1132DF09F4FFC0180819181CC01A0E0B0E0820F63
S1132E00931FA41FB51F29813A81F901828F938FE3
S1132E10A48FB58F89819A81FC01828D938DA48DB5
S1132E20B58DBC01CD012396CDBFDEBFDF91CF911F
S1132E300895CF93DF9300D01F92CDB7DEB7898377
S1132E409A836B838B81882341F589819A81FC0164
S1132E50868197818C5A9F4FFC0180819181CC019E
S1132E60A0E0B0E0AC013327222789819A81FC01DC
S1132E70868197818A5A9F4FFC0180819181CC0180
S1132E80A0E0B0E0820F931FA41FB51F29813A81EF
S1132E90F901868F978FA0A3B1A389819A81FC0140
S1132EA0868D978DA0A1B1A1BC01CD012396CDBF84
S1132EB0DEBFDF91CF910895CF93DF9300D01F92AF
S1132EC0CDB7DEB789839A836B838B81882341F5E1
S1132ED089819A81FC0186819781845B9F4FFC01E3
S1132EE080819181CC01A0E0B0E0AC01332722279E
S1132EF089819A81FC0186819781825B9F4FFC01C5
S1132F0080819181CC01A0E0B0E0820F931FA41FC7
S1132F10B51F29813A81F90182A393A3A4A3B5A380
S1132F2089819A81FC0182A193A1A4A1B5A1BC01CC
S1132F30CD012396CDBFDEBFDF91CF9108958F924F
S1132F409F92AF92BF92CF92DF92EF92FF92CF9374
S1132F50DF9300D01F92CDB7DEB789839A836B834A
S1132F608B81882309F048C089819A8160E00E949E
S1132F70D616DC01CB01BC01CD010E9489256B0171
S1132F807C0189819A8160E00E941917DC01CB01E0
S1132F90BC01CD010E9489254B015C0189819A8184
S1132FA060E00E945C17DC01CB01BC01CD010E94F2
S1132FB08925DC01CB019C01AD01C501B4010E944E
S1132FC0E124DC01CB019C01AD01C701B6010E94E3
S1132FD07024DC01CB0120E030E048E453E4BC0180
S1132FE0CD010E94E826DC01CB0129813A81F90157
S1132FF086A797A7A0ABB1AB89819A81FC0186A56E
S113300097A5A0A9B1A9BC01CD012396CDBFDEBF70
S1133010DF91CF91FF90EF90DF90CF90BF90AF9072
S11330209F908F9008950F931F93CF93DF93CDB705
S1133030DEB72A97CDBFDEBF89839A834B835C8337
S11330406D837E830F83188729873A878B819C81C0
S1133050AD81BE81892B8A2B8B2B29F48F81988596
S1133060A985BA8559C08F819885A985BA85892B88
S11330708A2B8B2B29F48B819C81AD81BE814CC022
S11330802B813C814D815E818F819885A985BA858C
S1133090281739074A075B0700F58F819885A985AA
S11330A0BA852B813C814D815E81BC01CD010E949A
S11330B0542CDC01CB019C01AD018B819C81AD8141
S11330C0BE81E981FA8189019A01AC01BD01CF0178
S11330D00E941318DC01CB011FC08B819C81AD8140
S11330E0BE812F81388549855A85BC01CD010E9456
S11330F0542CDC01CB019C01AD018F819885A985FD
S1133100BA85E981FA8189019A01AC01BD01CF0137
S11331100E941318DC01CB01BC01CD012A96CDBF5E
S1133120DEBFDF91CF911F910F910895CF92DF926F
S1133130EF92FF920F931F93CF93DF93CDB7DEB738
S11331402697CDBFDEBF89839A834B835C836D83CF
S11331507E8320E030EF4BE656E46B817C818D81E9
S11331609E810E949326181664F429813A8180E096
S113317090EFABE6B6E4F90182A793A7A4A7B5A79D
S113318032C120E030E048EC53E46B817C818D81D6
S11331909E810E94932618160CF025C129813A813C
S11331A08B819C81AD81BE81F90182A793A7A4A7DD
S11331B0B5A720E030EF4BEE55E46B817C818D8127
S11331C09E810E94932618164CF589819A81FC01F0
S11331D080819181A281B38120E030EF4BEE55E4F0
S11331E0BC01CD010E949326181694F089819A811E
S11331F0FC0186819781845A9F4FFC0180819181D3
S11332009C01216089819A81A9016EE20E948D202E
S113321089819A8121E0FC01218F67C089819A818B
S1133220FC0180819181A281B38120E030EF4BEEDB
S113323055E4BC01CD010E94DC24882394F08981EB
S11332409A81FC0186819781845A9F4FFC01808179
S113325091819C012C7F89819A81A9016EE20E944F
S11332608D2089819A81FC01868197818A569F4F9E
S1133270FC01808191819C012F73387F89819A811F
S1133280FC01248B358B89819A81FC010489158981
S113329089819A810E94761A882F90E0002496955D
S11332A087950794969587950794982F802D980174
S11332B0282B392B89819A81A9016BE40E948D20E6
S11332C089819A81FC01818D833040F089819A81C2
S11332D04CEE53E46FE10E948D2007C089819A81EE
S11332E04CEE53E06FE10E948D2089819A81FC01AC
S11332F0818D882F90E0092E000CAA0BBB0BBC011A
S1133300CD010E948B25DC01CB012B813C814D81B9
S11333105E81BC01CD010E94E826DC01CB0120E0E6
S113332030E048E453E4BC01CD010E94E124DC0117
S1133330CB0129813A81F90182AB93ABA4ABB5AB44
S113334089819A81FC0182A993A9A4A9B5A9BC0188
S1133350CD010E94C625DC01CB01BC01CD010E9438
S11333605A25DC01CB0129813A81F901828F938F9F
S1133370A48FB58F89819A81FC01C2A8D3A8E4A83F
S1133380F5A889819A81FC01828D938DA48DB58DD8
S1133390BC01CD010E948925DC01CB019C01AD015A
S11333A0C701B6010E946F24DC01CB0129813A8157
S11333B0F90186AB97ABA0AFB1AF89819A81FC01CB
S11333C086A997A9A0ADB1AD29813A81AC01BD010F
S11333D0C9010E94011C89819A810E94081A89816D
S11333E09A810E942B1D89819A81FC0186A997A943
S11333F0A0ADB1ADBC01CD012696CDBFDEBFDF913E
S1133400CF911F910F91FF90EF90DF90CF9008958F
S1133410CF93DF9300D0CDB7DEB789839A838981B8
S11334209A81FC01868D978DA0A1B1A19C0189810F
S11334309A81A9016BE20E948D2089819A81FC0105
S1133440868D978DA0A1B1A1CD01AA27BB279C0190
S113345089819A81A9016AE20E948D2089819A81D9
S1133460FC0182A193A1A4A1B5A19C0189819A81A7
S1133470A90167E20E948D2089819A81FC0182A1C1
S113348093A1A4A1B5A1CD01AA27BB279C01898141
S11334909A81A90166E20E948D2089819A810E9405
S11334A0991B89819A81FC01828D938DA48DB58DA0
S11334B09C0189819A81A90164E20E948D208981FD
S11334C09A81FC01828D938DA48DB58DCD01AA279F
S11334D0BB279C0189819A81A90162E20E948D2007
S11334E000000F900F90DF91CF910895EF92FF921B
S11334F00F931F93CF93DF9300D000D0CDB7DEB7E7
S11335008B839C8319821A8289819A810E970CF08D
S113351075C089819A810397DCF589819A81880F26
S1133520991F83549E4BFC01208131818CEF9AE3D7
S1133530B9010E94402CCB01092E000CAA0BBB0B35
S1133540BC01CD010E948B257B018C018B819C8168
S1133550FC0182A593A5A4A5B5A59C01AD01C80154
S1133560B7010E94932618160CF442C089819A81EF
S11335701816190644F489812FEF280F8B819C813A
S1133580FC01278B3BC08B819C81FC01178A36C0D0
S113359089819A81880F991F83549E4BFC01208155
S11335A031818CEE9CE2B9010E94402CCB01092EA2
S11335B0000CAA0BBB0BBC01CD010E948B257B0127
S11335C08C018B819C81FC0182A593A5A4A5B5A542
S11335D09C01AD01C801B7010E949326181644F05E
S11335E089812FEF280F8B819C81FC01278B06C0DA
S11335F089819A81019689839A8386CF8B819C8164
S1133600FC018789882F90E0880F991F83549E4B73
S1133610FC0180819181282F8B819C81FC01218F69
S11336208B819C81FC0187892496CDBFDEBFDF910D
S1133630CF911F910F91FF90EF900895CF93DF9357
S1133640CDB7DEB72697CDBFDEBF89839A834B8380
S11336505C836D837E8389819A81FC01808D8823BC
S113366009F457C089819A81FC01808D882F90E0EC
S1133670009719F00197E9F04CC020E030E543E4ED
S113368056E46B817C818D819E810E94932618165D
S113369044F489819A8144E052E865E20E948D20D5
S11336A038C089819A8144E051E865E20E948D2006
S11336B030C020E030E543E456E46B817C818D81A9
S11336C09E810E949326181644F489819A8144E0CD
S11336D053E865E20E948D201BC020E030E44CE1F9
S11336E056E46B817C818D819E810E9493261816FD
S11336F044F489819A8144E052E865E20E948D2075
S113370007C089819A8144E051E865E20E948D20D6
S1133710000089819A81FC0186819781865B9F4F95
S1133720FC01808191812696CDBFDEBFDF91CF91D0
S11337300895CF92DF92EF92FF92CF93DF9300D060
S1133740CDB7DEB789839A8389819A81FC0182A5EA
S113375093A5A4A5B5A520E030EF4BEE55E4BC013C
S1133760CD010E94932618167CF489819A81FC016C
S113377082A593A5A4A5B5A529813A81F90186A7B7
S113378097A7A0ABB1AB25C089819A81FC01C2A4E3
S1133790D3A4E4A4F5A489819A8160E00E948916E7
S11337A0092E000CAA0BBB0BBC01CD010E948B257A
S11337B0DC01CB019C01AD01C701B6010E94E826E2
S11337C0DC01CB0129813A81F90186A797A7A0AB37
S11337D0B1AB89819A81FC0186A597A5A0A9B1A95D
S11337E029813A81AC01BD01C9010E941E1B000060
S11337F00F900F90DF91CF91FF90EF90DF90CF90DB
S11338000895CF92DF92EF92FF920F931F93CF937D
S1133810DF93CDB7DEB72697CDBFDEBF89839A830A
S11338204B835C836D837E8320E030E040E85FE47B
S11338306B817C818D819E810E94E826DC01CB0115
S1133840BC01CD010E94A527DC01CB01BC01CD0147
S11338500E945A25AB01BC0189819A810FEF1FEFA9
S113386098010E941318DC01CB0129813A81F901E6
S113387086A397A3A0A7B1A720E030E040E85FE4C7
S11338806B817C818D819E810E94E826DC01CB01C5
S1133890BC01CD010E94A5276B017C0189819A811D
S11338A0FC0186A197A1A0A5B1A5BC01CD010E94F0
S11338B08925DC01CB019C01AD01C701B6010E9441
S11338C0E124DC01CB01BC01CD010E945A25DC01BD
S11338D0CB0129813A81F901868F978FA0A3B1A3E7
S11338E089819A81FC0126A137A140A551A58FEFBA
S11338F09FEFDC01BC01CD010E94542CDA01C90107
S113390029813A81F90182A393A3A4A3B5A300005A
S11339102696CDBFDEBFDF91CF911F910F91FF900F
S1133920EF90DF90CF900895CF93DF9300D0CDB781
S1133930DEB789839A8389819A81FC018085918588
S113394060E00E94112389819A8149E151E260E09B
S113395070E00E94A61F89819A819C01265F3F4FD7
S113396089819A81FC018085918543E0B9010E9497
S1133970D922282F30E089819A81FC01228B338B54
S113398089819A81FC018289938921E0181619069C
S11339900CF020E089819A81FC01208B89819A8135
S11339A0FC018085918561E00E94112389819A81BF
S11339B0FC0180890F900F90DF91CF910895CF93F0
S11339C0DF9300D01F92CDB7DEB789839A836B83D0
S11339D08B81882381F089819A81FC01868197817A
S11339E0FC01808191819C01286089819A81FC017C
S11339F0248B358B0FC089819A81FC018681978144
S1133A00FC01808191819C01277F89819A81FC013D
S1133A10248B358B89819A81FC012489358989819C
S1133A209A81A90160E00E948D209C0189819A817C
S1133A30FC01228B338B89819A81FC0182899389D1
S1133A4021E0892B09F420E0822F2396CDBFDEBF2D
S1133A50DF91CF910895CF93DF93CDB7DEB7A297CF
S1133A60CDBFDEBF89A39AA389A19AA160E00E9479
S1133A70DF1C80E090E0A8ECB2E489839A83AB83F6
S1133A80BC8320E030E040E051E469817A818B819D
S1133A909C810E94E826DC01CB018D839E83AF8349
S1133AA0B88720E030E040EC50E469817A818B8172
S1133AB09C810E94E826DC01CB0189879A87AB8729
S1133AC0BC8720E030E040E85FE36D817E818F8138
S1133AD098850E94DC2488231CF481E08D87B2C081
S1133AE020E03FEF4FE757E469857A858B859C8515
S1133AF00E94932618160CF07BC020E030E04AE7C1
S1133B0054E469817A818B819C810E94E124DC01E7
S1133B10CB018E879F87A88BB98B20E030E84BEBD5
S1133B2055E46E857F85888999890E94E826DC01A1
S1133B30CB018A8B9B8BAC8BBD8B20E030E040E8C3
S1133B405FE36A897B898C899D890E94DC248823B0
S1133B502CF481E090E08E8B9F8B3FC020E03FEF00
S1133B604FE757E46A897B898C899D890E94932653
S1133B7018164CF520E030E040E251E46E857F8574
S1133B80888999890E94E826DC01CB01BC01CD011A
S1133B900E945A25DC01CB018E8B9F8B8E899F89D5
S1133BA0892B09F44FC088E592E0888F998F888D1E
S1133BB0998D0197F1F7888F998F8E899F89019745
S1133BC08E8B9F8BEBCF6A897B898C899D890E9420
S1133BD05A25DC01CB018E8B9F8B8E899F898A8F1E
S1133BE09B8F8A8D9B8D0197F1F78A8F9B8F2AC0BB
S1133BF020E030E04FE753E46D817E818F8198852A
S1133C000E9493261816ACF469857A858B859C8569
S1133C100E945A25DC01CB018C8F9D8F8C8D9D8D4C
S1133C208E8F9F8F8E8D9F8D0197F1F78E8F9F8F33
S1133C300FC06D817E818F8198850E945A25DC0199
S1133C40CB018D878D8588A388A18A95F1F788A3F8
S1133C5089A19AA161E00E94DF1C282F89A19AA161
S1133C60FC01208B89A19AA1FC018089A296CDBF79
S1133C70DEBFDF91CF910895CF93DF93CDB7DEB749
S1133C80A297CDBFDEBF89A39AA389A19AA1FC0103
S1133C908085918560E00E94112389A19AA14EE15B
S1133CA051E260E070E00E94A61F89A19AA19C01E4
S1133CB0265F3F4F89A19AA1FC018085918543E04D
S1133CC0B9010E94D922282F30E089A19AA1FC01D0
S1133CD0228B338B89A19AA1FC018085918561E0B7
S1133CE00E94112380E090E0A8ECB2E489839A83D7
S1133CF0AB83BC8320E030E040E051E469817A8109
S1133D008B819C810E94E826DC01CB018D839E83FC
S1133D10AF83B88720E030E040EC50E469817A81D9
S1133D208B819C810E94E826DC01CB0189879A87DC
S1133D30AB87BC8720E030E040E85FE36D817E81A3
S1133D408F8198850E94DC2488231CF481E08D8770
S1133D50B2C020E03FEF4FE757E469857A858B8551
S1133D609C850E94932618160CF07BC020E030E05E
S1133D704AE754E469817A818B819C810E94E12421
S1133D80DC01CB018E879F87A88BB98B20E030E8BC
S1133D904BEB55E46E857F85888999890E94E826D6
S1133DA0DC01CB018A8B9B8BAC8BBD8B20E030E09C
S1133DB040E85FE36A897B898C899D890E94DC24C1
S1133DC088232CF481E090E08E8B9F8B3FC020E011
S1133DD03FEF4FE757E46A897B898C899D890E946C
S1133DE0932618164CF520E030E040E251E46E854D
S1133DF07F85888999890E94E826DC01CB01BC0172
S1133E00CD010E945A25DC01CB018E8B9F8B8E89BC
S1133E109F89892B09F44FC088E592E0888F998F98
S1133E20888D998D0197F1F7888F998F8E899F8955
S1133E3001978E8B9F8BEBCF6A897B898C899D89B7
S1133E400E945A25DC01CB018E8B9F8B8E899F8922
S1133E508A8F9B8F8A8D9B8D0197F1F78A8F9B8F19
S1133E602AC020E030E04FE753E46D817E818F81EA
S1133E7098850E9493261816ACF469857A858B85FB
S1133E809C850E945A25DC01CB018C8F9D8F8C8DE3
S1133E909D8D8E8F9F8F8E8D9F8D0197F1F78E8FC5
S1133EA09F8F0FC06D817E818F8198850E945A25D6
S1133EB0DC01CB018D878D8588A388A18A95F1F7D4
S1133EC088A389A19AA1FC018085918560E00E9464
S1133ED0112389A19AA14CE151E260E070E00E94B3
S1133EE0A61F89A19AA19C01265F3F4F89A19AA18F
S1133EF0FC018085918543E0B9010E94D922282FD5
S1133F0030E089A19AA1FC01228B338B89A19AA16B
S1133F10FC018289938921E0181619060CF020E02F
S1133F2089A19AA1FC01208B89A19AA1FC01808519
S1133F30918561E00E94112389A19AA1FC018089E5
S1133F40A296CDBFDEBFDF91CF910895CF93DF93CB
S1133F50CDB7DEB72897CDBFDEBF8B839C834D835F
S1133F605E836F83788719821A8289819A81039785
S1133F7044F522E030E089819A81281B390B89813C
S1133F809A81AC01440F551F440F551F440F551F10
S1133F908D819E81AF81B88504C0B695A79597950C
S1133FA087954A95D2F7482F8B819C81820F931F66
S1133FB00A96FC01408389819A81019689839A83B8
S1133FC0D4CF00002896CDBFDEBFDF91CF910895F6
S1133FD0CF93DF93CDB7DEB72797CDBFDEBF8B83FB
S1133FE09C836D834E835F8319821A8289819A81AF
S1133FF0029734F522E030E089819A81A901481BB7
S1134000590BCA0129813A81A901440F551F440F54
S1134010551F440F551F2E813F8102C036952795A9
S11340204A95E2F7422F2B813C81820F931F0A9617
S1134030FC01408389819A81019689839A83D6CF32
S11340408B819C812D81FC01228700002796CDBFA6
S1134050DEBFDF91CF910895CF93DF93CDB7DEB765
S11340602697CDBFDEBF8D839E8319821A828981F4
S11340709A81833791051CF58D819E81FC012481F1
S1134080358189819A81880F991F820F931F42E796
S113409050E029813A81BA01621B730B9B01220F04
S11340A0331F29523F4BF90120813181FC012083C8
S11340B0318389819A81019689839A83D8CF83E752
S11340C090E08B839C838B819C8118161906F4F4F1
S11340D08D819E81FC01248135818B819C8181505D
S11340E09048880F991F820F931FFC012081318112
S11340F08B816FEF680F8D819E81A9010E948D20B5
S11341008B819C8101978B839C83DDCF0000269655
S1134110CDBFDEBFDF91CF910895CF93DF93CDB7AD
S1134120DEB72597CDBFDEBF89839A836B834C832B
S11341305D8389819A81FC01268137818B81882F57
S113414090E0880F991F820F931FFC012081318119
S113415041E08C819D812817390709F040E0242F24
S113416030E089819A81FC018189882F90E0822343
S11341709323892B09F046C089819A81FC018085AB
S1134180918560E00E9411232C813D8189819A816F
S1134190A9016B810E94E81F89819A819C01265F95
S11341A03F4F89819A81FC018085918543E0B90163
S11341B00E94D922282F30E089819A81FC01228B28
S11341C0338B89819A81FC01828993891816190697
S11341D08CF489819A81FC01268137818B81882F17
S11341E090E0880F991F820F931F2C813D81FC0161
S11341F02083318389819A81FC018085918561E0E6
S11342000E94112389819A81FC01828993892596D0
S1134210CDBFDEBFDF91CF910895CF93DF93CDB7AC
S1134220DEB72597CDBFDEBF8B839C836D838B81E7
S11342309C8160E00E94C1218B819C81FC01148AD5
S1134240158A8FEF90E089839A838B819C81FC018E
S11342508489958931E0892B09F430E08B819C8134
S1134260FC018489958921E0019609F420E0832FDB
S11342708223882309F061C08B819C81FC018085A5
S1134280918560E00E9411238D81282F20688B8105
S11342909C81FC01268B8B819C810D9643E050E030
S11342A060E070E00E94952D8B819C819C012A5EC8
S11342B03F4F8B819C81FC018085918541E0B90150
S11342C00E94D922282F30E08B819C81FC01228B13
S11342D0338B8B819C819C01235F3F4F8B819C811D
S11342E0FC018085918542E0B9010E94F522282FC6
S11342F030E08B819C81FC01228B338B8B819C81F0
S1134300FC018585882F90E0382F22278B819C81A2
S1134310FC018685882F90E0820F931F9C018B817E
S11343209C81FC01248B358B8B819C81FC018085D5
S1134330918561E00E94112388CF8B819C81FC01CF
S1134340248135818D81882F90E0880F991F820FF9
S1134350931F2B813C81F90124893589FC01208339
S113436031838B819C8161E00E94C1218B819C817E
S1134370FC01848995892596CDBFDEBFDF91CF915D
S11343800895CF93DF9300D01F92CDB7DEB7898312
S11343909A836B838B81882381F089819A81FC01C4
S11343A084819581FC01808191819C0124608981B3
S11343B09A81FC01248B358B0FC089819A81FC0181
S11343C084819581FC01808191819C012B7F89816D
S11343D09A81FC01248B358B89819A81FC01248983
S11343E0358989819A81A90160E00E948D209C0110
S11343F089819A81FC01228B338B89819A81FC010A
S1134400828993892396CDBFDEBFDF91CF91089532
S1134410CF93DF9300D000D0CDB7DEB789839A83E2
S11344206B837C8389819A81019741F48B819C8180
S1134430019621F487EB93E40E94942289819A8166
S1134440892B41F48B819C81019621F487EB93E4C1
S11344500E94A72200002496CDBFDEBFDF91CF913A
S11344600895CF93DF93CDB7DEB76FEF7FEF81E091
S113447090E00E940822DF91CF910895CF93DF93BB
S1134480CDB7DEB76FEF7FEF80E090E00E940822A7
S1134490DF91CF910895CF93DF9300D0CDB7DEB7EE
S11344A089836A838A818823A9F088E090E028E0E0
S11344B030E0F9012181622F2981422F50E021E06F
S11344C030E002C0220F331F4A95E2F7262BFC018D
S11344D0218315C088E090E028E030E0F9012181D3
S11344E0622F2981422F50E021E030E002C0220FE8
S11344F0331F4A95E2F720952623FC01218300000F
S11345000F900F90DF91CF910895CF93DF931F9277
S1134510CDB7DEB78983698183E00E944B22000016
S11345200F90DF91CF910895CF93DF9300D0CDB753
S1134530DEB789839A8389819A8180938845909391
S1134540894500000F900F90DF91CF910895CF938C
S1134550DF9300D0CDB7DEB789839A8300000F9034
S11345600F90DF91CF910895CF93DF9300D0CDB713
S1134570DEB789839A8389819A810E94CA228981BC
S11345809A8121E0FC01208300000F900F90DF91BD
S1134590CF910895CF93DF9300D0CDB7DEB7898351
S11345A09A830E94A01380E00F900F90DF91CF9127
S11345B00895CF93DF93CDB7DEB72597CDBFDEBF88
S11345C089839A836B837C834D8389819A81FC01DF
S11345D010828B819C816D810E94A6138D8125960A
S11345E0CDBFDEBFDF91CF910895CF93DF93CDB7D9
S11345F0DEB72597CDBFDEBF89839A836B837C8327
S11346004D8389819A81FC0110828B819C816D810B
S11346100E94B6138D812596CDBFDEBFDF91CF9169
S11346200895CF93DF9300D01F92CDB7DEB789836F
S11346309A836B838B810E94852200002396CDBFD1
S1134640DEBFDF91CF9108951F920F920FB60F92A4
S113465011240BB60F928F93EF93FF93E0918E4545
S1134660F0918F4581E08083E0918E45F0918F45F4
S113467012828093C306FF91EF918F910F900BBE2E
S11346800F900FBE0F901F9018951F920F920FB6A8
S11346900F9211240BB60F928F93EF93FF93E09137
S11346A08E45F0918F4581E0828310828093CB0602
S11346B0FF91EF918F910F900BBE0F900FBE0F9053
S11346C01F90189580938E4590938F450895089573
S11346D0E1E7F4E08081887F846080838081877F44
S11346E0808381E48093C0060895E0E0FBE083E4E6
S11346F0818381E080878483858381E1808380E076
S11347000895CF93DF93EC010E94682381E08093A6
S11347103E02CE010E94752381E0DF91CF9108957E
S1134720FC018385882351F08091A20B9091A30B07
S113473087839087892B99F0000011C0A0E8BBE023
S113474092968D919C9193978187928792968D9161
S11347509C91939781879287892B09F0000084E0CC
S11347608093840B938581E0892783871082089541
S11347701F920F920FB60F9211240BB60F922F9324
S11347803F934F935F936F937F938F939F93AF93D5
S1134790BF93EF93FF938091A20B9091A30B809111
S11347A08E4590918F450E9490238CE080938D0BD1
S11347B0FF91EF91BF91AF919F918F917F916F91F5
S11347C05F914F913F912F910F900BBE0F900FBEB1
S11347D00F901F90189520918C4530918D45FC01C8
S11347E02583368308951F920F920FB60F921124DA
S11347F00BB60F922F933F934F935F936F937F93D7
S11348008F939F93AF93BF93CF93DF93EF93FF93D4
S1134810C0E0DBE08A859B8580938C4590938D4531
S113482080918E4590918F450E94EB2381E08E8389
S1134830FF91EF91DF91CF91BF91AF919F918F91B4
S11348407F916F915F914F913F912F910F900BBE8C
S11348500F900FBE0F901F90189520918A453091AC
S11348608B45FC012383348308951F920F920FB666
S11348700F9211240BB60F922F933F934F935F9394
S11348806F937F938F939F93AF93BF93CF93DF9354
S1134890EF93FF93C0E1DBE08A859B8580938A4593
S11348A090938B4580918E4590918F450E942D2445
S11348B081E08E83FF91EF91DF91CF91BF91AF9112
S11348C09F918F917F916F915F914F913F912F9124
S11348D00F900BBE0F900FBE0F901F90189550585D
S11348E0BB27AA270E9487240C9441260E943326C2
S11348F038F00E943A2620F039F49F3F19F426F448
S11349000C9430260EF4E095E7FB0C940126E92F75
S11349100E94522658F3BA17620773078407950753
S113492020F079F4A6F50C948C260EF4E0950B2E69
S1134930BA2FA02D0B01B90190010C01CA01A001ED
S11349401124FF27591B99F0593F50F4503E68F148
S11349501A16F040A22F232F342F4427585FF3CF89
S1134960469537952795A795F0405395C9F77EF45A
S11349701F16BA0B620B730B840BBAF09150A1F0A3
S1134980FF0FBB1F661F771F881FC2F70EC0BA0F29
S1134990621F731F841F48F4879577956795B795B1
S11349A0F7959E3F08F0B0CF9395880F08F09927AC
S11349B0EE0F9795879508950E94DD2508F481E010
S11349C008950E94F5240C9441260E943A2658F03A
S11349D00E94332640F029F45F3F29F00C9401260D
S11349E051110C948D260C9430260E94522668F3A3
S11349F09923B1F3552391F3951B550BBB27AA2794
S1134A0062177307840738F09F5F5F4F220F331FCD
S1134A10441FAA1FA9F335D00E2E3AF0E0E832D095
S1134A2091505040E695001CCAF72BD0FE2F29D098
S1134A30660F771F881FBB1F261737074807AB076A
S1134A40B0E809F0BB0B802DBF01FF2793585F4FDF
S1134A503AF09E3F510578F00C9401260C948D2673
S1134A605F3FE4F3983ED4F3869577956795B795C1
S1134A70F7959F5FC9F7880F911D9695879597F9CC
S1134A800895E1E0660F771F881FBB1F6217730745
S1134A908407BA0720F0621B730B840BBA0BEE1F5A
S1134AA088F7E09508950E945A256894B1110C94F2
S1134AB08D2608950E945A2688F09F5798F0B92FA2
S1134AC09927B751B0F0E1F0660F771F881F991F3F
S1134AD01AF0BA95C9F714C0B13091F00E948C262F
S1134AE0B1E008950C948C26672F782F8827B85F3F
S1134AF039F0B93FCCF3869577956795B395D9F797
S1134B003EF490958095709561957F4F8F4F9F4FA0
S1134B100895E89409C097FB3EF4909580957095AC
S1134B2061957F4F8F4F9F4F9923A9F0F92F96E9F5
S1134B30BB279395F695879577956795B795F1116A
S1134B40F8CFFAF4BB0F11F460FF1BC06F5F7F4F07
S1134B508F4F9F4F16C0882311F096E911C0772319
S1134B6021F09EE8872F762F05C0662371F096E822
S1134B70862F70E060E02AF09A95660F771F881FF1
S1134B80DAF7880F9695879597F908950E94742609
S1134B9090F09F3748F4911116F00C948D2660E044
S1134BA070E080E89FEB089526F41B16611D711DCB
S1134BB0811D0C9407260C942226990F0008550F8A
S1134BC0AA0BE0E8FEEF16161706E807F907C0F08F
S1134BD012161306E407F50798F0621B730B840B97
S1134BE0950B39F40A2661F0232B242B252B21F471
S1134BF008950A2609F4A140A6958FEF811D811D11
S1134C00089597F99F6780E870E060E0089588232D
S1134C1071F4772321F09850872B762F07C06623F1
S1134C2011F499270DC09051862B70E060E02AF0B2
S1134C309A95660F771F881FDAF7880F96958795E0
S1134C4097F908959F3F31F0915020F48795779517
S1134C506795B795880F911D9695879597F908954F
S1134C609FEF80EC089500240A9416161706180680
S1134C700906089500240A9412161306140605065C
S1134C800895092E0394000C11F4882352F0BB0FED
S1134C9040F4BF2B11F460FF04C06F5F7F4F8F4F50
S1134CA09F4F089557FD9058440F551F59F05F3F8B
S1134CB071F04795880F97FB991F61F09F3F79F03A
S1134CC087950895121613061406551FF2CF4695BC
S1134CD0F1DF08C0161617061806991FF1CF86953E
S1134CE071056105089408950E945A26A0F0BEE754
S1134CF0B91788F4BB279F3860F41616B11D672FC7
S1134D00782F8827985FF7CF869577956795B11D9B
S1134D1093959639C8F30895E894BB2766277727B7
S1134D20CB0197F908950E94DD2508F48FEF0895CB
S1134D3016F00C9422260C94302668940C940126C8
S1134D400E945A26A8F39923C1F3AEF3DF93CF93BD
S1134D501F930F93FF92C92FDD2788232AF02197F1
S1134D60660F771F881FDAF720E030E040E85FEB3A
S1134D709FE3883920F0803E38F021968F770E9497
S1134D807024EAE4F1E004C00E947024E7E7F1E053
S1134D900E9403288B01BE01EC01FB2E6F577109A1
S1134DA07595771F880B990B0E948B2528E132E7B4
S1134DB041E35FE30E94FB26AF2D9801AE01FF9013
S1134DC00F911F91CF91DF910E9487240C9441266B
S1134DD00E94FB260C9441260E94332638F00E9440
S1134DE03A2620F0952311F00C9401260C943026D9
S1134DF011240C948D260E94522670F3959FC1F3C2
S1134E00950F50E0551F629FF001729FBB27F00D74
S1134E10B11D639FAA27F00DB11DAA1F649F6627C9
S1134E20B00DA11D661F829F2227B00DA11D621F18
S1134E30739FB00DA11D621F839FA00D611D221FD2
S1134E40749F3327A00D611D231F849F600D211DB6
S1134E50822F762F6A2F11249F5750409AF0F1F039
S1134E6088234AF0EE0FFF1FBB1F661F771F881FA2
S1134E7091505040A9F79E3F510580F00C940126B3
S1134E800C948D265F3FE4F3983ED4F38695779592
S1134E906795B795F795E7959F5FC1F7FE2B880F48
S1134EA0911D9695879597F90895FA01EE0FFF1FC6
S1134EB0309621053105A1F16115710561F4803841
S1134EC0BFE39B0749F168949038810561F080380D
S1134ED0BFEF9B0741F099234AF5FF3FE1053105F8
S1134EE0210519F1E8940894E795D901AA2329F436
S1134EF0AB2FBE2FF85FD0F310C0FF5F70F4A69500
S1134F00E0F7F73950F019F0FF3A38F49F779F93A0
S1134F100DD00F9007FC9058089546F00C9430265D
S1134F2060E070E080E89FE308954FE79F775F9328
S1134F304F933F932F930E94A0262F913F914F911F
S1134F405F910E94E8260C94D1270E945A26E8F02B
S1134F509E37E8F09639B8F49E3848F4672F782FD6
S1134F608827985FF9CF86957795679593959539B6
S1134F70D0F3B62FB1706B0F711D811D20F487958E
S1134F807795679593950C9407260C9422260C9498
S1134F908D2629F416F00C9401260C948C260C947E
S1134FA030260E945A26A8F39638A0F707F80F92E5
S1134FB0E8942BE33AEA48EB5FE70E94FE260F925F
S1134FC00F920F924DB75EB70F920E946C28E4EADD
S1134FD0F1E00E9403284F915F91EF91FF91E595D5
S1134FE0EE1FFF1F49F0FE57E0684427EE0F441FF1
S1134FF0FA95E1F74195550B0E9436280F9007FE6C
S11350000C942A280895DF93CF931F930F93FF9254
S1135010EF92DF927B018C01689406C0DA2EEF01D7
S11350200E94FB26FE01E894A591259135914591B6
S11350305591A6F3EF010E948724FE019701A80170
S1135040DA9469F7DF90EF90FF900F911F91CF9161
S1135050DF9108959B01AC0160E070E080E89FE37C
S11350600C94E1240C9401260C9422260E945A26C6
S1135070D8F39923C9F3940F511DA3F391505040D1
S113508094F059F0882332F0660F771F881F9150EF
S11350905040C1F79E3F51052CF7880F911D9695FE
S11350A0879597F908955F3FACF0983E9CF0BB2735
S11350B0869577956795B79508F4B1609395C1F790
S11350C0BB0F58F711F460FFE8CF6F5F7F4F8F4F2E
S11350D09F4FE3CF0C948D26FA01DC01AA0FBB1F6E
S11350E09B01AC01BF5728F422273327442750786B
S11350F020C0B75190F4AB2F0024469537952795DF
S1135100011CA395D2F3002071F0220F331F441F1A
S1135110B395DAF30ED00C946F2461307105A0E8D6
S11351208A07B94630F49B01AC01662777278827A4
S11351309078309621F020833183428353830895FD
S11351402F923F924F925F926F927F928F929F9293
S1135150AF92BF92CF92DF92EF92FF920F931F9381
S1135160CF93DF93CDB7DEB76097CDBFDEBF7C01B1
S11351701B016A01FC0116821782838181FF44C3EB
S11351809E012F5F3F4F3901F7019381F10193FD98
S1135190859193FF81911F01882309F431C38532DE
S11351A039F493FD859193FF81911F01853239F480
S11351B0B70190E00E94A72D56016501E5CF10E0EC
S11351C0512C912CFFE1F915D8F08B3279F038F499
S11351D0803279F08332A1F4F92DF0612EC08D3242
S11351E061F0803369F4292D21602DC0392D32609E
S11351F0932E892D8460982E2AC0E92DE86015C06D
S113520097FC2DC020ED280F2A3088F496FE06C0A6
S11352103AE0139F200D1124122F19C08AE0589EE2
S1135220200D1124522EE92DE0629E2E10C08E32E4
S113523031F496FCE5C2F92DF0649F2E08C08C363B
S113524021F4292D2068922E02C0883641F4F10100
S113525093FD859193FF81911F018111B3CF9BEB46
S1135260980F933020F4992D9061805E07C09BE9DC
S1135270980F933008F066C1992D9F7E96FF16E033
S11352809F73992E853619F49064992E08C086363A
S113529021F4392F3068932E02C01111115097FE5A
S11352A007C01C3350F444244394410E27E00BC040
S11352B0183038F027E017E005C027E09CE3492EBA
S11352C002C0212F412C560184E0A80EB11CF60126
S11352D06081718182819381042DA3010E94B22C8B
S11352E06C01F981FC87F0FF02C0F3FF06C091FC5A
S11352F006C092FE06C000E205C00DE203C00BE248
S113530001C000E08C858C7019F001115AC29BC257
S113531097FE10C04C0CFC85F4FF04C08A818133D5
S113532009F44A94141474F528E0241578F588E0F7
S1135330482E2CC096FC2AC0812F90E08C159D0528
S11353409CF03CEFC3163FEFD30674F0892D8068C0
S1135350982E0AC0E2E0F0E0EC0FFD1FE10FF11D12
S11353608081803319F411501111F4CF97FE0EC0CF
S113537044244394410E812F90E0C816D9062CF49E
S11353801C1904C04424439401C010E097FE06C0D5
S11353901C141D0434F4C601019605C085E090E098
S11353A002C081E090E001110196112331F0212F18
S11353B030E02F5F3F4F820F931F252D30E082177F
S11353C0930714F4581A01C0512C892D897049F49B
S11353D0552039F0B70180E290E00E94A72D5A943D
S11353E0F7CF002329F0B701802F90E00E94A72D6A
S11353F093FC09C0552039F0B70180E390E00E9486
S1135400A72D5A94F7CF97FE4CC04601D7FE02C091
S1135410812C912CC60188199909F301E80FF91F11
S1135420ED87FE879601241931092F87388B012FC8
S113543010E01195019511093FEF8316930629F4A5
S1135440B7018EE290E00E94A72DC814D9044CF055
S11354508F8598898815990524F4ED85FE858181C9
S113546001C080E3F1E08F1A91082D853E852F5FFE
S11354703F4F2D873E87801691062CF0B70190E0B0
S11354800E94A72DD9CFC814D90441F49A81963328
S113549020F4953319F43C8534FF81E3B70190E09F
S11354A04EC08A81813319F09C859F7E9C87B70109
S11354B090E00E94A72D111105C094FC18C085E648
S11354C090E017C0B7018EE290E00E94A72D1E5F06
S11354D082E001E0080FF301E80FF11D8081B701BC
S11354E090E00E94A72D802F0113F3CFE6CF85E42F
S11354F090E0B7010E94A72DD7FC06C0C114D104C7
S113550041F4EC85E4FF05C0D194C194D1088DE247
S113551001C08BE2B70190E00E94A72D80E32AE04E
S1135520C216D1042CF08F5FFAE0CF1AD108F7CF5E
S1135530B70190E00E94A72DB701C601C0960E9452
S1135540A72D54C1833631F0833779F0833509F0C0
S113555056C020C0560132E0A30EB11CF601808172
S1135560898301E010E0630112C05601F2E0AF0E3E
S1135570B11CF601C080D18096FE03C0612F70E09B
S113558002C06FEF7FEFC6010E949C2D8C01F92DA4
S1135590FF7714C0560122E0A20EB11CF601C080B0
S11355A0D18096FE03C0612F70E002C06FEF7FEFE1
S11355B0C6010E948A2D8C01F92DF0689F2EF3FDFF
S11355C01AC0852D90E008171907A8F4B70180E2E6
S11355D090E00E94A72D5A94F4CFF60197FC859190
S11355E097FE81916F01B70190E00E94A72D5110A1
S11355F05A94015011090115110579F7F7C0843641
S113560011F0893661F5560197FE09C024E0A20E17
S1135610B11CF60160817181828193810AC0F2E03C
S1135620AF0EB11CF60160817181072E000C880B4E
S1135630990BF92DFF769F2E97FF09C090958095C1
S1135640709561957F4F8F4F9F4FF0689F2E2AE092
S113565030E0A3010E94F72DC82EC6183FC0092DC3
S1135660853721F40F7E2AE030E01DC0097F8F3694
S113567091F018F4883559F0C3C0803719F0883791
S113568011F0BEC0006104FF09C0046007C094FEAD
S113569008C0066006C028E030E005C020E130E024
S11356A002C020E132E0560107FF09C084E0A80EE1
S11356B0B11CF601608171818281938108C0F2E09E
S11356C0AF0EB11CF6016081718180E090E0A3010E
S11356D00E94F72DC82EC6180F77902E96FE0BC089
S11356E0092D0E7FC11650F494FE0AC092FC08C026
S11356F0092D0E7E05C0DC2C092D03C0DC2C01C055
S1135700D12E04FF0DC0FE01EC0DF11D808180330C
S113571011F4097E09C002FF06C0D394D39404C0D7
S1135720802F867809F0D39403FD11C000FF06C0D2
S11357301C2DD51480F4150D1D190DC0D51458F465
S1135740B70180E290E00E94A72DD394F7CFD5143F
S113575010F45D1801C0512C04FF10C0B70180E3A0
S113576090E00E94A72D02FF17C001FD03C088E747
S113577090E002C088E590E0B7010CC0802F8678E5
S113578059F001FF02C08BE201C080E207FD8DE207
S1135790B70190E00E94A72DC11638F4B70180E349
S11357A090E00E94A72D1150F7CFCA94F301EC0D9D
S11357B0F11D8081B70190E00E94A72DC110F5CFA3
S11357C015C0F4E0F51560F584E0581A93FE1FC087
S11357D0011127C02C8523FF2AC00CEC11E0392DC0
S11357E03071932EF8018491811124C0552009F45D
S11357F0E4CCB70180E290E00E94A72D5A94F6CF42
S1135800F7018681978126C08FEF9FEF23C0B701F0
S113581080E290E00E94A72D5A945110F8CFD8CF7F
S1135820512CB701802F90E00E94A72DD3CF00ED1B
S113583011E0D5CF91108052B70190E00E94A72DBE
S11358400F5F1F4FCFCF23E0251510F483E0BDCFAA
S1135850512CC0CF6096CDBFDEBFDF91CF911F9199
S11358600F91FF90EF90DF90CF90BF90AF909F90FB
S11358708F907F906F905F904F903F902F900895FE
S113588097FB072E16F4009407D077FD09D00E94E9
S11358909E2C07FC05D03EF4909581959F4F08956A
S11358A0709561957F4F0895A1E21A2EAA1BBB1B28
S11358B0FD010DC0AA1FBB1FEE1FFF1FA217B307D8
S11358C0E407F50720F0A21BB30BE40BF50B661FEE
S11358D0771F881F991F1A9469F7609570958095B2
S11358E090959B01AC01BD01CF010895052E97FB56
S11358F01EF400940E948D2C57FD07D00E94542C56
S113590007FC03D04EF40C948D2C509540953095A3
S113591021953F4F4F4F5F4F089590958095709517
S113592061957F4F8F4F9F4F0895EE0FFF1F002407
S1135930001C0BBE0790F691E02D0994AA1BBB1B1B
S113594051E107C0AA1FBB1FA617B70710F0A61B7B
S1135950B70B881F991F5A95A9F780959095BC019C
S1135960CD010895283008F027E03327DA01990F94
S1135970311D87FD916000966105710539F432602F
S11359802E5F3D9330E32A95E1F708959F3F30F071
S113599080387105610509F03C5F3C5F3D939130AF
S11359A008F08068911DDF93CF931F930F93FF92AC
S11359B0EF92192F987F9695E92F96959695E90F72
S11359C0FF27E25DFD4F99273327EE24FF24A7012B
S11359D0E70105900894079428F4360FE71EF81E93
S11359E0491F511D660F771F881F991F0694A1F741
S11359F00590079428F4E70EF81E491F561FC11D91
S1135A00770F881F991F661F0694A1F705900794C6
S1135A1028F4F80E491F561FC71FD11D880F991F60
S1135A20661F771F0694A1F70590079420F4490F89
S1135A30561FC71FD81F990F661F771F881F06940C
S1135A40A9F784911095177041F0D695C79557958D
S1135A504795F794E7941A95C1F7E4EDF1E068945B
S1135A601590159135916591959105907FE2739507
S1135A70E118F10A430B560BC90BD009C0F7E10C2E
S1135A80F11E431F561FC91FD01D7EF4703311F43D
S1135A908A95E6CFE894015030F0080F0AF4002705
S1135AA0021708F4202F2395022F7A3328F079E384
S1135AB07D932A95E9F710C07D932A9589F606947B
S1135AC097956795379517951794E118F10A430B45
S1135AD0560BC90BD00998F023957E9173957A33B0
S1135AE008F070E37C932013B8F77E9170617D9386
S1135AF030F0839571E37D9370E32A95E1F71124E7
S1135B00EF90FF900F911F91CF91DF91992787FD1F
S1135B1090950895FC010590615070400110D8F7EC
S1135B20809590958E0F9F1F0895DC0101C06D93A1
S1135B3041505040E0F70895FC01615070400190DD
S1135B400110D8F7809590958E0F9F1F08950F939D
S1135B501F93CF93DF93FB01238121FD03C08FEFBC
S1135B609FEF2CC022FF16C04681578124813581C6
S1135B704217530744F4A081B1819D012F5F3F4F29
S1135B80208331838C93268137812F5F3F4F268377
S1135B90378314C08B01EC01FB010084F185E02DF7
S1135BA00995892BE1F6D80116968D919C9117974A
S1135BB0019616968D939C931797CE01DF91CF9102
S1135BC01F910F910895CF93DF93CDB7DEB7AE0148
S1135BD04B5F5F4FFA0161917191AF0180919245E2
S1135BE0909193450E94A028DF91CF910895FA01E6
S1135BF0AA27283051F1203181F1E8946F936E7F08
S1135C006E5F7F4F8F4F9F4FAF4FB1E03ED0B4E0F8
S1135C103CD0670F781F891F9A1FA11D680F791F39
S1135C208A1F911DA11D6A0F711D811D911DA11D4A
S1135C3020D009F468943F912AE0269F112430195A
S1135C40305D3193DEF6CF010895462F4770405DF5
S1135C504193B3E00FD0C9F7F6CF462F4F70405DA4
S1135C604A3318F0495D31FD4052419302D0A9F7FF
S1135C70EACFB4E0A6959795879577956795BA95F9
S1135C80C9F700976105710508959B01AC010A2EBF
S1135C9006945795479537952795BA95C9F7620F96
S1135CA0731F841F951FA01D089511E0CBE6D1E05A
S1135CB004C0FE010E94952C2196CF36D107C9F766
S1075CC0F894FFCF82
S1135CC400000002000000000514000000005265FA
S1135CD4616420522564003A202030782530386CE1
