:100000000C94CD000C94F5000C94F5000C94F500C4
:100010000C94F5000C94F5000C94F5000C94F5008C
:100020000C94F5000C94F5000C94F5000C94F5007C
:100030000C94F5000C94F5000C94F5000C94F5006C
:100040000C94A80D0C94F5000C945A0B0C948C0B8A
:100050000C94F5000C94F5000C94F5000C94F5004C
:100060000C94F5000C94F5009002A002AD029E03E2
:100070009E030A039E039E039E039E039E039E030C
:100080009E039E039E039E039E03280339034A0397
:1000900031043A043F04440449044E0453045C040C
:1000A00065046E047704AC04AC04AC048004AC04B6
:1000B000AC04AC04AC048B049604A104080000005A
:1000C000BE922449123EABAAAA2ABECDCCCC4C3E4D
:1000D00000000080BEABAAAAAA3E00000000BF003C
:1000E0000000803F0000000000084178D3BB438738
:1000F000D1133D190E3CC3BD4282AD2B3E68EC824C
:1001000076BED98FE1A93E4C80EFFFBE01C4FF7FD0
:100110003F000000000007634236B79BD8A71A399A
:10012000685618AEBAAB558C1D3CB7CC5763BD6D45
:10013000EDFD753EF6177231BF000000803F0000F4
:100140000008000201000003040700000000000096
:100150000000010204081020408001020408102061
:10016000010204081020040404040404040402022C
:100170000202020203030303030300000000230042
:100180002600290000000000250028002B000000A8
:100190000000240027002A00BC0B11241FBECFEF53
:1001A000D8E0DEBFCDBF11E0A0E0B1E0E0E7FFE1C5
:1001B00002C005900D92AE36B107D9F723E0AEE646
:1001C000B1E001C01D92AC33B207E1F710E0CDEC15
:1001D000D0E004C02197FE010E94A90FCC3CD107BA
:1001E000C9F70E94EA0B0C94B60F0C9400009FB75D
:1001F000F89420913A0380913803213019F48DBB93
:100200009FBF08958FBF089520913A03222399F04C
:100210004FB7F89420913A03213059F42DB320932D
:1002200038033DB320913903209523232DBB4FBFC5
:1002300002C0409338038CBD9DBD08958EBD000063
:100240000DB407FEFDCF8EB50895CF92DF92EF92E9
:10025000FF92CF93DF93D82F843130F0873131F084
:10026000883131F0C5E005C0C82F03C0C3E001C02C
:10027000C4E080E590E00E94040160E08AE00E9412
:10028000F30E84E0D89FF0011124E253FE4FC080AA
:10029000D180E280F380FE2CED2CDC2CCC248C2F42
:1002A00090E0A0E0B0E023E0880F991FAA1FBB1FD9
:1002B0002A95D1F7C82AD92AEA2AFB2A8F2D0E942B
:1002C0001E018E2D0E941E018D2D0E941E018C2D5F
:1002D0000E941E0161E08AE00E94F30E80913A03C1
:1002E00081110E94F70061E070E080E090E0DF9112
:1002F000CF91FF90EF90DF90CF900C94170E1F934B
:10030000CF93DF9300D000D0CDB7DEB7182F19827E
:100310001A821B821C8280E590E00E94040160E04A
:100320008AE00E94F30E80E00E941E0180E00E949D
:100330001E01812F0E941E0180E00E941E0161E0CB
:100340008AE00E94F30E60E08AE00E94F30E1EBC79
:10035000FE0131969E012C5F3F4FE217F30741F0FB
:1003600091810DB407FEFDCF8EB59EBD8193F5CF73
:100370000DB407FEFDCF8EB58C8369817A818B81A8
:100380009C810E94AF0F24E0129FF0011124E25DD6
:10039000FD4FDC01CB0127E0B695A7959795879592
:1003A0002A95D1F7BE7F80839183A283B383809106
:1003B0003A0381110E94F70061E08AE00E94F30E87
:1003C00061E070E080E090E00F900F900F900F9050
:1003D000DF91CF911F910C94170E2F923F924F9265
:1003E0005F926F927F928F929F92AF92BF92CF92C5
:1003F000DF92EF92FF920F931F93CF93DF93CDB7CE
:10040000DEB762970FB6F894DEBF0FBECDBFC090C7
:100410008E02D0908F02E0909002F0909102A7019E
:10042000960160E070E284E696E40E947E060E94F7
:10043000000828E132E741E35FE30E947E060E9464
:1004400026074B015C010E94F70617E0161BA50169
:10045000940160E070E080E090E40E94B5089B01A8
:10046000AC01C701B6010E94480820E030E244E632
:1004700056E40E947E0620E030E244EE55E40E94FD
:1004800048084B015C0120E030E04AE755E40E9457
:10049000790687FD05C020E030E048EC52E404C056
:1004A00020E030E048E452E4C501B4010E947E0639
:1004B0006B017C010E9426072B013C019B01AC01D2
:1004C000C701B6010E940C0620E030E040E85BE482
:1004D0000E9448080E94F7062EE2222E22E0322EC9
:1004E0002EEC31E03A8329831E861D86412F50E091
:1004F00058874F83C12CD12C7601C3949B01AC014A
:10050000552729873A874B875C87ED85FE8533978A
:10051000E431F10508F012C1EC5CFF4F0C94A90F17
:10052000C301B2010E94F006DC01CB01BB2780931E
:10053000DA019093DB01A093DC01B093DD0109C1E6
:1005400049855A856B857C854093DE015093DF0198
:100550006093E0017093E101FCC080E10E947F01A3
:1005600060916E0270916F028091700290917102A1
:100570006B837C838D839E838091E2019091E30164
:10058000A091E401B091E5012FE030E02830310581
:1005900014F1F90138974B815C816D817E8104C033
:1005A0007695679557954795EA95D2F74F87588B7B
:1005B000698B7A8B40FF0FC0B701A601022E04C0E1
:1005C000440F551F661F771F0A94D2F7842B952B73
:1005D000A62BB72B12C0B701A601022E04C0440FF0
:1005E000551F661F771F0A94D2F740955095609566
:1005F000709584239523A623B7232150310930F623
:1006000090628093E2019093E301A093E401B093A0
:10061000E5019FC020E030E04AE755E4C501B401A0
:100620000E9479064091EE015091EF016091F00136
:100630007091F10187FF02C0677F01C0686040933D
:10064000EE015093EF016093F0017093F10181C0CE
:100650008091E2019091E301A091E401B091E50164
:1006600080931E0290931F02A0932002B093210258
:1006700070C08091C2019091C301A091C401B0915A
:10068000C5018093220290932302A0932402B09389
:1006900025025FC0409126025091270260912802F6
:1006A0007091290283E090E09C01873091055CF411
:1006B00023503109A2E0B0E002C0B595A7952A9574
:1006C000E2F79D010AC027503109EF81F88502C089
:1006D000F595E7952A95E2F79F0120FF0FC0970156
:1006E0008601082E04C0000F111F221F331F0A9419
:1006F000D2F7402B512B622B732B12C0970186012E
:10070000082E04C0000F111F221F331F0A94D2F7B6
:100710000095109520953095402351236223732333
:1007200001968031910509F0BFCF40932602509386
:10073000270260932802709329020BC0F101808187
:100740009181A281B381E981FA8180839183A2831F
:10075000B3832D853E852F5F3F4F3E872D8734E045
:10076000230E311C49815A814C5F5F4F5A83498364
:100770006D857E856731710509F0C7CE62960FB62B
:10078000F894DEBF0FBECDBFDF91CF911F910F91C7
:10079000FF90EF90DF90CF90BF90AF909F908F90A1
:1007A0007F906F905F904F903F902F9008958BE0D7
:1007B0000E94220F1816190614F481E0089582E1B0
:1007C0000E947F0161E070E080E090E00E94170EDF
:1007D0008091760281FF02C082FFEFCF80E0089512
:1007E0002F923F924F925F926F927F928F929F9241
:1007F000AF92BF92CF92DF92EF92FF920F931F932F
:10080000CF93DF93CDB7DEB7C056D1090FB6F894BA
:10081000DEBF0FBECDBFDE0111968EEC282E81E02B
:10082000382E80E090E00AE41FE220E030E043EA66
:10083000C42E40E7D42E4DEFE42EF12C51E3852E4B
:10084000912CA12CB12C412C512C32014394FC0150
:100850003197E631F10508F07FC0E85BFF4F0C945B
:10086000A90F42E050E060E070E04D835E836F834B
:10087000788777C049865A866B867C8672C08D865B
:100880009E86AF86B88A6DC0C98ADA8AEB8AFC8AEE
:1008900068C01D8A1E8A1F8A188E63C0098F1A8F2E
:1008A0002B8F3C8F5EC04DE451E260E070E04D8FD5
:1008B0005E8F6F8F78A355C04FEF5EEB69EC70E0F1
:1008C00049A35AA36BA37CA34CC04FEF5FE360E046
:1008D00070E04DA35EA36FA378A743C047E450E246
:1008E00060E070E049A75AA76BA77CA73AC041E631
:1008F00050E86FE070E04DA75EA76FA778AB31C0FE
:1009000041E850E060E070E021964CAF5DAF6EAF23
:100910007FAF219726C04D895E896F89788D659656
:100920004CAF5DAF6EAF7FAF65971BC048E05EE830
:1009300060E070E069964CAF5DAF6EAF7FAF6997D6
:1009400010C040E953E060E070E06D964CAF5DAFE1
:100950006EAF7FAF6D9705C01D921D921D921C92C8
:1009600013974D915D916D917D91F101419351935B
:10097000619371931F0101968931910509F067CF49
:10098000C05ADF4F0FB6F894DEBF0FBECDBFDF9168
:10099000CF911F910F91FF90EF90DF90CF90BF907C
:1009A000AF909F908F907F906F905F904F903F900F
:1009B0002F90089526E040E052EC61E070E082E97B
:1009C00092E00E94F50A48EE53E060E070E082E9B0
:1009D00092E00E94A20D62E08CE00E94B70E61E0FE
:1009E0008AE00E94B70E0E94F00361E08AE00E9454
:1009F000F30E0E944B0F61E070E080E090E00C94F9
:100A0000170ECF93DF93EC01C431D1059CF4C530B0
:100A1000D10559F486E10E94250185E10E94250156
:100A200084E10E94250185E001C08C2F0E942501F0
:100A30002196EACF83E00E94250184E0DF91CF91E7
:100A40000C94250188E00E94250186E10E94250181
:100A500085E10E94250184E10E94250185E00E9434
:100A6000250183E00E94250184E00C9425011F9359
:100A7000CF93DF9380E090E0A1E6B5E480938E020F
:100A800090938F02A0939002B093910280E090E047
:100A90000E940105C0E0D0E011E00E94D703882346
:100AA00009F43FC060E071E082E992E00E94380CF6
:100AB00040918E0250918F0260919002709191024C
:100AC00022E030E082E992E00E948E0D6DE071E05C
:100AD00082E992E00E94450C112391F02EEF3FE055
:100AE00041E655E460918E0270918F0280919002F0
:100AF000909191020E94F30718160CF47DC05EC01D
:100B000022E030EF40E655E460918E0270918F0252
:100B100080919002909191020E94790687FD4EC0CB
:100B20006BC0219662E171E082E992E00E94450C7F
:100B30006CE371E082E992E00E94450C6DE271E0A5
:100B400082E992E00E94380C40918E0250918F020F
:100B5000609190027091910222E030E082E992E08F
:100B60000E94900D6DE071E082E992E00E94450CD8
:100B70006CE371E082E992E00E94450C62E171E071
:100B800082E992E00E94450C0E94ED0180E090E035
:100B90000E94010561E070E080E090E00E94170E85
:100BA00061E070E080E090E00E94170EC436D1054D
:100BB00009F073CFDF91CF911F91089520E030E0CD
:100BC00040E05AE360918E0270918F028091900212
:100BD000909191020E940D0611E060938E02709335
:100BE0008F0280939002909391020E94ED010E94E7
:100BF0002205C0E0D0E0D4CF20E030E040E05AE36E
:100C000060918E0270918F0280919002909191027A
:100C10000E940C0610E0E1CF5058BB27AA270E9483
:100C200024060C94A1070E94930738F00E949A07AB
:100C300020F039F49F3F19F426F40C9490070EF439
:100C4000E095E7FB0C946107E92F0E94B20758F387
:100C5000BA17620773078407950720F079F4A6F5A1
:100C60000C94EC070EF4E0950B2EBA2FA02D0B017F
:100C7000B90190010C01CA01A0011124FF27591BE1
:100C800099F0593F50F4503E68F11A16F040A22FE7
:100C9000232F342F4427585FF3CF46953795279558
:100CA000A795F0405395C9F77EF41F16BA0B620B57
:100CB000730B840BBAF09150A1F0FF0FBB1F661F9E
:100CC000771F881FC2F70EC0BA0F621F731F841FE1
:100CD00048F4879577956795B795F7959E3F08F007
:100CE000B0CF9395880F08F09927EE0F97958795C9
:100CF00008950E943D0708F481E008950E9492063D
:100D00000C94A1070E949A0758F00E94930740F0A4
:100D100029F45F3F29F00C94610751110C94ED0701
:100D20000C9490070E94B20768F39923B1F35523FE
:100D300091F3951B550BBB27AA27621773078407EE
:100D400038F09F5F5F4F220F331F441FAA1FA9F384
:100D500035D00E2E3AF0E0E832D091505040E69572
:100D6000001CCAF72BD0FE2F29D0660F771F881FD3
:100D7000BB1F261737074807AB07B0E809F0BB0BC6
:100D8000802DBF01FF2793585F4F3AF09E3F5105DA
:100D900078F00C9461070C94ED075F3FE4F3983E04
:100DA000D4F3869577956795B795F7959F5FC9F7C3
:100DB000880F911D9695879597F90895E1E0660F44
:100DC000771F881FBB1F621773078407BA0720F0BD
:100DD000621B730B840BBA0BEE1F88F7E095089526
:100DE0000E94F7066894B1110C94ED0708950E94D3
:100DF000BA0788F09F5798F0B92F9927B751B0F0EC
:100E0000E1F0660F771F881F991F1AF0BA95C9F78E
:100E100014C0B13091F00E94EC07B1E008950C9439
:100E2000EC07672F782F8827B85F39F0B93FCCF3EC
:100E3000869577956795B395D9F73EF4909580950B
:100E4000709561957F4F8F4F9F4F08950E94D407F3
:100E500090F09F3748F4911116F00C94ED0760E084
:100E600070E080E89FEB089526F41B16611D711D4C
:100E7000811D0C9467070C948207990F0008550F89
:100E8000AA0BE0E8FEEF16161706E807F907C0F010
:100E900012161306E407F50798F0621B730B840B18
:100EA000950B39F40A2661F0232B242B252B21F4F2
:100EB00008950A2609F4A140A6958FEF811D811D92
:100EC000089597F99F6780E870E060E008958823AF
:100ED00071F4772321F09850872B762F07C0662373
:100EE00011F499270DC09051862B70E060E02AF034
:100EF0009A95660F771F881FDAF7880F9695879562
:100F000097F908959F3F31F0915020F48795779598
:100F10006795B795880F911D9695879597F90895D0
:100F20009FEF80EC089500240A9416161706180601
:100F30000906089500240A941216130614060506DD
:100F40000895092E0394000C11F4882352F0BB0F6E
:100F500040F4BF2B11F460FF04C06F5F7F4F8F4FD1
:100F60009F4F089557FD9058440F551F59F05F3F0C
:100F700071F04795880F97FB991F61F09F3F79F0BB
:100F800087950895121613061406551FF2CF46953D
:100F9000F1DF08C0161617061806991FF1CF8695BF
:100FA00071056105089408950E94BA07A0F0BEE794
:100FB000B91788F4BB279F3860F41616B11D672F48
:100FC000782F8827985FF7CF869577956795B11D1D
:100FD00093959639C8F30895E894BB276627772739
:100FE000CB0197F908950E943D0708F48FEF08950B
:100FF00016F00C9482070C94900768940C94610787
:101000000E94BA07A8F39923C1F3AEF3DF93CF93FD
:101010001F930F93FF92C92FDD2788232AF0219772
:10102000660F771F881FDAF720E030E040E85FEBBB
:101030009FE3883920F0803E38F021968F770E9418
:101040000D06ECEBF0E004C00E940D06E9EEF0E0C6
:101050000E947C098B01BE01EC01FB2E6F577109C8
:101060007595771F880B990B0E94410928E132E79B
:1010700041E35FE30E945B08AF2D9801AE01FF9052
:101080000F911F91CF91DF910E9424060C94A1072C
:101090000E945B080C94A1070E94930738F00E94FD
:1010A0009A0720F0952311F00C9461070C94900797
:1010B00011240C94ED070E94B20770F3959FC1F3C1
:1010C000950F50E0551F629FF001729FBB27F00DF6
:1010D000B11D639FAA27F00DB11DAA1F649F66274B
:1010E000B00DA11D661F829F2227B00DA11D621F9A
:1010F000739FB00DA11D621F839FA00D611D221F54
:10110000749F3327A00D611D231F849F600D211D37
:10111000822F762F6A2F11249F5750409AF0F1F0BA
:1011200088234AF0EE0FFF1FBB1F661F771F881F23
:1011300091505040A9F79E3F510580F00C946107F3
:101140000C94ED075F3FE4F3983ED4F386957795D2
:101150006795B795F795E7959F5FC1F7FE2B880FC9
:10116000911D9695879597F90895FA01EE0FFF1F47
:10117000309621053105A1F16115710561F48038C2
:10118000BFE39B0749F168949038810561F080388E
:10119000BFEF9B0741F099234AF5FF3FE105310579
:1011A000210519F1E8940894E795D901AA2329F4B7
:1011B000AB2FBE2FF85FD0F310C0FF5F70F4A69581
:1011C000E0F7F73950F019F0FF3A38F49F779F9322
:1011D0000DD00F9007FC9058089546F00C9490079E
:1011E00060E070E080E89FE308954FE79F775F93AA
:1011F0004F933F932F930E9400082F913F914F915F
:101200005F910E9448080C940D0929F416F00C9483
:1012100061070C94EC070C9490070E94BA07A8F39E
:101220009638A0F707F80F92E8942BE33AEA48EBD8
:101230005FE70E945E080F920F920F924DB75EB764
:101240000F920E94E509E6E1F1E00E947C094F91CE
:101250005F91EF91FF91E595EE1FFF1F49F0FE575B
:10126000E0684427EE0F441FFA95E1F74195550BCE
:101270000E94AF090F9007FE0C94A3090895E8940B
:1012800009C097FB3EF490958095709561957F4FCE
:101290008F4F9F4F9923A9F0F92F96E9BB2793957C
:1012A000F695879577956795B795F111F8CFFAF48C
:1012B000BB0F11F460FF1BC06F5F7F4F8F4F9F4FBD
:1012C00016C0882311F096E911C0772321F09EE81B
:1012D000872F762F05C0662371F096E8862F70E081
:1012E00060E02AF09A95660F771F881FDAF7880F5B
:1012F0009695879597F90895DF93CF931F930F9352
:10130000FF92EF92DF927B018C01689406C0DA2E87
:10131000EF010E945B08FE01E894A59125913591AB
:1013200045915591A6F3EF010E942406FE01970115
:10133000A801DA9469F7DF90EF90FF900F911F9169
:10134000CF91DF9108959B01AC0160E070E080E8EF
:101350009FE30C947E060C9461070C9482070E9414
:10136000BA07D8F39923C9F3940F511DA3F39150F1
:10137000504094F059F0882332F0660F771F881F91
:1013800091505040C1F79E3F51052CF7880F911D99
:101390009695879597F908955F3FACF0983E9CF03D
:1013A000BB27869577956795B79508F4B1609395B7
:1013B000C1F7BB0F58F711F460FFE8CF6F5F7F4FA5
:1013C0008F4F9F4FE3CF0C94ED07FA01DC01AA0F7A
:1013D000BB1F9B01AC01BF5728F4222733274427AA
:1013E000507820C0B75190F4AB2F00244695379524
:1013F0002795011CA395D2F3002071F0220F331F13
:10140000441FB395DAF30ED00C940C0661307105CD
:10141000A0E88A07B94630F49B01AC01662777271C
:1014200088279078309621F020833183428353833C
:101430000895FC01918D228D892F90E0805C9F4F53
:10144000821B91098F7399270895FC01918D828DDC
:10145000981731F0828DE80FF11D858D90E0089589
:101460008FEF9FEF0895FC01918D828D981761F0A9
:10147000828DDF01A80FB11D5D968C91928D9F5FCB
:101480009F73928F90E008958FEF9FEF0895FC0176
:10149000538D448D252F30E0842F90E0821B930BD9
:1014A000541710F0CF9608950197089582EB9BE0B2
:1014B000892B49F080E090E0892B29F00E94B20B43
:1014C00081110C9400000895FC01848DDF01A80FA8
:1014D000B11DA35ABF4F2C91848D90E001968F735C
:1014E0009927848FA689B7892C93A089B1898C917B
:1014F000837080648C93938D848D981306C00288CA
:10150000F389E02D80818F7D80830895EF92FF9293
:101510000F931F93CF93DF93EC0181E0888F9B8D16
:101520008C8D981305C0E889F989808185FD26C0D6
:10153000F62E0B8D10E00F5F1F4F0F731127E02E5B
:101540008C8DE8120CC00FB607FCFACFE889F98938
:10155000808185FFF5CFCE010E94640AF1CF8B8D8B
:10156000FE01E80FF11DE35AFF4FF0829FB7F89498
:101570000B8FEA89FB89808180620AC09FB7F8944B
:10158000EE89FF896083E889F989808183708064AE
:1015900080839FBF81E090E0DF91CF911F910F91F9
:1015A000FF90EF900895CF93DF93EC01888D88230F
:1015B000C9F0EA89FB89808185FD05C0A889B989C0
:1015C0008C9186FD0FC00FB607FCF5CF808185FF9B
:1015D000F2CFA889B9898C9185FFEDCFCE010E9409
:1015E000640AE7CFDF91CF910895CF92DF92EF9217
:1015F000FF921F93CF93DF93EC016A017B01122FBF
:10160000E889F98982E080834115514E61057105B1
:10161000B1F060E079E08DE390E0A70196010E94CF
:10162000870FDA01C9010197A109B109B695A795FC
:10163000979587959C01211580E13807A8F0E889E6
:10164000F989108260E874E88EE190E0A7019601C4
:101650000E94870FDA01C9010197A109B109B69566
:10166000A795979587959C01EC85FD853083EE8540
:10167000FF852083188EEC89FD891083EA89FB8918
:10168000808180618083EA89FB8980818860808392
:10169000EA89FB89808180688083EA89FB8980816F
:1016A0008F7D8083DF91CF911F91FF90EF90DF902E
:1016B000CF9008951F920F920FB60F9211242F937F
:1016C0008F939F93EF93FF93E091A202F091A30277
:1016D0008081E091A802F091A90282FD12C0908160
:1016E0008091AB028F5F8F732091AC02821751F013
:1016F000E091AB02F0E0EE56FD4F958F8093AB0288
:1017000001C08081FF91EF919F918F912F910F9058
:101710000FBE0F901F9018951F920F920FB60F9249
:1017200011242F933F934F935F936F937F938F93E6
:101730009F93AF93BF93EF93FF9382E992E00E9450
:10174000640AFF91EF91BF91AF919F918F917F912B
:101750006F915F914F913F912F910F900FBE0F901E
:101760001F90189582E992E00E94190A21E0892BC6
:1017700009F420E0822F0895E2E9F2E01382128258
:1017800088EE93E0A0E0B0E084839583A683B783DE
:1017900081E591E09183808385EC90E09587848753
:1017A00084EC90E09787868780EC90E0918B808B2B
:1017B00081EC90E0938B828B82EC90E0958B848B14
:1017C00086EC90E0978B868B118E128E138E148E82
:1017D000089508950E94530E0E94E90B0E94DA04B6
:1017E000C6E5DAE00E9437052097E1F30E94560A29
:1017F000F9CFCF92DF92EF92FF920F931F93CF9387
:10180000DF936C017A018B01C0E0D0E0CE15DF05DB
:1018100081F0D8016D918D01D601ED91FC9101907F
:10182000F081E02DC6010995892B11F02196EECFAC
:101830007E01C701DF91CF911F910F91FF90EF9033
:10184000DF90CF9008956115710579F0FB0101904B
:101850000020E9F73197AF01461B570BDC01ED91F2
:10186000FC910280F381E02D099480E090E00895DE
:101870000C94230CDC01ED91FC910190F081E02DA2
:1018800009946FE571E00C94230C0F931F93CF9391
:10189000DF93EC010E94230C8C01CE010E94410CCD
:1018A000800F911FDF91CF911F910F9108958F921B
:1018B0009F92AF92BF92EF92FF920F931F93CF939D
:1018C000DF93CDB7DEB7A1970FB6F894DEBF0FBE9A
:1018D000CDBF7C01FA01CB0119A2223008F42AE025
:1018E0008E010F5D1F4F822E912CA12CB12CBF01B8
:1018F000A50194010E94870FF901CA010150110945
:101900006A3010F4605D01C0695CD8016C93232BD0
:10191000242B252B61F7B801C7010E94230CA19647
:101920000FB6F894DEBF0FBECDBFDF91CF911F91F0
:101930000F91FF90EF90BF90AF909F908F90089580
:101940002115310541F4DC01ED91FC910190F0810C
:10195000E02D642F09940C94570C9A01AB0160E0C0
:1019600070E00C94A00C7F928F929F92AF92BF92E6
:10197000CF92DF92EF92FF920F931F93CF93DF935B
:101980008C016A017B01722E9A01AB01C701B6017D
:101990000E94820F882319F062E671E027C0460199
:1019A0005701E894B7F82FEF3FEF4FE75FE7C50126
:1019B000B4010E94820F81110DC02FEF3FEF4FE75E
:1019C0005FE7C501B4010E94790618161CF466E6AB
:1019D00071E00CC02FEF3FEF4FE75FE4C701B601A6
:1019E0000E94F307181694F46AE671E0C801DF91CB
:1019F000CF911F910F91FF90EF90DF90CF90BF900C
:101A0000AF909F908F907F900C94230C2FEF3FEF1F
:101A10004FE75FECC701B6010E94790687FDE4CF6E
:101A200020E030E0A901C701B6010E94790687FFD6
:101A30000AC06DE2C8010E943A0CEC01F7FAF0947A
:101A4000F7F8F09402C0C0E0D0E0B12C60E070E0A4
:101A500080E09FE37B1441F020E030E040E251E47D
:101A60000E947E06B394F6CFA70196010E940D0650
:101A70006B017C010E94F7064B015C012AE0AB017F
:101A8000BC01C8010E94570CC80FD91F7720B9F1BB
:101A9000C501B4010E943F099B01AC01C701B60119
:101AA0000E940C066B017C016EE2C8010E943A0C98
:101AB000C80FD91F20E030E040E251E4C701B60171
:101AC0000E9448084B015C010E94F7066B017C01F3
:101AD0004AE050E0C8010E94AD0CC80FD91FB60102
:101AE00080E090E00E943F099B01AC01C501B40178
:101AF0000E940C066B017C017A947110DBCFCE0141
:101B0000DF91CF911F910F91FF90EF90DF90CF90D9
:101B1000BF90AF909F908F907F9008950C94B30CDE
:101B20000F931F93CF93DF93EC010E94B30C8C01B2
:101B3000CE010E94410C800F911FDF91CF911F9128
:101B40000F910895FC01448355836683778308953C
:101B50001F920F920FB60F9211242F933F938F93E2
:101B60009F93AF93BF938091300390913103A091E5
:101B70003203B091330330912F0323E0230F2D372D
:101B800020F40196A11DB11D05C026E8230F029681
:101B9000A11DB11D20932F03809330039093310337
:101BA000A0933203B09333038091340390913503B3
:101BB000A0913603B09137030196A11DB11D80930A
:101BC000340390933503A0933603B0933703BF914A
:101BD000AF919F918F913F912F910F900FBE0F90DA
:101BE0001F9018953FB7F894809134039091350376
:101BF000A0913603B091370326B5A89B05C02F3FAF
:101C000019F00196A11DB11D3FBFBA2FA92F982F22
:101C10008827820F911DA11DB11DBC01CD0142E09D
:101C2000660F771F881F991F4A95D1F708958F92E5
:101C30009F92AF92BF92CF92DF92EF92FF926B0191
:101C40007C010E94F20D4B015C01C114D104E1043E
:101C5000F10401F10E94810F0E94F20DDC01CB0121
:101C600088199909AA09BB09883E9340A105B105C5
:101C700060F321E0C21AD108E108F10888EE880E6D
:101C800083E0981EA11CB11CC114D104E104F1042D
:101C900019F7DBCFFF90EF90DF90CF90BF90AF9020
:101CA0009F908F900895789484B5826084BD84B5A8
:101CB000816084BD85B5826085BD85B5816085BD47
:101CC000EEE6F0E0808181608083E1E8F0E0108260
:101CD000808182608083808181608083E0E8F0E0A1
:101CE000808181608083E1EBF0E08081846080838B
:101CF000E0EBF0E0808181608083EAE7F0E08081C2
:101D00008460808380818260808380818160808321
:101D10008081806880831092C1000895833081F0B3
:101D200028F4813099F08230A1F008958730A9F02D
:101D30008830B9F08430D1F4809180008F7D03C069
:101D4000809180008F7780938000089584B58F778D
:101D500002C084B58F7D84BD08958091B0008F77D7
:101D600003C08091B0008F7D8093B0000895CF9321
:101D7000DF9390E0FC01EE5AFE4F2491FC01EA59FA
:101D8000FE4F8491882361F190E0880F991FFC0138
:101D9000E257FE4FC591D491FC01EC57FE4FA5913F
:101DA000B491611109C09FB7F8948881209582236E
:101DB0008883EC912E230BC0623061F49FB7F894B6
:101DC0008881322F309583238883EC912E2B2C939E
:101DD0009FBF06C08FB7F894E8812E2B28838FBF52
:101DE000DF91CF9108951F93CF93DF93282F30E099
:101DF000F901E25CFE4F8491F901EE5AFE4FD49155
:101E0000F901EA59FE4FC491CC23C1F0162F81117C
:101E10000E948E0EEC2FF0E0EE0FFF1FEC57FE4FEE
:101E2000A591B4919FB7F894111104C08C91D095ED
:101E3000D82302C0EC91DE2BDC939FBFDF91CF91C2
:101E40001F910895CF93DF93282F30E0F901E25CD2
:101E5000FE4F8491F901EE5AFE4FD491F901EA59EF
:101E6000FE4FC491CC2391F081110E948E0EEC2F75
:101E7000F0E0EE0FFF1FE658FE4FA591B491EC91F4
:101E8000ED2381E090E021F480E002C080E090E06A
:101E9000DF91CF910895CF93CFB7F89480913B0312
:101EA000811127C0E0E7F1E08491ECE5F1E0949145
:101EB000E82FF0E0EE0FFF1FE257FE4FA591B4911F
:101EC000EC91E92321F461E08AE00E94F30E61E0E5
:101ED0008AE00E94B70E8CB580618CBD8CB58064A1
:101EE0008CBD61E08DE00E94B70E61E08BE00E9446
:101EF000B70E80913B038F5F80933B03CFBFCF91A1
:101F0000089508950E943D07880B990B0895A1E25A
:101F10001A2EAA1BBB1BFD010DC0AA1FBB1FEE1F63
:101F2000FF1FA217B307E407F50720F0A21BB30BAE
:101F3000E40BF50B661F771F881F991F1A9469F72A
:101F400060957095809590959B01AC01BD01CF0186
:101F50000895EE0FFF1F0590F491E02D0994692775
:101F6000962769277827872778270895F894FFCF41
:101F70004C6F636B6564206174203A2000204D48EB
:101F80007A002A2A2A2A2A2A2A2A2A2A2A2A2A2A8B
:101F90002A2A2A2A2A2A2A2A2A2A2A2A004E6F7418
:101FA000204C6F636B65642061743A202000496E99
:101FB00068616C742052003A2020307800000000E4
:101FC00000860AF90B470AD30A190A330A250A0DB3
:0E1FD0000A006E616E00696E66006F76660034
:00000001FF
