S00F00004C4D585F6C69622E737265638E
S1130000082300201901000015010000150100005B
S113001000000000000000000000000000000000DC
S113002000000000000000000000000015010000B6
S11300300000000000000000150100001501000090
S11300401501000015010000150100001501000054
S11300501501000015010000150100001501000044
S11300601501000015010000150100001501000034
S11300701501000015010000150100001501000024
S11300801501000015010000150100001501000014
S11300901501000015010000150100001501000004
S11300A015010000150100001501000015010000F4
S11300B00000000010B5064C2378002B07D1054B37
S11300C0002B02D0044800E000BF0123237010BDC0
S11300D06800002000000000A42B0000084B10B5AD
S11300E0002B03D00749084800E000BF0748036815
S11300F0002B00D110BD064B002BFBD09847F9E72D
S1130100000000006C000020A42B0000A42B0000C1
S113011000000000FEE70000F8B52A4A2A4B9A4284
S113012011D01A00294B9A420DD2294A03339B1A43
S11301309B0801339B000022234822498C58845099
S113014004329A42FAD1234A234B9A420AD2D34325
S113015021495B1803218B4304339B18002102C2FD
S11301609342FCD11D4AFF211D4B8B439360FD3903
S113017090235B001B4AD1501B4AD3780325AB4321
S113018002242343D370D3780C27BB43082633437C
S1130190D370164B987B30229043202210439873DF
S11301A0997BB943314399739A7BAA4322439A7347
S11301B00F4A536880210B4353600E4B98470E4BF4
S11301C09847FEE7A42B00000000002068000020F0
S11301D004000020680000200403002000ED00E07B
S11301E00000000000700041005000410048004140
S11301F000400041ED270000E90B000070470000BB
S113020010B504005021024B9847200010BDC04691
S1130210271500000C4B083303600C4BC3600C4BD8
S1130220683383600123252283540021023A8154D8
S1130230084A8264084A4260084A82634D22835411
S1130240293A83547047C046F028000084000020F7
S1130250040100200000FA3D00007A45F4017A45CB
S1130260002907D1C2684423D35A1B044831525A87
S11302709B188362806A7047002907D1C26854239F
S1130280D35A1B045631525A9B18C362C06A704732
S1130290002907D1C2684C23D35A1B044E31525A49
S11302A09B180363006B7047F0B583B0040000290A
S11302B002D0E06B03B0F0BD114B984701900021D0
S11302C02000104B98470600002120000E4B984751
S11302D007000E4D3000A847061C3800A847011C33
S11302E0301C0B4B9847061C0198A847011C301C76
S11302F0084B98470849094B9847E063D9E7C0463B
S11303006102000079020000910200000927000048
S1130310D11C0000AD19000000004843B1200000CA
S113032070B506000D001400100000290DD008005F
S1130330002A0AD0914209D311002800084B98479B
S11303400A0021003000FFF7EBFF70BD1000044BE2
S113035098470A0029003000FFF7E2FFF5E7C0469E
S113036029170000F8B5DE46574680B507001D4D35
S1130370103500241C4B9B461C4B9A461C4E0EE029
S113038029681C48184B9847184B9847B96B184B69
S1130390984700281CD0013404350E2C0CD0022CB4
S11303A0EEDD29681448D847D047B96BB047002818
S11303B0F1D1013C2323FC542323F85C8200094B34
S11303C09B181A692523FA540CBC92469B46F8BD27
S11303D0002C03DD013C2323FC54EDE700222323FE
S11303E0FA54E9E7F02800003117000069260000FC
S11303F055190000FC3A0000EC2C0000F0B583B065
S11304000400081C9F21C9050F4B98470F4B9847C0
S11304100190012676420E4FB847010032002000B9
S11304200C4B9847050060630B4B9847011C0198DF
S11304300A4B9847B847E06229003000084B9847B8
S1130440206303B0F0BDC046B1200000D515000004
S11304507D1900002103000009270000D11C0000C1
S11304601D16000081750B0A4375090C0175704750
S113047070B50400002100690A4DA8470A4920000C
S11304800A4B98472100143103222069084B9847EE
S1130490E061C317181AC00FA07601212069A8478C
S11304A0A07E70BDD90C0000192100006504000075
S11304B0990C0000F0B583B0040000210069164DCA
S11304C0A84716492000164FB84714239C46A44455
S11304D063460322019361462069124EB047E061EE
S11304E001212069A84764200F4B98470021206907
S11304F0A8470E492000B847032201992069B04754
S1130500E061C317181AC00FA07601212069A8471B
S1130510A07E03B0F0BDC046D90C00001E2100002F
S113052065040000990C0000590E00001C21000015
S1130530827512124275017570470000F8B5040007
S11305400E0015004F00C368DB5B934204D1C37EE9
S1130550002B01D0E069F8BD002120690B4B9847BE
S11305602A00310020000A4B98472100143103224D
S11305702069084B9847E061002801DDE368DD53FA
S113058001212069014B9847E4E7C046D90C0000DB
S113059031050000990C000070B504000D1C2423E3
S11305A0C35C002B02D005D0012B15D0E2684A238E
S11305B0D05A70BD1749281C174B9847002805D0FE
S11305C0164A25212000164B9847EFE7154A2521A6
S11305D02000134B9847E9E70E49281C0E4B984717
S11305E000280BD11049281C0B4B984700280BD12D
S11305F00C4A252120000A4B9847D7E70B4A2521AE
S11306002000074B9847D1E7044A25212000044BDA
S11306109847CBE700504346551900000482000078
S11306203D0500000481000000401C4604830000D6
S113063010B5040000290ED1C3681B880822934317
S11306400384228C00212000064B9847E061431E5E
S11306509841C0B210BDC3681B88082213430384A9
S1130660EFE7C0463D05000070B504000021054DCC
S1130670A8476420044B984701212000A847A0768E
S113068070BDC04631060000590E000070B505006B
S11306900A4A2D32FF3200231188A868C15202335E
S11306A0023AE62BF8D17224054E6300AA689A5ADE
S11306B0E1B22800B047013CF7D270BDF028000039
S11306C03D05000010B5040000290BD183681B8888
S11306D0042293430384228C00212000044B984776
S11306E0E06110BD83681B88042213430384F2E78E
S11306F03D050000F0B5CE4600B582B00400894641
S11307000021204B9847002323841F4E80277F42DB
S11307104B461F431D4D00212069B0472223E75457
S1130720032200210B3B9C46A4446346019360468C
S1130730A8470122210022312069154B9847E06126
S1130740022201992069134B9847E061E27D12026D
S1130750237E9B18238401212069B047228C531ED9
S11307609BB20D498B42D6D84B465B00A1685A52C6
S113077001212000034B9847208C02B004BC914611
S1130780F0BDC046C5060000D90C00004928000091
S1130790990C0000B90C0000FDFF000010B5040026
S11307A000290DD19623C268D35A5B05DB0E2322A0
S11307B083542323E25C9200054B9B18186910BDF7
S11307C04B21044B98474005C00E2323E054F0E727
S11307D0F0280000F506000070B582B005006846F8
S11307E0284B9847C023DB051C68274A126A1B69FB
S11307F053401C4054406846244B984740231C40B7
S113080023005A1E9341EB76002C0CD05C23EA683B
S1130810D35A9B0722D0002128001D4B98476860BB
S1130820E87E02B070BD0A201A4B984701A8154B08
S11308309847C023DB051C68134A126A1B6953409E
S11308401C40544001A8114B984740231C402300EE
S11308505A1E9341EB76002CE2D0D7E70021280002
S11308600D4B98472524285500212800084B98470C
S1130870061C285D094B9847011C301C084B9847FF
S11308806860CDE73D0E0000004400414B0E0000BF
S1130890A9020000790E00009D07000069260000EF
S11308A0D11C000070B504000E48503020610E4B7E
S11308B09847012120690D4B984720000C4B98471D
S11308C020000C4B984720000B4B98470A200B4DF7
S11308D0A84720000A4B98476420A8472000094BEA
S11308E0984770BD04020020690C0000D90C000078
S11308F071040000B50400008D060000790E0000AC
S113090069060000D907000070B50400856B0B4927
S1130910281C0B4B9847002805D0E563E16B2000A9
S1130920084B984770BD00212000074B9847074BA0
S11309309847291C064B9847E063EFE700F0EB4526
S113094055190000990500009D0700006926000064
S1130950B120000070B50400828D2B210C4DA847F6
S1130960E28D2A212000A847228E27212000A847B3
S1130970628E26212000A8472000064B9847228D2E
S113098024212000A847628D22212000A84770BDA1
S11309903D0500000909000070B504000D1C3E4926
S11309A0281C3E4B9847002838D13D49281C3B4B16
S11309B09847002834D0A5633A49281C374B9847F8
S11309C0002838D037496068344B9847002828D02D
S11309D001222523E2542523E05C334B9847291C4C
S11309E0324B98473249334B9847051C2064324BAD
S11309F09847324B9847A062314B9847011C281CFA
S1130A00304B9847011C606420002F4B984720000E
S1130A102E4B984720002E4B984701E01E4BA363B2
S1130A2070BD5C23E268D25A5B3B1A432E2120003E
S1130A30284B9847CCE71B496068274B9847002808
S1130A4019D09623E268D65A244A164026842000F8
S1130A50234B98478201324392B24B2120001D4B15
S1130A6098472523E35C022B0FDD1E4A1F2120003B
S1130A70184B9847AFE75C23E268D25A593B9A4334
S1130A802E212000134B9847DBE7FB2292001F2105
S1130A902000104B98479EE700F06B465519000064
S1130AA00000C84300F0EB4569260000B1200000B7
S1130AB000004843D11C0000391500007D190000D6
S1130AC009270000F1220000FD0300005509000081
S1130AD0690600003D0500002D1900003FF8FFFFE6
S1130AE065030000EC430000F8B5040000224C2329
S1130AF0C254274E4C25274F1CE0A16C6068264B3E
S1130B0098472649264B9847002827D001224D2391
S1130B10E254A16C6068234B9847011CA163200038
S1130B20214B9847002363550A201A4B9847635D6D
S1130B30FE2B2ADC2000B047002815D04D23E35CAF
S1130B40002BDAD0A16C6068164B98471749184BF4
S1130B5098470028DDD000224D23E254A16C606840
S1130B600D4B9847011CD9E7605D0130C0B2605558
S1130B708300C0184000643080B2B8476168200028
S1130B80094B98476420B847D1E70020F8BDC04618
S1130B90D9070000790E0000F12200000000C843CC
S1130BA02D190000AD190000990900000080894545
S1130BB05519000010B5064C503406492000064B68
S1130BC09847064A06492000064B984710BDC04680
S1130BD004020020EC020020590C00000000002058
S1130BE0650C00001915000070B50B4B98470B4DB0
S1130BF00B4C2800A047002804D1FA208000094BA0
S1130C009847F6E7054E084D064C3000A847FA20F1
S1130C108000A047F9E7C046F10C000070020020F4
S1130C20A5080000790E0000E90A000010B5054C83
S1130C302000054B9847054A05492000054B984775
S1130C4010BDC04670020020150200000000002004
S1130C50FD01000019150000C160014B18607047C8
S1130C60C00200207047000010B5040001001031DC
S1130C70C068064B9847E068054B9847054B04331A
S1130C806360A3600123237010BDC04649100000B7
S1130C90610F0000C002002010B504000123037698
S1130CA092B20069034B984703005A1E934123767E
S1130CB010BDC046990E000010B504000123437610
S1130CC092B20069034B984703005A1E934163761E
S1130CD010BDC046D10E0000002904D18022C023DB
S1130CE0DB055A6170478022C023DB059A61F9E76E
S1130CF010B5014B984710BD010E0000F0B5C64673
S1130D0000B5C022D205102353619360254B2649B8
S1130D109962C02109068C4699624420195C012716
S1130D20B94301263143C9B219543221585C0F2505
S1130D30A8430324A04644462043C0B2585420206C
S1130D4050619060194898626046986245208446D4
S1130D50185CB8433043C0B264461855585C363CFE
S1130D6020403024A44664462043C0B258540E3177
S1130D7051600F4A9A620F4A9A624622995C042093
S1130D8081439954995CB9433143C9B2995433218D
S1130D905A5CAA4340460243D2B25A5404BC904619
S1130DA0F0BDC04600440041100000402000004057
S1130DB040000240000002C0044A136A04210B43AD
S1130DC01362034A034B5A807047C0460004004034
S1130DD014400000000C004010B5044B984704492F
S1130DE00448054B9847054B984710BDB90D0000C2
S1130DF000080042EC020020090F0000FD0C000076
S1130E0010B50A4B9847C023DB0580229A619A608B
S1130E10074B084A9A62C02212069A6247215A5C1A
S1130E20012082435A54044B984710BDC51000005A
S1130E300044004180000040D90D0000EFF310830E
S1130E40036072B6BFF35F8F7047BFF35F8F0368B1
S1130E5083F310887047000010B5044B1C68044BE2
S1130E60984701002000034B984710BDE40200207E
S1130E7081100000BD10000010B5044B1C68044B29
S1130E80984701002000034B984710BDE40200205E
S1130E909D100000BD10000070B504000D00160088
S1130EA000280ED000290AD0012034220649074B1D
S1130EB098472368320029002000984770BD00201D
S1130EC0F3E70020F1E7C046202A00007910000073
S1130ED070B504000D00160000280ED000290AD0B9
S1130EE001203D220649074B9847636832002900D8
S1130EF02000984770BD0020F3E70020F1E7C046CA
S1130F00202A00007910000070B504000D000028AC
S1130F1017D0002913D0012040220B490B4B9847CE
S1130F206560201D29000A4B9847002806DB094B01
S1130F30A382094B2361094BE360002070BD0020AC
S1130F40EAE70020E8E7C046342A000079100000F0
S1130F50811100000080FFFF0D100000D10F000080
S1130F6010B50400431E9841C0B257220349044BF4
S1130F709847201D034B984710BDC046342A0000F3
S1130F80791000007D13000030B587B004000D0017
S1130F90002815D0002911D00120B32209490A4B99
S1130FA098472B6803936B680493AB68019305938C
S1130FB0201D03A9054B984707B030BD0020ECE77E
S1130FC00020EAE7342A000079100000B113000081
S1130FD070B584B004000E001500431E9841C0B2E1
S1130FE0A3220749074B984720000C38002302939B
S1130FF00196039501A9044B984704B070BDC046FF
S1131000342A000079100000890F000070B584B004
S113101004000E001500431E9841C0B28722074900
S1131020074B984720000C38029600230193039540
S113103001A9044B984704B070BDC046342A00008F
S113104079100000890F000070B504000D0000281D
S11310500CD0002908D00120BD220549054B984732
S11310600C342C60002070BD0020F5E70020F3E76D
S1131070342A000079100000002800D100BE704717
S113108010B50300C820800058432C30FF3096214F
S11310904900014B984710BD1D16000010B5030010
S11310A0C8208000584302300321034B9847830033
S11310B01B18580010BDC0461D1600000139FDD88C
S11310C07047000010B5064B5A685A60054B9847A4
S11310D0054B9847054B9847FF20054B984710BD93
S11310E00040004131110000C51400000915000042
S11310F0F5100000C3070AD50B4B802252009A60FA
S1131100832252025A60084B5B78DB09FBD1030649
S113111009D5054B0822FF329A60044A5A60024BF3
S11311205B78DB09FBD17047000C00400703090022
S1131130064B1A7AD2B21A725A7AD2B25A729A7A7E
S1131140D2B29A72DA7AD2B2DA72704700040040EC
S1131150024B9C466044800AC0B2704700F8FFBD51
S1131160C369DB0708D40368022213430360C3691D
S11311709B07FCD10020704704204042FBE700009D
S113118070B506000C000800714B98470023002B33
S113119000D184E00025002E00D18DE0002C00D188
S11311A088E001206B4A6C496C4B9847002D00D1B4
S11311B0CBE0E369DB0721D42A786B781B02134365
S11311C0AA7812041343EA7812061A431C231A401D
S11311D0E3699B07FCD123689B0709D52368022197
S11311E08B432360E3699B07FCD1E3699B07FCD431
S11311F0012313432360E3699B07FCD1E369DB0705
S1131200FCD434602B786A7812021A43AB781B043E
S11312101A43EB781B0613431C221340082B4DD0B2
S1131220002C00D18DE0002D00D188E001204C4A33
S113123049494A4B98472B786A7812021A43AB788B
S11312401B041A43EB781B061343464A13402360DE
S1131250E3699B07FCD12B796A7912021A43AB79B3
S11312601B041A43EB791B0613433F4A13408022A5
S1131270920213436360E3695B07FCD12B7B237306
S11312806A7B3023E2542B795B075CD101233371F1
S1131290AA7BEB7B1B021343F380002070BD002864
S11312A002D00133DBB272E71D01EA182F4D3C3541
S11312B0AD1870E7002075E7002073E7002C3CD0E0
S11312C0002D38D001202A4A2349244B98472B78F3
S11312D06A7812021A43AB781B041A43EB781B0694
S11312E01343204A13402360E3699B07FCD12B7905
S11312F06A7912021A43AB791B041A43EB791B0671
S113130013431C4A13401C4A13436360E3695B079D
S1131310FCD12B7A6A7A12021A43AB7A1B041A4361
S1131320EB7A1B06134363626A7B3023E254E3695E
S1131330002BFCD1A7E70020C5E70020C3E700206D
S113134075E7002073E70223A1E70D204042A5E7DB
S11313505111000025090000A02A000079100000A6
S1131360EF080000FCFEFFFFBF1DFDFF502A000038
S113137003090000BFDDFDFF4002020010B5041E9A
S11313800ED00368002B09D00120982212010549D0
S1131390054B98472068054B984710BD0020F4E79B
S11313A00020F2E7A02A000079100000611100007B
S11313B0F0B5CE46474680B589B081460D00046835
S11313C00B6803934B6804930023059306930679F3
S11313D0002814D0002C10D00120374A3749384B4C
S11313E09847E3695B0764D1E3699B07FCD12368F1
S11313F09B0720D41420404256E00020EDE7002053
S1131400EBE700222DE04878000247460743B84640
S113141002310391013205924246A2625BB2002B73
S113142035DB002000283ADB0598AB68984202D3EC
S1131430069A934233D9237EDBB25A07E1D5A16AD7
S1131440049A002A08D0501C04901170012E03D96C
S1131450901C0490090A5170069A01920132069276
S11314600122002ADAD10699059A9142D6D3494637
S1131470C888D907D2D50399002906D0481C0390FF
S113148008788046012EBED8C4E78046C2E701230F
S11314905B4263838133237613204042C2E7237E79
S11314A09B07FCD00323237609B00CBC90469946D5
S11314B0F0BD04204042F7E7850A0000A02A00009E
S11314C0791000000E4A116A090C136A9B0F9B07DE
S11314D009040C4801400B4302210B431362936936
S11314E00B439361137F1D310B401377044BDB686F
S11314F01B07FBD5024A136A80210B431362704712
S1131500000800400000FF0F024A936902218B4348
S113151093617047000800400B0010B501001800EB
S113152001F056F910BD10B500F001F810BD10B56A
S113153001F080F910BD0000F0B5C64643005F0815
S11315401B0E7F3B00B5051C1C00162B18DC8046C7
S1131550002B1EDB1B4F061C1F4107420CD01A49EF
S113156000F024FA002100F0F5F9002804D0002D41
S11315701DDB4346BB431E00301C04BC9046F0BD3B
S1131580124B061C9F42F7D9011C00F00FFA061CEF
S1131590F2E70D4900F00AFA002100F0DBF9002817
S11315A003D0002D09DB0026E6E72E1CE4E78023A8
S11315B01B0423419846A844DBE7002FF5D0044ED2
S11315C0DAE7C046FFFF7F00CAF24971FFFF7F7F61
S11315D0000080BF43001B0E7F3B10B50200162B9A
S11315E00BDC002B0FDB0C491941014204D0802095
S11315F0C00318418018884310BD802BFCD1011C06
S113160000F0D4F9F8E7C00FC0070133F4D1FE238A
S11316109B051843F0E7C046FFFF7F000022430804
S11316208B4274D303098B425FD3030A8B4244D3A6
S1131630030B8B4228D3030C8B420DD3FF220902E8
S113164012BA030C8B4202D31212090265D0030BA7
S11316508B4219D300E0090AC30B8B4201D3CB039D
S1131660C01A5241830B8B4201D38B03C01A5241DF
S1131670430B8B4201D34B03C01A5241030B8B42E1
S113168001D30B03C01A5241C30A8B4201D3CB02CC
S1131690C01A5241830A8B4201D38B02C01A5241B1
S11316A0430A8B4201D34B02C01A5241030A8B42B4
S11316B001D30B02C01A5241CDD2C3098B4201D3CC
S11316C0CB01C01A524183098B4201D38B01C01A4A
S11316D0524143098B4201D34B01C01A52410309C1
S11316E08B4201D30B01C01A5241C3088B4201D370
S11316F0CB00C01A524183088B4201D38B00C01A1D
S1131700524143088B4201D34B00C01A5241411A43
S113171000D20146524110467047FFE701B5002050
S113172000F0F0F802BDC0460029F7D076E7704714
S113173003460B437FD4002243088B4274D303092E
S11317408B425FD3030A8B4244D3030B8B4228D3CF
S1131750030C8B420DD3FF22090212BA030C8B42F5
S113176002D31212090265D0030B8B4219D300E095
S1131770090AC30B8B4201D3CB03C01A5241830B1A
S11317808B4201D38B03C01A5241430B8B4201D3CA
S11317904B03C01A5241030B8B4201D30B03C01AF3
S11317A05241C30A8B4201D3CB02C01A5241830A6D
S11317B08B4201D38B02C01A5241430A8B4201D39C
S11317C04B02C01A5241030A8B4201D30B02C01AC6
S11317D05241CDD2C3098B4201D3CB01C01A52412D
S11317E083098B4201D38B01C01A524143098B42B6
S11317F001D34B01C01A524103098B4201D30B019F
S1131800C01A5241C3088B4201D3CB00C01A5241C3
S113181083088B4201D38B00C01A524143088B4288
S113182001D34B00C01A5241411A00D20146524121
S1131830104670475DE0CA0F00D04942031000D340
S11318404042534000229C4603098B422DD3030A95
S11318508B4212D3FC22890112BA030A8B420CD3A5
S1131860890192118B4208D3890192118B4204D3CE
S113187089013AD0921100E08909C3098B4201D34E
S1131880CB01C01A524183098B4201D38B01C01A88
S1131890524143098B4201D34B01C01A52410309FF
S11318A08B4201D30B01C01A5241C3088B4201D3AE
S11318B0CB00C01A524183088B4201D38B00C01A5B
S11318C05241D9D243088B4201D34B00C01A524132
S11318D0411A00D20146634652415B10104601D3BF
S11318E04042002B00D54942704763465B1000D349
S11318F0404201B5002000F005F802BD0029F8D0EF
S113190016E770477047C0468446081C6146FFE7E7
S11319101FB500F08BFB002801D40021C8421FBD75
S113192010B500F01DFB4042013010BD10B500F0B1
S11319307DFB002801DB002010BD012010BDC04646
S113194010B500F073FB002801DD002010BD01205C
S113195010BDC04610B500F029FB002801DC0020B2
S113196010BD012010BDC04610B500F01FFB0028BB
S113197001DA002010BD012010BDC0469E2110B523
S1131980C905041CFFF7F0FF002803D1201C00F058
S11319904BFE10BD9E21201CC90500F0A9FC00F0DF
S11319A043FE80231B069C466044F2E7F0B5C6461E
S11319B04E024702760A7B0A4400C50FF70048002E
S11319C0984600B5240E2A00DB00000EC90FBC4661
S11319D08D4267D0221A002A00DCA5E000283AD103
S11319E0002F00D193E0511E002900D0BCE0012457
S11319F0DB1B5A0146D59B019E09300000F0CAFE4C
S1131A0005388640844200DD9DE0041B320020201E
S1131A100134E240041BA64033005E1EB34100249F
S1131A2013435A0704D00F221A40042A00D0043367
S1131A305A0129D50134FF2C00D181E02A009B01F1
S1131A405B0AE4B25B02E405580AD2072043104360
S1131A5004BC9046F0BDFF2CE3D080213800C904BB
S1131A60084384461B2A00DD82E020206146D140E1
S1131A70821A604690400200501E82410A439B1A1B
S1131A805A01B8D45A07CED1DE082A00FF2C3AD125
S1131A90002E00D1AEE08023DB0333435B025B0AFC
S1131AA0FF24CFE7211A002952DD002831D0FF2C72
S1131AB0B7D080203E00C0040643B4461B2900DD95
S1131AC0AAE020266046C840711A66468E4031005E
S1131AD04E1EB14101435B185901D3D50134FF2C8B
S1131AE000D187E0012278491A405B080B40134378
S1131AF097E7002C00D0A7E0002B00D0B6E03B1EF7
S1131B0062D10026002273025B0AE4B29AE7140051
S1131B1087E7002F4DD0481E002857D16344012485
S1131B205A01AFD50224DDE7002A24D1621CD2B2C7
S1131B30012ADEDDDE1B720135D5FE1A0D005CE7DD
S1131B402A0000237EE73300604A241A134068E722
S1131B50002963D1611CC8B201284EDDFF2949D098
S1131B6063445B080C005CE7FF2A41D00A0079E774
S1131B7001229B1A84E7002C1DD0FF2822D0802448
S1131B80E404524223431B2A00DD8AE01C00202582
S1131B90D440AA1A93405A1E934123436246040038
S1131BA0D31A0D0025E7002E00D026E700220024DA
S1131BB0A9E70C0035E7002B4DD0D243002AEDD025
S1131BC0FF28E0D16346FF240D002AE7FF290FD048
S1131BD0010073E7002B61D0FF24002F00D120E720
S1131BE080224146D203114202D0164200D13B006A
S1131BF0FF2416E7FF24002324E7002CEAD1002B5E
S1131C0058D0002F00D10CE763445A0100D439E7BF
S1131C102E4A0C00134004E701215CE7002C1ED17E
S1131C20002B40D0C94300290BD0FF2836D01B29F4
S1131C3047DC1C002026CC40711A8B40591E8B4176
S1131C4023436344040047E7002B18D13B1E2DD0E7
S1131C500D00FF24E5E63B0004000D00E1E6FF284B
S1131C601CD08024E40449422343E0E7002F00D140
S1131C70D7E6DE1B72011FD5FB1A0D00D1E6FF2447
S1131C80002F00D1CDE680224046D2031042AFD0CF
S1131C901642ADD13B000D00FF24C2E66346FF248B
S1131CA0BFE601237AE73B000400BAE6802600225F
S1131CB0F603F0E63B00B4E6331E00D0E2E6002271
S1131CC021E70123BDE7C046FFFFFF7DFFFFFFFBC8
S1131CD0F0B557464E46DE464546E0B5440243005D
S1131CE0C60F83B00F1C640A1B0EB24653D0FF2BE1
S1131CF027D08022E400D20414437F22524290462B
S1131D009844002399469B467D027800FB0F6D0A98
S1131D10000E009324D0FF2846D080230021ED003C
S1131D20DB041D437F384746381A4F460F43BF0034
S1131D30B9463300009A874F53404A46BA58019334
S1131D409746002C4ED108239946F7339846FD3B1D
S1131D509B467D027800FB0F6D0A000E0093DAD1DA
S1131D60002D26D1002001213300009A7A4F5340E0
S1131D704246101A4A460A439200BA581D00974632
S1131D80009B2C009A468B465B46022B31D153466E
S1131D90FF21002438E0002C17D1042399460023A6
S1131DA0984601339B46AFE7FF20002D0BD102215B
S1131DB0DAE7280000F0EEFC431F9D4076235B42E7
S1131DC0181A0021AFE70321ADE7200000F0E2FC80
S1131DD0431F9C4076235B421B1A98460023994676
S1131DE09B4691E70C239946F3339846FC3B9B466C
S1131DF08AE7032B00D1A5E05546012B00D081E0F2
S1131E000123002100242B406402C905600ADB077A
S1131E100843184303B03CBC90469946A246AB46DF
S1131E20F0BD80240023E403FF21EDE7FF2100241B
S1131E30EAE70123591A1B2966DD019A13400021A0
S1131E400024E1E78023DB031C4238D01D4251D03B
S1131E501C436402640A3300FF21D5E763016C016B
S1131E60A3423BD21B260021013801251F00490053
S1131E705B00002F01DB9C4201D81B1B2943013E60
S1131E80002EF3D11C00631E9C410C4301007F31E2
S1131E900029CEDD630704D00F232340042B00D098
S1131EA00434230103D501002C4B80311C40FE294E
S1131EB00DDD0123019AFF2113400024A4E78023B0
S1131EC0DB031C436402640A3300FF219CE7012303
S1131ED0019AA401640AC9B2134095E71B1B1A2690
S1131EE00121C2E7009B8B469A4600244CE763021B
S1131EF0E5D500258024E4032C436402640A009B96
S1131F00FF2181E70195C1E723002020CB40411A3E
S1131F108C40611E8C411C43630704D00F23234073
S1131F20042B00D00434630105D50123019A012157
S1131F301340002468E70123019AA401640A1340B2
S1131F40002161E78023DB031C436402640A5346D7
S1131F50FF2159E7BC2A0000FC2A0000FFFFFFF71D
S1131F6070B5420045024E024C00C30F6D0A120EBA
S1131F70760A240EC90F0120FF2A06D0FF2C03D0B5
S1131F80A24201D1B54206D070BD002DFCD1FF2C78
S1131F90FAD1002EF8D18B4206D00120002AF3D1C9
S1131FA02800451EA841EFE70020EDE7F0B5420008
S1131FB045024C02C30F48006D0A120E640A000E5B
S1131FC0C90FFF2A1ED0FF2821D0002A0AD16E4251
S1131FD06E41F6B200280FD1002C0DD10020002D47
S1131FE009D005E0002801D1002C01D08B4211D08A
S1131FF0012158420843F0BD002EF7D001200139D9
S11320000843F8E7002DDED002204042F3E7002C1D
S1132010DBD0F9E78242EBDC04DBA542E8D8002000
S1132020A542E8D20121581E0843E4E7F0B5420076
S11320304D024C004602760A120EC30F6D0A240E9E
S1132040C90FFF2A16D0FF2C18D0002A0AD17042DB
S11320507041C0B2002C15D0002805D001200139F0
S11320600843F0BD002C13D0994214D001205B42E8
S11320701843F6E70220002EF3D1E4E70220002DF6
S1132080EFD1E2E7002DE7D10020002EE9D0EDE703
S1132090002DE9D1EAE7A24206DCDFDBAE4203D839
S11320A00020AE42DAD3DCE7012049420843D8E7F6
S11320B0F8B557464E464546DE46E0B5470246006B
S11320C088467F0A360EC40F002E47D0FF2E24D038
S11320D0FB008027FF041F43002399469A467F3E56
S11320E043465D025800DB0F6D0A000E984643D04C
S11320F0FF283BD0EB0080250022ED041D437F38F0
S11321003618731C41469B464B46614013430F2BC4
S113211064D875489B00C3589F46002F42D10823BA
S11321209946063BFF269A46DAE74146022A28D01A
S1132130032A00D1CEE0012A00D0ACE011400020F7
S11321400022CCB24002D205400AE40710432043E7
S11321503CBC90469946A246AB46F8BD002F15D12B
S113216004239946033B00269A46B9E7FF2002223E
S1132170002DC5D00322C3E7002D19D10020012270
S1132180BEE70124FF220C400020DBE7380000F00A
S113219001FB7626431F9F4000237642361A994658
S11321A09A469DE70C239946093BFF269A4697E7F2
S11321B0280000F0EFFA431F9D4076235B42181A73
S11321C000229DE780200024C003FF22BAE73D00DF
S11321D05246ABE73D0021005246A7E73B0C9C4624
S11321E02A04120C2B0C1400604665463F043F0C75
S11321F07C4342435D437B43270C9B18FF18BA4240
S113220003D980235B029C46654424043A04240CCD
S1132210121993015C1EA3413F0C920E7D191A43BF
S1132220AD0115432B0104D501235E466A081D4008
S1132230154332007F32002A25DD6B0704D00F23BB
S11322402B40042B00D004352B0103D53200274B3F
S113225080321D40FE2A94DC0124A801400AD2B237
S11322600C406FE78020C003074207D0054205D128
S113227028434002400A4446FF2263E738434002B1
S1132280400AFF225EE70124A31A1B2B05DD0C4044
S11322900022002056E75E46CBE72A002020DA40E1
S11322A0C31A9D402B005D1EAB4113435A0704D053
S11322B00F221A40042A00D004335A0104D5012401
S11322C001220C4000203DE701249B01580A0C40E8
S11322D0002237E780200124C00328434002400A3B
S11322E00C40FF222EE7C0463C2B0000FFFFFFF707
S11322F0F0B54F46D64646464400C0B5C20F470225
S11323004802400A844666467B0A4800C90F9A463A
S1132310240E1500DB00000E8946F600FF2800D1CC
S11323208FE001214F464F403900914266D0221A76
S1132330002A00DC9DE000283DD1002E00D18BE076
S1132340511E002900D0B5E001249B1B5A0144D53D
S11323509B019F09380000F01DFA0538874084422C
S113236000DD96E0041B3A0020200134E240041B07
S1132370A7403B005F1EBB41002413435A0704D00F
S11323800F221A40042A00D004335A0127D50134FD
S1132390FF2C00D179E001229B015B0AE4B22A40C0
S11323A05B02E405580AD207204310431CBC904644
S11323B09946A246F0BDFF2CE0D08021C9040E430B
S11323C01B2A7BDC31002020D140821A9640721EE9
S11323D096410E439B1B5A01BAD45A07D0D101220D
S11323E0DF082A40FF2C33D1002F00D1A8E080233E
S11323F0DB033B435B025B0AFF24D1E7211A00297C
S11324004CDD00282AD0FF2CB8D08020C00406431D
S11324101B2900DDAFE030002027C840791A8E4028
S1132420711E8E4106439B195901D6D50134FF2CE8
S113243000D185E001227A491A405B080B4013431E
S11324409CE7002E00D070E76BE73B1EC5D100224D
S11324507B025B0AE4B2A3E714008FE7002E4DD0A1
S1132460481E002857D19B1901245A01B5D50224CE
S1132470E0E7002A25D1621CD2B2012A72DD9F1B3B
S11324807A0135D5F71A0D0064E7012200232A40AA
S113249086E73B00634A241A13406FE700296CD196
S11324A0611CC8B201284EDDFF2949D09B195B0885
S11324B00C0063E7FF2A41D00A0081E701269B1B39
S11324C089E7002C1CD0FF2821D08024E404524248
S11324D023431B2A00DD96E01C002025D440AA1AC1
S11324E093405A1E93412343F31A04000D002DE731
S11324F0002F00D02EE700220024A9E70C003DE7BE
S1132500002B58D0D243002AEED0FF28E1D133006B
S1132510FF240D0032E7FF2910D0010078E7002BDB
S11325206ED0FF24002E00D128E780225146D2032A
S1132530114203D06146114200D13300FF241DE74C
S1132540FF2400232CE7002CE9D1002B63D0002EBC
S113255000D113E79B195A0100D43EE7314A0C001D
S113256013400BE7002C1ED1002B2FD1002E4FD08F
S113257033000D0002E7012655E7002C1FD1002B84
S113258043D0C94300290BD0FF2839D01B2944DC90
S11325901C002027CC40791A8B40591E8B412343C1
S11325A09B19040040E7002B1AD1002E24D1802768
S11325B00022FF031BE7330004000D00DEE6FF28C2
S11325C01ED08024E40449422343DFE7002E00D1D7
S11325D0D4E69F1B7A0100D437E7F31A0D00CDE649
S11325E0FF24002E00D1C9E680225046D2031042B7
S11325F0A4D060461042A1D133000D00FF24BDE6F3
S11326003300FF24BAE601236EE733000400B5E685
S1132610002700221CE73300B0E60123C0E7C046D0
S1132620FFFFFF7DFFFFFFFB41024300C20F490A8A
S11326301B0E00207E2B0DDD9D2B0CDC8020000466
S11326400143952B0ADC9620C31AD9404842002A3C
S113265000D108007047034BD018FBE7963B994024
S1132660F4E7C046FFFFFF7F70B5002830D0C317E2
S1132670C4185C40C50F200000F08CF89E231B1A80
S1132680962B0DDC9622D21A94402A006402640A26
S1132690DBB26402DB05600AD2071843104370BD45
S11326A0992B19DC9922D21A002A29DD94402200A0
S11326B0144C1440510704D00F210A40042A00D0BE
S11326C00434620113D4A401640ADBB22A00E0E7F3
S11326D0002200230024DCE705222100121AD14045
S11326E0B922D21A9440621E94410C43DAE7054B96
S11326F02A001C409F23A4011B1A640ADBB2C8E70A
S11327002200D5E7FFFFFFFB10B5041E27D000F021
S113271041F89E231B1A962B0ADC9622D21A944067
S11327206402640ADBB26402DB05600A184310BD6C
S1132730992B17DC9922D21A002A27DD9440220013
S1132740134C1440510704D00F210A40042A00D02E
S11327500434620112D4A401640ADBB2E3E7002367
S11327600024E0E7B9222100D21A91400A00511E48
S11327708A410521091ACC401443DBE7044B1C4071
S11327809F23A4011B1A640ADBB2CCE72200D7E71B
S1132790FFFFFFFB1C2101231B04984201D3000C03
S11327A010391B0A984201D3000A08391B099842C0
S11327B001D30009043902A2105C40187047C046D6
S11327C004030202010101010000000000000000F6
S11327D070B5054C05001300201E04D00A00022029
S11327E0290000E000BF70BD0000000070B50026A5
S11327F00C4D0D4C641BA410A64209D1002600F018
S1132800BDF90A4D0A4C641BA410A64205D170BD43
S1132810B300EB5898470136EEE7B300EB589847FE
S11328200136F2E7882B0000882B0000882B00007B
S1132830942B000010B5034B0100186800F00CF84D
S113284010BDC0460400002003008218934200D14A
S1132850704719700133F9E770B50500002910D0ED
S11328600C1F2368002B00DAE418280000F03EF85F
S11328701D4A1368002B05D163601460280000F022
S113288036F870BDA34209D9216860188342F3D198
S113289018685B6841182160EEE713005A68002A43
S11328A001D0A242F9D919685818A0420BD1206866
S11328B00918581819608242E0D11068526841180A
S11328C019605A60DAE7A04202D90C232B60D5E7DD
S11328D021686018824203D110685268411821604F
S11328E062605C60CAE7C046E80200207047704737
S11328F00000000000000000FD01000001020000D3
S113290002000000040000000600000008000000AF
S11329100C0000001000000018000000200000005F
S1132920300000004000000048000000600000008B
S113293080000000C0000000000000000000000053
S113294000000000F1000000070040440000000007
S11329500000000000000000000000000000000073
S11329600000000000000000000000000000000063
S11329700000000000000000000000000000000053
S1132980640000000C00000800003F00010080000B
S113299050C30000E8030000F401000088130000A5
S11329A02203A800C40901000180200000000000E7
S11329B000000000200480000000804100030003A8
S11329C0FC07C2C8611F010000000000000080DA9B
S11329D051FD0481280004000000211E9303EC0330
S11329E08C318C3188040200B00D24061A077C0057
S11329F00100010448F8B72764002C0180004F0649
S1132A00701E004001501800D81004160020B200B7
S1132A100278E803430E420600050C081C2100005E
S1132A202E2E2F68616C2F7372632F68616C5F693F
S1132A306F2E63002E2E2F68616C2F7372632F68C4
S1132A40616C5F7370695F6D5F73796E632E630091
S1132A500000000000000000000000000000000072
S1132A600000000000000000000000000000000062
S1132A700000000000000000000000000000000052
S1132A800000000000000000000000000C00200016
S1132A9000000200000000004F00FF0100000000E1
S1132AA02E2E2F68706C2F736572636F6D2F687094
S1132AB06C5F736572636F6D2E6300005C1E0000B3
S1132AC02C1E00003E1E0000801D00003E1E000063
S1132AD0221E00003E1E0000801D00002C1E00006F
S1132AE02C1E0000221E0000801D0000881D000016
S1132AF0881D0000881D0000441E00002C1E0000DC
S1132B002C1E0000001E0000E41E0000001E000039
S1132B10221E0000001E0000E41E00002C1E000007
S1132B202C1E0000221E0000E41E0000881D000070
S1132B30881D0000881D0000EE1E0000DC2100003E
S1132B402C2100002C2100002A210000CE210000AD
S1132B50CE210000C42100002A210000CE21000063
S1132B60C4210000CE2100002A210000D42100004D
S1132B70D4210000D421000064220000F8B5C0462E
S1132B80F8BC08BC9E467047DD000000B50B000091
S1132B902D0C0000F8B5C046F8BC08BC9E46704732
S1072BA0B500000078
S1132BA400000000080000200000000000000000F5
S1132BB4000000000000000000000000000000000D
S1132BC400000000000000000000000000000000FD
S1132BD400000000000000000000000000000000ED
S1132BE400000000000000000000000000000000DD
S1132BF400000000000000000000000000000000CD
S10B2C040000000000000000C4
S9030000FC
