:1000000068000120E1020000DD020000DD020000C6
:10001000DD020000DD020000DD0200000000000043
:10002000000000000000000000000000DD020000F1
:10003000DD02000000000000DD020000DD02000023
:10004000DD020000DD020000DD020000DD02000034
:10005000DD020000DD020000DD020000DD02000024
:10006000DD020000DD020000DD020000DD02000014
:10007000DD020000DD020000DD020000DD02000004
:10008000DD020000DD020000DD020000DD020000F4
:10009000DD020000DD020000DD020000DD020000E4
:1000A000DD020000DD020000DD020000DD020000D4
:1000B000DD020000DD020000DD020000DD020000C4
:1000C000DD020000DD020000DD020000DD020000B4
:1000D000DD020000DD020000DD020000DD020000A4
:1000E000DD020000DD020000000000000000000052
:1000F000000000003D0B0000DD020000DD020000FA
:10010000DD020000DD020000DD020000DD02000073
:10011000DD020000DD020000DD020000DD02000063
:10012000DD020000DD020000DD020000DD02000053
:10013000DD020000DD020000DD020000DD02000043
:10014000DD020000DD020000DD020000DD02000033
:10015000DD020000DD020000DD020000DD02000023
:10016000DD020000DD020000DD020000DD02000013
:10017000DD020000DD020000DD020000DD02000003
:10018000DD020000DD020000DD020000DD020000F3
:10019000DD020000DD020000DD020000DD020000E3
:1001A000DD020000DD020000DD020000DD020000D3
:1001B000DD020000DD020000DD020000DD020000C3
:1001C000DD020000DD020000DD020000DD020000B3
:1001D000DD020000DD020000DD020000DD020000A3
:1001E000DD020000DD020000DD020000CD0F000096
:1001F000DD020000DD020000DD020000DD02000083
:10020000DD020000DD020000DD020000DD02000072
:10021000DD020000DD020000DD020000DD02000062
:10022000DD020000DD020000DD020000DD02000052
:10023000DD020000DD020000DD020000DD02000042
:10024000DD020000DD020000DD020000DD02000032
:10025000DD020000DD020000DD020000DD02000022
:10026000DD02000010B5054C237833B9044B13B1FF
:100270000448AFF300800123237010BD000000206C
:1002800000000000641200000C4B43B10C480D4903
:1002900010B5AFF300800C48036823B910BD0A48BD
:1002A000036833B97047094B002BF7D0BDE8104005
:1002B0001847064B002BF5D0184700BF0000000080
:1002C000641200000400002064120000000000001E
:1002D00008B5014B984708BD9D040000FEE70000EB
:1002E00008B51C4B1C4A9A4210D01C4B194A9A4222
:1002F0000CD2013B9B1A23F0030304331344164929
:1003000051F8040B42F8040B9A42F9D1144B154AE8
:100310009A420AD2013B9B1A23F00303043313448D
:10032000002142F8041B9342FBD10F4B0F4A22F0ED
:100330007F029A60D3F8882042F47002C3F88820C4
:10034000BFF34F8FBFF36F8F094B9847094B984707
:10035000FEE700BF00000020641200000000002043
:10036000640000200000002000ED00E0000000001C
:1003700009100000ED0F000008B5074B4022C3F83C
:10038000AC20C3F8B020054A936943F08003936121
:10039000034B984708BD00BF001C00400008004008
:1003A00029060000284B10225A619A6002F180420F
:1003B0009A624FF04041996293F8442002F0FE02A5
:1003C00042F0010283F8442093F8322002F0F00258
:1003D00042F0030283F8322020225A619A6002F12F
:1003E00080429A62996293F8452002F0FE0242F040
:1003F000010283F8452093F8322002F00F0242F008
:10040000300283F8322040225A6002F1804202F525
:1004100000329A620D4A9A6293F8462002F0FB027B
:1004200083F8462093F8462002F0FE0242F00102D3
:1004300083F8462093F8332002F0F00242F00302E2
:1004400083F83320704700BF00800041000002C0E5
:10045000064B4222C3F89C204B22C3F88C20044A4E
:10046000536943F480535361704700BF001C004040
:100470000008004008B5044B984704490448054B60
:100480009847054B984708BD5104000000300040D4
:100490002000002035060000A503000010B5564BD3
:1004A0009847564B08229A619A6002F180429A62FC
:1004B0004FF040429A6293F8431001F0FE0183F836
:1004C000431080219961996001F1804199629A629B
:1004D00093F8471001F0FE0183F847104FF4804174
:1004E000C3F888104FF04020C3F8A800C3F8A82034
:1004F000C3F8941093F8CE1001F0FB0183F8CE10EE
:1005000093F8CE1001F0FE0141F0010183F8CE1006
:1005100093F8B71001F0F00141F00C0183F8B71027
:100520004FF40041C3F88810354CC3F8A840C3F815
:10053000A820C3F89410C3F8841093F8CF0040F0BB
:10054000040083F8CF00C3F8981093F8CF0000F0B0
:10055000FE0040F0010083F8CF0093F8B70000F0F0
:100560000F0040F0C00083F8B7000220C3F8140168
:10057000C3F8080100F18040C3F82801C3F828211E
:1005800093F8410100F0FE0083F84101C3F8141113
:10059000C3F80811C3F82841C3F8282193F84F2164
:1005A00002F0FE0283F84F214FF48022C3F8142199
:1005B000C3F808214FF08042C3F82821114AC3F83C
:1005C000282193F8522102F0FE0283F852210E4BAB
:1005D00098470E4B98470E4A536943F48043536142
:1005E0004B220C4BC3F8A4200B4B984702460B49F7
:1005F0000B480C4B984710BDF508000000800041E7
:1006000000800040040000C0790300007504000071
:1006100000080040001C0040C70F000000380040E8
:10062000380000201508000008B5014B984708BDA8
:100630006109000038B50D460446B8B1081C18BF62
:10064000012040220A490B4B9847204640F8045F9E
:100650002946094B9847002807DB4FF40043A38243
:10066000064B2361064BE360002038BD0020E8E71D
:10067000501000008D080000C50B000001070000AD
:10068000C506000030B585B00C46054690B1081C83
:1006900018BF0120B3220849084B984723680193EB
:1006A00063680293A368039301A9281D044B98472C
:1006B00005B030BD0020EDE7501000008D080000AF
:1006C000B90C000070B584B00E4615460446A3224E
:1006D0000849003018BF0120074B984700230293B8
:1006E0000196039501A9A4F10C00044B984704B0AE
:1006F00070BD00BF501000008D080000850600008E
:1007000070B584B00E46154604468722084900306D
:1007100018BF0120074B98470296002301930395C9
:1007200001A9A4F10C00044B984704B070BD00BFB0
:10073000501000008D08000085060000F8B58446C2
:1007400007682FB18D683C460026C2F1010E0BE010
:100750000E4B9847F8BD7344A0680344AB420AD2DD
:100760002368264653B11C4663689342F3D8A068B9
:1007700003449B1AF2E7A74204D034462046044BB8
:100780009847F8BD6046014B9847F8BDB508000092
:10079000E10800002DE9F047446907690137076166
:1007A000037E13F0010F13D1037E13F0020F0FD15C
:1007B00054B36368FB1AA268934207D3064600F15C
:1007C0001408DFF84890DFF848A012E0BDE8F08791
:1007D000037E43F002030376BDE8F0877569E368A2
:1007E0002046984785B12C466B68FB1AAA6893424D
:1007F0000AD34046C847237C012BEFD167603A46B5
:1008000021464046D047E9E7BDE8F087E908000007
:100810003D07000038B50D46044678B1081C18BFE6
:1008200001203B220649074B984729462046064BA4
:10083000984700202061054B236038BD0020F0E779
:100840006C1000008D080000F90D000095070000F5
:1008500010B5044653220949003018BF0120084B47
:1008600098472046074B984720B92046064B9847A3
:10087000002010BD6FF0100010BD00BF6C10000014
:100880008D080000B50F0000A10F000000B900BEE8
:10089000704703684BB18B4209D01B681BB199426A
:1008A000FBD10120704700207047002070470120D5
:1008B0007047000038B504460D46064B984780F057
:1008C000010039220449C0B2044B984723682B60C9
:1008D000256038BD93080000841000008D080000DA
:1008E00003680B600160704703680BB11A6802600F
:1008F0001846704710B5134A13889BB21380124BE9
:100900009847124B9847124B98476020114CA047CC
:10091000114B984740F69F70A047104BDA6ADA6295
:10092000D3F8AC20C3F8AC20D3F82C2142F47242A7
:1009300042F0EF02C3F82C21D3F8AC21C3F8AC216C
:1009400010BD00BF00400041950A0000A90A000048
:10095000890A0000BD090000C50A000000800041AE
:1009600030B4144800F143050346134C1A1A13F827
:10097000011B483244F82210AB42F7D10D4800F178
:1009800042048030002134F8023FCA0002F1824262
:1009900002F56042136250F8043FDBB282F8253062
:1009A000DB43DBB282F8243001312029EBD1002077
:1009B00030BC7047A410000000E0004110F0010FAF
:1009C00008D0294A294B1A62194643F6FD724B6832
:1009D0001342FCD110F0020F08D0254A234B5A6273
:1009E000194643F6FD724B681342FCD110F0040F18
:1009F00008D0204A1D4B9A62194643F6FD724B6897
:100A00001342FCD110F0100F08D01B4A174B1A6389
:100A1000194643F6FD724B681342FCD110F0200FCB
:100A200008D0164A114B5A63194643F6FD724B68BB
:100A30001342FCD110F0400F08D0114A0B4B9A63BF
:100A4000194643F6FD724B681342FCD110F4006F57
:100A500008D00C4A054BDA64194643F6FD724B6820
:100A60001342FCD1704700BF07010100001C004089
:100A700008290100070903000109010001290400F8
:100A800001090600040901000122014B5A71704757
:100A900000080040034BDA6902F47C52DA6101225B
:100AA0001A74704700140040044A054B9A611A46B4
:100AB000136913F0020FFBD0704700BF0626000336
:100AC0000010004027221C4B5A631A46D36B13F0C8
:100AD000060FFBD1184B70229A63422283F8302014
:100AE0001A46D36B13F0020FFBD13122124B9A64DA
:100AF0001A46136D13F0060FFBD10F4B7022DA6408
:100B0000422283F844201A46136D13F0020FFBD1E2
:100B1000094B1A6C12F0010F03D11A6C12F0020F7C
:100B2000F7D0054B5A6D12F0010F03D15A6D12F038
:100B3000020FF7D0704700BF0010004000B583B02F
:100B40000D4B9B78DBB20193019B13F0020F06D093
:100B50000A4B1B681BB1084A5068984709E0019B83
:100B600013F0010F05D0054B5B6813B1024A5068C2
:100B7000984703B05DF804FB0000024154000020D8
:100B800070B489B006466C460D4D0FCD0FC495E884
:100B90000F0084E80F00009BB3420DD0314601AB3B
:100BA000012053F8042B8A4207D001300828F8D1DD
:100BB000002009B070BC70470020C0B2F9E700BF48
:100BC000A811000038B505460C460846364B984734
:100BD00060B1002D55D040F63F123449201C18BF9B
:100BE0000120334B98476FF00C0038BD002D51D1D8
:100BF00040F63F122D4900202D4B9847E36913F032
:100C0000010F19D1E36913F0030FFBD1236813F02F
:100C1000020F0BD0236823F002032360E36913F073
:100C2000030FFBD1E36913F0020FFBD10D23236007
:100C3000E36913F0030FFBD1E36913F0010FFBD15C
:100C40002C6040F609121949201C18BF0120184BCE
:100C50009847184B2360E36913F0030FFBD14FF45F
:100C600000336360E36913F0170FFBD1FE23237396
:100C7000002084F8300001232B7140F2FF13EB8039
:100C800038BD40F63F1209490020094B98476FF0E4
:100C90000C0038BD40F63F120449201C18BF01204B
:100CA000034B9847AAE700BF810B0000E01100004A
:100CB0008D0800000C0020002DE9F84381460E4607
:100CC0000468D1F800804D680779A8B1201C18BFCE
:100CD000012040F6A3222E492E4B9847E36913F0DA
:100CE000070F34D1E06910F00300FBD1236813F043
:100CF000020F30D0024608E00020EAE7013213F08C
:100D0000800F12D1B36883421ED9237EDBB213F069
:100D1000040F24D0A16A002DF0D02970012F91BFBB
:100D20000135090A69700235E8E74FF6FF736383FE
:100D3000802323766FF01200237E13F0030FFBD085
:100D400003232376BDE8F8839342DED8F4E76FF0FF
:100D50000300BDE8F8836FF01300BDE8F88390420C
:100D6000CDD813F0010FCAD0B9F80610B8F1000FB2
:100D70000BD098F80010012F91BF08F1010898F8E6
:100D800001E041EA0E2108F102080130A162B6E754
:100D9000E01100008D08000070B588B006466C4672
:100DA000124D0FCD0FC495E80F0084E80F00009B93
:100DB000B3420BD0304601AA012352F8041B8142F2
:100DC00005D00133082BF8D100200BE0002313F0ED
:100DD000FF0F09D04FF49E7205490020054B98473C
:100DE0004FF0FF3008B070BD0020FBE7FC110000A1
:100DF000301200008D08000070B506460C4608460B
:100E0000604B98470546F4608D225F4901205F4B97
:100E10009847236913F0010F19D1236913F0030FC9
:100E2000FBD1236813F0020F0BD0236823F00203D9
:100E30002360236913F0030FFBD1236913F0020F22
:100E4000FBD101232360236913F0030FFBD1236936
:100E500013F0010FFBD105EB85034D4A02EB830331
:100E60005A6A2260236913F0030FFBD105EB850357
:100E7000474901EB830393F82A10E1731B8DE3804C
:100E80000123237302F00C02082A48D0002A58D10B
:100E900005EB85033E4A02EB83039B8DA383236905
:100EA00013F0C00FFBD10023E383236913F0C00FBD
:100EB000FBD101236372374B9C4204BF364B1E604B
:100EC00005EB8503324A02EB8303B3F92230002B92
:100ED00023DB5A0903F01F03012101FA03F3203237
:100EE0002E4941F82230BFF34F8FBFF36F8F05EBD0
:100EF0008505274B03EB8505B5F92230002B0CDB6C
:100F0000590903F01F03012202FA03F3234A01F1F6
:100F1000600042F8203042F82130002070BD05EB1F
:100F200085031B4A02EB8303DB6AE361236913F049
:100F3000C00FFBD100232362236913F0C00FFBD144
:100F4000B7E7042AB5D105EB8503114A02EB830309
:100F500093F82C302377236913F0C00FFBD10023C3
:100F60006377236913F0C00FFBD105EB8503084AB3
:100F700002EB830393F82B30E376236913F0200F01
:100F8000FBD196E7990D0000301200008D0800009B
:100F9000FC110000003800401C00002000E100E0CF
:100FA000C268136843F002031360136913F0030F60
:100FB000FBD17047C268136913F0030FFBD11068AF
:100FC000C0F34000704700207047000008B5064B92
:100FD0001868C3689A7A12F0010F00D108BD012287
:100FE0009A7203689847F9E71C00002008B5034B84
:100FF00098470348034B9847FEE700BFD102000023
:10100000380000205108000070B50D4E0D4CA41B97
:10101000A4100025A54209D10B4E0C4C00F012F98A
:10102000A41BA4100025A54205D170BD56F825309B
:1010300098470135EEE756F8253098470135F2E735
:101040005012000050120000501200005412000014
:101050002E2E2F68616C2F7372632F68616C5F7323
:1010600070695F6D5F73796E632E63002E2E2F683B
:10107000616C2F7372632F68616C5F74696D657248
:101080002E6300002E2E2F68616C2F7574696C73AF
:101090002F7372632F7574696C735F6C6973742E30
:1010A00063000000000102000000000000000000DA
:1010B0000000000000000000000000000000000030
:1010C0000000000000000000000000000000000020
:1010D0000000000000000000000000000000000010
:1010E000000000000000000049064A060000000061
:1010F00000000000000000000000000000000000F0
:1011000000000000000000000000000000000000DF
:1011100000000000000000000000000000000000CF
:1011200000000000000000000000000000000000BF
:1011300000000000000000000000000000000000AF
:10114000000000000000000000000000000000009F
:10115000000000000000000000000000000000008F
:10116000000000000000000000000000000000007F
:10117000000000000000000000000000000000006F
:10118000000000000000000000000000000000005F
:10119000000000000000000000000000000000004F
:1011A000000000000000000000300040003400405B
:1011B00000200141004001410000004300040043C1
:1011C00000080043000C0043000000000000000085
:1011D000000000000000000000000000000000000F
:1011E0002E2E2F68706C2F736572636F6D2F687071
:1011F0006C5F736572636F6D2E6300000038004092
:10120000003C004000A0014100C001410014004228
:1012100000180042001400430018004300006B0057
:10122000080300000111000004000000000000009D
:101230002E2E2F68706C2F74632F68706C5F746330
:101240002E630000F8B500BFF8BC08BC9E4670478E
:1012500089020000F8B500BFF8BC08BC9E46704784
:041260006502000023
:00000001FF
