:10000000B82700202D01000029010000290100006F
:1000100000000000000000000000000000000000E0
:1000200000000000000000000000000029010000A6
:10003000000000000000000029010000290100006C
:100040002901000029010000290100002901000008
:10005000A11600002901000029010000E933000079
:1000600029010000290100002901000029010000E8
:10007000C11A000029010000290100002901000027
:100080002901000029010000C1200000D520000046
:1000900029010000290100002901000029010000B8
:1000A00029010000290100002901000029010000A8
:1000B0000000000010B5064C2378002B07D1054B3B
:1000C000002B02D0044800E000BF0123237010BDC4
:1000D000680000200000000064430000084B10B5D9
:1000E000002B03D00749084800E000BF0748036819
:1000F000002B00D110BD064B002BFBD09847F9E731
:10010000000000006C000020644300006443000015
:100110000000000010B5024B9847024B984710BDF5
:10012000D107000015400000FEE70000F8B5234AA3
:10013000234B9A4209D0224B204A03E011681960F0
:10014000043304321F498B42F8D31F4B02E00022D4
:100150001A6004331D4A9342F9D31D4AFF211D4BF7
:100160008B439360FD3990235B001B4AD1501B4A9F
:10017000D3780325AB4302242343D370D3780C27D1
:10018000BB4308263343D370154B987B30229043F2
:10019000202210439873997BB943314399739A7B1A
:1001A000AA4322439A730F4A516880230B4353603A
:1001B0000D4B98470D4B9847FEE7C046644300003F
:1001C000000000206800002068000020B807002020
:1001D00000ED00E000000000007000410050004110
:1001E000004800410040004175400000F533000028
:1001F00010B5084A116A80231B010B431362064A9B
:10020000064B5A80064B9847020006490648074BA2
:10021000984710BD000400401B400000000C004047
:10022000BD200000002C0042DC060020D90B00009D
:1002300010B5084A116A80235B010B431362064A1A
:10024000064B5A80064B9847020006490648074B62
:10025000984710BD000400401C430000000C004003
:10026000BD200000003000429C070020D90B000098
:1002700010B50F4A0F4B5A80053AC023DB055A6070
:100280000D4B0E4A9A620E4A9A624E215A5C042025
:1002900082435A545A5C033882430243D2B25A54BE
:1002A00017395A5C0F2082435A54064B984710BDA9
:1002B00005400000000C00400044004100400240A6
:1002C000000002C0D1090000F0B5C64600B5C0224A
:1002D000D205102353619360254B26499962C021B2
:1002E00009068C4699624420195C0127B94301260E
:1002F0003143C9B219543221585C0F25A843032455
:10030000A04644462043C0B258542020506190601B
:10031000194898626046986245208446185CB84344
:100320003043C0B264461855585C363C20403024F7
:10033000A44664462043C0B258540E3151600F4A5F
:100340009A620F4A9A624622995C0420814399542A
:10035000995CB9433143C9B2995433215A5CAA43D9
:1003600040460243D2B25A5404BC9046F0BDC04647
:1003700000440041100000402000004040000240C6
:10038000000002C0044A136A04210B431362034AAB
:10039000034B5A807047C0460004004014400000E0
:1003A000000C004010B5044B984704490448054B25
:1003B0009847054B984710BD850300000008004290
:1003C0006C070020050A0000C9020000F0B5C6460F
:1003D00000B5C022D20580235B0253619360264B97
:1003E0008021C9058C469962244999625020195C84
:1003F0000127B94301263143C9B219543821585C49
:100400000F25A8430224A04644462043C0B25854B6
:10041000802080025061906060469862184898621F
:1004200051208446185CB8433043C0B26446185526
:10043000585C423C20402024A44664462043C0B27D
:1004400058548021C90251600E4A9A620E4A9A623B
:100450005222995C042081439954995CB9433143F9
:10046000C9B2995439215A5CAA4340460243D2B2D8
:100470005A5404BC9046F0BD00440041010000C045
:10048000020000C000000240040002C0044A136AD7
:1004900008210B431362034A034B5A807047C0463E
:1004A0000004004015400000000C004010B5044B53
:1004B000984704490448054B9847054B984710BD99
:1004C0008D040000000C0042F8060020050A000020
:1004D000CD030000F0B5C021C90580235B014B614D
:1004E0008B60224B224A9A62C020000698624C26FA
:1004F0009A5D0125AA4301242243D2B29A55163EA1
:100500009A5D0F27BA4302273A43D2B29A55802206
:1005100092004A618A60174A9A62986249201A5C7E
:10052000AA432243D2B21A543422985C273E304068
:1005300030273843C0B29854802212024A600E4AD3
:100540009A620E4A9A624F22995C04208143995420
:10055000995CA9432143C9B2995437215A5C32406E
:1005600020200243D2B25A54F0BDC046004400419C
:10057000001000400002004000800240000002C065
:10058000044A136A10210B431362034A034B5A8037
:100590007047C0460004004016400000000C0040B8
:1005A00010B5044B984704490448054B9847054B40
:1005B000984710BD8105000000100042840700200C
:1005C000050A0000D5040000044A136A20210B43E9
:1005D0001362034A034B5A807047C0460004004030
:1005E00017400000000C004030B50F4B5622995CBC
:1005F0000125A94301242143C9B299543B20195C28
:10060000473A914302221143C9B2195457215A5C07
:10061000AA432243D2B25A541A5C48390A402021D4
:100620000A43D2B21A5430BD0044004110B582B022
:10063000064B9847002300931033054A05490648A6
:10064000064CA047064B984702B010BDC9050000F4
:1006500084000020001400421C070020890D0000C7
:10066000E905000010B50248024B984710BDC0468E
:1006700010E000E07909000010B50422C023DB057A
:100680005A600A490A4B8B62C0231B068B624223C5
:10069000CA5C012082430243D2B2CA5431228B5C2D
:1006A0000F24A3430343DBB28B5410BD004400412D
:1006B00004000040044A116A8023DB020B431362EA
:1006C000024A034B5A80704700040040214000005A
:1006D000000C004010B5044B984704490448054BF2
:1006E0009847054B984710BDB506000000480042EA
:1006F000100700202909000079060000F0B5C64661
:1007000000B5C024E40580225204A2601C4B80275F
:10071000FF059F621B49996262615820195C04229F
:10072000904691431954195C0126B1430125294390
:10073000C9B219541C38195C0B32914306229446F5
:1007400062461143C9B2195480218904A1609F6295
:100750000D4F9F62616159215C5C424694435C5439
:100760005A5CB2432A43D2B25A541A5C4A390A40FC
:1007700060210A43D2B21A5404BC9046F0BDC04670
:1007800000440041000100C0000200C0064BDA69CD
:1007900020210A43DA615A6920310A435A61034A27
:1007A000034B5A807047C0460004004006440000D6
:1007B000000C004010B5034B9847034B9847034B80
:1007C000984710BD8D07000071100000FD06000065
:1007D000F0B5D6464F464646C0B53A4B9847C0227C
:1007E000D205082393619360374B38499962C0253D
:1007F0002D069D624324185D0121884318558020F1
:1008000050619060324898629D620434185D88435C
:10081000185580200003906190608020C005986288
:100820002C4C9C6253269C5D8C439C55906190603F
:100830009862294CA4469C620B369C5D8C439C5567
:10084000942411510C3CA14611512034234F1F51C7
:100850001D51C027B846DF5D8F4346469F55283E51
:10086000B246963E5746D6514F46D6511C4E1E5163
:100870001D51C125A8465D5D8D4346469D55554693
:100880005051D051185162461A51DE201A5C8A43E9
:100890001A54144B9847144B9847144B9847144BD1
:1008A0009847144B9847144B9847144B9847144B50
:1008B0009847144B9847144B98471CBC9046994650
:1008C000A246F0BD71150000004400410800004040
:1008D00080000040080000C0004000C0010000404F
:1008E0000200004071020000A5030000AD040000FA
:1008F000A10500002D06000065060000F1010000C2
:1009000031020000D5060000B5070000EFF31083A8
:10091000036072B6BFF35F8F7047BFF35F8F0368EA
:1009200083F310887047000070B504000D000028A4
:1009300010D000290CD0012032220C490C4B9847D2
:10094000290020000B4B984700280ED100230AE015
:100950000020F1E70020EFE7DA00A2180021516043
:1009600091600133DBB2002BF6D070BDE040000097
:10097000CD130000E515000010B5024B1860024BC6
:10098000984710BD94000020F11E000070B50125AD
:10099000002407E00D4AB358002B00D0984770BDE3
:1009A000013AD5B2AC42FAD82B195B10DAB2002A60
:1009B000F5D1FF210B40DE000449891949688142C5
:1009C000E8D0EDD20132D4B2ECE7C0469800002066
:1009D00010B50023002B03D00748084B984710BDE3
:1009E000074AD9005018012464424460002088500E
:1009F00001339BB2EEE7C0468D09000011160000DE
:100A00009800002070B504000D00002817D00029C0
:100A100013D0012040220B490B4B98476560201DE5
:100A200029000A4B9847002806DB094BA382094B93
:100A30002361094BE360002070BD0020EAE700203D
:100A4000E8E7C046FC400000CD130000D51A0000C6
:100A50000080FFFFE10A0000A50A000030B587B062
:100A600004000D00002815D0002911D00120B32268
:100A700009490A4B98472B6803936B680493AB684A
:100A800001930593201D03A9054B984707B030BD7E
:100A90000020ECE70020EAE7FC400000CD13000056
:100AA000D91C000070B584B004000E001500431E70
:100AB0009841C0B2A3220749074B984720000C3841
:100AC000002302930196039501A9044B984704B0B3
:100AD00070BDC046FC400000CD1300005D0A000060
:100AE00070B584B004000E001500431E9841C0B2DA
:100AF00087220749074B984720000C3802960023AD
:100B00000193039501A9044B984704B070BDC046FA
:100B1000FC400000CD1300005D0A0000F8B5066837
:100B2000002E02D0330000250CE0104B984718E04F
:100B30009F68BC466444A41A01348F68BC420BD23F
:100B40001D001B68002B07D05C689442F0D8A41AE3
:100B50009F68BC466444F0E7B34203D02800044BCE
:100B60009847F8BD014B9847FBE7C046ED130000DE
:100B700019140000F8B50500446903695E1C06619C
:100B8000037EDB0702D4037E9B070AD52B7E02225D
:100B90001343DBB22B76F8BD6F69E36820009847FA
:100BA0003C00002CF7D06368F31AA2689342F2D39A
:100BB0002F0014373800064B9847237C012BEBD1CC
:100BC0006660320021003800024B9847E4E7C046D7
:100BD000611400001D0B000070B504000D0000281A
:100BE00012D000290ED001203B220849084B98471B
:100BF00029002000074B984700232361064B236000
:100C0000002070BD0020EFE70020EDE71841000054
:100C1000CD130000991F0000750B000010B50838B7
:100C200000230363436A002B00D0984710BD10B522
:100C3000083800230363C36A002B00D0984710BD17
:100C400010B504002C30044B9847236A083C002B55
:100C500001D02000984710BD0D15000070B50400AC
:100C60000E00150000281DD000291DD0002A1DD11E
:100C700000203C22FF321049104B98474423E25A8F
:100C80000833E35A9A4213D1A6644C23E55200225A
:100C9000083BE252433B236320000830084B98474F
:100CA000280070BD0020E4E70020E2E70120E0E733
:100CB0001C204042F5E7C04630410000CD13000043
:100CC000B11A000070B504000200083A4423D35A58
:100CD0004C21525A93420DD00200016C083A5D1C1F
:100CE00044201552C95C2000044B98472000044B57
:100CF000984770BD034B9847FBE7C046A91A000010
:100D0000B11A0000B91A0000F0B585B004000D005A
:100D10001600002817D0002917D0002A17D100206C
:100D2000AC2252001249134B984703A8124B984724
:100D3000343420000194114B9847070003A8104B4E
:100D4000984700240BE00020EAE70020E8E70120B4
:100D5000E6E70134A4B2691801980A4B98472100CC
:100D6000A74201D9B442F4D3200005B0F0BDC0467B
:100D700030410000CD1300000D0900004D150000AA
:100D80001B090000C1140000F8B504000D00160096
:100D90001F00002826D0002926D0002A26D0002BAC
:100DA00026D100203A221549154B984720003430AF
:100DB0003A003100134B984700281BD1200008301F
:100DC0002900114B984700280BD1104B6360104B42
:100DD0002360104BA360104BE360104B2361104B5A
:100DE0006361F8BD0020DDE70020DBE70020D9E7E4
:100DF0000120D7E70D204042F3E7C0463041000014
:100E0000CD130000751400001D1A0000090D00002C
:100E10005D0C0000C50C0000410C00001D0C000022
:100E20002F0C000010B50100002001E0013040B29D
:100E300007280FDC4201094B9B185A788A420BD0D5
:100E40004301064C1B5D002BF0D10F330B40934246
:100E5000ECD101E00120404210BDC046A0000020BE
:100E60000020704770B504000D00084B9847420100
:100E7000074B9B189B78032B01D0002070BD044BBF
:100E800098188369290020009847F7E7250E00008D
:100E9000A0000020F0B587B005000F0001924A4B7A
:100EA000984704004601494A9619002F51D1130072
:100EB00042010020F070D35C002B0ED06201434B46
:100EC0009B1801229A706401404B1C19E369E17878
:100ED000019A2800984707B0F0BDB3780C24345726
:100EE000032B08D032000C3270780021F369984748
:100EF0000223B370EFE7707832000C320121F369FE
:100F00009847002810D00523B370033BF370002CE2
:100F100008DB7378802040421843C0B201212C4B7B
:100F20009847D8E77078F9E70423B3707178002206
:100F300003920492002C09DB843B0B43DAB203A832
:100F4000027201234372234B9847C4E70F220A40E1
:100F5000F5E7012F0AD0022F1DD0032F2CD042011C
:100F60001A4B9B1806229A70DA70ACE7174B4201B5
:100F700099180220C870D35C002B05D06201134B76
:100F80009B1805229A709EE702228A700021280091
:100F90000F4B984797E70D4B420199180420C870F2
:100FA000D35C002B05D06201084B9B1801229A707C
:100FB00089E702238B708EE74201044B9B180022C5
:100FC0009A700532DA707EE7250E0000A00000203E
:100FD00001300000C5310000F0B5C64600B505007F
:100FE0001F4B98470600430108331E4CE418043495
:100FF000210028001C4B9847C0B208280CD00121C2
:1010000028001A4CA047802040422843C0B201214A
:10101000A04704BC9046F0BD00212800134B984621
:10102000984780277F422F43FFB200213800C047F6
:1010300072010C4B9B1801229A705B6921002800F9
:1010400098470028E5D17601064B9E190523B37019
:1010500001212800054CA04701213800A047D8E70E
:10106000250E0000A00000204D31000001300000DE
:1010700010B5124B984700281FDB80225200002138
:101080000F48104B984700220AE051010C4B5B18A7
:10109000FF2159700C4959619961D9610132D2B26D
:1010A000072AF2D909490020094CA0470949012023
:1010B000A04709490220A047002010BDF9290000DF
:1010C000A0000020CF400000610E0000D90F0000FA
:1010D000B9330000650E0000950E000010B5014BFD
:1010E000984710BD9533000010B5014B984710BDCF
:1010F000A12A000010B5014B984710BDF12A00004D
:1011000010B5014B984710BD012B0000F8B5050044
:101110000E0017000F4B9847002814DAFF200D4BE4
:101120009847041E12DB3A00310028000A4B98470A
:10113000002807DB094A640113195D7003231E4070
:10114000A6540020F8BD14204042FBE71520404281
:10115000F8E7C046250E0000152B0000A000002077
:1011600010B582B200210020014B984710BDC04647
:101170000D11000070B50500064B9847041E07DBF3
:101180002800054B98476401044B1C19FF2363702A
:1011900070BDC046250E00004D2C0000A0000020B0
:1011A00070B505000F4B9847041E17DB43010E4A2C
:1011B0009B5C002B0AD1022162010B4B9B1899709A
:1011C00028000A4B9847002802DB70BD0121F3E795
:1011D0006401054B1C190023A370F6E7122040425E
:1011E000F3E7C046250E0000A0000020092D0000F6
:1011F000F0B5D6464F464646C0B586B00500067ADD
:1012000030003F4B98470700F6096B7A5A1E93410E
:10121000DCB26B68984600286BDB04A8394B984712
:101220007A01394B9B189A7817236B441A701B78F4
:10123000012B0ED004A8354B984717236B441B781D
:10124000DBB2052B2BD0062B56D0002B29D001204A
:101250001FE02D4B99467B019A464B46534403228F
:101260009A7004A8294B98474B465246D35C002BF2
:101270001AD0297A2B68019343460293002E35D069
:10128000802252420A43D2B201A802724472204B19
:10129000984706B01CBC90469946A246F0BD022075
:1012A000F7E713204042F4E77B01174AD218937CFA
:1012B000D47C24021B199BB2002B06D1042393700B
:1012C0000023984601240126D3E77F010E4AD7194F
:1012D0000C22BA56D60F984500D99846002A01DB51
:1012E0000024C6E798459B415C42C2E70F220A40B2
:1012F000CAE712204042CCE710204042C9E7C0466E
:10130000250E00000D090000A00000201B090000B0
:10131000C531000070B50400002905D0012924D092
:101320000221134B984770BD124B9847051E19DBDD
:10133000022120000E4B98470028F4D00021200005
:101340000B4B98470028EEDB6D010B4B5D19012319
:10135000AB700233EB70EB69002203212000984749
:101360000020E0E712204042DDE7014B9847DAE732
:1013700001300000250E0000A000002070B50D0017
:1013800014000F4B98470300002C08D0002B05DBFE
:10139000012D0BD0002D04D0022D0CD070BD094CB6
:1013A000F4E74001084B18184461F7E74001064B89
:1013B00018188461F2E74001034B1818C461EDE787
:1013C000250E0000610E0000A0000020002800D1C2
:1013D00000BE70470368002B03D08B4203D01B680C
:1013E000F9E7002070470120FCE7000070B5040019
:1013F0000D00064B984701235840C0B239220449DA
:10140000044B984723682B60256070BDD5130000FE
:1014100050410000CD13000003680B60016070476D
:1014200070B505000E0004680A4B98470123584028
:10143000C0B24F220849094B98472B68002B03D1B3
:101440002E60336005E01C002368002BFBD1266072
:10145000336070BDD513000050410000CD13000073
:101460000368002B03D01A68026018007047002040
:10147000FCE7000070B504000E001500002812D033
:10148000002912D0002A12D1002028220A490B4B31
:1014900098476B1E2B420CD163600023A360E3606E
:1014A0002660002070BD0020EFE70020EDE701205E
:1014B000EBE70D204042F5E770410000CD1300003E
:1014C00070B504000D00002816D0002912D00120AC
:1014D00040220C490C4B9847A368E2689A420DD011
:1014E000626813402268D35C2B70A3680133A36049
:1014F000002070BD0020EBE70020E9E70A20404211
:10150000F7E7C04670410000CD13000070B504003D
:101510000D00431E9841C0B251220A490A4B984718
:101520006368E26813402268D554E368A2689A1A97
:1015300061688A4201D9591AA1600133E360002031
:1015400070BDC04670410000CD13000010B504000E
:10155000431E9841C0B267220349044B9847E06894
:10156000A368C01A10BDC04670410000CD13000032
:1015700010B5064B5A685A60054B9847054B98477B
:10158000054B9847FF20054B984710BD0040004190
:101590002D180000ED1D0000491E00005917000025
:1015A000C379DB09FCD1C379DB09FCD103789B0744
:1015B00007D500230370C379DB09FCD1C379DB09AC
:1015C000FCD101230370C379DB09FCD1C379DB09AA
:1015D000FCD18370412242700370C379DB09FCD1D6
:1015E0000020704770B505000C00431E9841C0B242
:1015F00049220449044B98472C602000034B98472C
:1016000070BDC04694410000CD130000A11500003C
:10161000204B5B78DB09FBD11E4B5B78DB09FBD1F0
:101620001C4B1B789B070AD500221A4B1A70194BCA
:101630005B78DB09FBD1174B5B78DB09FBD101221F
:10164000144B1A70134B5B78DB09FBD1114B5B78A1
:10165000DB09FBD10F4B00229A705A605A619A61E4
:10166000DA611A7802210A43D2B21A70094B5B7808
:10167000DB09FBD1084B102280215A50BFF34F8F5A
:10168000BFF36F8F0131FF315A501A60034B18605E
:10169000002070470018004000E100E0A001002099
:1016A00070B582B0264B1A69D9680A400192019A36
:1016B0001A61244B1868431E9841C0B2D2222249B5
:1016C000224B984701256D422EE00139CEB2B0423F
:1016D0000ED832185210D1B2FF231340DB001C4A3F
:1016E0009B5CA34203D0F0DA0131C8B2EFE70E25CC
:1016F0006B1C03D0134B1B68280098470122A240A3
:10170000019B934301930198124B9847013844B2CF
:10171000631C02D001260020D9E7094B1A69D96859
:101720000A400192019A1A61019B002B05D0019891
:10173000084B9847013844B2EAE702B070BDC04692
:1017400000180040A0010020B4410000CD130000AB
:10175000AC41000021400000C30709D5274B80227F
:1017600052009A60264A5A60244B5B78DB09FBD111
:10177000830708D5214B234A9A60234A5A601F4B9E
:101780005B78DB09FBD1430708D51C4B1F4A9A60E5
:101790001F4A5A60194B5B78DB09FBD1030708D558
:1017A000164B1C4A9A601C4A5A60144B5B78DB0942
:1017B000FBD1C30609D5114B822252009A60174A09
:1017C0005A600E4B5B78DB09FBD1830608D50B4BC7
:1017D000134A9A60134A5A60084B5B78DB09FBD1C5
:1017E000430609D5054B832252009A600E4A5A607F
:1017F000024B5B78DB09FBD17047C046000C004010
:101800000008290001060000010801000204000090
:10181000020621000308000003062900040709004E
:10182000050300000508010006042100064B1A7A92
:10183000D2B21A725A7AD2B25A729A7AD2B29A72D0
:10184000DA7AD2B2DA72704700040040024B9C464A
:101850006044800AC0B2704700F8FFBD10B58469CB
:10186000237EDB0702D5A37DDB070FD4237E9B07F6
:1018700002D5A37D9B070ED4237E5B0715D5628B13
:1018800037231A420CD00833638310BD012323751C
:1018900003689847F9E70223237583689847F4E7BC
:1018A0004368218DC9B29847EFE7237EDB09ECD06E
:1018B00080232376C3689847638B9BB26383E4E7F6
:1018C000034B984200D07047024B1960FBE7C046BB
:1018D00000140042A401002010B5024B98470930C3
:1018E000C0B210BD4D18000010B50B4B9847020058
:1018F0000020002806D0094A09490020094B9847D2
:10190000002010BD83001B189900074BCB5C9A4246
:10191000F7D00130C0B2ECE74D1800005E020000C5
:101920003C420000CD130000CC41000070B5040023
:10193000384B9847E369DB071DD483001B189A00D6
:10194000354B9B185A681C231A40E3699B07FCD14E
:1019500023689B0709D5236802218B432360E36931
:101960009B07FCD1E3699B07FCD40123134323604D
:10197000E3699B07FCD1E369DB07FCD483001B18F8
:101980009A00254B9B185B682360E3699B07FCD199
:1019900083001B189A00204B9B189B686360E369C7
:1019A0005B07FCD183001B189A001B4B9B185B68DC
:1019B0009A040BD4C022D201134207D183001B1812
:1019C0009A00154B9B189B89A38115E083001B1877
:1019D0009A00114989188A89A389D204D20C5B0B19
:1019E0005B031343A3818B7B07221A40A389520315
:1019F000DB04DB0C1343A381074A83001D18A900F5
:101A00000D005118C97BA1735219127C3023E25486
:101A1000002070BDE9180000CC41000070B5060040
:101A20000C00431E9841C0B2C4221949194B984773
:101A30002000194B9847051E01D0280070BDB461E5
:101A400031002000154B98472000154B984743B2B2
:101A5000002B0ADB1F21014001228A408021114C0A
:101A60006250BFF34F8FBFF36F8F002B07DB1F2137
:101A7000014001228A40C02149000A4C6250002BDB
:101A8000DBDB1F2318401E3B8340064A1360D4E76C
:101A90003C420000CD1300002D190000C1180000C9
:101AA000D918000000E100E0836989B21985704708
:101AB000836901229A757047836902229A7570477B
:101AC00010B5024B1868024B984710BDA4010020C6
:101AD0005D180000F8B506000C000800734B98472D
:101AE000002301E00133DBB2022B0BD81901C91826
:101AF0006F4A52184C3212789042F3D16C4D3C35FB
:101B00006D1800E00025002E00D182E0002C00D1ED
:101B10007DE00120674A6849684B9847002D00D155
:101B2000C0E0E369DB0721D42A786B781B021343FA
:101B3000AA7812041343EA7812061A431C231A40A7
:101B4000E3699B07FCD123689B0709D52368022121
:101B50008B432360E3699B07FCD1E3699B07FCD4BB
:101B6000012313432360E3699B07FCD1E369DB078F
:101B7000FCD434602B786A7812021A43AB781B04C9
:101B80001A43EB781B0613431C221340082B42D048
:101B9000002C00D182E0002D00D17DE00120484AD8
:101BA0004549464B98472B786A7812021A43AB781E
:101BB0001B041A43EB781B061343424A134023606D
:101BC000E3699B07FCD12B796A7912021A43AB793E
:101BD0001B041A43EB791B0613433B4A1340802234
:101BE000920213436360E3695B07FCD12B7B237391
:101BF0006A7B3023E2542B795B0751D10123337187
:101C0000AA7BEB7B1B021343F3800020F8BD00206E
:101C100080E700207EE7002C3CD0002D38D001204A
:101C20002A4A2549254B98472B786A7812021A438D
:101C3000AB781B041A43EB781B061343214A13406D
:101C40002360E3699B07FCD12B796A7912021A435E
:101C5000AB791B041A43EB791B0613431C4A134050
:101C60001C4A13436360E3695B07FCD12B7A6A7AF1
:101C700012021A43AB7A1B041A43EB7A1B06134376
:101C800063626A7B3023E254E369002BFCD1B2E744
:101C90000020C5E70020C3E7002080E700207EE7A2
:101CA0000223ACE70D204042B0E7C0464D180000CB
:101CB000CC410000520900003C420000CD1300005E
:101CC00017090000FCFEFFFFBF1DFDFF2B090000F0
:101CD000BFDDFDFF40020200F0B5CE46474680B5AD
:101CE00089B081460D0004680B6803934B68049328
:101CF0000023059306930679002814D0002C10D0F9
:101D00000120374A3749384B9847E3695B0764D16C
:101D1000E3699B07FCD123689B0720D41420404231
:101D200056E00020EDE70020EBE700222DE04878A8
:101D3000000247460743B84602310391013205923B
:101D40004246A2625BB2002B35DB002000283ADB62
:101D50000598AB68984202D3069A934233D9237E02
:101D6000DBB25A07E1D5A16A049A002A08D0501CB8
:101D700004901170012E03D9901C0490090A51702F
:101D8000069A0192013206920122002ADAD10699BE
:101D9000059A9142D6D34946C888D907D2D5039926
:101DA000002906D0481C039008788046012EBED832
:101DB000C4E78046C2E701235B4263838133237615
:101DC00013204042C2E7237E9B07FCD003232376E7
:101DD00009B00CBC90469946F0BD04204042F7E79C
:101DE000B20A00003C420000CD130000144A6623F2
:101DF0009382116A090C136A9B0F9B07090411480F
:101E000001400B4302210B43136293691B0C1B041B
:101E1000FE21C9030B4046210B439361137F2739F1
:101E20000B401377064BDB689B07FBD5044BDB6845
:101E30005B07FBD5024BDB681B07FBD57047C04631
:101E4000000800400000FF0F02221F4B9A841E4B27
:101E5000DB68DB06FBD51D4A1B4BDA621C4B1B689B
:101E60009B0E3F2B28D09B02802292001A43164BD8
:101E70009A62932252009A844221E23A9954154A76
:101E80009A640022DA649B8C5B0718D50E4BDB68E2
:101E9000DB06FBD550230C4AD35C5B0707D45023E9
:101EA000D35CDB0703D45023D35C9B07F2D50A4BEA
:101EB0005B78DB09FBD17047FC22D201D7E7024BEC
:101EC000DB68DB06FBD5E5E70008004080BB0104CA
:101ED00024608000B7050E00000C0040024B034A4E
:101EE0005A6005221A60704710E000E0FFFFFF0013
:101EF00010B5014B984710BDDD1E000010B5C3683A
:101F00009A7BD20700D410BD01229A7303689847C8
:101F1000F9E70000024B9C466044800AC0B270475B
:101F200000D4FFBD064B984203D0064B984203D025
:101F30007047054B1960F8E7034B5960F8E7C04656
:101F4000002C004200300042A801002010B50E4BCA
:101F500098470330C0B20023012B0BD89A00D21847
:101F600091000A4A8A5C904202D00133DBB2F3E767
:101F700058B207E0A422520005490020054B9847BB
:101F80000120404210BDC046151F0000584200000D
:101F900080420000CD13000070B506000C00080060
:101FA0003F4B98470500F4608D223E4901203E4B8F
:101FB0009847E37BDB09FCD123889B0704D50023EA
:101FC0002380E37BDB09FCD101232380E37BDB0956
:101FD000FCD1AA0052199100344B5B185A88228018
:101FE00019792172DB8863810C231340082B39D0C7
:101FF000002B43D12D4AAB0058198100080051181D
:10200000898921831218138A638301236373310042
:102010002000274B98472000264B98471230C0B22B
:1020200043B2002B0ADB1F21014001228A4080219C
:10203000214C6250BFF34F8FBFF36F8F002B07DB34
:102040001F21014001228A40C02149001A4C6250E0
:10205000002B05DB1F2318401E3B8340164A1360EC
:10206000002070BD114AAB005819810008005118BA
:10207000C968A16112181369E361C6E7042BC4D1D2
:102080000A49AB00581982008A18107B2076127C0E
:1020900062765D19AB00C9180B7A2375B5E7C046A7
:1020A0004D1F000080420000CD1300005842000088
:1020B000251F0000151F000000E100E00020704710
:1020C00010B5024B1868024B984710BDA8010020BC
:1020D000FD1E000010B5024B5868024B984710BD1A
:1020E000A8010020FD1E000000207047124B1A6856
:1020F000530B1F210B40900C0140D00D07220240D2
:102100001F2B12D01F2912D0072A12D09B010B437C
:1021100012031343094A1385D37803210B43D37069
:10212000D3780C210B43D37070471A3BEAE702398E
:10213000EAE7023AEAE7C046246080000050004126
:1021400010B5837C0F221340C17C083A0A40012A53
:102150000DD01A000832520119498C4662441021F0
:10216000D1715B01174A94466344197010BD4A0649
:102170000CD5C27C40218A43C2741A000832520135
:102180000F4CA4466244802414715171C27C082112
:102190008A43C2745A010C49891800248C728C76C7
:1021A00008335B0106498C4663446F21D971054BA6
:1021B0009C4662441170054B9B68807C9847D5E72C
:1021C0000050004108510041B0010020B002002041
:1021D00010B5827C0F23134020228A40D2B25B01CB
:1021E00005498C4663441A70044B1B698268807CE5
:1021F0000121984710BDC04608510041B00200209F
:1022000010B5837CFF2B02D0C27C520600D410BDD7
:10221000C27C4024A243C274024A14698268180036
:10222000A047F4E7B0020020F0B583B0847C0F2310
:102230002340184D2E8801AD2E80FF2C1ED0C47C6B
:1022400064061BD500291BD01C0008346401124D04
:10225000AC4664448025257101AD6E5C1C000834D9
:1022600064010D4FBC466444E671695C5B010B4C34
:10227000A446634419701100094B984703B0F0BDA0
:102280001C0008346401044DAC466444402565716B
:10229000E2E7C0469442000000500041085100416E
:1022A00001220000F0B583B0837C0F2213403C4A2A
:1022B000948801AA14805A013A4CA418002933D0FA
:1022C0001A0008325201384D525D12090725154097
:1022D000C27C072616400A01A218947AE4B2022DA5
:1022E0002AD0A40744D5947A0225AC43947201AC59
:1022F000655C1A00083252012B4FBC466244D5710E
:10230000625C5B01294CA44663441A70012E45D1DE
:10231000C37C5B0642D5C37CDB0999423ED00022D8
:102320001900234B984739E01A00083252011E4D1C
:10233000555D07221540CBE7E507D2D5947A0125F4
:10234000AC43947201AC655C1A0008325201164E1F
:10235000B4466244D571625C5B01144CA44663448C
:102360001A704B1E9941C9B20422114B984715E0CF
:102370005A00521812010B4882180020907201A8CE
:10238000445C1A0008325201074DAC466244D471D5
:10239000425C5B0105498C4663441A7003B0F0BD92
:1023A00094420000B001002000500041085100415B
:1023B0002922000070B5002417E0104DA600331943
:1023C000980010302818043003210D4B984732191B
:1023D0009300EB182633FF221A703619B300ED185C
:1023E000273500232B700134E4B2102CE5D980226C
:1023F000520000210348044B984770BDB0020020F2
:1024000001220000B0010020CF400000F0B5C64618
:1024100000B505000E00837C0F241C406201564B62
:102420009B18002958D059698904890C2B8A534A72
:10243000934253D0013B1BB20B40EA7C0727174065
:10244000002E07D02200083252014D4884466244D3
:102450000220D071AA6894466144A9606A689142DA
:102460004ED292B28BB2D21A92B2EB7C9B0637D587
:102470002B8A98469A4200D890462B689C46614425
:102480004246E8683F4B9847E96862013A4B9B181F
:1024900019616301384AD218516943469B049B0C69
:1024A000890B89030B4353615169374B0B405361CF
:1024B000002E07D1012F5DD04A22630133498C469B
:1024C00063441A70083464012D4B9C466444802395
:1024D000637104BC9046F0BD0021A7E71BB2ABE7D7
:1024E00080239B019A4207D890462B6859186201B5
:1024F000214B9B181961CCE780239B019846F4E798
:10250000EA7CD2060FD5EB7C10229343EB74620178
:10251000194B9B185A69920B9103596159691A4AD0
:102520000A405A61C4E7012F0DD06401184A94464D
:1025300064444A2222702A8A93420BD00021280048
:10254000144B9847C5E76401114A944664444B22F2
:102550002270F0E7EB7C40229343EB740E4BDB6878
:10256000A87CA96898470028B3D1EB7C402213438C
:10257000EB74E3E74E22A0E7B0010020FF03000068
:1025800000500041BD400000FF3F00F009510041F4
:102590000851004101220000B0020020F8B5DE46DB
:1025A00057464E464546E0B504000F00837C0F2594
:1025B0001D40002959D06A01714B9B185B681B01B3
:1025C0009B0C9A46002F53D06A016D4B9B185B6899
:1025D0009B049B0C9846268A6A4B9E4201D0013E82
:1025E000B6B2434633409B46E37C07221A409146ED
:1025F000002F07D02B0008335B01634A94466344E5
:102600000122DA71E37C9B0611D56268002A0ED0A4
:1026100092B22389D21A92B22368A1688C4663448D
:102620001800E168934500D25A46584B98476368B2
:10263000002B20D1E27CD2061DD5E37C10229343EF
:1026400020221343E3744E496A01E3685350238AFE
:102650008A1851689B041B094D4801400B43536085
:1026600053689B0B9903516047E000239A46A9E702
:1026700000239846AFE7002F1DD0228A93451AD237
:10268000E37C10229343E374A3684344A3604B4666
:10269000012B66D06B013F4A9446634425221A7091
:1026A000002D03D16D01364BE268EA500021200075
:1026B000394B984733E0A2685244A2609342E6D96E
:1026C0009BB291B25B1A9BB2E17C89062DD5218A1F
:1026D0008B4200D81900E0686B01294A98506B01C1
:1026E0002748C01842688B041B0929490A40134334
:1026F000436043689B0B9A034260002F08D14B460E
:10270000012B35D025226B0124498C4663441A7075
:1027100008356D011C4B9C46654440232B713CBC25
:1027200090469946A246AB46F8BD218A8B420BD90A
:10273000802189018B420FD8B343190023689A186E
:102740006B010F481A50CAE78B4208D2E17C202067
:102750000143E1741900F1E780218901EEE71900D6
:10276000ECE76B010B4A944663442D221A7097E7FD
:102770006A01034B9B1800229A762D32C3E7C046AC
:10278000B0010020FF03000000500041BD400000E8
:10279000FF3F00F0085100410122000009510041B3
:1027A00070B5894B1D8CADB2002D01D00024BFE067
:1027B000998B1B8B0B405A070DD49A0515D41A061A
:1027C00037D470221A423ED11A0757D4DB0700D5FE
:1027D00068E0002306E004227B4B9A837B4B1B6856
:1027E00098470123002BE1D070BD774B784A9A833C
:1027F0009A82923AFF3A1A830023062B12D8580184
:10280000744A121812891207120F032A02D00133D8
:10281000DBB2F2E76F4B1B1819894904490D0022FE
:102820001A8100E00021694B5B680320984701236F
:10283000D8E78022644B9A83644B5B6800210520B3
:1028400098470123CEE7604B9A839A82604A1A83A5
:10285000614B9B8C9B060CD45F4BDA68D0231340F2
:10286000D02BF9D1594B5B680021022098470123F6
:10287000B8E7594BDB68DB06FBD5F3E7524B002189
:10288000802252009954F83A9A8368329A82504AC8
:102890001A83524B98474D4B5B68002101209847A3
:1028A00001239FE7484B4A4A9A839A82923AFF3A19
:1028B0001A83464B5B68002104209847012391E767
:1028C000DA0607D45A0608D49B062FD50021444BBC
:1028D00098472BE0434B984728E00121404B98470D
:1028E00024E05A060FD41A0711D49A0713D4C17CD6
:1028F00007220A40012A19D15A0710D4DB0615D540
:10290000384B984712E00121354B98470EE00121E2
:10291000354B98470AE00121344B984706E00021E7
:10292000314B984702E000212D4B98470134E4B227
:10293000102C00D958E7254BA2001119880001007E
:102940001030181804305B1826331B78FF2BEDD09D
:10295000827C0F23134001229A402A42E6D01A00BB
:102960000832520118498C466244D2795B012049F1
:102970008C4663441B781340D8D0C27C4721114059
:1029800001299DD052B2002AABDB9A06CBD45A075C
:102990000DD4DA070FD4C17C07220A40012AC5D121
:1029A0001A070CD4DB06C1D50E4B9847BEE70021B1
:1029B0000D4B9847BAE701210E4B9847B6E7012126
:1029C000094B9847B2E7C04600500041B0020020D2
:1029D00001020000B001002000080040B523000003
:1029E000D121000041210000A52200000D2400009B
:1029F000095100419D25000000B583B0002201ABC4
:102A00005A70214B9B78DB071BD41F4B9B789B078D
:102A1000FBD11D4B1B789B070CD51B4A1378022159
:102A20008B431370184B9B789B07FBD1164B9B78FD
:102A30009B07FBD40122144B1A70134B9B789B0706
:102A4000FBD1114B9B78DB07FBD4104B104A1A606B
:102A50005A609A60DA601A610E4B98470E4B98479D
:102A60000422094B1A70084B9B789B07FBD1064A3E
:102A70000A4B536201AB5B7801210B43DBB213813C
:102A8000002003B000BDC04600500041B00200204D
:102A9000E9200000B5230000ED200000B001002077
:102AA000104B9B789B0719D10E4B9B789B07FBD152
:102AB0000C4B1B78DBB29A0708D402221343DBB21B
:102AC000084A1370074B9B789B07FBD18022064B6B
:102AD0001A60064A034B1A830020704711204042B7
:102AE000FBE7C0460050004100E100E08D0200001D
:102AF000024A138901218B43138170470050004122
:102B000080235B421843C0B2014B98727047C046A5
:102B100000500041F0B5C64600B590460F23034073
:102B200047B2002B05D0002F01DB1D0002E0DD1DA8
:102B300000E01D002E00032421401C00072B00D9BB
:102B400070E0AA0094466544AA0094463D4D654451
:102B500026352D78FF2D68D1002916D1002B03D002
:102B6000002F01DB0733DBB29D00EB189D00354BD6
:102B70005B1926331B78FF2B5AD163001B199D006C
:102B8000314B5B199B68002B55D0002F31DB630064
:102B90001B199D002C4B5B199B685D1EAB41DBB282
:102BA000002B09D0002F2EDB63001B199D00264B44
:102BB0005B191B8A434541DB002F2BDB63001C198B
:102BC000A500214B5B199B689C461E4CB500AF19B4
:102BD000BB001F00E31862461A6242469A84013124
:102BE00027331970E41926342070002004BC904665
:102BF000F0BD63001B199D00134B5B19DB685D1E64
:102C0000AB41DBB2CCE763001B199D000E4B5B1997
:102C10005B8ACFE763001C19A5000B4B5B19DB68CF
:102C20009C46D2E712204042E0E714204042DDE714
:102C300014204042DAE713204042D7E713204042F5
:102C4000D4E7C046B002002094420000F8B5050069
:102C50000F24044047B2F90F002C05D0002F01DBF0
:102C6000220002E0E21D00E02200160093009B1803
:102C700098001030214B18180430072C2ED89300E0
:102C80009A1893009C461D4B634426331B78FF2BF8
:102C900024D003221A4B9847B20092199100174B87
:102CA0005B182033DA7907231340012B17D0002F4C
:102CB0001BDB144A08356D01AB5C07218B43AB5419
:102CC0000E4BB100881982009A182732002010702C
:102CD0008E19B2009B182633FF221A70F8BD0835F2
:102CE0006D010022074BEA54EAE7064A0834640102
:102CF000A35C70218B43A354E2E7C046B0020020DE
:102D00002922000000500041F0B50F23034040B2DB
:102D1000002B05D0002801DB1E0002E0DE1D00E0D4
:102D20001E003200190008314901AF4C0C5DE4B2BD
:102D3000072B00D948E1B500AD19AE00AB498919A0
:102D400026310978FF2900D141E15901A84E7618B2
:102D50009500AD18AF00A549C9192031CD790721DB
:102D60002940012936D0002800DAC5E0610700D0EB
:102D700036E19E489500AF18B90041182031C97955
:102D80004907490F0C43190008314901964FCC55AA
:102D9000AA1891004018808C820396490A4080212D
:102DA0008900884200D9F2E00139FF39884200D910
:102DB00000E1802800D9FFE0402800D9FEE020286B
:102DC00000D9FDE0102800D9FCE0F83981428941A2
:102DD0004942DDE07631214200D0FBE019000831A4
:102DE0004901112480480C548049C919898C8803F1
:102DF000804C20408024A400A14210D8013CFF3C1C
:102E0000A14227D8802927D8402927D8202927D888
:102E1000102927D8F83C8C42A441644200E00724E2
:102E20002407204370608804800C8024A400A14201
:102E30001AD8013CFF3CA14254D8802954D84029DB
:102E400054D8202954D8102954D8F83C8C428941B0
:102E500049420AE00624E3E70524E1E70424DFE72A
:102E60000324DDE70224DBE7072109070143716141
:102E70001900083149015C4884466144402048718A
:102E800080240C715A4D5B01EB18002199729976E0
:102E9000564E9400A318990071180B0026331B7826
:102EA0000F273B400F6A59014F51A2189400361961
:102EB000B28C6C186568920412094F4E35402A4353
:102EC00062606268920B9503656008335B0163443E
:102ED000B0221A715871494B9C46614410230B7003
:102EE000002066E00621C0E70521BEE70421BCE71B
:102EF0000321BAE70221B8E77021214200D06CE03B
:102F00003A489500AF18B90041182031C9794907EE
:102F1000490E0C43190008314901334FCC55AA180A
:102F200091004018818C8A04920C8020800081429C
:102F300010D80138FF3881421FD880291FD8402976
:102F40001FD820291FD810291FD8F8388842894156
:102F5000494200E0072109070A4372611A0008325A
:102F6000520121498C466244802111715A01204B43
:102F70009B1800229A7600201BE00621EBE7052132
:102F8000E9E70421E7E70321E5E70221E3E7072179
:102F900009070A4372601A000832520112498C462E
:102FA0006244402151715B01114AD31800229A7288
:102FB0000020F0BD0621EBE70521E9E70421E7E762
:102FC0000321E5E70221E3E712204042F1E7122066
:102FD0004042EEE714204042EBE714204042E8E78D
:102FE00014204042E5E7C04600500041B0020020F6
:102FF000B001002000C0FF0FFF3F00F00951004169
:10300000F0B50F23034040B2C40F002B05D00028B9
:1030100001DB1A0002E0DA1D00E01A001500900042
:10302000801882001032454882180432072B00D9DC
:1030300080E0012917D0002939D0AA005219910047
:103040003E4B5B1826331A780F23134008335B017D
:103050003B4A9446634498791023A3401840431E8A
:103060009841C0B2F0BDAA0051198B00C318263395
:103070001B780F210B401026A640F6B2190008312C
:1030800049012F4FBC4661444E712021A140CCB272
:1030900059012C4B9C4661440C7052199300C31883
:1030A0002033DA7908210A43DA710020DAE7937CC9
:1030B0000F310B4019000831490121488446614411
:1030C00088791021A140084224D0C9B218000830E4
:1030D0004001604401712021A140CEB25D011A4F30
:1030E000BC4665442E70C07908420AD019000831E8
:1030F0004901134884466144CE710120A040C0B20A
:103100000871D07C07210140012905D0D37C08211A
:103110008B43D3740020A5E708335B0108498C4634
:103120006344997930231942F4D1030008218B4379
:10313000D374EFE71220404294E7C046B00200206B
:1031400000500041095100410851004170B50E0086
:103150000F2404406201184B9B1819685D68AD0488
:10316000AD0C072C1FD8002E20D0230008335B01A4
:10317000124A9B5C112B1CD1230008335B0194463F
:103180006344DB79DB0601D4002070BD08223000E7
:103190000B4B984708346401084B9C466444102349
:1031A000E3712800F1E712204042EEE7122040428E
:1031B000EBE713204042E8E7B00100200050004157
:1031C000BD400000F0B5DE4657464E464546E0B5E8
:1031D00085B08046057A0F232B406DB2EA0F9146E9
:1031E000002B05D0002D01DB180002E0D81D00E007
:1031F000180006005F4982001718BC0010340C1933
:103200000434B80009188A8C5B498A4242D0571EA0
:10321000BFB2414649680F40072B00D9A1E04346A1
:103220001B68564883420CD9C818019054488446FC
:103230000198604505D89B0703D1002D2CDB9142F6
:103240002DD2B3009B199A004A4B9B181B6A002B86
:1032500000D189E001230193002D0ADB002F08D063
:10326000B3009B199A00434B9B181B6A002B00D19B
:103270007DE0B200921991003E4B5B182033DB7960
:103280001B070FD5022005B03CBC90469946A246CC
:10329000AB46F0BD1700BCE700230193DCE7002339
:1032A0000193D9E703A8374B9847B20092199100D0
:1032B000304B5B182033DB795B0630D4B3009B19AD
:1032C0009A002C4B9B46934420235B449A46DB791F
:1032D000402213435246D37103A82B4B98475B46B9
:1032E000424612685A61424652689A6100235A4621
:1032F000D3614B46DB015246D2797F211140019ABE
:1033000052010B4320218B431A435346DA71434643
:103310005B7A002B08D0002F1BD0002205E003A809
:10332000194B98470120AEE70022B3009E19B10067
:10333000104B5B1820331101DA79102082430A43C5
:10334000DA71002D07DB00212000104B9847002088
:1033500099E70122E9E7002120000D4B9847002062
:1033600091E7122040428EE7132040428BE7122063
:10337000404288E7B0020020FF030000FFFFFF1F6C
:10338000FF7F00200D0900001B0900009D250000A3
:103390000D240000002906D0012806D0002801D104
:1033A000034B196070470349F6E7014B5960F9E791
:1033B000B0020020E9200000002908D0002808D031
:1033C000012809D0022806D1054B196103E00549FF
:1033D000F4E7034B99607047014BD960FBE7C046A7
:1033E000B0020020E920000010B5014B984710BD45
:1033F000A127000010B5014B9847FEE7150100001A
:1034000010B58B79CC7924021C43012A0AD04B7861
:10341000212B09D1072C0AD1002322000549064C93
:10342000A04710BD0020FCE70D204042F9E7012035
:103430004042F6E71806002079390000F0B583B065
:1034400005000F0014008E79CB791B021E43234B1D
:1034500098477B78202B05D0222B26D00D20404288
:1034600003B0F0BD072E31D1002C17D00722010088
:1034700068461B4B98471B4B9B68002B03D0684644
:103480009847002825D0174B009A1A606A46928800
:103490009A806A4692799A710020E1E7002332000F
:1034A00001002800104CA047DAE700230022002189
:1034B00000200D4CA0470B4BDB68002B0BD0BA78DB
:1034C000F8780002104398470020C9E701204042E5
:1034D000C6E70020C4E70020C2E7C046053F000061
:1034E000BD400000180600207939000070B50C7846
:1034F000650903232B40012B14D10D794B791B0255
:103500002B430B4D2D7CAB4203D0094D6D7CAB4260
:103510000BD164B2002C02DB064B984770BD064B02
:103520009847FBE70A204042F8E70A204042F5E7C7
:10353000180600203D34000001340000F8B5CE46E6
:10354000474680B50E0087680868002398464346C2
:10355000012B45D800284BD083784279022A01D02C
:103560000A2A48D1C1464246BA5C934246D0FF2A55
:1035700047D14246BB5405227168254B9847040049
:103580000CE04B46FB189D702800224B9847346096
:10359000207820187168204B98470400002C13D025
:1035A000A578E178227963791B02D21892B22800BB
:1035B0001A4B9847002827D16BB2002BE1DB3D71F5
:1035C0002800144B9847E2E730680378C0180422BB
:1035D00071680F4B984743460133DBB29846B6E714
:1035E00001220F4B5A7500200CBC90469946F8BD3D
:1035F0000A204042F8E70A204042F5E71220404204
:10360000F2E71C204042EFE714204042ECE7C046BE
:10361000213F0000A11100003F3F00000D110000FC
:103620001806002070B5856800291AD00B685B79F0
:10363000022B18D00A2B24D1002401E00134E4B27B
:10364000012C12D82B5DFF2BF8D0FF232B552B1903
:103650009878FF28F2D00C4B98472E19FF22B270B1
:10366000ECE70024ECE70024EAE72879FF2803D000
:10367000054B9847FF232B710022044B5A750020FD
:1036800070BD0A204042FBE77511000018060020BB
:1036900010B501290AD0002904D002290AD11B2023
:1036A000404210BD1100054B9847FAE71100044B4A
:1036B0009847F6E70D204042F3E7C0463D3500004D
:1036C0002536000010B50B4B984701280ED80A4844
:1036D0000A4BC3610300103303621830084B98474C
:1036E00008490120084B9847002010BD1120404296
:1036F000FBE7C046113F000018060020913600008D
:10370000A93E000000000020113E000010B5064B4D
:103710001C6905E0002201212000636898472468A5
:10372000002CF7D110BDC0463C06002010B5064B5A
:103730005C6800E02468002C04D06368002BF9D09A
:103740009847F7E710BDC0463C06002070B506005C
:103750000D00074BDC6800E02468002C06D063688D
:10376000002BF9D0290030009847F5E770BDC0461E
:103770003C060020F8B507000E0015000B4B9C68B6
:1037800000E02468002C0DD06368002BF9D02A00DB
:10379000310038009847002806D00A30F1D00120C7
:1037A000404200E00020F8BD0120FCE73C0600207C
:1037B00010B5014B984710BD2D37000010B5010022
:1037C00001220020014B9847002010BD75370000F2
:1037D00010B5014B984710BD0111000010B5040051
:1037E0000378002B12D14378052B12D0092B0DD171
:1037F0008278104BDA768278C3781B02134306D1A5
:1038000003210C4B997601200B4B984710BD0421E6
:10381000F7E78078094B9847A278E3781B021343B7
:1038200006D00321034B99760120034B9847EDE71F
:103830000221F7E73C0600204D370000D137000099
:1038400010B5002903D0012906D0002003E01000A4
:10385000034B9847002010BD1000024B9847FAE731
:10386000DD370000BD37000030B583B0021E14D034
:103870001E4B1B68186859681D4B9847002832D0AA
:103880008178C3781B02C91889B2411801910422BA
:10389000184B98470090FF240DE0174B98470120E4
:1038A0001FE02C0000980378C018009004220199B2
:1038B000104B98470090009B002B11D09D78AC4294
:1038C000F0D00A4B1C69002CEBD06A460021200086
:1038D00063689847002801D02468F4E72C00E1E7EA
:1038E000012003B030BD0020FBE7C0463C060020AD
:1038F000653F0000213F00000D37000010B50D4B63
:1039000098470D4C0223A3760023E37663770020CB
:103910000A4B9847207F0A4B98470A4A002100200B
:10392000094CA047094A02210020A0470020084B6B
:10393000984710BD0D3700003C06002075110000AF
:1039400061110000C53D00007D13000041380000FA
:10395000A111000010B5002802D0012804D010BD2C
:103960000020034B9847FAE7024B9847F7E7C04619
:103970004D370000FD38000010B584B001AC019156
:103980000292207263722000014B984704B010BD70
:10399000F111000010B504000A781F231340022B18
:1039A00012D18A79CB791B02134301D000200CE09D
:1039B00008790021054B98470123002200212000AF
:1039C000034CA047012000E0002010BD15130000AB
:1039D0007939000010B504000A781F231340022B28
:1039E00012D18A79CB791B02134301D000200CE05D
:1039F00008790121054B984701230022002120006E
:103A0000034CA047012000E0002010BD151300006A
:103A10007939000070B582B005000C002A4B1A6895
:103A200010685168DA7E294B9847002845D00090ED
:103A30008178C3781B02C91889B241180191042208
:103A4000234B984700280BD1002039E000980378D9
:103A5000C0180090042201991D4B984700282ED0D1
:103A60008378A342F2D1C378AB42EFD10090164BDA
:103A70001E69002E1FD06A460121300073689847E6
:103A8000002801D03668F4E773686A4600213000E8
:103A90009847002816D1002D05D00122A2400A49DE
:103AA0004B7F13434B770023002200210020094C59
:103AB000A047012004E0002002E0002000E00020F8
:103AC00002B070BD0020FBE73C060020653F00000F
:103AD000213F00007939000010B504004B780B2B12
:103AE0002DD89B00174AD3589F460123002200215E
:103AF000154CA04743425841C0B210BD8878134BC3
:103B000098470028F9D001230022002120000E4C04
:103B1000A04743425841C0B2EFE70D4B9847ECE74E
:103B20000C4B9847E9E70A794B791B0213438A78D3
:103B3000C878000210431900074B9847DDE70020C2
:103B4000DBE7C046FC42000079390000693800001C
:103B500095390000D5390000153A000070B5050010
:103B60008B79CC7924021C43122C00D912240B4BE4
:103B70001B68186859680122094B984700280BD028
:103B80000023220001002800064CA047002801D194
:103B9000012070BD0020FCE70020FAE73C06002071
:103BA000213F00007939000070B505008B79CE798E
:103BB00036021E438A78134B1C7F013C344061421D
:103BC0004C41E4B21B68186859680132D2B20E4BFE
:103BD0009847002813D08278C3781B02D21892B27B
:103BE000964201D832000024230001002800074C2F
:103BF000A047002801D1012070BD0020FCE7002073
:103C0000FAE7C0463C060020653F00007939000015
:103C100070B505008B79CE7936021E438A78104B39
:103C20001C7F013C344061424C41E4B21B6818687F
:103C300059680C4B984700280FD00278964201D85B
:103C400032000024230001002800074CA047002870
:103C500001D1012070BD0020FCE70020FAE7C0463A
:103C60003C060020A93F00007939000010B5CB7850
:103C7000022B08D0032B09D0012B01D0002001E03A
:103C8000044B984710BD044B9847FBE7034B9847FC
:103C9000F8E7C0465D3B0000A93B0000113C000076
:103CA00030B583B004000A781F231340DAB2012A2A
:103CB00003D9022B12D000200EE0002301930D4DFA
:103CC000022201A968690C4B984769690023022206
:103CD00020000A4CA047012003B030BD0879022122
:103CE000074B9847002803DB012318400190E6E7C3
:103CF0000020F1E73C060020BD40000079390000BB
:103D00001513000070B50500164B1C695A7F017928
:103D100043791B020B431A41D3070AD5002C1FD04D
:103D20002A00022120006368984700280DDA2468E1
:103D3000F4E70C4B002259690A70596900230132DB
:103D40000020094CA04701200BE0064B5A69107077
:103D50005969002301220020034CA047012000E004
:103D6000002070BD3C0600207939000010B54B786A
:103D7000062B0DD007D9082B0DD00A2B16D1080021
:103D80000B4B984706E0002B10D10A4B984701E0F7
:103D9000094B984710BD094BDA7E59690A70596979
:103DA00000230122064CA0470120F3E70020F1E7A1
:103DB000053D0000A13C00006D3C00003C060020D9
:103DC0007939000070B505000C0000220D4B9847B2
:103DD000431C14D0012813D023781F22934304D00E
:103DE000DBB2802B06D000200AE021002800064B21
:103DF000984705E021002800044B984700E0002088
:103E000070BDC04675370000D93A00006D3D000016
:103E100010B5012809D0002802D002280AD010BD10
:103E200007480430074B9847F9E705480830054B29
:103E30009847F4E702480C30024B9847EFE7C0463A
:103E40003C0600202114000070B50400431E984178
:103E5000C0B20C4A0C490D4B98470D4B98470028AF
:103E60000EDB0C4D2022002128000B4B98476C6183
:103E70000A4900200A4CA0470A490120A047002017
:103E800070BDC046550300002C430000CD13000058
:103E9000711000003C060020CF400000B137000048
:103EA000DD1000005539000010B501000248103047
:103EB000024B984710BDC0463C060020211400006C
:103EC00010B50B4B9B7E002B0CD100280DD0084B5E
:103ED00018600268D2791A7701229A76054B9847C2
:103EE000002010BD04204042FBE709204042F8E7D3
:103EF0003C060020E910000010B5014B984710BDAA
:103F0000F5100000014B58697047C0463C06002080
:103F1000024B987EC30600D5102070473C06002057
:103F200010B5884207D20378012B06D94478944211
:103F300002D0C018F5E7002010BD0020FCE7884241
:103F400009D20378012B08D94278042A07D0052A20
:103F500002D0C018F3E7002070470020FCE70020E3
:103F6000FAE7000070B50C00150002220D4B9847CF
:103F7000002812D0A0420FD20378012B0ED943782B
:103F8000022B0DD14379AB4207D08378C27812025D
:103F90009B189BB2C018EDE7002070BD0020FCE725
:103FA0000020FAE7213F000070B50D001600002444
:103FB000A8420ED203222900084B9847002809D0B6
:103FC0000378012B07D9B44204D00134E4B2C018FD
:103FD000EEE7002070BD0020FCE7C046213F000056
:103FE00010B506484030064B9847064B98470648A0
:103FF000064B9847064B984710BDC0465C0600200C
:10400000493E0000C536000008000020C13E000007
:10401000F93E000010B5014B984710BDE13F00008C
:1040200010B50023002802D000F004F8431C18004B
:1040300010BDC046414208401C2101231B04984288
:1040400001D3000C10391B0A984201D3000A083929
:104050001B09984201D30009043902A2105C401ADE
:104060007047C0461B1C1D1D1E1E1E1E1F1F1F1F2E
:104070001F1F1F1F70B500260C4D0D4C641BA41094
:10408000A64209D1002600F05DF90A4D0A4C641BD6
:10409000A410A64205D170BDB300EB589847013675
:1040A000EEE7B300EB5898470136F2E750430000C3
:1040B000504300005043000054430000002310B55B
:1040C0009A4200D110BDCC5CC4540133F8E7030020
:1040D0008218934200D1704719700133F9E700004C
:1040E0002E2E2F68616C2F7372632F68616C5F6472
:1040F00061635F73796E632E630000002E2E2F685C
:10410000616C2F7372632F68616C5F7370695F6D90
:104110005F73796E632E63002E2E2F68616C2F7390
:1041200072632F68616C5F74696D65722E63000045
:104130002E2E2F68616C2F7372632F68616C5F7510
:10414000736172745F6173796E632E6300000000A7
:104150002E2E2F68616C2F7574696C732F737263C8
:104160002F7574696C735F6C6973742E6300000043
:104170002E2E2F68616C2F7574696C732F737263A8
:104180002F7574696C735F72696E676275666665B8
:10419000722E63002E2E2F68706C2F6461632F685F
:1041A000706C5F6461632E63000000000E0000000D
:1041B0000E0000002E2E2F68706C2F6569632F682B
:1041C000706C5F6569632E630000000003000000EF
:1041D00004001040000003002EFF0000000000005B
:1041E00000000000000000000000000000000000CF
:1041F00000000000000000000000000000000000BF
:1042000000000000000000000C0020000000020080
:10421000000000003B00FF01000C00200000000235
:1042200000000000000500FF01010C00300000004C
:104230000200000000001700FF0102002E2E2F6870
:10424000706C2F736572636F6D2F68706C5F736530
:1042500072636F6D2E6300000300680300000000AE
:104260000000000070170000000000000400680358
:1042700000000000000000007D00000000000000C1
:104280002E2E2F68706C2F74632F68706C5F7463B0
:104290002E630000254A000004080000D805002015
:1042A0000000000040000000980500200000000011
:1042B0004000000058050020000000004000000001
:1042C000180500200000000040000000D804002075
:1042D00000000000400000009804002000000000E2
:1042E00040000000580400200000000040000000D2
:1042F0001804002000000000400000003E3B0000C9
:104300001A3B00003E3B0000203B00003E3B00000B
:10431000EA3A00003E3B00003E3B00003E3B00000E
:10432000FC3A00003E3B0000263B00002E2E2F757D
:1043300073622F6465766963652F75736264632E9B
:1043400063000000F8B5C046F8BC08BC9E46704744
:10435000DD000000F8B5C046F8BC08BC9E467047BA
:04436000B5000000A4
:1043640000000000ED340000100000206500002073
:104374001201000202000040EB03042400010000CB
:104384000001090243000201008032090400000117
:104394000202000005240001100524010100042488
:1043A400020205240600010705820340000A0904ED
:1043B4000100020A00000007050102400000070591
:0843C40081024000000000002E
:00000001FF
