:100000000C9464000C948C000C948C000C94650A85
:100010000C94650A0C94650A0C948C000C948C006A
:100020000C948C000C948C000C948C000C948C0020
:100030000C948C000C948C000C948C000C948C0010
:100040000C9485040C948C000C94B8020C94EA0275
:100050000C948C000C948C000C948C000C948C00F0
:100060000C948C000C948C0000000008000201002D
:100070000003040700000000000000000102040863
:100080001020408001020408102001020408102002
:10009000040404040404040402020202020203032E
:1000A00003030303000000002300260029000000D2
:1000B0000000250028002B0000000000240027007D
:1000C0002A0002011A03110111241FBECFEFD8E04C
:1000D000DEBFCDBF12E0A0E0B1E0E0E6FEE102C08D
:1000E00005900D92AA3CB107D9F724E0AAECB2E042
:1000F00001C01D92A231B207E1F710E0C3E6D0E0E3
:1001000004C02197FE010E941D0FC136D107C9F717
:100110000E9448030C94230F0C94000026E040E852
:1001200055E260E070E086E293E00E94500240E811
:1001300055E260E070E08EEC92E00E94630B6EECA2
:1001400072E08DEE92E00E94D50748E161E08DEE0D
:1001500092E00C94D908CF92DF92EF92FF920E9426
:10016000CF04C090CA02D090CB02E090CC02F090B5
:10017000CD02DC01CB018C199D09AE09BF09803D80
:100180009740A105B105C8F141E061E08DEE92E034
:100190000E9403097C016EE071E086E293E00E9418
:1001A00096034AE050E0B70186E293E00E947304B0
:1001B00041E060E08DEE92E00E9470086B017C01EE
:1001C0006AE171E086E293E00E949603C701B601FE
:1001D0000E941501062E000C770B4AE050E086E2E3
:1001E00093E00E9473040E94CF046093CA0270934C
:1001F000CB028093CC029093CD02FF90EF90DF90E2
:10020000CF900895EDEEF2E01782108681E08187AD
:100210001286838720E04BE06AE08EEC92E00C943B
:10022000380B8EEC92E00C94DF0A0E941C0168945B
:10023000B1110C946E0108950E94530188F09F57EC
:1002400098F0B92F9927B751B0F0E1F0660F771FFA
:10025000881F991F1AF0BA95C9F714C0B13091F0F0
:100260000E946D01B1E008950C946D01672F782F05
:100270008827B85F39F0B93FCCF3869577956795B5
:10028000B395D9F73EF490958095709561957F4F21
:100290008F4F9F4F089557FD9058440F551F59F0A9
:1002A0005F3F71F04795880F97FB991F61F09F3F63
:1002B00079F087950895121613061406551FF2CF8C
:1002C0004695F1DF08C0161617061806991FF1CFDC
:1002D00086957105610508940895E894BB27662703
:1002E0007727CB0197F90895FC01918D228D892FF5
:1002F00090E0805C9F4F821B91098F73992708952E
:10030000FC01918D828D981731F0828DE80FF11DDF
:10031000858D90E008958FEF9FEF0895FC01918DFA
:10032000828D981761F0828DDF01A80FB11D5D9657
:100330008C91928D9F5F9F73928F90E008958FEFC5
:100340009FEF0895FC01538D448D252F30E0842FBD
:1003500090E0821B930B541710F0CF9608950197ED
:10036000089580E193E0892B49F080E090E0892BAB
:1003700029F00E94100381110C9400000895FC01E3
:10038000848DDF01A80FB11DA35ABF4F2C91848D1E
:1003900090E001968F739927848FA689B7892C9353
:1003A000A089B1898C91837080648C93938D848DA6
:1003B000981306C00288F389E02D80818F7D8083A9
:1003C0000895EF92FF920F931F93CF93DF93EC0169
:1003D00081E0888F9B8D8C8D981305C0E889F98901
:1003E000808185FD26C0F62E0B8D10E00F5F1F4F1C
:1003F0000F731127E02E8C8DE8120CC00FB607FC8E
:10040000FACFE889F989808185FFF5CFCE010E9476
:10041000BF01F1CF8B8DFE01E80FF11DE35AFF4FB5
:10042000F0829FB7F8940B8FEA89FB898081806204
:100430000AC09FB7F894EE89FF896083E889F9893B
:1004400080818370806480839FBF81E090E0DF9132
:10045000CF911F910F91FF90EF900895CF93DF936D
:10046000EC01888D8823C9F0EA89FB89808185FDAC
:1004700005C0A889B9898C9186FD0FC00FB607FC0D
:10048000F5CF808185FFF2CFA889B9898C9185FF4E
:10049000EDCFCE010E94BF01E7CFDF91CF9108954C
:1004A000CF92DF92EF92FF921F93CF93DF93EC01F5
:1004B0006A017B01122FE889F98982E08083411566
:1004C000514E61057105B1F060E079E08DE390E097
:1004D000A70196010E94C80EDA01C9010197A1097E
:1004E000B109B695A795979587959C01211580E14F
:1004F0003807A8F0E889F989108260E874E88EE18D
:1005000090E0A70196010E94C80EDA01C901019787
:10051000A109B109B695A795979587959C01EC859A
:10052000FD853083EE85FF852083188EEC89FD895B
:100530001083EA89FB89808180618083EA89FB8955
:10054000808188608083EA89FB89808180688083DC
:10055000EA89FB8980818F7D8083DF91CF911F9114
:10056000FF90EF90DF90CF90089580E090E00895A5
:100570001F920F920FB60F9211242F938F939F9378
:10058000EF93FF93E0913603F09137038081E09180
:100590003C03F0913D0382FD12C0908180913F03A6
:1005A0008F5F8F7320914003821751F0E0913F03DA
:1005B000F0E0EA5DFC4F958F80933F0301C080819E
:1005C000FF91EF919F918F912F910F900FBE0F9000
:1005D0001F9018951F920F920FB60F9211242F9310
:1005E0003F934F935F936F937F938F939F93AF93BB
:1005F000BF93EF93FF9386E293E00E94BF01FF91C8
:10060000EF91BF91AF919F918F917F916F915F918A
:100610004F913F912F910F900FBE0F901F90189503
:1006200086E293E00E94740121E0892B09F420E026
:10063000822F0895E6E2F3E01382128288EE93E0BF
:10064000A0E0B0E084839583A683B78380E391E044
:100650009183808385EC90E09587848784EC90E09B
:100660009787868780EC90E0918B808B81EC90E07F
:10067000938B828B82EC90E0958B848B86EC90E060
:10068000978B868B118E128E138E148E089508957B
:100690000E94DB040E9447030E948E00C1EBD1E060
:1006A0000E94AB002097E1F30E94B101F9CFCF92F5
:1006B000DF92EF92FF920F931F93CF93DF936C0122
:1006C0007A018B01C0E0D0E0CE15DF0581F0D801C2
:1006D0006D918D01D601ED91FC910190F081E02D9D
:1006E000C6010995892B11F02196EECF7E01C70135
:1006F000DF91CF911F910F91FF90EF90DF90CF90FE
:1007000008956115710579F0FB0101900020E9F76A
:100710003197AF01461B570BDC01ED91FC91028034
:10072000F381E02D099480E090E008950C9481031A
:10073000DC01ED91FC910190F081E02D09946EE3D4
:1007400071E00C9481030F931F93CF93DF93EC011F
:100750000E9481038C01CE010E949F03800F911F94
:10076000DF91CF911F910F9108958F929F92AF9239
:10077000BF92EF92FF920F931F93CF93DF93CDB76A
:10078000DEB7A1970FB6F894DEBF0FBECDBF7C01D8
:10079000FA01CB0119A2223008F42AE08E010F5D84
:1007A0001F4F822E912CA12CB12CBF01A5019401C9
:1007B0000E94C80EF901CA01015011096A3010F4F3
:1007C000605D01C0695CD8016C93232B242B252B21
:1007D00061F7B801C7010E948103A1960FB6F89492
:1007E000DEBF0FBECDBFDF91CF911F910F91FF9064
:1007F000EF90BF90AF909F908F9008952115310595
:1008000041F4DC01ED91FC910190F081E02D642F29
:1008100009940C94B5039A01462F50E060E070E013
:100820000C94FE030F931F93CF93DF93EC010E9470
:100830000B048C01CE010E949F03800F911FDF915A
:10084000CF911F910F910895CF92DF92EF92FF9277
:100850000F931F93CF93DF932115310581F4DC01B2
:10086000ED91FC910190F081E02D642FDF91CF910B
:100870001F910F91FF90EF90DF90CF9009942A3055
:10088000310501F577FF1DC06A017B01EC016DE2C6
:100890000E9498038C0144275527BA014C195D0921
:1008A0006E097F092AE0CE010E94B503800F911FD7
:1008B000DF91CF911F910F91FF90EF90DF90CF903C
:1008C00008952AE0DF91CF911F910F91FF90EF9053
:1008D000DF90CF900C94B5039A01AB01770F660BB4
:1008E000770B0C9424040F931F93CF93DF93EC01A9
:1008F0000E946C048C01CE010E949F03800F911F07
:10090000DF91CF911F910F9108951F920F920FB613
:100910000F9211242F933F938F939F93AF93BF9385
:100920008091C4039091C503A091C603B091C70301
:100930003091C30323E0230F2D3720F40196A11D2E
:10094000B11D05C026E8230F0296A11DB11D2093FD
:10095000C3038093C4039093C503A093C603B093CD
:10096000C7038091C8039091C903A091CA03B091B5
:10097000CB030196A11DB11D8093C8039093C903B9
:10098000A093CA03B093CB03BF91AF919F918F9176
:100990003F912F910F900FBE0F901F9018952FB77A
:1009A000F8946091C4037091C5038091C60390913F
:1009B000C7032FBF0895789484B5826084BD84B541
:1009C000816084BD85B5826085BD85B5816085BD4A
:1009D000EEE6F0E0808181608083E1E8F0E0108263
:1009E000808182608083808181608083E0E8F0E0A4
:1009F000808181608083E1EBF0E08081846080838E
:100A0000E0EBF0E0808181608083EAE7F0E08081C4
:100A10008460808380818260808380818160808324
:100A20008081806880831092C1000895FF920F93A7
:100A30001F93CF93DF938C01F62EC0E0CF15E1F02A
:100A4000D80115968D919C911697DC01ED91FC9142
:100A50000284F385E02D0995D82F6DE471E086E2DC
:100A600093E00E9496034AE050E06D2F86E293E007
:100A70000E941204CF5FE2CFDF91CF911F910F91BF
:100A8000FF900895DF92EF92FF920F931F93CF9301
:100A9000DF937C01EB01D22E8B01075F1F4F81E0BA
:100AA000281709F459C0411159C067E671E086E280
:100AB00093E00E949603F70183858823E1F164E7C0
:100AC00071E086E293E00E94960369914AE050E06B
:100AD00086E293E00E940B046AE271E086E293E012
:100AE0000E9496030C171D0781F76AE771E086E202
:100AF00093E00E9496034AE050E06D2D86E293E079
:100B0000DF91CF911F910F91FF90EF90DF900C94A8
:100B10001204219640E150E0F701608186E293E003
:100B20000E940B046AE271E086E293E00E94960361
:100B3000C017D107D1F267E871E086E293E00E9426
:100B400096037E018881803120F76AE871E086E2B1
:100B500093E00E949603DDCF442319F06CE871E026
:100B600002C067E671E086E293E00E949603F70117
:100B700083858823A9F164E771E086E293E00E940F
:100B8000960369914AE050E086E293E00E940B04EC
:100B90006AE271E086E293E00E949603C017D107F3
:100BA00081F76AE271E086E293E0DF91CF911F91D5
:100BB0000F91FF90EF90DF900C94A303219640E1FA
:100BC00050E0F701608186E293E00E940B046AE244
:100BD00071E086E293E00E9496030C171D0709F36B
:100BE00067E871E086E293E00E9496037E018881C7
:100BF000803120F76AE871E086E293E00E94960374
:100C0000DDCF0F931F93CF93DF93EC018B018A8588
:100C1000882329F0288141E0CE010E9442058D8180
:100C20009E81DC01ED91FC910280F381E02D49E091
:100C300050E0B80109958D819E81DC01ED91FC9118
:100C40000680F781E02DDF91CF911F910F910994DC
:100C5000FB013196685F7F4F80E09191890FE61725
:100C6000F707D9F781950895CF92DF92EF92FF921F
:100C70000F931F93CF93DF93EC018B010E94CF045E
:100C80006B017C0189E0D8011D928A95E9F71882F1
:100C90008D819E81DC01ED91FC910084F185E02D38
:100CA0000995099724F50E94CF04DC01CB018C192A
:100CB0009D09AE09BF09843F9140A105B10540F3EC
:100CC00065E971E086E293E00E94A30382E08883F5
:100CD0008D819E81DC01ED91FC910084F185E02DF8
:100CE0000995682FCE010E94160582E03CC049E0BC
:100CF00050E0B8018D819E810E94210C8881823054
:100D000091F1B801CE010E942806F801908589175B
:100D100011F084E08883D8019C918C85981305C0DC
:100D200011969C918E85981779F08D819E81DC01BA
:100D3000ED91FC910084F185E02D0995682FCE019D
:100D40000E94160583E088838881811102C081E0BA
:100D500088838A85882331F0288140E0B801CE015C
:100D60000E9442058881DF91CF911F910F91FF90E2
:100D7000EF90DF90CF900895462FFC0126853091AB
:100D80000301231304C0BC01695D7F4F12C0309181
:100D90000401231304C0BC016B5E7F4F0AC0309175
:100DA0000501BC01231303C0625E7F4F02C0605D7A
:100DB0007F4F0C943406EF92FF920F931F93CF93C3
:100DC000DF93CDB7DEB729970FB6F894DEBF0FBE1D
:100DD000CDBF8C01CA0129E0AE014F5F5F4F7A01A0
:100DE000DA01E22F1D92EA95E9F7F8013C96DF015E
:100DF0001D922A95E9F72FEF298321E02A83E62F18
:100E0000F0E0E050FF4F20812B83663079F018F43A
:100E1000613031F026C0673069F06830B9F021C028
:100E2000F801278121111DC08C831BC00097C9F0D8
:100E30008F8317C09C0197FF02C021503F4F3C8316
:100E400060E071E00E94B40E8D830BC09C0197FF9F
:100E500002C021503F4F3F8360E071E00E94B40E1A
:100E60008887B701C8010E942806898789E0F701B1
:100E7000D8011C9601900D928A95E1F729960FB63C
:100E8000F894DEBF0FBECDBFDF91CF911F910F91C0
:100E9000FF90EF9008958F929F92AF92BF92CF9262
:100EA000DF92EF92FF920F931F93CF93DF93EC01AA
:100EB0000E94CF044B015C0140E050E064E0CE01B1
:100EC0000E94DB068E01045F1F4FB801CE010E9415
:100ED00001067E0125E1E20EF11C44E0B701CE01DE
:100EE0000E943406813081F00E94CF04DC01CB01E6
:100EF00088199909AA09BB09843F9140A105B10548
:100F000060F36CEB71E031C040E050E06CE0CE018A
:100F10000E94DB06B801CE010E9401060E94CF04A8
:100F20006B017C018E01005D1F4F4CE0B801CE01CA
:100F30000E943406813081F00E94CF04DC01CB0195
:100F40008C199D09AE09BF09843F9140A105B105E7
:100F500060F36EEE71E009C0FE0177966B96919199
:100F6000828D981791F060E272E086E293E0DF9163
:100F7000CF911F910F91FF90EF90DF90CF90BF9096
:100F8000AF909F908F900C94A303EC17FD0739F757
:100F9000DF91CF911F910F91FF90EF90DF90CF9055
:100FA000BF90AF909F908F900895CF93DF93EC0107
:100FB0007E836D830E944B078881813041F06FE50D
:100FC00072E086E293E0DF91CF910C94A303DF916E
:100FD000CF9108950F931F93CF93DF93EC010E945D
:100FE000CF0409811A812B813C81601B710B820B1C
:100FF000930B0E94B90D20E83BEC44E25CE40E94B4
:10100000420E87FD13C08F81882381F00E94CF0498
:1010100069837A838B839C8340E050E061E0CE015A
:10102000DF91CF911F910F910C941B08DF91CF910D
:101030001F910F9108951F93CF93DF93EC01162F0B
:101040000E94DB06BE01645F7F4FCE010E94010655
:10105000612FCE010E94BC06CE01DF91CF911F917E
:101060000C94EA071F93CF93DF93EC01162F6623AE
:1010700029F040E050E064E00E941B088881813044
:1010800011F0111125C0888D2F8930E028503109C9
:101090004CED55E0249FF001259FF00D349FF00D9D
:1010A000112424E6829FC001112461E170E00E94B6
:1010B000B40E6E0F7F1F072E000C880B990B0E9439
:1010C000BB0D20E030E048EC52E40E94470D04C024
:1010D00063E373E988E893ECDF91CF911F91089562
:1010E000CF92DF92EF92FF920F931F93CF93DF93F4
:1010F000EC01042F6623F1F18091CD03811114C01E
:1011000040E050E065E0CE010E941B081AA1165293
:1011100061E0CE010E9432080E941C01161B109350
:10112000CC0381E08093CD03002331F040E050E018
:1011300064E0CE010E941B088881813039F00023D1
:1011400029F063E373E988E893EC2AC06091CC034B
:1011500070E080E090E00E94B90D6B017C0160E0DE
:10116000CE010E9432089B01AC01C701B6010E946A
:10117000DB0C16C0442329F040E050E065E00E94FB
:101180001B088881813011F00111DBCF6AA170E06A
:1011900066527109072E000C880B990B0E94BB0D3B
:1011A000DF91CF911F910F91FF90EF90DF90CF9043
:1011B00008951F93CF93DF93EC01162F6623A1F0C0
:1011C0004423A1F0483108F048E1642F70E080E04A
:1011D00090E00E94BB0D26E636E646ED50E40E9404
:1011E000470E0E941C0103C060E001C060EA81E07C
:1011F00081278F83462F50E061E0CE01DF91CF91B0
:101200001F910C941B080F931F93CF93DF93EC0156
:10121000162F042F442351F040E050E0662311F0D4
:1012200064E001C065E0CE010E941B088881813026
:1012300011F0011162C08885811112C0112331F0B3
:10124000898D90E0982F88272A8D05C088A190E08D
:10125000982F882729A1820F911D97FF50C04DC05C
:1012600040E050E0111102C064E001C065E0CE0131
:101270000E941B08898D90E0982F88272A8DAC0149
:10128000420F511D28A130E0322F222789A1B90138
:10129000680F711DCB012985222389F057FD0CC0F1
:1012A00077FD0AC09A01261B370B2A30310508F159
:1012B0008A3971E09707E9F485E088831EC057FFFB
:1012C00004C04FEF5FE721E001C020E097FF03C0BB
:1012D0008FEF9FE721E0BA01681B790B6A30710537
:1012E00020F08A3931E0930711F0222311F025E034
:1012F0002883112321F0CA0102C080E090E0DF9131
:10130000CF911F910F9108952091100430911104F5
:1013100028173907B9F49091CE038091CF0398171D
:1013200089F0E091CE03F0E0E053FC4F8081209102
:10133000CE0330E02F5F3F4F2F7333272093CE0330
:1013400090E008958FEF9FEF08951F93CF93DF9361
:10135000DC015C968D919C915D97009739F421E0BA
:1013600030E013963C932E9312973BC05196ED912B
:10137000FC91529750962C915097322F30951FB771
:101380005E964C915E97742F727041FD6095F89453
:101390004081772311F0422B01C043234083EC01AD
:1013A0002197F1F748E0508160FF02C0522B01C045
:1013B00053235083EC012197F1F76695415099F73B
:1013C0008081772319F08323808302C0282B208318
:1013D0001FBF5C968D919C915D970197F1F781E01D
:1013E00090E0DF91CF911F9108950895209110040E
:1013F000309111042817390771F49091CE03809130
:10140000CF03981741F0E091CE03F0E0E053FC4F9A
:10141000808190E008958FEF9FEF08952091100450
:10142000309111042817390771F48091CF0320916E
:10143000CE0390E0805C9F4F821B910960E470E0D6
:101440000E94B40E089580E090E00895E0911004A9
:10145000F0911104E817F90769F4A389B4899C9104
:101460008589809589238C93109211041092100421
:1014700081E0089580E00895CF93DF93EC018A8D99
:101480009B8D892BF1F08091100490911104C81765
:10149000D907B9F0009711F00E94260A8E8D8E7F31
:1014A0008E8F1092CF031092CE03D0931104C0936D
:1014B0001004EB89FC8990818D89892B808381E0E0
:1014C00001C080E0DF91CF9108951F920F920FB677
:1014D0000F9211242F933F934F935F936F937F93BA
:1014E0008F939F93AF93BF93EF93FF93E09110047B
:1014F000F0911104309709F451C0968DA685B785F7
:10150000858591FF04C09C91892329F447C09C9153
:10151000892309F043C0A389B4899C91858980956A
:1015200089238C93868997890197F1F7608D718D56
:10153000A685B785558538E020E0CB010197F1F706
:10154000822F90E095958795282F4C91452309F09F
:101550002068315091F7868D81FD20958091CF03D1
:1015600090E001968F7399273091CE03381749F098
:10157000A091CF03B0E0A053BC4F2C938093CF0336
:1015800003C0868D8160868F828D938D0197F1F7E0
:10159000A389B4899C918589892B8C93FF91EF91C4
:1015A000BF91AF919F918F917F916F915F914F917B
:1015B0003F912F910F900FBE0F901F9018952BEB1E
:1015C00032E0FC01318320830C94260A1F93CF93D1
:1015D000DF93EC01162F6E8D6695617081E06827B0
:1015E000812F0E94AB0C61E0812F0E946F0C812F34
:1015F00090E0FC01E458FF4FE491E88BFC01E057D8
:10160000FF4FE491F0E0EE0FFF1FE255FF4F859191
:1016100094919A8B898BDF91CF911F9108951F939D
:10162000CF93DF93EC01162F60E0812F0E946F0CA7
:101630008E8D81FD04C061E0812F0E94AB0C1C8760
:10164000812F90E0FC01E458FF4FE491ED87FC010D
:10165000E057FF4FE491F0E0EE0FFF1FEC55FF4F16
:10166000859194919F878E87DF91CF911F910895E7
:101670001F93CF93DF93EC01162F1B821A8288EE03
:1016800093E0A0E0B0E08C839D83AE83BF838BEBBF
:1016900092E0998388831F8A1E8A198E188E1B8E6A
:1016A0001A8E1D8E1C8E8E8D8E7F20FB81F98E8F63
:1016B000642FCE010E94E60A612FCE01DF91CF9107
:1016C0001F910C940F0BCF93DF93EC019A01AB01A8
:1016D0001B8E1A8E198E188E1F8A1E8A60E079E082
:1016E0008DE390E00E94EA0EF9012430310518F0F4
:1016F000C901039702C081E090E09D8F8C8F6C85BB
:10170000663108F069C0C9019695879584319105C5
:1017100010F0439702C081E090E09F8B8E8B36974C
:1017200018F0C901059702C081E090E0998F888F79
:10173000C901880F991F280F391F369527953695AF
:1017400027952D30310518F02C50310902C021E0C9
:1017500030E03B8F2A8F90916800683050F021E094
:101760006E3008F420E081E001C0880F2A95EAF786
:1017700001C084E0892B809368009C85983038F004
:101780009E3040F0963148F020E030E008C02DE671
:1017900030E005C02BE630E002C02CE630E03C8BA8
:1017A0002B8B983030F481E001C0880F9A95EAF7CE
:1017B0000EC0292F30E09E3018F42850310902C0A5
:1017C0002E50310981E001C0880F2A95EAF78D8BF0
:1017D0008C8D9D8D0197F1F7CE01DF91CF910C9407
:1017E0003C0A0F931F93CF93DF93EC010E94CF0429
:1017F000688779878A879B87E881F9810284F385E6
:10180000E02DCE01099597FF17C00E94CF040885EF
:1018100019852A853B85DC01CB01801B910BA20B2E
:10182000B30B0C811D812E813F8180179107A20788
:10183000B30710F38FEF9FEFDF91CF911F910F91BF
:101840000895CF92DF92EF92FF920F931F93CF9361
:10185000DF936C017A018B01C0E0D0E0CE15DF058B
:1018600059F0C6010E94F10B97FD05C0F801819364
:101870008F012196F3CF7E01C701DF91CF911F9198
:101880000F91FF90EF90DF90CF900895833081F01B
:1018900028F4813099F08230A1F008958730A9F0C2
:1018A0008830B9F08430D1F4809180008F7D03C0FE
:1018B000809180008F7780938000089584B58F7722
:1018C00002C084B58F7D84BD08958091B0008F776C
:1018D00003C08091B0008F7D8093B0000895CF93B6
:1018E000DF9390E0FC01E458FF4F2491FC01E057A6
:1018F000FF4F8491882361F190E0880F991FFC01CC
:10190000E854FF4FC591D491FC01E255FF4FA591DA
:10191000B491611109C09FB7F89488812095822302
:101920008883EC912E230BC0623061F49FB7F8944A
:101930008881322F309583238883EC912E2B2C9332
:101940009FBF06C08FB7F894E8812E2B28838FBFE6
:10195000DF91CF9108951F93CF93DF93282F30E02D
:10196000F901E859FF4F8491F901E458FF4FD491F0
:10197000F901E057FF4FC491CC23C1F0162F81111C
:101980000E94460CEC2FF0E0EE0FFF1FE255FF4FD8
:10199000A591B4919FB7F894111104C08C91D09582
:1019A000D82302C0EC91DE2BDC939FBFDF91CF9157
:1019B0001F9108955058BB27AA270E94F20C0C943F
:1019C000310E0E94230E38F00E942A0E20F039F4C6
:1019D0009F3F19F426F40C94200E0EF4E095E7FBDB
:1019E0000C941A0EE92F0E944B0158F3BA176207A4
:1019F00073078407950720F079F4A6F50C946D0120
:101A00000EF4E0950B2EBA2FA02D0B01B901900119
:101A10000C01CA01A0011124FF27591B99F0593F5D
:101A200050F4503E68F11A16F040A22F232F342FA5
:101A30004427585FF3CF469537952795A795F040F3
:101A40005395C9F77EF41F16BA0B620B730B840B08
:101A5000BAF09150A1F0FF0FBB1F661F771F881FC0
:101A6000C2F70EC0BA0F621F731F841F48F4879518
:101A700077956795B795F7959E3F08F0B0CF93950A
:101A8000880F08F09927EE0F9795879508950E9483
:101A90005B0D0C94310E0E942A0E58F00E94230E0A
:101AA00040F029F45F3F29F00C941A0E51110C9468
:101AB0006E010C94200E0E944B0168F39923B1F340
:101AC000552391F3951B550BBB27AA276217730764
:101AD000840738F09F5F5F4F220F331F441FAA1FF8
:101AE000A9F335D00E2E3AF0E0E832D091505040B4
:101AF000E695001CCAF72BD0FE2F29D0660F771F62
:101B0000881FBB1F261737074807AB07B0E809F047
:101B1000BB0B802DBF01FF2793585F4F3AF09E3FCC
:101B2000510578F00C941A0E0C946E015F3FE4F3AB
:101B3000983ED4F3869577956795B795F7959F5F0F
:101B4000C9F7880F911D9695879597F90895E1E05B
:101B5000660F771F881FBB1F621773078407BA07BA
:101B600020F0621B730B840BBA0BEE1F88F7E09515
:101B70000895E89409C097FB3EF490958095709580
:101B800061957F4F8F4F9F4F9923A9F0F92F96E9C9
:101B9000BB279395F695879577956795B795F1113E
:101BA000F8CFFAF4BB0F11F460FF1BC06F5F7F4FDB
:101BB0008F4F9F4F16C0882311F096E911C07723ED
:101BC00021F09EE8872F762F05C0662371F096E8F6
:101BD000862F70E060E02AF09A95660F771F881FC5
:101BE000DAF7880F9695879597F90895990F000869
:101BF000550FAA0BE0E8FEEF16161706E807F907DF
:101C0000C0F012161306E407F50798F0621B730B79
:101C1000840B950B39F40A2661F0232B242B252BFA
:101C200021F408950A2609F4A140A6958FEF811D9D
:101C3000811D089597F99F6780E870E060E008953E
:101C40009FEF80EC089500240A94161617061806D4
:101C50000906089500240A941216130614060506B0
:101C60000895092E0394000C11F4882352F0BB0F41
:101C700040F4BF2B11F460FF04C06F5F7F4F8F4FA4
:101C80009F4F08950E94F60D08F48FEF08950E946B
:101C90005A0E0C94310E0E94230E38F00E942A0E28
:101CA00020F0952311F00C941A0E0C94200E1124A0
:101CB0000C946E010E944B0170F3959FC1F3950F38
:101CC00050E0551F629FF001729FBB27F00DB11DC0
:101CD000639FAA27F00DB11DAA1F649F6627B00D50
:101CE000A11D661F829F2227B00DA11D621F739F39
:101CF000B00DA11D621F839FA00D611D221F749F47
:101D00003327A00D611D231F849F600D211D822F8D
:101D1000762F6A2F11249F5750409AF0F1F08823B4
:101D20004AF0EE0FFF1FBB1F661F771F881F9150E1
:101D30005040A9F79E3F510580F00C941A0E0C9468
:101D40006E015F3FE4F3983ED4F3869577956795EF
:101D5000B795F795E7959F5FC1F7FE2B880F911D0B
:101D60009695879597F9089597FB072E16F400949A
:101D700007D077FD09D00E94090F07FC05D03EF47B
:101D8000909581959F4F0895709561957F4F089527
:101D9000A1E21A2EAA1BBB1BFD010DC0AA1FBB1F6F
:101DA000EE1FFF1FA217B307E407F50720F0A21BE1
:101DB000B30BE40BF50B661F771F881F991F1A944E
:101DC00069F760957095809590959B01AC01BD0178
:101DD000CF010895052E97FB1EF400940E94010F79
:101DE00057FD07D00E94C80E07FC03D04EF40C9498
:101DF000010F50954095309521953F4F4F4F5F4FC4
:101E0000089590958095709561957F4F8F4F9F4F66
:101E10000895AA1BBB1B51E107C0AA1FBB1FA61731
:101E2000B70710F0A61BB70B881F991F5A95A9F783
:101E300080959095BC01CD010895EE0FFF1F059090
:101E4000F491E02D099410E0C3E6D0E004C0FE0157
:101E50000E941D0F2196C436D107C9F7F894FFCF11
:101E600078797D8485868788999B9CA0A2A3434F1F
:101E700032202870706D293A200054656D706572AB
:101E80006174757265202843293A20000000000023
:101E9000E1015703A2012E0274018E0180010D0A97
:101EA000006E616E00696E66006F76660021576194
:101EB000726E696E673A20436C656172696E672065
:101EC000427974653A2000526563696576656420DD
:101ED0003E3E20004445433A20004552524F522096
:101EE000436F64653A2000307800300053656E74AB
:101EF000203C3C2000214572726F723A2054696D7B
:101F00006564206F75742077616974696E672066F7
:101F10006F7220726573706F6E7365002145525247
:101F20004F523A204661696C656420746F20766573
:101F30007269667920636F6E6E656374696F6E286F
:101F4000312920746F2073656E736F722E002145E6
:101F500052524F523A204661696C656420746F207A
:101F600076657269667920636F6E6E656374696FFA
:101F70006E28322920746F2073656E736F722E0085
:101F8000214552524F523A204C617374207265734E
:101F9000706F6E7365206973206E6F74206173209B
:101FA00065787065637465642C207665726966690E
:101FB000636174696F6E206661696C65642E0021CF
:101FC0004552524F523A20496E697469616C2063E0
:101FD0006F6D6D756E69636174696F6E2065727285
:101FE0006F72436F6465207265636965766564002E
:101FF000214552524F523A20496E76616C696420F5
:102000005370616E2076616C7565202830202D201C
:102010003130303030290000000000A5095703B5E9
:0A20200002F5090E0A8409F6090012
:00000001FF
