S01900004156525F435552494F534954595F4253502E73726563B4
S11300000C947A000C9499000C9499000C94990027
S11300100C9499000C94E4000C9499000C949900AD
S11300200C9499000C9499000C9499000C949900E8
S11300300C9499000C9499000C94BC000C949900B5
S11300400C9499000C94CB000C9499000C94990096
S11300500C9499000C9499000C9499000C949900B8
S11300600C9499000C9499000C9499000C949900A8
S11300700C949E000C9499000C9499000C94990093
S11300800C9499000C9499000C9499000C94990088
S11300900C9499000C9499000C9499000C94990078
S11300A00C9499000C9499000C9499000C94990068
S11300B00C9499000C9499000C9499000C94990058
S11300C00C9499000C9499000C9499000C94990048
S11300D00C94AD000C9499000C9499000C94990024
S11300E00C9499000C9499000C9499000C94990028
S11300F00C94990011241FBECFEFCDBFDFE7DEBF04
S113010010E4A0E0B0E4E6EFF4E000E00BBF02C0CE
S113011007900D92AE30B107D9F720E4AEE0B0E419
S113012001C01D92A631B207E1F70E94F6000C94BB
S113013079020C9400000E94C50108951F920F9249
S11301400FB60F9211248F9381E08093C3068F9191
S11301500F900FBE0F901F9018951F920F920FB61D
S11301600F9211248F9381E08093CB068F910F908F
S11301700FBE0F901F9018951F920F920FB60F92FB
S113018011248F9381E08093060B8F910F900FBE03
S11301900F901F9018951F920F920FB60F92112473
S11301A08F938CE080938D0B8F910F900FBE0F90E7
S11301B01F9018958091410180FDFCCFE0E4F1E0AF
S11301C080818160808308951F920F920FB60F92F1
S11301D011248F9386B1886086B981E080934301AE
S11301E08F910F900FBE0F901F9018950E949B0047
S11301F00E94DA007894FFCF1092A90080E008955D
S113020045E868ED8CE790E00E94030241E868ED60
S113021080E790E00E9403024CE068ED80E890E003
S11302200E94030244E268ED88E690E00E94030223
S113023080E0089580E0089580E008C0E82FF0E0B1
S1130240E05FFB4F9081986090838F5F8830B0F3BC
S113025080E008C0E82FF0E0E05DFB4F90819860FB
S113026090838F5F8830B0F380E008C0E82FF0E01F
S1130270E05BFB4F9081986090838F5F8830B0F390
S113028080E008C0E82FF0E0E059FB4F90819860CF
S113029090838F5F8830B0F380E008C0E82FF0E0EF
S11302A0E057FB4F9081986090838F5F8830B0F364
S11302B080E008C0E82FF0E0E055FB4F90819860A3
S11302C090838F5F8830B0F3089584B18D7F84B9B3
S11302D0E1E3F4E08081877F808385B18E7F85B9F7
S11302E084B1816084B90E944E0208950E94F40191
S11302F00895E1E7F4E08081887F846080838081D1
S1130300877F80830E946A020895E3E9F4E0808194
S1130310887F846080838081877F80830E947102CC
S1130320089580B18F7D80B9E5E1F4E08081877F15
S1130330808381B18F7E81B980B1806180B981B1C0
S11303408F7B81B980B1806480B90E941B020895BB
S113035088B18D7F88B9E1E5F4E08081877F80836F
S113036089B18E7F89B988B1816088B989B18B7F61
S113037089B988B1846088B90E94240208950E94D2
S11303802D0208950E94380208950E941C0181B133
S11303908F7781B980B1806880B985B1877F85B94D
S11303A084B1886084B989B1886089B988B188606A
S11303B088B90E9400010E9465010E9476010E9492
S11303C019020E941A010E9479010E9485010E946B
S11303D091010E94A8010E9408020E94BF010E948C
S11303E0C2010E94FC000895E0E0F2E080E3808B0B
S11303F081E3818B81E086AF8093480282E0809321
S1130400490280E008951BBEFC0164BF4083089547
S1130410809141018111FCCFE0E4F1E088EA80831E
S11304208FEF91E082879387178281E0828380E057
S1130430089580E00895E0E4F9E081E2808381E0BA
S1130440828310920F400895E0E6F9E081E2808310
S113045081E0828310920E400895E0E0FBE083E0A7
S1130460818381E08483858381E4808380E00895AF
S1130470E0E8FBE08FEF9FE080A791A784A795A712
S113048085E1808781878CE0848780918E0B80FF53
S1130490FCCF81E28093800B80E00895E0E6F8E0F1
S11304A081E493E08087918780EC868380E090E408
S11304B0809312409093134080E0089590916408D3
S11304C095FFFCCF8093620808950E945E0280E04D
S11304D090E00895E0ECF6E081E08083828380E0A0
S11304E00895E8ECF6E081E0808382E0828380E096
S10904F00895F894FFCF0B
S11104F600000002000000006502000000008B
S9030000FC
