:1000000090350020190100001501000015010000C5
:1000100000000000000000000000000000000000E0
:1000200000000000000000000000000015010000BA
:100030000000000000000000150100001501000094
:100040001501000015010000150100001501000058
:100050005D35000015010000150100000954000085
:100060001501000015010000150100001501000038
:100070009D39000015010000150100001501000068
:100080001501000015010000594000006D400000FE
:100090001501000015010000150100001501000008
:1000A00015010000150100001501000015010000F8
:1000B0000000000010B5064C2378002B07D1054B3B
:1000C000002B02D0044800E000BF0123237010BDC4
:1000D000200A00200000000014170100084B10B592
:1000E000002B03D00749084800E000BF0748036819
:1000F000002B00D110BD064B002BFBD09847F9E731
:1001000000000000240A0020141701001417010049
:1001100000000000FEE70000F8B5234A234B9A4296
:1001200009D0224B204A03E01168196004330432DD
:100130001F498B42F8D31F4B02E000221A600433A0
:100140001D4A9342F9D31D4AFF211D4B8B439360F7
:10015000FD3990235B001B4AD1501B4AD3780325FD
:10016000AB4302242343D370D3780C27BB43082628
:100170003343D370154B987B302290432022104399
:100180009873997BB943314399739A7BAA4322436D
:100190009A730F4A516880230B4353600D4B984765
:1001A0000D4B9847FEE7C0461417010000000020E1
:1001B000200A0020200A00209015002000ED00E019
:1001C0000000000000700041005000410048004164
:1001D00000400041CDBE00001506000010B504002F
:1001E000014B9847200010BDC106000010B5040067
:1001F000044B98470023A364E364236563652000F0
:1002000010BDC04699060000F8B5012800D0F8BD21
:10021000134B9942FBD1134C2000134B9847134DBD
:100220002A0013492000134EB04758342000124BC7
:1002300098472A0011492000B047114C2700603729
:100240003800104B98472A000F493800B0477434E3
:1002500020000E4B98472A000D492000B047D6E7F2
:10026000FFFF0000400A002069120000000000208B
:10027000A91200001D70000089090000D9090000C2
:10028000C00B0020656B0000896B0000ED010000D1
:10029000DD01000070B50600306B104B9847002858
:1002A00011D164300E4B98478021C9059C23C02290
:1002B000D205D1500B4D0C4928000C4CA0470C49DD
:1002C0002800A047E8E7074D0A492800074CA04747
:1002D00007492800A047012070BDC0461119000041
:1002E000D12300006C130020440B01009D6400002A
:1002F0005C0B0100600B010070B50600706B104BC9
:100300009847002811D164300E4B98478021C905C9
:100310009C23C022D205D1500B4D0C4928000C4C17
:10032000A0470C492800A047E8E7074D0A492800E4
:10033000074CA04707492800A047012070BDC046D0
:10034000C9100000D12300006C130020740B0100C1
:100350009D6400005C0B01008C0B010070B50C006B
:100360004023C154002913D08021C9005833C02232
:10037000D205D1504023C35C002B10D10C4E0D4947
:1003800030000D4DA8470D493000A847200070BD32
:100390008021C9009423C022D205D150EAE7044E3F
:1003A00007493000044DA84704493000A847EDE74D
:1003B0006C130020B00B01009D6400005C0B010079
:1003C000A00B010010B504001F4B9847002833D044
:1003D0001E49606B1E4B9847606B1E4B9847002868
:1003E00007D164301C4B98471849606B184B9847ED
:1003F000F2E72000194B9847002818D01849206BC5
:10040000184B9847206B184B9847002807D1643049
:10041000114B98471249206B124B9847F2E7236B18
:100420001B68E36301212000104B984708E000217E
:1004300020000E4B984703E0002120000B4B98470B
:100440004023E05C10BDC046F90200000000614599
:1004500065110000410A0000D12300009502000050
:10046000F64461450D1A0000391800005D030000D4
:1004700010B5040000210A4B98470A4B23635833F8
:100480006363094B6033A3632000084B9847A06B5C
:10049000074B98474023E05C01235840C0B210BD91
:1004A0005D030000400A0020C00B0020C5030000CF
:1004B0009D6B000010B504004023C35C002B18D0D6
:1004C000406B174B984700280CD0206B154B984772
:1004D000002802D04023E05C0AE000212000124BFB
:1004E000984703E0002120000F4B98474023E05C31
:1004F00010BD406B0A4B984700280DD0206B094B6C
:100500009847002804D001212000074B9847EDE7C9
:100510002000064B9847E9E72000054B9847E5E7A0
:10052000410A0000391800005D0300009502000038
:10053000C503000070B582B00400244B9847002822
:100540003FD0206B224B984700280FD16023E35CFB
:10055000FF2B32D00A201F4B9847E16D206B1E4BBA
:1005600098476022A35C0133A3542DE01B4D1C4926
:1005700028001C4EB047236B18681B4B984702009D
:100580000B000221009128001849884718492800CB
:10059000B047A06B174B98470100A065236B1B6801
:1005A000E3632000144B9847011CE065206B0A4B65
:1005B000984700226023E25406E020000F4B984742
:1005C000CFE72000014B984702B070BDB504000092
:1005D00039180000D12300000D1A00006C13002010
:1005E000C00B01009D64000065BC0000DD670000D9
:1005F000D00B0100BD6B0000DD060000950200007D
:1006000010B502490120024B984710BDFFFF0000C2
:100610000902000010B5124B9847124C2000124BF3
:1006200098476420114B984711492000114B984777
:100630001B212000104B984710492000104B984771
:1006400000211048104B98471048114B984701243F
:100650000E48104B984701235C40E4B2F8E7C046CF
:10066000111C00006C13002019640000D12300004D
:10067000D40B01009D64000077610000D80B0100DD
:10068000E1640000C014002085230000340C002029
:100690007104000035050000054B4361054B836183
:1006A000054B8360054B436001222823C2547047E9
:1006B000001B374CF644614500606A48001BB74B8D
:1006C0007047036A4362C2690262C161D31A891A20
:1006D000C91AC162C817401AC00F7047F0B5CE469C
:1006E000474680B585B005000C007A4B99422ED95B
:1006F000794B99420ED0794BD86BAC69211C784B61
:10070000984700281CD0FC218905201C754B984770
:1007100028609EE0714BD86BAC69211C704B9847E8
:10072000002806D0F6218905201C6E4B98472860CA
:100730008FE0F6218905201C6B4B9847286088E0E4
:10074000FC218905201C684B9847286081E000291E
:100750007CD0664BCB185A1E9341654A8A18511EAD
:100760008A411A4275D02000624B9847061C69697D
:10077000614B9847002803D06E61584BDB6BAB612F
:10078000210028005D4B9847002854D02823EC5CBA
:1007900001235C40E4B22823EC546F680021381C2C
:1007A000574B9847002800D1AF60002C46D06969AC
:1007B000301C4C4B984768606E68301C514B984712
:1007C00002900391AC68211C301C4B4B98470028C9
:1007D00000D0261C700040084A4B984700224A4B24
:1007E0004A4CA04702000B0002980399484CA047CE
:1007F000484B9847484B9847E860AE69311C474BD7
:100800009847041C28604049301C374B9847071C08
:10081000011C201C324B9847002815D13A49301C46
:10082000304B9847061C011C201C334B984700286E
:100830000FD02E600DE02823EC5CACE7311C68691A
:10084000284B98476860B7E72F6002E0234BDB6BCB
:100850000360334C33492000334EB0470A22E96A23
:100860002000324B984732492000B0472823E95CEA
:100870000A2220002F4B98472F492000B047214BD8
:1008800099466868984702000B000221884600914B
:1008900020002A4FB8472A492000B047E868C847D7
:1008A00002000B00414600912000B8472549200076
:1008B000B0472868C84702000B004146009120005D
:1008C000B84721492000B047286805B00CBC9046C5
:1008D0009946F0BDFF356E0100366E01340C0020E4
:1008E000C5900000719C00002D930000010000FFE6
:1008F00000CA91FF89A000009D900000C30600007F
:100900009190000065BC00000000C0409DAF000059
:1009100035A700004172000009BD0000319A0000B7
:100920006C130020F00B01009D6400008565000041
:10093000FC0B0100D1650000080C0100DD67000020
:10094000100C0100180C01005C0B010010B501280F
:1009500000D010BD064B9942FBD1064C2000064B3F
:100960009847064A06492000064B9847F1E7C046DB
:10097000FFFF0000980C00209911000000000020EB
:10098000A51100001D70000010B50E4A0260002382
:100990009221490043500124143144500A494160D6
:1009A0009E214900435409498160C2600849982248
:1009B000520081500749043281505622FF3283543D
:1009C00010BDC04600006145980C0020008089459C
:1009D0000000C83F001961457047000070B5050070
:1009E0000C1E06D000290DDB0B00123B012B09D891
:1009F00070BD0E480E4EB0470434A40061590D4836
:100A0000B047F5E721000C48094EB04723001A33E0
:100A10009B00EB1859680948B04721000348B047CC
:100A20000434A40061590348B047E1E7D00C010049
:100A30002DC00000DC0C0100E80C0100F40C0100EA
:100A400030B583B0050001A80B4B9847C022D205F2
:100A500010680A4B1B6A14695C4004405C4001A8A2
:100A6000074B984740202040431E9841C0B29E2328
:100A70005B00E85403B030BD19230000004400417E
:100A80002723000010B50020032807DC03231B1ACE
:100A9000DB001400DC400C540130F5E710BD000011
:100AA00070B504000D0000214068204EB0470023BF
:100AB000A8225200A3545222FF32A3540132A5545B
:100AC0005422FF32A35421005131FF31503AFF3AF2
:100AD0006068174B984701216068B0470120154BAB
:100AE000984700216068B04721004931FF31042256
:100AF0006068114B9847A4235B00E258130611026B
:100B0000FF20000401400B43110E120AFF200002D7
:100B100002400A431343DB09084A13400435AD0081
:100B20002B5160680121B04770BDC046151200000E
:100B3000E5110000D1230000FD110000FFFFFFFEC2
:100B400000230EE01A0032329200202111501A00C8
:100B50003232920011581A001A32920082185160F3
:100B60000133162B6CDC65D89A0036498A589746B3
:100B70001A003232920002211150E8E71A00323294
:100B8000920001211150E2E71A0032329200312125
:100B90001150DCE71A00323292002B491150D6E78F
:100BA0001A003232920000211150D0E71A0032327E
:100BB000920026491150CAE71A00323292002449A5
:100BC0001150C4E71A003232920022491150BEE798
:100BD0001A003232920020491150B8E71A0032321E
:100BE00092001E491150B2E71A00323292001C499D
:100BF0001150ACE71A003232920081211150A6E761
:100C00001A003232920020211150A0E7DC228158D4
:100C10001A0032329200115099E71A0032329200D3
:100C20001049115093E71A0032329200E4218900F2
:100C300011508CE71A00323292000021115086E7E1
:100C40007047C046240C0100A370FD004A2F00002D
:100C50004D210000FFBEC900FF3F000047200000FB
:100C600061800F0008BE000070B505000024132C41
:100C700005DCE1B22800024B98470134F7E770BD6C
:100C8000A10A0000F0B5CE46474680B585B0070002
:100C90000022A0235B00C2509A256D00814C405970
:100CA000A04702000B008049884600207F49C047CA
:100CB0007F4B98477F4A804BC047804B9847804B7B
:100CC0009847072300901B1ADEB27859A04702907C
:100CD000039100987B4B984702000B000020802175
:100CE000C905794CA04702000B00784C0298039983
:100CF000A04700226D4BC0470022754BA0470090D3
:100D000001910022734B744CA04700282FD0002281
:100D1000724B00980199644CA04704000D003B0001
:100D20007133FF331C605D60644B98470A0001001B
:100D3000029103923B006933FF3319605A6013003C
:100D4000020020002900664CA0470022654B5F4C42
:100D5000A0473B007933FF3318605960624B9847D6
:100D6000C0235B00F8500024B14605000EE00022CD
:100D70005E4BCEE702980399514B98470002000A58
:100D800023001A339B00FB1858600134162C00DD39
:100D900083E0E31E132BF8D89B00554AD3589F4697
:100DA0002A02120A23001A339B00FB185A60ECE750
:100DB000230032339B00DA5923001A339B00FB18BF
:100DC0005A60E2E70022434B00980199424EB04737
:100DD000002808D023001A339B00FB18454A5968A5
:100DE0000A405A60D1E723001A339B00FB18802287
:100DF000120359680A435A60C7E78023FA58C03380
:100E0000FA5023001A339B00FB185A60BDE72300F9
:100E100032339B00DA5923001A339B00FB185A60C7
:100E2000B3E703234E4622E0D91E02220A41D2072D
:100E300009D50121994022001A329200BA1850684F
:100E40000143516012E00121994022001A329200C0
:100E5000BA1850688843506008E001219940220088
:100E60001A329200BA1850688843506001330F2B31
:100E700011DC062BD8DDDA1F310011410A00D20740
:100E8000EBD50121994022001A329200BA1850681D
:100E900001435160EAE7B14677E705B00CBC9046E4
:100EA0009946F0BD65BC000035A700000084CC4029
:100EB00045730000EF39FAFE422EE63F2D70000028
:100EC00009BB000071BB0000557400009DAF00001D
:100ED0000084BC400040AF40299000000000494021
:100EE0009DB4000000007041719100000000594065
:100EF000800C0100FFFFF7FF10B50800074B994277
:100F000003DC0120064B984710BDFA218900054BF0
:100F1000984780B2024B9847F6E7C046CF070000DB
:100F2000D1230000258E0000F8B504000D00002339
:100F3000A22252008354203A835013291ADD162925
:100F400013DD17290CDD182904D00322A2235B002E
:100F5000C25412E0213AFF3AA2235B00C2540CE0D3
:100F60000322A2235B00C25407E00522A2235B00F8
:100F7000C25402E0A2235B00E154A2235B00E35CC5
:100F8000103BDBB2032B00D8F8BD00216068214E76
:100F9000B047A2235B00E25CD2002B001A339B0017
:100FA000E3185B681B021A4392235B00E2502700A0
:100FB0005137FF3739002000174B9847042239007A
:100FC0006068164B984701212000154B9847012176
:100FD0006068B0479E235B00E35C002BD4D1012105
:100FE00020000F4B9847A2267600A15D20000D4BF4
:100FF0009847A35D04339B001A592B001A339B00BA
:10100000E3185B689A42BFD029002000064B98473E
:10101000BAE7C04615120000850A0000E51100007D
:10102000F90E0000A10A0000DD09000070B50500FE
:101030000C000DE01626132E05DDF1B228000D4B35
:101040009847013EF7E7052128000A4B98470134ED
:10105000132C06DC052CEDD0E1B22800054B984797
:10106000F5E703212800034CA04704212800A047EE
:1010700070BDC046290F000070B50400002120009B
:101080000D4B984720000D4B984763695908012282
:101090001A40534253410B405625FF356355642097
:1010A000074B98472000074B9847635D0028E5D021
:1010B000002BE3D0180070BD2D100000690C00005B
:1010C000D1230000410A000070B504000D486060A3
:1010D0000D4B984725005135FF350422002128008B
:1010E0000A4B9847042229006068094B9847012160
:1010F0006068084B98472000074B98472000074B33
:10110000984770BD980C0020BD11000099BF0000E9
:10111000E511000015120000410B000079100000DD
:1011200070B505001621044CA04714212800A047E3
:1011300005212800A04770BD290F000070B50400EC
:101140000821064DA8472000054B984703212000A1
:10115000A84704212000A84770BDC046290F000001
:101160002111000010B504009A235B00C150034B0D
:1011700098472000024B984710BDC046850C0000E0
:101180003D11000010B502490120024B984710BDE7
:10119000FFFF00004D090000014B18607047C0467A
:1011A000A80C00207047000010B50248024B984779
:1011B000002010BD1C1500200926000010B50400F9
:1011C00001000C310448054B98472000044B984718
:1011D0000123237010BDC0461C150020F12600001D
:1011E000A911000010B5140000230370C06892B26A
:1011F000014B9847200010BD4125000010B5140098
:1012000000230370C06892B2014B9847200010BDC4
:1012100079250000002904D18022C023DB055A6112
:1012200070478022C023DB059A61F9E710B50128D9
:1012300000D010BD064B9942FBD1064C2000064B56
:101240009847064A06492000064B9847F1E7C046F2
:10125000FFFF0000AC0C0020791B00000000002004
:10126000851B00001D7000000A4B103383600A4B81
:10127000783343600123212283540022C277074A36
:101280004264074A0260074A426349228354293A6A
:1012900083547047AC0C00202C0D00200000C83E89
:1012A00000007A4540067A457047022906D08268D8
:1012B0005A23D35ADB0A03201840704782685C2304
:1012C000D35C03201840F8E7002907D18268442343
:1012D000D35A1B044831525A9B184362406A7047E4
:1012E000002907D182685423D35A1B045631525A1D
:1012F0009B188362806A7047002907D182684C235B
:10130000D35A1B044E31525A9B18C362C06A7047AD
:10131000F8B50400002901D0A06BF8BD0E4B98472A
:101320000E4DA847061C002120000D4B9847A847EA
:10133000071C002120000B4B9847A847011C381CB4
:10134000094B9847011C301C084B98470849094B2A
:101350009847A063E0E7C046C912000089A00000DA
:10136000E1120000F9120000519600002D930000D8
:1013700000004843319A000070B506000D001400CB
:10138000002916D0002A16D0914209D31100280056
:101390000A4B98470A0021003000FFF7EDFF09E0F3
:1013A0001000064B98470A0029003000FFF7E4FFC1
:1013B00000E0100070BD0800FCE7C0461D8E000074
:1013C00070B5050000240DE0A300174A995817488E
:1013D000174B9847174B9847696B174B984700284E
:1013E0001AD001340D2C10DC022CEDDDA3000E4AC6
:1013F000995812480E4B98470E4B9847696B0E4B05
:1014000098470028EDD1013CEC77E87F8300064A3D
:10141000D25C2123EA5470BD002C02DD013CEC7744
:10142000F3E70023EB77F0E7700D0100FC3A0000D2
:10143000258E0000E99F0000C5900000EC2C000004
:10144000F0B583B00400081C9F21C9050F4B9847D5
:101450000F4B98470190012676420E4FB847010086
:10146000320020000C4B9847050020630B4B984737
:10147000011C01980A4B9847B847A0622900300028
:10148000084B9847E06203B0F0BDC046319A0000B7
:10149000F9710000419100007913000089A000005B
:1014A00051960000118D000030B50022022A08DCA0
:1014B00002239B1AD4000D00E540C3181D740132AD
:1014C000F4E730BD70B504000021C0680A4DA8479C
:1014D0000A4920000A4B9847210010310322E06896
:1014E000084B9847A061C317181AC00FA0750121B7
:1014F000E068A847A07D70BDF51B00001921000021
:10150000A9140000C51B0000F0B583B00400002141
:10151000C068164DA84716492000164FB84710233B
:101520009C46A4446346032201936146E068124E40
:10153000B047A0610121E068A84764200F4B98479D
:101540000021E068A8470E492000B847032201990E
:10155000E068B047A061C317181AC00FA075012139
:10156000E068A847A07D03B0F0BDC046F51B0000B1
:101570001E210000A9140000C51B0000D12300009B
:101580001C21000070B50023012B08DC0224E41AA2
:10159000DD0016002E41041926740133F4E70174AE
:1015A00070BD0000F8B504000E0015004F00836800
:1015B000DB5BC27DAB4203D1002A01D0A069F8BD3C
:1015C0000021E0680B4B98472A00310020000A4BAD
:1015D0009847210010310322E068084B9847A0612A
:1015E000002801DDA368DD530121E068014B984725
:1015F000E4E7C046F51B000085150000C51B000090
:1016000070B504000D1C2023C35C002B02D005D054
:10161000012B15D0A2684A23D05A70BD1749281C47
:10162000174B9847002805D0164A25212000164B55
:101630009847EFE7154A25212000134B9847E9E723
:101640000E49281C0E4B984700280BD11049281C26
:101650000B4B984700280BD10C4A252120000A4B40
:101660009847D7E70B4A25212000074B9847D1E739
:10167000044A25212000044B9847CBE700504346FD
:10168000C590000004820000A51500000481000040
:1016900000401C460483000010B5040000290ED150
:1016A00083681B88082293438383A28B0021200038
:1016B000064B9847A061431E9841C0B210BD836895
:1016C0001B88082213438383EFE7C046A51500005B
:1016D00070B504000021054DA8476420044B9847CD
:1016E00001212000A847A07570BDC04699160000D2
:1016F000D123000070B505000022722A0ADC5000D8
:1017000072239B1A5B000B49CB181B8F69680B5225
:101710000132F2E77324002C0BDD611EC9B2064BC7
:10172000E3185B006A68D25A2800044B9847013CD2
:10173000F1E770BD700D0100FFFFFF7FA5150000F0
:1017400010B5040000290BD143681B880422934381
:101750008383A28B00212000044B9847A06110BD19
:1017600043681B88042213438383F2E7A515000016
:10177000F8B504000E0000211B4B98470023A383FB
:10178000A28B531E9BB219498B4224D90021E068D9
:10179000174FB84780235B423343A37703220021CE
:1017A000250013352800134B9847012221001E31D4
:1017B000E068114B9847A06102222900E0680F4BB6
:1017C0009847A061E37C1B02227D9B18A383012123
:1017D000E068B847D4E7760063689A530121200097
:1017E000014B9847A08BF8BD41170000FDFF00009A
:1017F000F51B000099BF0000C51B0000DD1B0000A9
:1018000010B5040000290BD196238268D25A921198
:10181000773B1340C377E37F9B00054A985810BD80
:101820004B21044B984783111F201840E077F2E7C3
:10183000700D01007117000070B582B00500684698
:101840002A4B9847C023DB051C68294A126A1B698A
:1018500053401C4054406846264B98478023DB0287
:101860001C40631E9C41E4B2EC75002C10D0EB7D53
:10187000002B0AD0022128001F4B9847002820DDAA
:10188000002128001D4B98472860E87D02B070BDFC
:101890000A201B4B984701A8144B9847C023DB052F
:1018A0001C68134A126A1B6953401C40544001A82B
:1018B000104B98478023DB021C40631E9C41EC7553
:1018C000D5E7002128000F4B9847212428550021F7
:1018D00028000A4B9847061C285D0B4B9847011CB3
:1018E000301C0A4B98472860CFE7C04619230000F8
:1018F0000044004127230000AB1200001113000038
:10190000D123000001180000E99F0000519600005B
:1019100070B504001048E060104B98470121E06862
:101920000F4B984720000F4B98470A200E4DA847B1
:1019300020000E4B98476420A84720000C4B984786
:101940000A20A84720000B4B98476420A847200096
:10195000094B984770BDC046AC0C00209D1B000091
:10196000F51B0000C5140000D1230000091500007C
:10197000F5160000D11600003918000070B50400FB
:10198000456B0B49281C0B4B9847002805D0A563D5
:10199000A16B2000084B984770BD00212000074B29
:1019A0009847074B9847291C064B9847A063EFE7D9
:1019B00000F0EB45C5900000011600000118000082
:1019C000E99F0000319A000070B50400028D2B21C0
:1019D0000C4DA847628D2A212000A847A28D2721FF
:1019E0002000A847E28D26212000A8472000064BB2
:1019F0009847A28C24212000A847E28C22212000B5
:101A0000A84770BDA51500007D19000070B5040041
:101A10000D1C4049281C404B9847002838D13F49AD
:101A2000281C3D4B9847002834D065633C49281C4E
:101A3000394B984700283AD039492068364B9847A7
:101A4000002829D001222123E2542123E05C354BD8
:101A50009847291C344B98473449354B9847051C07
:101A6000E063344B9847344B98476062334B984758
:101A7000011C281C324B9847011C20642000314B6C
:101A800098472000304B98472000304B984701E0A2
:101A9000204B6363206C70BD5C23A268D25A012383
:101AA0001A4392B22E212000294B9847CAE71C49BD
:101AB0002068284B984700281AD09623A268D25A4B
:101AC000254B1A40A28316B22000244B984782016E
:101AD000324392B24B2120001D4B98472123E35CF7
:101AE000022B0FDD1E4A1F212000194B9847ACE73F
:101AF0005C23A268D25A593B9A432E212000144BF2
:101B00009847DAE7FB2292001F212000104B9847EC
:101B10009BE7C04600F06B46C59000000000C8433C
:101B200000F0EB45E99F0000319A000000004843B7
:101B3000519600005D7100004191000089A00000F5
:101B4000719C000041140000C9190000D11600006A
:101B5000A51500009D9000003FF8FFFFC113000095
:101B6000EC43000010B502490120024B984710BD1C
:101B7000FFFF00002D120000014B18607047C046A7
:101B80008C0E00207047000010B50248024B9847A9
:101B9000002010BDA81400200926000010B5040084
:101BA00001000C310448054B98472000044B98472E
:101BB0000123237010BDC046A8140020F1260000A8
:101BC000891B000010B5140000230370C06892B296
:101BD000014B9847200010BD4125000010B51400AE
:101BE00000230370C06892B2014B9847200010BDDB
:101BF00079250000002905D180221203C023DB05CE
:101C00005A61704780221203C023DB059A61F8E70E
:101C100010B5024B9847024B984710BD05220000B3
:101C20004954000010B5084A116A80231B010B4378
:101C30001362064A064B5A80064B98470200064933
:101C40000648074B984710BD000400401B400000A9
:101C5000000C004037400000002C00428C14002093
:101C6000DD27000010B5084A116A80235B010B4391
:101C70001362064A064B5A80064B984702000649F3
:101C80000648074B984710BD000400401C43000065
:101C9000000C004037400000003000424C1500208E
:101CA000DD27000010B50F4A0F4B5A80053AC023BC
:101CB000DB055A600D4B0E4A9A620E4A9A624E211B
:101CC0005A5C042082435A545A5C033882430243CC
:101CD000D2B25A5417395A5C0F2082435A54064BD9
:101CE000984710BD05400000000C00400044004132
:101CF00000400240000002C035240000F0B5C64696
:101D000000B5C022D205102353619360254B2649AC
:101D10009962C02109068C4699624420195C01270A
:101D2000B94301263143C9B219543221585C0F25F9
:101D3000A8430324A04644462043C0B25854202060
:101D400050619060194898626046986245208446C8
:101D5000185CB8433043C0B264461855585C363CF2
:101D600020403024A44664462043C0B258540E316B
:101D700051600F4A9A620F4A9A624622995C042087
:101D800081439954995CB9433143C9B29954332181
:101D90005A5CAA4340460243D2B25A5404BC90460D
:101DA000F0BDC0460044004110000040200000404B
:101DB00040000240000002C0044A136A04210B43A1
:101DC0001362034A034B5A807047C0460004004028
:101DD00014400000000C004010B5044B9847044923
:101DE0000448054B9847054B984710BDB91D0000A6
:101DF000000800421C150020B1250000FD1C000059
:101E0000F0B5C64600B5C022D20580235B025361FF
:101E10009360264B8021C9058C46996224499962BA
:101E20005020195C0127B94301263143C9B2195426
:101E30003821585C0F25A8430224A046444620437D
:101E4000C0B2585480208002506190606046986211
:101E50001848986251208446185CB8433043C0B299
:101E600064461855585C423C20402024A4466446F1
:101E70002043C0B258548021C90251600E4A9A6270
:101E80000E4A9A625222995C042081439954995CCB
:101E9000B9433143C9B2995439215A5CAA434046E7
:101EA0000243D2B25A5404BC9046F0BD00440041F3
:101EB000010000C0020000C000000240040002C097
:101EC000044A136A08210B431362034A034B5A80E6
:101ED0007047C0460004004015400000000C004060
:101EE00010B5044B984704490448054B9847054BE7
:101EF000984710BDC11E0000000C0042A81400202D
:101F0000B1250000011E0000F0B5C021C9058023E5
:101F10005B014B618B60224B224A9A62C020000613
:101F200098624C269A5D0125AA4301242243D2B22D
:101F30009A55163E9A5D0F27BA4302273A43D2B20A
:101F40009A55802292004A618A60174A9A62986282
:101F500049201A5CAA432243D2B21A543422985C14
:101F6000273E304030273843C0B2985480221202B6
:101F70004A600E4A9A620E4A9A624F22995C042085
:101F800081439954995CA9432143C9B2995437219B
:101F90005A5C324020200243D2B25A54F0BDC046AF
:101FA0000044004100100040000200400080024058
:101FB000000002C0044A136A10210B431362034A53
:101FC000034B5A807047C046000400401640000092
:101FD000000C004010B5044B984704490448054BD9
:101FE0009847054B984710BDB51F000000100042F0
:101FF00034150020B1250000091F0000044A136AAF
:1020000020210B431362034A034B5A807047C0469A
:102010000004004017400000000C004030B50F4B9A
:102020005622995C0125A94301242143C9B2995440
:102030003B20195C473A914302221143C9B219541B
:1020400057215A5CAA432243D2B25A541A5C4839E7
:102050000A4020210A43D2B21A5430BD0044004144
:1020600010B582B0064B9847002300931033054A01
:1020700005490648064CA047064B984702B010BDDC
:10208000FD1F0000900E002000140042CC14002020
:102090005D2B00001D20000010B50248024B984740
:1020A00010BDC04610E000E0BD23000010B50422C2
:1020B000C023DB055A600A490A4B8B62C0231B060A
:1020C0008B624223CA5C012082430243D2B2CA54CB
:1020D00031228B5C0F24A3430343DBB28B5410BD2E
:1020E0000044004104000040044A116A8023DB02DE
:1020F0000B431362024A034B5A80704700040040AE
:1021000021400000000C004010B5044B98470449E2
:102110000448054B9847054B984710BDE92000003F
:1021200000480042C014002035230000AD2000000C
:10213000F0B5C64600B5C024E40580225204A26072
:102140001C4B8027FF059F621B49996262615820E2
:10215000195C0422904691431954195C0126B1433D
:1021600001252943C9B219541C38195C0B3291431B
:102170000622944662461143C9B21954802189044B
:10218000A1609F620D4F9F62616159215C5C424674
:1021900094435C545A5CB2432A43D2B25A541A5CF8
:1021A0004A390A4060210A43D2B21A5404BC90460C
:1021B000F0BDC04600440041000100C0000200C064
:1021C000064BDA6920210A43DA615A6920310A4351
:1021D0005A61034A034B5A807047C04600040040CE
:1021E00006440000000C004010B5034B9847034B19
:1021F0009847034B984710BDC1210000452E0000B1
:1022000031210000F0B5C64600B5324B9847C022D8
:10221000D2050823936193602F4B30499962C02502
:102220002D069D624324195D0120814319558021AB
:10223000516191602A4999629D620434195D81431C
:10224000195580210903916191608021C905996226
:10225000244C9C6253269C5D84439C559161916003
:102260009962214CA0469C625E27DC5D8443DC556C
:102270008024E4003637D4510C3FD451A8241B4E9F
:102280001E511D51CA25AC465D5D854366469D5570
:1022900098255151D151195142461A51DE215A5CAB
:1022A00082435A54124B9847124B9847124B984707
:1022B000124B9847124B9847124B9847124B98472E
:1022C000124B9847124B9847124B984704BC9046C4
:1022D000F0BDC046CD33000000440041080000407E
:1022E00080000040080000C0004000C00004004022
:1022F000A51C0000D91D0000E11E0000D51F000034
:102300006120000099200000251C0000651C0000D1
:1023100009210000E9210000EFF31083036072B689
:10232000BFF35F8F7047BFF35F8F036883F310883D
:102330007047000070B504000D00002810D000297F
:102340000CD0012032220C490C4B98472900200068
:102350000B4B984700280ED100230AE00020F1E73C
:102360000020EFE7DA00A2180021516091600133EC
:10237000DBB2002BF6D070BD900E0100D131000011
:102380004134000070B504000D0000280CD0002975
:102390000CD0002052220649064B98472900200005
:1023A000054B9847002070BD0020F3E70120F1E7BE
:1023B000900E0100D13100006D34000010B5024BC9
:1023C0001860024B984710BDA00E0020053E00008B
:1023D00010B5044B1C68044B984701002000034BC8
:1023E000984710BDA00E0020C1330000113E000030
:1023F00070B50125002407E00D4AB358002B00D02A
:10240000984770BD013AD5B2AC42FAD82B195B108F
:10241000DAB2002AF5D1FF210B40DE000449891908
:1024200049688142E8D0EDD20132D4B2ECE7C0462F
:10243000A40E002010B50023002B03D00748084B42
:10244000984710BD074AD9005018012464424460DF
:102450000020885001339BB2EEE7C046F123000014
:1024600081340000A40E0020F0B5C64600B584B04B
:1024700001900023002B10D00023984600291BD088
:102480004346002B46D1002B24D1DA002A4C1259A6
:10249000002A18D00133DBB2F5E7DC00264A121916
:1024A00052680198824202D00133DBB2E2E7224B4C
:1024B000E15001239846E1E74346002B35D00198CF
:1024C0001E4B98472DE0DD0029516519019A6A607D
:1024D00001229046002201E00132D2B219001143DC
:1024E00018D11549DC000C196768D400091949682E
:1024F0008F42F1D24C1CEFD002A98C460E4FD10076
:102500007918644641C941C4DD007D19614611C98D
:1025100011C5E1E74346002B0AD001210198074B82
:10252000984704B004BC9046F0BD0D204042F8E747
:102530000D204042F5E7C046A40E002011350000F2
:1025400070B504000D00160000280ED000290AD036
:10255000012034220649074B98472368320029009E
:102560002000984770BD0020F3E70020F1E7C04647
:10257000AC0E0100D131000070B504000D00160052
:1025800000280ED000290AD001203D220649074B21
:1025900098476368320029002000984770BD0020EA
:1025A000F3E70020F1E7C046AC0E0100D131000096
:1025B00070B504000D00002817D0002913D00120A9
:1025C00040220B490B4B98476560201D29000A4BA0
:1025D0009847002806DB094BA382094B2361094B6E
:1025E000E360002070BD0020EAE70020E8E7C04675
:1025F000C00E0100D1310000B13900000080FFFFA2
:10260000B52600007926000010B50400431E98414D
:10261000C0B257220349044B9847201D034B9847EB
:1026200010BDC046C00E0100D1310000B53B000016
:1026300030B587B004000D00002815D0002911D056
:102640000120B32209490A4B98472B6803936B6812
:102650000493AB6801930593201D03A9054B98478C
:1026600007B030BD0020ECE70020EAE7C00E010013
:10267000D1310000ED3B000070B584B004000E00C5
:102680001500431E9841C0B2A3220749074B984743
:1026900020000C38002302930196039501A9044BF6
:1026A000984704B070BDC046C00E0100D131000093
:1026B0003126000070B584B004000E001500431EE2
:1026C0009841C0B287220749074B984720000C3831
:1026D000029600230193039501A9044B984704B087
:1026E00070BDC046C00E0100D1310000312600008F
:1026F00070B504000D0000280CD0002908D001207E
:10270000BD220549054B98470C342C60002070BD54
:102710000020F5E70020F3E7C00E0100D1310000F2
:10272000F8B50668002E02D0330000250CE0104BEF
:10273000984718E09F68BC466444A41A01348F6827
:10274000BC420BD21D001B68002B07D05C68944272
:10275000F0D8A41A9F68BC466444F0E7B34203D0A3
:102760002800044B9847F8BD014B9847FBE7C0464B
:10277000F13100001D320000F8B50500446903691D
:102780005E1C0661037EDB0702D4037E9B070AD52D
:102790002B7E02221343DBB22B76F8BD6F69E36810
:1027A000200098473C00002CF7D06368F31AA26819
:1027B0009342F2D32F0014373800064B9847237CFE
:1027C000012BEBD16660320021003800024B9847A4
:1027D000E4E7C046653200002127000070B5040020
:1027E0000D00002812D000290ED001203B220849FC
:1027F000084B984729002000074B98470023236186
:10280000064B2360002070BD0020EFE70020EDE7BD
:10281000DC0E0100D1310000ED3E00007927000000
:1028200010B50400431E9841C0B253220749084B1B
:1028300098472000074B9847002804D12000064BFA
:102840009847002010BD11204042FBE7DC0E01003C
:10285000D13100002B4000001140000010B50400F1
:10286000431E9841C0B261220749084B9847200097
:10287000074B9847002804D02000064B98470020BB
:1028800010BD11204042FBE7DC0E0100D1310000F9
:102890002B4000001F40000070B582B004000D0006
:1028A000002826D0002922D001207A221F49204B5F
:1028B0009847237E01221343DBB223762600143689
:1028C000290030001B4B9847002814D123696B6006
:1028D000226929003000184B9847237E0122934338
:1028E0002376237E9B0712D4002002B070BD002007
:1028F000DBE70020D9E7237E0122934323767E3253
:102900000A4900200A4B984712204042EDE701A8EF
:102910000A4B9847237E0222934323762000084BDC
:10292000984701A8074B98470020DEE7DC0E01001E
:10293000D1310000D9310000212700001923000007
:102940003D4000002723000070B582B004000D0058
:10295000002823D000291FD0012095221D491E4B9D
:102960009847237E01221343DBB2237626001436D8
:1029700029003000194B9847002811D02900300059
:10298000174B9847237E012293432376237E9B0790
:1029900011D4002002B070BD0020DEE70020DCE78B
:1029A000237E01229343237699320A490A4B9847A2
:1029B0000A204042EEE701A80A4B9847237E0222F4
:1029C000934323762000084B984701A8074B98476C
:1029D0000020DFE7DC0E0100D1310000D93100001A
:1029E00077320000192300003D400000272300003B
:1029F00010B5083800230363436A002B00D09847C2
:102A000010BD10B5083800230363C36A002B00D043
:102A1000984710BD10B504002C30044B9847236A2A
:102A2000083C002B01D02000984710BD4133000026
:102A300070B504000E00150000281DD000291DD01F
:102A4000002A1DD100203C22FF321049104B98472C
:102A50004423E25A0833E35A9A4213D1A6644C2322
:102A6000E5520022083BE252433B2363200008303A
:102A7000084B9847280070BD0020E4E70020E2E7FB
:102A80000120E0E71C204042F5E7C046F40E0100BB
:102A9000D13100008D39000070B504000200083A01
:102AA0004423D35A4C21525A93420DD00200016C58
:102AB000083A5D1C44201552C95C2000044B98471D
:102AC0002000044B984770BD034B9847FBE7C04676
:102AD000853900008D39000095390000F0B585B0CA
:102AE00004000D001600002817D0002917D0002A76
:102AF00017D10020AC2252001249134B984703A86B
:102B0000124B9847343420000194114B984707002A
:102B100003A8104B984700240BE00020EAE70020B0
:102B2000E8E70120E6E70134A4B2691801980A4BEE
:102B300098472100A74201D9B442F4D3200005B040
:102B4000F0BDC046F40E0100D13100001923000091
:102B50008133000027230000F5320000F8B504009F
:102B60000D0016001F00002826D0002926D0002ABC
:102B700026D0002B26D100203A221549154B984724
:102B8000200034303A003100134B984700281BD105
:102B9000200008302900114B984700280BD1104B1A
:102BA0006360104B2360104BA360104BE360104B2D
:102BB0002361104B6361F8BD0020DDE70020DBE7F7
:102BC0000020D9E70120D7E70D204042F3E7C046B7
:102BD000F40E0100D1310000A9320000F9380000E4
:102BE000DD2A0000312A0000992A0000152A000081
:102BF000F1290000032A000010B50100002001E0C7
:102C0000013040B203280FDC4201094B9B185A786F
:102C10008A420BD04301064C1B5D002BF0D10F33D1
:102C20000B409342ECD101E00120404210BDC04670
:102C3000AC0E00200020704770B504000D00084B5A
:102C400098474201074B9B189B78032B01D000202B
:102C500070BD044B98188369290020009847F7E756
:102C6000F92B0000AC0E0020F0B587B005000F0076
:102C700001924A4B984704004601494A9619002F91
:102C800051D1130042010020F070D35C002B0ED014
:102C90006201434B9B1801229A706401404B1C193E
:102CA000E369E178019A2800984707B0F0BDB3784E
:102CB0000C243457032B08D032000C3270780021DA
:102CC000F36998470223B370EFE7707832000C3253
:102CD0000121F3699847002810D00523B370033B06
:102CE000F370002C08DB7378802040421843C0B298
:102CF00001212C4B9847D8E77078F9E70423B3708B
:102D00007178002203920492002C09DB843B0B4370
:102D1000DAB203A8027201234372234B9847C4E737
:102D20000F220A40F5E7012F0AD0022F1DD0032FF2
:102D30002CD042011A4B9B1806229A70DA70ACE72D
:102D4000174B420199180220C870D35C002B05D0A4
:102D50006201134B9B1805229A709EE702228A702B
:102D6000002128000F4B984797E70D4B4201991817
:102D70000420C870D35C002B05D06201084B9B185F
:102D800001229A7089E702238B708EE74201044B7F
:102D90009B1800229A700532DA707EE7F92B00004A
:102DA000AC0E0020C54F000095510000F0B5C6469E
:102DB00000B505001F4B98470600430108331E4C21
:102DC000E4180434210028001C4B9847C0B208289E
:102DD0000CD0012128001A4CA047802040422843F3
:102DE000C0B20121A04704BC9046F0BD00212800DC
:102DF000134B9846984780277F422F43FFB200210C
:102E00003800C04772010C4B9B1801229A705B6915
:102E10002100280098470028E5D17601064B9E192D
:102E20000523B37001212800054CA047012138007B
:102E3000A047D8E7F92B0000AC0E00201D51000080
:102E4000C54F000010B5124B984700281EDB8022AA
:102E500000211048104B984700220AE051010D4B09
:102E60005B18FF2159700D4959619961D96101328F
:102E7000D2B2032AF2D90A4900200A4CA0470A49D3
:102E80000120A04709490220A047002010BDC046EC
:102E900091490000AC0E002099BF0000352C0000C5
:102EA000AD2D0000D9530000392C0000692C000022
:102EB00010B5014B984710BDB553000010B5014B3C
:102EC000984710BD394A000010B5014B984710BD16
:102ED000894A000010B5014B984710BD994A00007F
:102EE000F8B505000E0017000F4B9847002814DABC
:102EF000FF200D4B9847041E12DB3A0031002800DA
:102F00000A4B9847002807DB094A640113195D70D2
:102F100003231E40A6540020F8BD14204042FBE7C6
:102F200015204042F8E7C046F92B0000AD4A0000EA
:102F3000AC0E002010B582B200210020014B984752
:102F400010BDC046E12E000070B50500064B984745
:102F5000041E07DB2800054B98476401044B1C192D
:102F6000FF23637070BDC046F92B0000F94B0000D1
:102F7000AC0E002070B505000F4B9847041E17DB00
:102F800043010E4A9B5C002B0AD1022162010B4BCC
:102F90009B18997028000A4B9847002802DB70BDE7
:102FA0000121F3E76401054B1C190023A370F6E728
:102FB00012204042F3E7C046F92B0000AC0E00207F
:102FC000BD4C0000F0B5D6464F464646C0B586B06B
:102FD0000500067A30003F4B98470700F6096B7AE8
:102FE0005A1E9341DCB26B68984600286BDB04A83C
:102FF000394B98477A01394B9B189A7817236B44C1
:103000001A701B78012B0ED004A8354B9847172354
:103010006B441B78DBB2052B2BD0062B56D0002B34
:1030200029D001201FE02D4B99467B019A464B4643
:10303000534403229A7004A8294B98474B465246A2
:10304000D35C002B1AD0297A2B6801934346029354
:10305000002E35D0802252420A43D2B201A8027219
:103060004472204B984706B01CBC90469946A24635
:10307000F0BD0220F7E713204042F4E77B01174A36
:10308000D218937CD47C24021B199BB2002B06D14E
:10309000042393700023984601240126D3E77F017F
:1030A0000E4AD7190C22BA56D60F984500D9984621
:1030B000002A01DB0024C6E798459B415C42C2E739
:1030C0000F220A40CAE712204042CCE710204042BB
:1030D000C9E7C046F92B000019230000AC0E002000
:1030E000272300009551000070B50500074B984755
:1030F000041E09DB2800064B98476401054B1C1988
:103100000123A3700333E37070BDC046F92B0000A8
:1031100071530000AC0E002070B50400002905D0EA
:10312000012924D00221134B984770BD124B9847B8
:10313000051E19DB022120000E4B98470028F4D011
:10314000002120000B4B98470028EEDB6D010B4B54
:103150005D190123AB700233EB70EB690022032190
:10316000200098470020E0E712204042DDE7014BB5
:103170009847DAE7C54F0000F92B0000AC0E00209D
:1031800070B50D0014000F4B98470300002C08D0B9
:10319000002B05DB012D0BD0002D04D0022D0CD00F
:1031A00070BD094CF4E74001084B18184461F7E77B
:1031B0004001064B18188461F2E74001034B1818D0
:1031C000C461EDE7F92B0000352C0000AC0E0020A7
:1031D000002800D100BE70470368002B03D08B424B
:1031E00003D01B68F9E7002070470120FCE70000CE
:1031F00070B504000D00064B984701235840C0B23B
:1032000039220449044B984723682B60256070BD20
:10321000D9310000140F0100D131000003680B60A8
:103220000160704770B505000E0004680A4B9847AE
:1032300001235840C0B24F220849094B98472B68D8
:10324000002B03D12E60336005E01C002368002BA7
:10325000FBD12660336070BDD9310000140F01002E
:10326000D13100000368002B03D01A6802601800F7
:1032700070470020FCE7002912D00368994204D16E
:103280001B68036001200AE01300002B02D01A68BB
:103290009142F9D1002B05D00A681A6001207047CD
:1032A0000020FCE70020FAE770B504000E001500CE
:1032B000002812D0002912D0002A12D10020282282
:1032C0000A490B4B98476B1E2B420CD163600023BD
:1032D000A360E3602660002070BD0020EFE70020BF
:1032E000EDE70120EBE70D204042F5E7340F010048
:1032F000D131000070B504000D00002816D000295F
:1033000012D0012040220C490C4B9847A368E26878
:103310009A420DD0626813402268D35C2B70A36878
:103320000133A360002070BD0020EBE70020E9E737
:103330000A204042F7E7C046340F0100D1310000B7
:1033400070B504000D00431E9841C0B251220A49D5
:103350000A4B98476368E26813402268D554E368D3
:10336000A2689A1A61688A4201D9591AA160013388
:10337000E360002070BDC046340F0100D131000071
:1033800010B50400431E9841C0B267220349044BA4
:103390009847E068A368C01A10BDC046340F01000A
:1033A000D131000043B2002B07DB1F2318401E3B26
:1033B00083408022520001498B50704700E100E0B9
:1033C00003011B1A5A0164205043704710B5064B85
:1033D0005A685A60054B9847054B9847054B9847E4
:1033E000FF20054B984710BD00400041E936000022
:1033F000013D00005D3D000015360000C379DB098A
:10340000FCD1C379DB09FCD103789B0707D50023E6
:103410000370C379DB09FCD1C379DB09FCD101233B
:103420000370C379DB09FCD1C379DB09FCD183705C
:10343000412242700370C379DB09FCD10020704740
:1034400070B505000C00431E9841C0B249220449E2
:10345000044B98472C602000034B984770BDC04632
:10346000580F0100D1310000FD33000002681378CD
:1034700002210B43DBB21370D379DB09FCD1704717
:10348000204B5B78DB09FBD11E4B5B78DB09FBD162
:103490001C4B1B789B070AD500221A4B1A70194B3C
:1034A0005B78DB09FBD1174B5B78DB09FBD1012291
:1034B000144B1A70134B5B78DB09FBD1114B5B7813
:1034C000DB09FBD10F4B00229A705A605A619A6156
:1034D000DA611A7802210A43D2B21A70094B5B787A
:1034E000DB09FBD1084B102280215A50BFF34F8FCC
:1034F000BFF36F8F0131FF315A501A60034B1860D0
:10350000002070470018004000E100E02C0F002070
:103510000023002B0BD0FF22FF2A17D000290FD148
:10352000012393400B4A93601361002070470E28DB
:1035300002D00133DBB2ECE7DA00074BD25CEBE7F9
:1035400001239340034AD3600020EFE70D2040425F
:10355000ECE7C04600180040700F010070B582B063
:10356000264B1A69D9680A400192019A1A61244BC4
:103570001868431E9841C0B2D2222249224B984774
:1035800001256D422EE00139CEB2B0420ED832187C
:103590005210D1B2FF231340DB001C4A9B5CA342B4
:1035A00003D0F0DA0131C8B2EFE70E256B1C03D06F
:1035B000134B1B68280098470122A240019B9343AC
:1035C00001930198124B9847013844B2631C02D012
:1035D00001260020D9E7094B1A69D9680A400192EF
:1035E000019A1A61019B002B05D00198084B98475E
:1035F000013844B2EAE702B070BDC046001800408E
:103600002C0F0020780F0100D1310000700F010055
:103610002D910000C30709D5274B802252009A60E4
:10362000264A5A60244B5B78DB09FBD1830708D517
:10363000214B234A9A60234A5A601F4B5B78DB096F
:10364000FBD1430708D51C4B1F4A9A601F4A5A609A
:10365000194B5B78DB09FBD1030708D5164B1C4AD5
:103660009A601C4A5A60144B5B78DB09FBD1C30695
:1036700009D5114B822252009A60174A5A600E4BAC
:103680005B78DB09FBD1830608D50B4B134A9A60A4
:10369000134A5A60084B5B78DB09FBD1430609D516
:1036A000054B832252009A600E4A5A60024B5B78A7
:1036B000DB09FBD17047C046000C00400008290020
:1036C00001060000010801000204000002062100BA
:1036D0000308000003062900040709000503000091
:1036E0000508010006042100064B1A7AD2B21A72AC
:1036F0005A7AD2B25A729A7AD2B29A72DA7AD2B22A
:10370000DA72704700040040024B9C466044800A15
:10371000C0B2704700F8FFBD10B58469237EDB0797
:1037200002D5A37DDB070FD4237E9B0702D5A37DA3
:103730009B070ED4237E5B0715D5628B37231A4275
:103740000CD00833638310BD0123237503689847A9
:10375000F9E70223237583689847F4E74368218DCE
:10376000C9B29847EFE7237EDB09ECD080232376AC
:10377000C3689847638B9BB26383E4E7034B98422B
:1037800000D07047024B1960FBE7C04600140042AE
:10379000300F002010B5024B98470930C0B210BD61
:1037A00009370000C369DB0708D40368022213430A
:1037B0000360C3699B07FCD100207047042040428E
:1037C000FBE7000010B50B4B9847020000200028D3
:1037D00006D0094A09490020094B9847002010BD2E
:1037E00083001B189900074BCB5C9A42F7D001303D
:1037F000C0B2ECE7093700005E02000000100100D3
:10380000D1310000900F010070B50400384B98478B
:10381000E369DB071DD483001B189A00354B9B1806
:103820005A681C231A40E3699B07FCD123689B0755
:1038300009D5236802218B432360E3699B07FCD1F0
:10384000E3699B07FCD4012313432360E3699B07CF
:10385000FCD1E369DB07FCD483001B189A00254BDD
:103860009B185B682360E3699B07FCD183001B18EE
:103870009A00204B9B189B686360E3695B07FCD14F
:1038800083001B189A001B4B9B185B689A040BD48F
:10389000C022D201134207D183001B189A00154B96
:1038A0009B189B89A38115E083001B189A0011497E
:1038B00089188A89A389D204D20C5B0B5B0313435A
:1038C000A3818B7B07221A40A3895203DB04DB0C04
:1038D0001343A381074A83001D18A9000D00511846
:1038E000C97BA1735219127C3023E254002070BDB1
:1038F000C5370000900F010070B506000C00431E94
:103900009841C0B2C4221949194B98472000194B5D
:103910009847051E01D0280070BDB4613100200019
:10392000154B98472000154B984743B2002B0ADBF4
:103930001F21014001228A408021114C6250BFF3B7
:103940004F8FBFF36F8F002B07DB1F210140012238
:103950008A40C02149000A4C6250002BDBDB1F2348
:1039600018401E3B8340064A1360D4E70010010054
:10397000D1310000093800007D3700009537000084
:1039800000E100E0836989B21985704783690122EB
:103990009A757047836902229A75704710B5024B79
:1039A0001868024B984710BD300F002019370000EF
:1039B000F8B506000C000800734B9847002301E09F
:1039C0000133DBB2022B0BD81901C9186F4A521808
:1039D0004C3212789042F3D16C4D3C356D1800E0BA
:1039E0000025002E00D182E0002C00D17DE00120D6
:1039F000674A6849684B9847002D00D1C0E0E369E9
:103A0000DB0721D42A786B781B021343AA781204AF
:103A10001343EA7812061A431C231A40E3699B07F2
:103A2000FCD123689B0709D5236802218B432360BF
:103A3000E3699B07FCD1E3699B07FCD40123134393
:103A40002360E3699B07FCD1E369DB07FCD43460A6
:103A50002B786A7812021A43AB781B041A43EB786E
:103A60001B0613431C221340082B42D0002C00D10C
:103A700082E0002D00D17DE00120484A4549464BB7
:103A800098472B786A7812021A43AB781B041A43C2
:103A9000EB781B061343424A13402360E3699B07FC
:103AA000FCD12B796A7912021A43AB791B041A43B1
:103AB000EB791B0613433B4A1340802292021343C7
:103AC0006360E3695B07FCD12B7B23736A7B302344
:103AD000E2542B795B0751D101233371AA7BEB7B35
:103AE0001B021343F3800020F8BD002080E7002074
:103AF0007EE7002C3CD0002D38D001202A4A2549F1
:103B0000254B98472B786A7812021A43AB781B042E
:103B10001A43EB781B061343214A13402360E369E1
:103B20009B07FCD12B796A7912021A43AB791B04EB
:103B30001A43EB791B0613431C4A13401C4A1343D8
:103B40006360E3695B07FCD12B7A6A7A12021A433D
:103B5000AB7A1B041A43EB7A1B06134363626A7B3E
:103B60003023E254E369002BFCD1B2E70020C5E723
:103B70000020C3E7002080E700207EE70223ACE7B7
:103B80000D204042B0E7C04609370000900F010009
:103B90005209000000100100D13100001709000097
:103BA000FCFEFFFFBF1DFDFF2B090000BFDDFDFF79
:103BB0004002020010B5041E0DD00368002B08D08F
:103BC0000120064A0649074B98472068064B98474C
:103BD00010BD0020F5E70020F3E7C046AD09000066
:103BE00000100100D1310000A5370000F0B5CE462D
:103BF000474680B589B081460D0004680B68039381
:103C00004B6804930023059306930679002814D08B
:103C1000002C10D00120374A3749384B9847E369C8
:103C20005B0764D1E3699B07FCD123689B0720D421
:103C30001420404256E00020EDE70020EBE7002290
:103C40002DE04878000247460743B8460231039109
:103C5000013205924246A2625BB2002B35DB0020A6
:103C600000283ADB0598AB68984202D3069A934243
:103C700033D9237EDBB25A07E1D5A16A049A002A20
:103C800008D0501C04901170012E03D9901C049090
:103C9000090A5170069A0192013206920122002A05
:103CA000DAD10699059A9142D6D34946C888D907F0
:103CB000D2D50399002906D0481C03900878804685
:103CC000012EBED8C4E78046C2E701235B4263836E
:103CD0008133237613204042C2E7237E9B07FCD02A
:103CE0000323237609B00CBC90469946F0BD04200E
:103CF0004042F7E7B20A000000100100D131000095
:103D0000144A66239382116A090C136A9B0F9B075E
:103D10000904114801400B4302210B4313629369CC
:103D20001B0C1B04FE21C9030B4046210B4393616E
:103D3000137F27390B401377064BDB689B07FBD5B6
:103D4000044BDB685B07FBD5024BDB681B07FBD52D
:103D50007047C046000800400000FF0F02221F4BC2
:103D60009A841E4BDB68DB06FBD51D4A1B4BDA62CF
:103D70001C4B1B689B0E3F2B28D09B02802292007D
:103D80001A43164B9A62932252009A844221E23AD5
:103D90009954154A9A640022DA649B8C5B0718D503
:103DA0000E4BDB68DB06FBD550230C4AD35C5B076C
:103DB00007D45023D35CDB0703D45023D35C9B0789
:103DC000F2D50A4B5B78DB09FBD17047FC22D201AC
:103DD000D7E7024BDB68DB06FBD5E5E700080040D0
:103DE00080BB010424608000B7050E00000C004079
:103DF000024B034A5A6005221A60704710E000E047
:103E0000FFFFFF0010B5014B984710BDF13D0000CA
:103E1000080E0BE00B4B0C4858609860094B1B6870
:103E2000DB03FBD5094B9C4661441000421ED2B215
:103E30000028EFD1034B59609960024B1B68DB03EC
:103E4000FBD5704710E000E0FFFFFF00010000FF1E
:103E500010B5C3689A7BD20700D410BD01229A73B3
:103E600003689847F9E70000024B9C466044800ACB
:103E7000C0B2704700D4FFBD064B984203D0064B3A
:103E8000984203D07047054B1960F8E7034B59601F
:103E9000F8E7C046002C004200300042340F0020FA
:103EA00010B50E4B98470330C0B20023012B0BD83E
:103EB0009A00D21891000A4A8A5C904202D00133DB
:103EC000DBB2F3E758B207E0A42252000549002014
:103ED000054B98470120404210BDC046693E000096
:103EE0001C10010044100100D131000070B5060023
:103EF0000C0008003F4B98470500F4608D223E49B6
:103F000001203E4B9847E37BDB09FCD123889B07CC
:103F100004D500232380E37BDB09FCD1012323802C
:103F2000E37BDB09FCD1AA0052199100344B5B18EA
:103F30005A88228019792172DB8863810C2313400F
:103F4000082B39D0002B43D12D4AAB0058198100E2
:103F500008005118898921831218138A6383012369
:103F6000637331002000274B98472000264B984769
:103F70001230C0B243B2002B0ADB1F2101400122E4
:103F80008A408021214C6250BFF34F8FBFF36F8F67
:103F9000002B07DB1F21014001228A40C02149007C
:103FA0001A4C6250002B05DB1F2318401E3B834038
:103FB000164A1360002070BD114AAB0058198100E9
:103FC00008005118C968A16112181369E361C6E7B6
:103FD000042BC4D10A49AB00581982008A18107BFF
:103FE0002076127C62765D19AB00C9180B7A2375B6
:103FF000B5E7C046A13E000044100100D1310000E9
:104000001C100100793E0000693E000000E100E064
:10401000C268138802210B439BB213807047C268A9
:10402000138802218B4313807047C3681B885B0889
:1040300001201840704700207047000010B5C0688C
:10404000034B98471230C0B2024B984710BDC04690
:10405000693E0000A533000010B5024B1868024B02
:10406000984710BD340F0020513E000010B5024BA0
:104070005868024B984710BD340F0020513E000095
:1040800000207047124B1A68530B1F210B40900CF5
:104090000140D00D072202401F2B12D01F2912D041
:1040A000072A12D09B010B4312031343094A1385BD
:1040B000D37803210B43D370D3780C210B43D370F7
:1040C00070471A3BEAE70239EAE7023AEAE7C046F4
:1040D000246080000050004110B5837C0F22134003
:1040E000C17C083A0A40012A0DD01A000832520158
:1040F00019498C4662441021D1715B01174A9446DC
:104100006344197010BD4A060CD5C27C40218A4315
:10411000C2741A00083252010F4CA4466244802433
:1041200014715171C27C08218A43C2745A010C492E
:10413000891800248C728C7608335B0106498C4602
:1041400063446F21D971054B9C4662441170054B45
:104150009B6A807C9847D5E7005000410851004198
:104160003C0F0020BC0F002010B5827C0F231340B1
:1041700020228A40D2B25B0105498C4663441A7002
:10418000044B1B6B8268807C0121984710BDC046A0
:1041900008510041BC0F002010B5837CFF2B02D0DA
:1041A000C27C520600D410BDC27C4024A243C2741B
:1041B000024A146B82681800A047F4E7BC0F002085
:1041C000F0B583B0847C0F232340184D2E8801ADB9
:1041D0002E80FF2C1ED0C47C64061BD500291BD06A
:1041E0001C0008346401124DAC46644480252571DE
:1041F00001AD6E5C1C00083464010D4FBC46644484
:10420000E671695C5B010B4CA446634419701100B4
:10421000094B984703B0F0BD1C0008346401044DFD
:10422000AC46644440256571E2E7C0465810010081
:10423000005000410851004199410000F0B583B0A1
:10424000837C0F2213403C4A948801AA14805A01AF
:104250003A4CA418002933D01A0008325201384DC4
:10426000525D120907251540C27C072616400A0137
:10427000A218947AE4B2022D2AD0A40744D5947AE5
:104280000225AC43947201AC655C1A0008325201FD
:104290002B4FBC466244D571625C5B01294CA4463D
:1042A00063441A70012E45D1C37C5B0642D5C37CA2
:1042B000DB0999423ED000221900234B984739E090
:1042C0001A00083252011E4D555D07221540CBE7FA
:1042D000E507D2D5947A0125AC43947201AC655CB4
:1042E0001A0008325201164EB4466244D571625C1F
:1042F0005B01144CA44663441A704B1E9941C9B229
:104300000422114B984715E05A00521812010B482D
:1043100082180020907201A8445C1A0008325201F1
:10432000074DAC466244D471425C5B0105498C4642
:1043300063441A7003B0F0BD581001003C0F002018
:104340000050004108510041C141000070B50025F6
:1043500018E0104C2034AE0073199800103020186B
:10436000043003210C4B984772199300E31826334D
:10437000FF221A707619B300E41827340023237043
:104380000135EDB2082DE4D9A02200210348044BE9
:10439000984770BDBC0F0020994100003C0F0020E1
:1043A00099BF0000F0B5C64600B505000E00837C3D
:1043B0000F241C406201564B9B18002958D05969A4
:1043C0008904890C2B8A534A934253D0013B1BB278
:1043D0000B40EA7C07271740002E07D02200083246
:1043E00052014D48844662440220D071AA68944626
:1043F0006144A9606A6891424ED292B28BB2D21ADD
:1044000092B2EB7C9B0637D52B8A98469A4200D80D
:1044100090462B689C4661444246E8683F4B98476B
:10442000E96862013A4B9B1819616301384AD21856
:10443000516943469B049B0C890B89030B435361D1
:104440005169374B0B405361002E07D1012F5DD0CE
:104450004A22630133498C4663441A70083464016C
:104460002D4B9C4664448023637104BC9046F0BD90
:104470000021A7E71BB2ABE780239B019A4207D834
:1044800090462B6859186201214B9B181961CCE7A3
:1044900080239B019846F4E7EA7CD2060FD5EB7C9B
:1044A00010229343EB746201194B9B185A69920BCB
:1044B0009103596159691A4A0A405A61C4E7012FA8
:1044C0000DD06401184A944664444A2222702A8A14
:1044D00093420BD000212800144B9847C5E7640194
:1044E000114A944664444B222270F0E7EB7C402250
:1044F0009343EB740E4BDB6AA87CA96898470028AD
:10450000B3D1EB7C40221343EB74E3E74E22A0E7E8
:104510003C0F0020FF0300000050004115BF0000C9
:10452000FF3F00F00951004108510041994100004E
:10453000BC0F0020F8B5DE4657464E464546E0B56E
:1045400004000F00837C0F251D40002959D06A010B
:10455000714B9B185B681B019B0C9A46002F53D034
:104560006A016D4B9B185B689B049B0C9846268ADE
:104570006A4B9E4201D0013EB6B2434633409B4651
:10458000E37C07221A409146002F07D02B00083306
:104590005B01634A944663440122DA71E37C9B0623
:1045A00011D56268002A0ED092B22389D21A92B233
:1045B0002368A1688C4663441800E168934500D2E3
:1045C0005A46584B98476368002B20D1E27CD206AC
:1045D0001DD5E37C1022934320221343E3744E49FC
:1045E0006A01E3685350238A8A1851689B041B09A7
:1045F0004D4801400B43536053689B0B9903516036
:1046000047E000239A46A9E700239846AFE7002F2A
:104610001DD0228A93451AD2E37C10229343E3747F
:10462000A3684344A3604B46012B66D06B013F4A0D
:104630009446634425221A70002D03D16D01364B38
:10464000E268EA5000212000394B984733E0A26825
:104650005244A2609342E6D99BB291B25B1A9BB2DC
:10466000E17C89062DD5218A8B4200D81900E068AB
:104670006B01294A98506B012748C01842688B0487
:104680001B0929490A401343436043689B0B9A0363
:104690004260002F08D14B46012B35D025226B01FB
:1046A00024498C4663441A7008356D011C4B9C46A6
:1046B000654440232B713CBC90469946A246AB46CC
:1046C000F8BD218A8B420BD9802189018B420FD8FA
:1046D000B343190023689A186B010F481A50CAE7B0
:1046E0008B4208D2E17C20200143E1741900F1E7FC
:1046F00080218901EEE71900ECE76B010B4A944633
:1047000063442D221A7097E76A01034B9B1800221D
:104710009A762D32C3E7C0463C0F0020FF0300000D
:104720000050004115BF0000FF3F00F0085100415C
:10473000994100000951004170B5894B1D8CADB203
:10474000002D01D00024BFE0998B1B8B0B405A0732
:104750000DD49A0515D41A0637D470221A423ED1C8
:104760001A0757D4DB0700D568E0002306E00422CF
:104770007B4B9A837B4B1B6A98470123002BE1D02C
:1047800070BD774B784A9A839A82923AFF3A1A839D
:104790000023032B12D85801744A121812891207E9
:1047A000120F032A02D00133DBB2F2E76F4B1B1862
:1047B00019894904490D00221A8100E00021694B42
:1047C0005B6A032098470123D8E78022644B9A83D1
:1047D000644B5B6A0021052098470123CEE7604BBC
:1047E0009A839A82604A1A83614B9B8C9B060CD4F5
:1047F0005F4BDA68D0231340D02BF9D1594B5B6A59
:104800000021022098470123B8E7594BDB68DB06FB
:10481000FBD5F3E7524B0021802252009954F83A1D
:104820009A8368329A82504A1A83524B98474D4B6A
:104830005B6A00210120984701239FE7484B4A4AC1
:104840009A839A82923AFF3A1A83464B5B6A002116
:1048500004209847012391E7DA0607D45A0608D4C2
:104860009B062FD50021444B98472BE0434B98479C
:1048700028E00121404B984724E05A060FD41A073C
:1048800011D49A0713D4C17C07220A40012A19D1F6
:104890005A0710D4DB0615D5384B984712E0012192
:1048A000354B98470EE00121354B98470AE001212E
:1048B000344B984706E00021314B984702E0002135
:1048C0002D4B98470134E4B2082C00D958E7254B0A
:1048D0002033A2001119880001001030181804308C
:1048E0005B1826331B78FF2BECD0827C0F23134000
:1048F00001229A402A42E5D01A0008325201184992
:104900008C466244D2795B011F498C4663441B7814
:104910001340D7D0C27C4721114001299CD052B20C
:10492000002AAADB9A06CAD45A070DD4DA070FD494
:10493000C17C07220A40012AC4D11A070CD4DB0625
:10494000C0D50E4B9847BDE700210D4B9847B9E7FE
:1049500001210E4B9847B5E70121094B9847B1E774
:1049600000500041BC0F0020010200003C0F00205D
:10497000000800404D43000069410000D94000009C
:104980003D420000A54300000951004135450000AB
:1049900000B583B0002201AB5A70214B9B78DB0736
:1049A0001BD41F4B9B789B07FBD11D4B1B789B0790
:1049B0000CD51B4A137802218B431370184B9B783C
:1049C0009B07FBD1164B9B789B07FBD40122144B12
:1049D0001A70134B9B789B07FBD1114B9B78DB071D
:1049E000FBD4104B104A1A625A629A62DA621A6356
:1049F0000E4B98470E4B98470422094B1A70084BF0
:104A00009B789B07FBD1064A0A4B536201AB5B784C
:104A100001210B43DBB21381002003B000BDC0466F
:104A200000500041BC0F0020814000004D430000B9
:104A3000854000003C0F0020104B9B789B0719D14C
:104A40000E4B9B789B07FBD10C4B1B78DBB29A0774
:104A500008D402221343DBB2084A1370074B9B7839
:104A60009B07FBD18022064B1A60064A034B1A8330
:104A70000020704711204042FBE7C0460050004133
:104A800000E100E08D020000024A138901218B43FE
:104A9000138170470050004180235B421843C0B22D
:104AA000014B98727047C04600500041F0B5C646B1
:104AB00000B50F23034044B2A446002B05D0002CC0
:104AC00001DB1C0002E01C1D00E01C002600032589
:104AD00029401F00042B00D97AE0A5002D19AC0055
:104AE000A046434C2034444426342478FF2C00D084
:104AF00071E0002918D1002B04D06446002C01DBA2
:104B00000433DBB29C00E3189D00394B20335B1962
:104B100026331B78FF2B61D17B00DB199C00354BC2
:104B20001B199B68002B5CD06346002B37DB7B0096
:104B3000DB199C002F4B1B199B685C1EA341DBB249
:104B4000002B0AD06346002B33DB7B00DB199C0073
:104B5000284B1B191B8A934246DB6346002B2FDB35
:104B60007B00DF19BC00234B1B199B689C46204B24
:104B7000B500AF19BC001C19674627644434228075
:104B800001312033AC19A20014009A182732117099
:104B90001B1926331870002004BC9046F0BD7B0022
:104BA000DB199C00134B1B19DB685C1EA341DBB2B5
:104BB000C6E77B00DB199C000E4B1B195B8ACAE71A
:104BC0007B00DF19BC000B4B1B19DB689C46CEE752
:104BD00012204042E0E714204042DDE7142040422A
:104BE000DAE713204042D7E713204042D4E7C0461B
:104BF000BC0F002058100100F8B504000F25054037
:104C000047B2FB0F9C46002D05D0002F01DB2A0088
:104C100002E02A1D00E02A00160093009B1899006C
:104C200010312348203040180430042D30D8930030
:104C30009A1891001E4B20335B1826331B78FF2BEC
:104C400026D0032261461B4B9847B200921991006F
:104C5000174B5B184033DA7907231340012B18D028
:104C6000002F1CDB144A08346401A35C07218B432A
:104C7000A3540F4B2033B100881982009A182732B1
:104C8000002010708E19B2009B182633FF221A7074
:104C9000F8BD083464010022074BE254E9E7064AF4
:104CA00008356D01AB5C70218B43AB54E1E7C04626
:104CB000BC0F0020C141000000500041F0B50F239F
:104CC000034040B2002B05D0002801DB1E0002E0AB
:104CD0001E1D00E01E0034001A0008325201B349C4
:104CE000555CEDB2042B00D951E1B10089198E0059
:104CF000AF4A2032921926321278FF2A00D149E1B8
:104D00005A01AC4EB618A10009198F00A84AD21951
:104D10004032D17907220A40012A37D0002800DA30
:104D2000CCE06A0700D03EE1A14AA0000719B90013
:104D300051184031C9794907490F0D43190008310D
:104D400049019A4FCD550419A100521844321088D8
:104D5000820399490A4080218900884200D9F9E0FC
:104D60000139FF39884200D907E1802800D906E1DE
:104D7000402800D905E1202800D904E1102800D9F5
:104D800003E1F839814289414942E4E076322A421E
:104D900000D002E11A000832520111208349505418
:104DA000834AD219443212889103834801408020FB
:104DB0008000824210D80138FF38824227D8802AEA
:104DC00027D8402A27D8202A27D8102A27D8F838C9
:104DD00090428041404200E007200007014371609B
:104DE0009104890C8020800082421AD80138FF3853
:104DF000824259D8802A59D8402A59D8202A59D8CD
:104E0000102A59D8F8389042924152420AE00620BE
:104E1000E3E70520E1E70420DFE70320DDE70220E8
:104E2000DBE7072212070A4372611A0008325201B7
:104E30005E498C46624440205071802111715D4A68
:104E40005B01D31800219972997659490B002033E0
:104E5000A6003719BD005B1926331B780F252B40A0
:104E60003719BD004D192F6C5D01AF503419A600E4
:104E700089194431098852195468890409094F4E27
:104E80003440214351605168890B8C0354600833CE
:104E90005B016344B0221A715871494B9C466544CA
:104EA00010232B70002067E00622BBE70522B9E73C
:104EB0000422B7E70322B5E70222B3E770222A42B1
:104EC00000D06DE03A49A0000719BA008A184032B4
:104ED000D2795207520E15431A0008325201334F4D
:104EE000D5550419A2008918443109888A04920C06
:104EF00080208000814210D80138FF3881421FD8BD
:104F000080291FD840291FD820291FD810291FD831
:104F1000F83888428941494200E0072109070A43DD
:104F200072611A000832520120498C466244802185
:104F300011715A011F4B9B1800229A7600201BE02A
:104F40000621EBE70521E9E70421E7E70321E5E78F
:104F50000221E3E7072109070A4372601A000832B9
:104F6000520112498C466244402151715B01114A41
:104F7000D31800229A720020F0BD0621EBE705212C
:104F8000E9E70421E7E70321E5E70221E3E712204F
:104F90004042F1E712204042EEE714204042EBE7A6
:104FA00014204042E8E714204042E5E70050004169
:104FB000BC0F00203C0F002000C0FF0FFF3F00F09F
:104FC00009510041F0B50F22024040B2C40F002A3F
:104FD00005D0002801DB130002E0131D00E01300E0
:104FE0001D009800C018830010331800474B203371
:104FF0001B180433042A00D984E0012918D00029A1
:105000003DD0AA0052199100404B20335B18263343
:105010001A780F23134008335B013D4A94466344DA
:1050200098791023A3401840431E9841C0B2F0BDA8
:10503000364803002033AA005619B1005B18263306
:105040001B780F210B401026A640F6B2190008313C
:1050500049012F4FBC4661444E712021A140CCB282
:1050600059012C4B9C4661440C7052199300C31893
:105070004033DA7908210A43DA710020D7E79A7CB5
:105080000F310A401100083149012148844661442A
:1050900088791021A140084224D0C9B210000830FC
:1050A0004001604401712021A140CEB255011A4F48
:1050B000BC4665442E70C07908420AD01100083100
:1050C0004901134884466144CE710120A040C0B21A
:1050D0000871D87C07210140012905D0DA7C08211C
:1050E0008A43DA740020A2E70832520108498C464C
:1050F0006244917930221142F4D1020008218A439E
:10510000DA74EFE71220404291E7C046BC0F00205E
:1051100000500041095100410851004170B50E0096
:105120000F2404406201184B9B1819685D68AD0498
:10513000AD0C042C1FD8002E20D0230008335B01B7
:10514000124A9B5C112B1CD1230008335B0194464F
:105150006344DB79DB0601D4002070BD08223000F7
:105160000B4B984708346401084B9C466444102359
:10517000E3712800F1E712204042EEE7122040429E
:10518000EBE713204042E8E73C0F002000500041CD
:1051900015BF0000F0B5DE4657464E464546E0B521
:1051A00085B08046047A0F22224064B2E30F99460C
:1051B000002A05D0002C01DB100002E0101D00E0E9
:1051C00010000500624B1F00203781000E18B44606
:1051D000B6001036BF190437614688001B184433E7
:1051E0001B885C498B4242D05E1EB6B2414649687C
:1051F0000E40042A00D9A1E0424612685648824275
:105200000CD988180190554884460198604505D806
:10521000920703D1002C2CDB99422DD2AB005B19F5
:105220009A004B4B9B181B6C002B00D189E001238B
:105230000193002C0ADB002E08D0AB005B199A000A
:10524000434B9B181B6C002B00D17DE0AA00521928
:1052500091003F4B5B184033DB791B070FD50220D1
:1052600005B03CBC90469946A246AB46F0BD1E0038
:10527000BCE700230193DCE700230193D9E703A8EF
:10528000374B9847AA0052199100314B5B184033B5
:10529000DB795B0630D4AB005B199A002C4B9B4644
:1052A000934440235B449A46DB79402213435246A1
:1052B000D37103A82B4B98475B46424612685A634A
:1052C000424652689A6300235A46D3634B46DB0139
:1052D0005246D2797F211140019A52010B4320217D
:1052E0008B431A435346DA7143465B7A002B08D04E
:1052F000002E1BD0002205E003A81A4B984701207E
:10530000AEE70022AB005D19A900114B5B184033DA
:105310001101DA79102082430A43DA71002C07DB8D
:1053200000213800104B9847002099E70122E9E757
:10533000002138000D4B9847002091E71220404291
:105340008EE7132040428BE71220404288E7C04698
:10535000BC0F0020FF030000FFFFFF1FFF7F0020A6
:10536000192300002723000035450000A543000055
:1053700010B50F22024040B2C10F002A05D000280C
:1053800001DB100002E0101D00E0100083001B187C
:105390009C0010340548203000190430042A00D93C
:1053A00010BD0222024B9847FAE7C046BC0F00200E
:1053B000C1410000002906D0012806D0002801D1F3
:1053C000034B196270470349F6E7014B5962F9E74D
:1053D000BC0F002081400000002908D0002808D020
:1053E000012809D0022806D1054B196303E00549BD
:1053F000F4E7034B99627047014BD962FBE7C04663
:10540000BC0F00208140000010B5014B984710BD33
:105410003947000010B506484030064B9847064B08
:1054200098470648064B9847064B984710BDC0461C
:10543000A4120020715F0000195700000400002032
:10544000E95F00002160000010B5014B984710BDD6
:105450001554000010B58B79CC7924021C43012A25
:105460000AD04B78212B09D1072C0AD10023220026
:105470000549064CA04710BD0020FCE70D20404226
:10548000F9E701204042F6E724130020A15A00006A
:10549000F0B583B005000F0014008E79CB791B02A4
:1054A0001E43234B98477B78202B05D0222B26D0F8
:1054B0000D20404203B0F0BD072E31D1002C17D093
:1054C0000722010068461B4B98471B4B9B68002B2B
:1054D00003D068469847002825D0174B009A1A60D9
:1054E0006A4692889A806A4692799A710020E1E72A
:1054F0000023320001002800104CA047DAE7002307
:105500000022002100200D4CA0470B4BDB68002B34
:105510000BD0BA78F8780002104398470020C9E70A
:1055200001204042C6E70020C4E70020C2E7C04691
:105530002D60000015BF000024130020A15A0000B8
:1055400070B50C78650903232B40012B14D10D791C
:105550004B791B022B430B4D2D7CAB4203D0094DE5
:105560006D7CAB420BD164B2002C02DB064B98473A
:1055700070BD064B9847FBE70A204042F8E70A2037
:105580004042F5E7241300209154000055540000D8
:10559000F8B5CE46474680B50E00876808680023F8
:1055A00098464346012B45D800284BD08378427952
:1055B000022A01D00A2A48D1C1464246BA5C934227
:1055C00046D0FF2A47D14246BB5405227168254B7D
:1055D000984704000CE04B46FB189D702800224BB6
:1055E00098473460207820187168204B9847040051
:1055F000002C13D0A578E178227963791B02D218A8
:1056000092B228001A4B9847002827D16BB2002B82
:10561000E1DB3D712800144B9847E2E730680378DE
:10562000C018042271680F4B984743460133DBB220
:105630009846B6E701220F4B5A7500200CBC9046E5
:105640009946F8BD0A204042F8E70A204042F5E7B3
:1056500012204042F2E71C204042EFE71420404273
:10566000ECE7C04649600000752F0000676000004D
:10567000E12E00002413002070B5856800291AD09F
:105680000B685B79022B18D00A2B24D1002401E08F
:105690000134E4B2012C12D82B5DFF2BF8D0FF238C
:1056A0002B552B199878FF28F2D00C4B98472E19C0
:1056B000FF22B270ECE70024ECE70024EAE7287947
:1056C000FF2803D0054B9847FF232B710022044B82
:1056D0005A75002070BD0A204042FBE7492F0000A8
:1056E0002413002010B501290AD0002904D0022972
:1056F0000AD11B20404210BD1100054B9847FAE724
:105700001100044B9847F6E70D204042F3E7C046EE
:10571000915500007956000010B50B4B98470128B1
:105720000ED80A480A4BC3610300103303621830D5
:10573000084B984708490120084B9847002010BDA6
:1057400011204042FBE7C0463960000024130020CE
:10575000E5560000D15F000064000020395F0000C2
:1057600070B5034DE87C034CA047287DA04770BD71
:1057700024130020E930000010B5012810D00028C3
:1057800006D0022814D0032816D00D20404206E08F
:105790000B4B187D0A0002210A4B9847002010BDD0
:1057A000074BD87C0A000221064B98470020F6E7F9
:1057B000034B99600020F2E7014BD9600020EEE72F
:1057C0002413002081310000014B587D7047C046F2
:1057D0002413002070B504000D00074B98470028E3
:1057E00007D0064B187D00232A002100044CA04757
:1057F00070BD11204042FBE7C95700002413002070
:10580000A15A000070B504000D00074B984700280E
:1058100007D0064BD87C01232A002100044CA04766
:1058200070BD11204042FBE7C9570000241300203F
:10583000A15A000010B5064B1C6905E000220121A9
:105840002000636898472468002CF7D110BDC0463B
:105850004813002010B5064B5C6800E02468002C5B
:1058600004D06368002BF9D09847F7E710BDC04615
:105870004813002070B506000D00074BDC6800E0FF
:105880002468002C06D06368002BF9D02900300072
:105890009847F5E770BDC04648130020F8B50700EB
:1058A0000E0015000B4B9C6800E02468002C0DD006
:1058B0006368002BF9D02A0031003800984700288F
:1058C00006D00A30F1D00120404200E00020F8BDAF
:1058D0000120FCE74813002010B5014B984710BD8C
:1058E0005558000010B5010001220020014B9847D7
:1058F000002010BD9D58000010B5014B984710BD09
:10590000D52E000010B504000378002B12D1437887
:10591000052B12D0092B0DD18278104BDA768278C4
:10592000C3781B02134306D103210C4B9976012047
:105930000B4B984710BD0421F7E78078094B984737
:10594000A278E3781B02134306D00321034B997618
:105950000120034B9847EDE70221F7E748130020A9
:1059600075580000F958000010B5002903D001292E
:1059700006D0002003E01000034B9847002010BD24
:105980001000024B9847FAE705590000E55800005F
:1059900030B583B0021E14D01E4B1B6818685968BE
:1059A0001D4B9847002832D08178C3781B02C91854
:1059B00089B2411801910422184B98470090FF24A6
:1059C0000DE0174B984701201FE02C00009803784A
:1059D000C018009004220199104B98470090009B3A
:1059E000002B11D09D78AC42F0D00A4B1C69002CE2
:1059F000EBD06A460021200063689847002801D058
:105A00002468F4E72C00E1E7012003B030BD00205A
:105A1000FBE7C046481300208D600000496000008D
:105A20003558000010B50D4B98470D4C0223A37656
:105A30000023E376637700200A4B9847207F0A4BC8
:105A400098470A4A00210020094CA047094A022130
:105A50000020A0470020084B984710BD3558000093
:105A600048130020492F0000352F0000ED5E000094
:105A70008131000069590000752F000010B5002821
:105A800002D0012804D010BD0020034B9847FAE74C
:105A9000024B9847F7E7C04675580000255A0000AA
:105AA00010B584B001AC01910292207263722000A3
:105AB000014B984704B010BDC52F000010B504007D
:105AC0000A781F231340022B12D18A79CB791B024B
:105AD000134301D000200CE008790021054B9847C2
