:100000000C94D2000C94FA000C94FA000C94FA00B0
:100010000C94FA000C94FA000C94FA000C94FA0078
:100020000C94FA000C94FA000C94FA000C94FA0068
:100030000C94FA000C94FA000C94FA000C94FA0058
:100040000C9448130C94FA000C9497100C94C9105B
:100050000C94FA000C94FA000C94FA000C94FA0038
:100060000C94FA000C94FA001E04030314032503F5
:100070003603470354036503760387039803A903F4
:10008000120412041204BA03CB0312041204120461
:10009000DC03F0030104EA0404051505D406D406C4
:1000A000B705D406D406D406D406D406D406D4069E
:1000B000D406D406D406D406E70502061D060800B9
:1000C0000000BE922449123EABAAAA2ABECDCCCCD7
:1000D0004C3E00000080BEABAAAAAA3E0000000071
:1000E000BF000000803F0000000000084178D3BB43
:1000F0004387D1133D190E3CC3BD4282AD2B3E68F0
:10010000EC8276BED98FE1A93E4C80EFFFBE01C4E0
:10011000FF7F3F000000000007634236B79BD8A76F
:100120001A39685618AEBAAB558C1D3CB7CC57631C
:10013000BD6DEDFD753EF6177231BF000000803FCA
:100140000000000800020100000304070000000096
:100150000000000001020408102040800102040891
:100160001020010204081020040404040404040400
:100170000202020202020303030303030000000061
:1001800023002600290000000000250028002B0085
:1001900000000000240027002A00430A9E0AF910EC
:1001A0004A0AA50A11241FBECFEFD8E0DEBFCDBF9B
:1001B00011E0A0E0B1E0E8E3FDE202C005900D929D
:1001C000AA3BB107D9F723E0AAEBB1E001C01D9229
:1001D000AA3EB207E1F710E0C0EDD0E004C02197DD
:1001E000FE010E946815CD3CD107C9F70E94271176
:1001F0000C948F160C94000021E831E0FC0131834F
:1002000020830895CF93DF93EC010E94FC00CE0180
:100210000E943611DF91CF9108950F931F93CF93D2
:10022000DF93EC018B01019739F46F3F7F4F21F48D
:100230008AEB91E00E94AC0ACD2B39F40F3F1F4F9F
:1002400021F48AEB91E00E94B60ADF91CF911F91D1
:100250000F910895FC0181E891E09183808380E013
:1002600090E0ABEDB4E482839383A483B583DF0194
:10027000A05DBE4F1D921D921D921C921397519628
:1002800081E090E011969C938E938AEB91E09783A6
:10029000868312961C9280E090E8A9E8B5E48087F6
:1002A0009187A287B38789E29CE5A4E6B2E48487BC
:1002B0009587A687B787DF01A75CBE4F40E050E077
:1002C00060E27EE34D935D936D937C931397149658
:1002D00040E055E06BED74E44D935D936D937C933A
:1002E0001397EA5AFE4F108208950F931F93CF93EE
:1002F000DF938C01EB01209739F05CF1CB01429741
:10030000029708F46FC025C063E171E08CE393E0CD
:100310000E9477114AE050E0BE018CE393E00E9416
:100320004C126FE071E08CE393E00E947711249609
:10033000CC0FDD1FCC0FDD1FC00FD11F48815981AD
:100340006A817B8120E130E08CE393E00E94F2112E
:1003500049C066E071E08CE393E00E9477114AE0C7
:1003600050E0BE018CE393E00E944C126EE071E01D
:100370008CE393E00E947711FE017C96EE0FFF1F45
:10038000EE0FFF1FE00FF11F4081518162817381E9
:1003900020E130E08CE393E00E94DF1162E171E044
:1003A0008CE393E00E9477114AE050E0BE018CE3B9
:1003B00093E00E944C126EE071E08CE393E00E94A7
:1003C00077112496CC0FDD1FCC0FDD1FC00FD11F7E
:1003D000488159816A817B8120E130E08CE393E0A0
:1003E0000E94F211DF91CF911F910F910895CF924A
:1003F000DF92EF92FF920F931F9389019A0140E0E1
:1004000050E044305105D4F4FB01E40FF51F83E0C4
:1004100090E0841B950B880F991F880F991F880FF8
:10042000991F6801790104C0F694E794D794C794A2
:100430008A95D2F7C0824F5F5F4FE3CF1F910F9134
:10044000FF90EF90DF90CF900895AF92BF92CF9240
:10045000DF92EF92FF920F931F93CF93DF93EC0104
:10046000F62E60E08E819F810E941A0BFE01EF5AEA
:10047000FE4F1082319610823196F08231961082B2
:1004800000E010E00430110584F4B8016F5A7E4F8B
:100490006C0F7D1F21E030E040E050E08E819F81B5
:1004A0000E94D80A0F5F1F4FEDCF61E08E819F81C0
:1004B0000E941A0B60E08E819F810E941A0B8E01B0
:1004C000075B1E4F24E030E040E050E0B8018E8131
:1004D0009F810E94FB0AEF2DF0E03496EE0FFF1F84
:1004E000EE0FFF1F5F01AC0EBD1EF50110821182E1
:1004F00012821382F80180819181A281B381782FC9
:100500006627552744278C019D0100272227332782
:10051000322F212F102F0027042B152B262B372BA2
:10052000CB2EDD24EE24FF24AC01BD01442755274A
:100530007727452F562F672F7727D701C601842BA2
:10054000952BA62BB72B802B912BA22BB32B68942A
:1005500016F8B695A795979587951694D1F7BE7F0F
:10056000F50180839183A283B38361E08E819F81B3
:100570000E941A0BDF91CF911F910F91FF90EF9086
:10058000DF90CF90BF90AF900895CF93DF93EC01B1
:100590008CE00E94C214019731F481E0FE01ED5B12
:1005A000FE4F80831BC062E1CE010E942502FE0146
:1005B000E85AFF4F808181FF0DC082FD0BC081E0B2
:1005C000E551FF4F80836AE171E08CE393E00E9484
:1005D000841104C0FE01ED5BFE4F1082CD5BDE4F47
:1005E0008881DF91CF91089520E030E029313105F5
:1005F0000CF03FC12731310508F014C1F901EC5C62
:10060000FF4F0C946815F901F496EE0FFF1FEE0FE3
:10061000FF1FE80FF91F42E050E060E070E0408308
:100620005183628373830AC1F901F496EE0FFF1FB1
:10063000EE0FFF1FE80FF91F41E050E060E070E0AF
:100640004083518362837383F9C0F901F496EE0FFE
:10065000FF1FEE0FFF1FE80FF91F41E350E060E0BE
:1006600070E04083518362837383E8C0F901F4969C
:10067000EE0FFF1FEE0FFF1FE80FF91F43EA50E7D1
:100680006DEF70E04083518362837383D7C0F901BB
:10069000F496EE0FFF1FEE0FFF1FE80FF91F1082F9
:1006A000118212821382CAC0F901F496EE0FFF1F65
:1006B000EE0FFF1FE80FF91F4AE45FE260E070E011
:1006C0004083518362837383B9C0F901F496EE0FBE
:1006D000FF1FEE0FFF1FE80FF91F4DE451E260E02E
:1006E00070E04083518362837383A8C0F901F4965C
:1006F000EE0FFF1FEE0FFF1FE80FF91F4FEF5EEB2E
:1007000069EC70E0408351836283738397C0F90181
:10071000F496EE0FFF1FEE0FFF1FE80FF91F4FEFCC
:100720005FE360E070E0408351836283738386C03F
:10073000F901F496EE0FFF1FEE0FFF1FE80FF91FF0
:1007400047E450E260E070E040835183628373834A
:1007500075C0F901F496EE0FFF1FEE0FFF1FE80FB3
:10076000F91F41E650E86FE070E0408351836283F7
:10077000738364C0F901F496EE0FFF1FEE0FFF1FA5
:10078000E80FF91F41E850E060E070E040835183DA
:100790006283738353C0F901F496EE0FFF1FEE0FCF
:1007A000FF1FE80FF91F40E250E060E070E0408377
:1007B00051836283738342C0FC01EC51FF4F40813F
:1007C000518162817381F901F496EE0FFF1FEE0FE4
:1007D000FF1FE80FF91F40835183628373832EC08C
:1007E000F901F496EE0FFF1FEE0FFF1FE80FF91F40
:1007F00048E05EE860E070E0408351836283738389
:100800001DC0F901F496EE0FFF1FEE0FFF1FE80F5A
:10081000F91F40E953E060E070E040835183628358
:1008200073830CC0F901F496EE0FFF1FEE0FFF1F4C
:10083000E80FF91F1082118212821382F901F496D7
:10084000EE0FFF1FEE0FFF1FE80FF91F40815181D0
:1008500062817381F9017C96EE0FFF1FEE0FFF1F7F
:10086000E80FF91F40835183628373832F5F3F4FEB
:10087000BDCE08950F931F93CF93DF938C01C0E0FB
:10088000D0E0C431D10534F46C2FC8010E94250298
:100890002196F7CFDF91CF911F910F9108953F924D
:1008A0004F925F926F927F928F929F92AF92BF9280
:1008B000CF92DF92EF92FF920F931F93CF93DF932C
:1008C00000D000D000D0CDB7DEB78C01FC01EC5BCE
:1008D000FE4F10821182128213823797C080D1801E
:1008E000E280F380A701960160E070E284E696E47E
:1008F0000E94BB0B0E947A0D28E132E741E35FE3DF
:100900000E94BB0B0E94A00C0E942D0C27E0322EEF
:10091000361A072E000C880B990B0E94650C9B0160
:10092000AC0160E070E080E090E40E942F0E9B013B
:10093000AC01C701B6010E94C20D20E030E244E6DE
:1009400056E40E94BB0B20E030E244EE55E40E94E6
:10095000C20D6B017C0120E030E04AE755E40E94C3
:10096000B60B88232CF420E030E048E452E404C0C5
:1009700020E030E048EC52E4C701B6010E94BB0B16
:100980002B013C010E94A00C69837A838B839C839A
:100990009B01AC01C301B2010E94490B20E030E091
:1009A00040E85BE40E94C20D0E94340C4B015C01E4
:1009B0001E821D828D819E81863191050CF014C2AC
:1009C000FC013397E431F10508F0EEC1E55BFF4F20
:1009D0000C9468156D807E809CE1690E711C660C1C
:1009E000771C660C771C600E711E69817A818B8181
:1009F0009C810E942D0CDC01CB01BB27F30180837D
:100A00009183A283B383EAC1ED81FE817C96EE0FD0
:100A1000FF1FEE0FFF1FE00FF11FD501C401BB2721
:100A200080839183A283B383D9C160E1C8010E940E
:100A300025028FE090E099230CF486C08830910560
:100A40000CF45BC0F801E05BFF4F40815181628193
:100A500073819C012850310904C07695679557959C
:100A600047952A95D2F740FF22C041E050E060E070
:100A700070E0082E04C0440F551F661F771F0A94AC
:100A8000D2F7ED81FE817C96EE0FFF1FEE0FFF1F68
:100A9000E00FF11F40805180628073804429552906
:100AA0006629772940835183628373834BC041E079
:100AB00050E060E070E0082E04C0440F551F661F30
:100AC000771F0A94D2F7ED81FE817C96EE0FFF1F0F
:100AD000EE0FFF1FE00FF11F409550956095709548
:100AE00040805180628073804421552166217721A6
:100AF000408351836283738325C041E050E060E00E
:100B000070E0082E04C0440F551F661F771F0A941B
:100B1000D2F7ED81FE817C96EE0FFF1FEE0FFF1FD7
:100B2000E00FF11F40955095609570954080518081
:100B3000628073804421552166217721408351834F
:100B400062837383019777CFED81FE817C96EE0FF0
:100B5000FF1FEE0FFF1FE00FF11F80819181A28127
:100B6000B381906280839183A283B38337C120E0F5
:100B700030E04AE755E4C701B6010E94B60B88236E
:100B80009CF4ED81FE817C96EE0FFF1FEE0FFF1FA0
:100B9000E00FF11F80819181A281B381A77F8083C3
:100BA0009183A283B3831AC1ED81FE817C96EE0FFF
:100BB000FF1FEE0FFF1FE00FF11F80819181A281C7
:100BC000B381A86080839183A283B38307C1F801B6
:100BD000EC57FF4F80819181A281B381E054FF4F98
:100BE00080839183A283B383ED81FE817C96EE0F97
:100BF000FF1FEE0FFF1FE00FF11F80839183A28381
:100C0000B383ECC0ED81FE81F496EE0FFF1FEE0F73
:100C1000FF1FE00FF11F80819181A281B381ED81DF
:100C2000FE817C96EE0FFF1FEE0FFF1FE00FF11FFE
:100C300080839183A283B383D1C083E090E080312D
:100C400091050CF0CBC0873091050CF058C0AC0179
:100C50004350510922E030E002C0359527954A956E
:100C6000E2F720FF24C041E050E060E070E0082E91
:100C700004C0440F551F661F771F0A94D2F72D81B9
:100C80003E81245E3F4F220F331F220F331FF80196
:100C9000E20FF31F40805180628073804429552900
:100CA0006629772940835183628373837BC041E047
:100CB00050E060E070E0082E04C0440F551F661F2E
:100CC000771F0A94D2F72D813E81245E3F4F220F79
:100CD000331F220F331FF801E20FF31F4095509589
:100CE00060957095408051806280738044215521C9
:100CF00066217721408351836283738353C0232D00
:100D000030E0AC014750510902C0359527954A950E
:100D1000E2F720FF22C041E050E060E070E0082EE2
:100D200004C0440F551F661F771F0A94D2F7ED8148
:100D3000FE817C96EE0FFF1FEE0FFF1FE00FF11FED
:100D40004080518062807380442955296629772923
:100D5000408351836283738325C041E050E060E0AB
:100D600070E0082E04C0440F551F661F771F0A94B9
:100D7000D2F7ED81FE817C96EE0FFF1FEE0FFF1F75
:100D8000E00FF11F4095509560957095408051801F
:100D900062807380442155216621772140835183ED
:100DA0006283738301964BCFED81FE813496EE0F03
:100DB000FF1FEE0FFF1FE00FF11F80819181A281C5
:100DC000B381ED81FE817C96EE0FFF1FEE0FFF1FBA
:100DD000E00FF11F80839183A283B3838D819E8175
:100DE00001969E838D83E6CD26960FB6F894DEBFDE
:100DF0000FBECDBFDF91CF911F910F91FF90EF906C
:100E0000DF90CF90BF90AF909F908F907F906F902A
:100E10005F904F903F9008950E944F040895403D89
:100E200087E05807610571056CF0CB01BA0128EE27
:100E300033E040E050E00E944915CA01B9010E9428
:100E4000B713089561E070E080E090E00E94B7136E
:100E50000895AF92BF92CF92DF92EF92FF920F93DD
:100E60001F93CF93DF93FC01E85BFE4F10827897CE
:100E700010821182128213826431E0F06731A0F097
:100E8000683160F0683121F424E07896208316C040
:100E900023E0FC01E85BFE4F208310C023E0FC014F
:100EA000E85BFE4F20830AC025E0FC01E85BFE4FB3
:100EB000208304C0FC01E85BFE4F6083FC01E85B1B
:100EC000FE4F20812051243008F4B7C0E62EEC01FB
:100ED00060E08E819F810E941A0BFE01E85BFE4F4D
:100EE000808190E0A0E0B0E0880F991FAA1FBB1F8F
:100EF000880F991FAA1FBB1F880F991FAA1FBB1F0E
:100F0000F12CF7017C96EE0FFF1FEE0FFF1FEC0F89
:100F1000FD1F4081518162817381762F652F542F8F
:100F200044279A01AB01282B392B4A2B5B2BFE015E
:100F3000E05DFE4F2083318342835383BE016F5AAD
:100F40007E4FCE010E94F70161E070E080E090E00A
:100F50000E94B71300E010E00430110554F5FE01C3
:100F6000E05DFE4F408151816281738183E090E0BA
:100F7000801B910B880F991F880F991F880F991F4D
:100F80005A016B0104C0D694C794B794A7948A956C
:100F9000D2F7BE016B5A7E4FFB01A08221E030E008
:100FA00040E050E08E819F810E94D80A0F5F1F4F62
:100FB000D3CF41E050E060E070E0CE010E940F0727
:100FC00061E08E819F810E941A0BFE01ED5BFE4F56
:100FD0008081811132C041E050E060E070E0CE01DC
:100FE0000E940F078E01085B1E4FD8016C91CE0145
:100FF0000E942502D801EC91F0E03496EE0FFF1F1D
:10100000EE0FFF1FEC0FFD1F408151816281738144
:10101000F7017C96EE0FFF1FEE0FFF1FEC0FFD1F79
:1010200080819181A281B381481759076A077B07A4
:1010300021F0B701CE010E947501DF91CF911F9180
:101040000F91FF90EF90DF90CF90BF90AF900895F9
:10105000EF92FF920F931F93CF93DF938C01EB01DD
:10106000C431D105FCF4C530D105B1F40F2EF6E141
:10107000EF2EF12CF02D84E1E816F10444F06E2DF2
:10108000C8010E94290781E0E81AF108F4CF65E061
:10109000C8010E94290704C06C2FC8010E942907BB
:1010A0002196DECF63E0C8010E94290764E0C801F1
:1010B0000E942907DF91CF911F910F91FF90EF9030
:1010C0000895CF93DF93EC01CE010E94C502FE018B
:1010D000EA5AFE4F208191E09227981768F160E06C
:1010E00070E0CE010E942808CE010E943A044C898B
:1010F0005D896E897F89DB01CA01B695A7959795B1
:101100008795FE01EA5AFE4F21E040FD20E0822350
:10111000808364E670E080E090E00E94B713FE01F7
:10112000ED5BFE4F80818111CFCF64E271E08CE3F3
:1011300093E00E948411C8CF64E371E08CE393E0F4
:101140000E948411CA5ADE4F8881DF91CF910895A1
:10115000CF93DF93EC018AEB91E09F838E830E9413
:10116000B70ACE010E94F402CE010E94610860E03D
:1011700070E0CE010E942808DF91CF910895CF93AF
:10118000DF93EC0166E10E94290765E1CE010E9430
:10119000290764E1CE010E94290765E0CE010E9483
:1011A0002907DF91CF910895CF93DF93EC0168E099
:1011B0000E942907CE010E94BF0863E0CE010E9471
:1011C000290764E0CE010E942907DF91CF9108959D
:1011D0004F925F926F927F929F92AF92BF92CF9207
:1011E000DF92EF92FF920F931F93CF93DF93EC0167
:1011F000962EFC01EF5BFE4F81E090E091838083AF
:1012000000E010E06C857D858E859F85CA80DB803F
:10121000EC80FD80488459846A847B84BB24B39429
:10122000A70196010E94B60B18160CF4B12CAA2443
:10123000A394A3019201C701B6010E94B60B181630
:101240000CF4A12C81E08A258B1508F006C19920A9
:1012500009F406C1CE010E94C502F82E882309F4C4
:1012600095C081E0FE01ED5BFE4F80833697C08024
:10127000D180E280F380CA82DB82EC82FD826885C5
:1012800079858A859B853497408051806280738000
:10129000A30192010E94490B9B01AC01C701B60159
:1012A0000E946D0D181664F4FE01EF5BFE4F808105
:1012B0009181019729F48FEF9FEF918380831BC069
:1012C0002C853D854E855F85C301B2010E944A0B86
:1012D0009B01AC01C701B6010E94B60B88235CF4E8
:1012E000FE01EF5BFE4F80819181019621F481E048
:1012F00090E0918380836FE371E08CE393E00E9440
:1013000077114A815B816C817D8122E030E08CE342
:1013100093E00E942E136CE471E08CE393E00E9452
:1013200084114A805B806C807D80FE01EF5BFE4F04
:10133000608171813897C080D180E280F380072E70
:10134000000C880B990B0E94650CA70196010E9466
:10135000C20D9B01AC01C301B2010E944A0BFE0108
:10136000E35CFE4F6083718382839383CE010E948E
:101370000C07CE010E94D40848EE53E060E070E014
:10138000CE010E940F0700E010E060C00F5F1F4F0A
:10139000FE01ED5BFE4F8081882379F1108261E5CB
:1013A00071E08CE393E00E9484116BE771E08CE3C1
:1013B00093E00E9484116CE671E08CE393E00E945C
:1013C00077114A815B816C817D8122E030E08CE382
:1013D00093E00E9430136CE471E08CE393E00E9490
:1013E00084116BE771E08CE393E00E94841161E566
:1013F00071E08CE393E00E948411CE010E940C07FF
:101400006CE671E08CE393E00E9477114A815B8186
:101410006C817D8122E030E08CE393E00E94301308
:1014200060E070E0CE010E94280881E090E0883101
:10143000910514F40196FBCF40EA56E861E070E0B4
:10144000CE010E940F070536110564F461E070E0DB
:1014500080E090E00E94B713D5CEFF24F39402C041
:10146000FF24F3948F2DDF91CF911F910F91FF9067
:10147000EF90DF90CF90BF90AF909F907F906F9054
:101480005F904F9008956FEF7FEF81E090E00E94B2
:101490000D0108956FEF7FEF80E090E00E940D0155
:1014A000089526E040E052EC61E070E08CE393E0C8
:1014B0000E94321048EE53E060E070E08CE393E06D
:1014C0000E94421362E08CE00E94571483EC91E08A
:1014D0000E94A808089561E083EC91E00E94E8086A
:1014E00065E871E08CE393E00E94841168EE73E09C
:1014F00080E090E00E94B71383EC91E00E94A8087E
:1015000008950F931F93CF93DF93EC018B01019705
:1015100039F46F3F7F4F21F483EC91E00E942A0160
:10152000CD2B39F40F3F1F4F21F483EC91E00E9443
:10153000FC00DF91CF911F910F9108956FEF7FEF26
:1015400081E090E00E94810A08956FEF7FEF80E0D4
:1015500090E00E94810A089590933B0380933A03A0
:1015600027E030E0FC013087278308950895CF936A
:10157000DF93EC018AE090E098878F8362E08CE053
:101580000E94571461E08F810E94571461E08F819F
:101590000E9493140E94EB1481E088838AE193E017
:1015A0009A8389839C838B838881DF91CF9108956F
:1015B000DC01FB0181E015968C931597211531050F
:1015C00099F080818EBD2150310949F041810DB4DF
:1015D00007FEFDCF9EB54EBD90833196F4CF0DB47E
:1015E00007FEFDCF8EB5808380E015968C9360E07A
:1015F00070E0CB010895FB0161E0DC0116966C936D
:101600002115310599F080818EBD2150310949F0B5
:1016100091810DB407FEFDCF8EB59EBD80833196BE
:10162000F4CF0DB407FEFDCF8EB5808360E070E08F
:10163000CB010895662331F061E0FC0187810E94AF
:10164000931420C02091E403222399F02FB7F8943B
:101650003091E403313059F43DB33093E2034DB39C
:101660003091E303309534233DBB2FBF02C020935C
:10167000E20322E52CBD21E02DBD60E0FC01878165
:101680000E94931461E070E080E090E00E94B71344
:1016900008955058BB27AA270E94610B0C941B0D7C
:1016A0000E940D0D38F00E94140D20F039F49F3F78
:1016B00019F426F40C940A0D0EF4E095E7FB0C9453
:1016C000DB0CE92F0E942C0D58F3BA176207730741
:1016D0008407950720F079F4A6F50C94660D0EF4B6
:1016E000E0950B2EBA2FA02D0B01B90190010C0132
:1016F000CA01A0011124FF27591B99F0593F50F44A
:10170000503E68F11A16F040A22F232F342F4427A1
:10171000585FF3CF469537952795A795F040539599
:10172000C9F77EF41F16BA0B620B730B840BBAF069
:101730009150A1F0FF0FBB1F661F771F881FC2F7D4
:101740000EC0BA0F621F731F841F48F487957795E8
:101750006795B795F7959E3F08F0B0CF9395880FA2
:1017600008F09927EE0F9795879508950E94B70C7A
:1017700008F481E008950E94CF0B0C941B0D0E9489
:10178000140D58F00E940D0D40F029F45F3F29F030
:101790000C94DB0C51110C94670D0C940A0D0E94F3
:1017A0002C0D68F39923B1F3552391F3951B550B39
:1017B000BB27AA2762177307840738F09F5F5F4F24
:1017C000220F331F441FAA1FA9F335D00E2E3AF063
:1017D000E0E832D091505040E695001CCAF72BD07B
:1017E000FE2F29D0660F771F881FBB1F26173707CC
:1017F0004807AB07B0E809F0BB0B802DBF01FF27FE
:1018000093585F4F3AF09E3F510578F00C94DB0CF3
:101810000C94670D5F3FE4F3983ED4F3869577957B
:101820006795B795F7959F5FC9F7880F911D9695B6
:10183000879597F90895E1E0660F771F881FBB1F12
:10184000621773078407BA0720F0621B730B840BBF
:10185000BA0BEE1F88F7E09508950E94340C689447
:10186000B1110C94670D08950E94340D88F09F57B4
:1018700098F0B92F9927B751B0F0E1F0660F771FB4
:10188000881F991F1AF0BA95C9F714C0B13091F0AA
:101890000E94660DB1E008950C94660D672F782FB5
:1018A0008827B85F39F0B93FCCF38695779567956F
:1018B000B395D9F73EF490958095709561957F4FDB
:1018C0008F4F9F4F0895E89409C097FB3EF4909581
:1018D0008095709561957F4F8F4F9F4F9923A9F009
:1018E000F92F96E9BB279395F69587957795679598
:1018F000B795F111F8CFFAF4BB0F11F460FF1BC0DC
:101900006F5F7F4F8F4F9F4F16C0882311F096E96E
:1019100011C0772321F09EE8872F762F05C066231C
:1019200071F096E8862F70E060E02AF09A95660FD5
:10193000771F881FDAF7880F9695879597F908958E
:101940000E944E0D90F09F3748F4911116F00C94C0
:10195000670D60E070E080E89FEB089526F41B16A9
:10196000611D711D811D0C94E10C0C94FC0C990FF0
:101970000008550FAA0BE0E8FEEF16161706E80759
:10198000F907C0F012161306E407F50798F0621B7A
:10199000730B840B950B39F40A2661F0232B242B4F
:1019A000252B21F408950A2609F4A140A6958FEF6E
:1019B000811D811D089597F99F6780E870E060E0C0
:1019C0000895882371F4772321F09850872B762F80
:1019D00007C0662311F499270DC09051862B70E043
:1019E00060E02AF09A95660F771F881FDAF7880F54
:1019F0009695879597F908959F3F31F0915020F47F
:101A0000879577956795B795880F911D96958795DA
:101A100097F908959FEF80EC089500240A94161614
:101A2000170618060906089500240A9412161306CC
:101A3000140605060895092E0394000C11F488235A
:101A400052F0BB0F40F4BF2B11F460FF04C06F5F76
:101A50007F4F8F4F9F4F089557FD9058440F551F4C
:101A600059F05F3F71F04795880F97FB991F61F020
:101A70009F3F79F087950895121613061406551F97
:101A8000F2CF4695F1DF08C0161617061806991F03
:101A9000F1CF869571056105089408950E94340D73
:101AA000A0F0BEE7B91788F4BB279F3860F416167C
:101AB000B11D672F782F8827985FF7CF8695779588
:101AC0006795B11D93959639C8F30895E894BB279F
:101AD00066277727CB0197F908950E94B70C08F481
:101AE0008FEF089516F00C94FC0C0C940A0D68947A
:101AF0000C94DB0C0E94340DA8F39923C1F3AEF3D0
:101B0000DF93CF931F930F93FF92C92FDD27882375
:101B10002AF02197660F771F881FDAF720E030E060
:101B200040E85FEB9FE3883920F0803E38F0219653
:101B30008F770E944A0BEEEBF0E004C00E944A0B44
:101B4000EBEEF0E00E94B90E8B01BE01EC01FB2E22
:101B50006F5771097595771F880B990B0E94650C5B
:101B600028E132E741E35FE30E94D50DAF2D9801F4
:101B7000AE01FF900F911F91CF91DF910E94610BF9
:101B80000C941B0D0E94D50D0C941B0D0E940D0D85
:101B900038F00E94140D20F0952311F00C94DB0C0A
:101BA0000C940A0D11240C94670D0E942C0D70F3F7
:101BB000959FC1F3950F50E0551F629FF001729FF2
:101BC000BB27F00DB11D639FAA27F00DB11DAA1F01
:101BD000649F6627B00DA11D661F829F2227B00D4E
:101BE000A11D621F739FB00DA11D621F839FA00DD9
:101BF000611D221F749F3327A00D611D231F849F29
:101C0000600D211D822F762F6A2F11249F5750407F
:101C10009AF0F1F088234AF0EE0FFF1FBB1F661FFA
:101C2000771F881F91505040A9F79E3F510580F0C3
:101C30000C94DB0C0C94670D5F3FE4F3983ED4F3F7
:101C4000869577956795B795F795E7959F5FC1F767
:101C5000FE2B880F911D9695879597F90895FA01A7
:101C6000EE0FFF1F309621053105A1F161157105B9
:101C700061F48038BFE39B0749F16894903881058F
:101C800061F08038BFEF9B0741F099234AF5FF3F91
:101C9000E1053105210519F1E8940894E795D9018A
:101CA000AA2329F4AB2FBE2FF85FD0F310C0FF5F3B
:101CB00070F4A695E0F7F73950F019F0FF3A38F4D0
:101CC0009F779F930DD00F9007FC9058089546F092
:101CD0000C940A0D60E070E080E89FE308954FE700
:101CE0009F775F934F933F932F930E947A0D2F918D
:101CF0003F914F915F910E94C20D0C94870E29F481
:101D000016F00C94DB0C0C94660D0C940A0D0E94DA
:101D1000340DA8F39638A0F707F80F92E8942BE358
:101D20003AEA48EB5FE70E94D80D0F920F920F92AC
:101D30004DB75EB70F920E94220FE8E1F1E00E94DA
:101D4000B90E4F915F91EF91FF91E595EE1FFF1F47
:101D500049F0FE57E0684427EE0F441FFA95E1F77B
:101D60004195550B0E94EC0E0F9007FE0C94E00E6F
:101D70000895DF93CF931F930F93FF92EF92DF921B
:101D80007B018C01689406C0DA2EEF010E94D50D0C
:101D9000FE01E894A5912591359145915591A6F3C1
:101DA000EF010E94610BFE019701A801DA9469F727
:101DB000DF90EF90FF900F911F91CF91DF910895E9
:101DC0009B01AC0160E070E080E89FE30C94BB0BEA
:101DD0000C94DB0C0C94FC0C0E94340DD8F399236A
:101DE000C9F3940F511DA3F39150504094F059F052
:101DF000882332F0660F771F881F91505040C1F73B
:101E00009E3F51052CF7880F911D9695879597F960
:101E100008955F3FACF0983E9CF0BB278695779580
:101E20006795B79508F4B1609395C1F7BB0F58F764
:101E300011F460FFE8CF6F5F7F4F8F4F9F4FE3CF6D
:101E40000C94670DFA01DC01AA0FBB1F9B01AC01CA
:101E5000BF5728F4222733274427507820C0B75192
:101E600090F4AB2F0024469537952795011CA39538
:101E7000D2F3002071F0220F331F441FB395DAF321
:101E80000ED00C94490B61307105A0E88A07B94661
:101E900030F49B01AC01662777278827907830962D
:101EA00021F020833183428353830895FC01918D77
:101EB000228D892F90E0805C9F4F821B91098F7348
:101EC00099270895FC01918D828D981731F0828DAC
:101ED000E80FF11D858D90E008958FEF9FEF089535
:101EE000FC01918D828D981761F0828DDF01A80F22
:101EF000B11D5D968C91928D9F5F9F73928F90E044
:101F000008958FEF9FEF0895FC01538D448D252F89
:101F100030E0842F90E0821B930B541710F0CF9683
:101F20000895019708958FEE90E1892B49F080E0A4
:101F300090E0892B29F00E94EF1081110C94000091
:101F40000895FC01848DDF01A80FB11DA35ABF4F76
:101F50002C91848D90E001968F739927848FA689A8
:101F6000B7892C93A089B1898C91837080648C93FC
:101F7000938D848D981306C00288F389E02D8081AB
:101F80008F7D80830895EF92FF920F931F93CF93DD
:101F9000DF93EC0181E0888F9B8D8C8D981305C0B9
:101FA000E889F989808185FD26C0F62E0B8D10E029
:101FB0000F5F1F4F0F731127E02E8C8DE8120CC09E
:101FC0000FB607FCFACFE889F989808185FFF5CF44
:101FD000CE010E94A10FF1CF8B8DFE01E80FF11D04
:101FE000E35AFF4FF0829FB7F8940B8FEA89FB8981
:101FF000808180620AC09FB7F894EE89FF89608370
:10200000E889F98980818370806480839FBF81E043
:1020100090E0DF91CF911F910F91FF90EF90089585
:10202000CF93DF93EC01888D8823C9F0EA89FB897F
:10203000808185FD05C0A889B9898C9186FD0FC076
:102040000FB607FCF5CF808185FFF2CFA889B9894B
:102050008C9185FFEDCFCE010E94A10FE7CFDF91DC
:10206000CF910895CF92DF92EF92FF921F93CF937B
:10207000DF93EC016A017B01122FE889F98982E084
:1020800080834115514E61057105B1F060E079E042
:102090008DE390E0A70196010E942715DA01C9019E
:1020A0000197A109B109B695A795979587959C01C8
:1020B000211580E13807A8F0E889F989108260E8E5
:1020C00074E88EE190E0A70196010E942715DA01DD
:1020D000C9010197A109B109B695A795979587956B
:1020E0009C01EC85FD853083EE85FF852083188E6D
:1020F000EC89FD891083EA89FB8980818061808376
:10210000EA89FB89808188608083EA89FB898081F4
:1021100080688083EA89FB8980818F7D8083DF915D
:10212000CF911F91FF90EF90DF90CF9008951F9275
:102130000F920FB60F9211242F938F939F93EF93CB
:10214000FF93E0914C03F0914D038081E0915203A5
:10215000F091530382FD12C09081809155038F5FEF
:102160008F7320915603821751F0E0915503F0E0F0
:10217000E45CFC4F958F8093550301C08081FF91F3
:10218000EF919F918F912F910F900FBE0F901F9005
:1021900018951F920F920FB60F9211242F933F9311
:1021A0004F935F936F937F938F939F93AF93BF935F
:1021B000EF93FF938CE393E00E94A10FFF91EF91C7
:1021C000BF91AF919F918F917F916F915F914F914F
:1021D0003F912F910F900FBE0F901F9018958CE399
:1021E00093E00E94560F21E0892B09F420E0822F12
:1021F0000895ECE3F3E01382128288EE93E0A0E00E
:10220000B0E084839583A683B7838CE991E09183C2
:10221000808385EC90E09587848784EC90E09787B5
:10222000868780EC90E0918B808B81EC90E0938BA3
:10223000828B82EC90E0958B848B86EC90E0978B80
:10224000868B118E128E138E148E089508950E941F
:10225000F3130E9426110E94510AC3E9DFE00E9495
:102260006B0A2097E1F30E94930FF9CF0C940616A6
:10227000CF92DF92EF92FF920F931F93CF93DF9352
:102280006C017A018B01C0E0D0E0CE15DF0581F052
:10229000D8016D918D01D601ED91FC910190F081F5
:1022A000E02DC6010995892B11F02196EECF7E0114
:1022B000C701DF91CF911F910F91FF90EF90DF90B9
:1022C000CF9008956115710579F0FB010190002010
:1022D000E9F73197AF01461B570BDC01ED91FC91FB
:1022E0000280F381E02D099480E090E008950C9441
:1022F0006211DC01ED91FC910190F081E02D0994D7
:102300006AEA71E00C9462110F931F93CF93DF93ED
:10231000EC010E9462118C01CE010E948011800F9D
:10232000911FDF91CF911F910F9108958F929F92EE
:10233000AF92BF92EF92FF920F931F93CF93DF93D1
:10234000CDB7DEB7A1970FB6F894DEBF0FBECDBFF5
:102350007C01FA01CB0119A2223008F42AE08E0197
:102360000F5D1F4F822E912CA12CB12CBF01A50116
:1023700094010E942715F901CA01015011096A3020
:1023800010F4605D01C0695CD8016C93232B242B91
:10239000252B61F7B801C7010E946211A1960FB603
:1023A000F894DEBF0FBECDBFDF91CF911F910F918B
:1023B000FF90EF90BF90AF909F908F900895211560
:1023C000310541F4DC01ED91FC910190F081E02DAB
:1023D000642F09940C9496119A01AB0160E070E0AF
:1023E0000C94DF110F931F93CF93DF93EC010E94A6
:1023F000DF118C01CE010E948011800F911FDF91AF
:10240000CF911F910F910895CF92DF92EF92FF929B
:102410000F931F93CF93DF932115310581F4DC01D6
:10242000ED91FC910190F081E02D642FDF91CF912F
:102430001F910F91FF90EF90DF90CF9009942A3079
:10244000310501F577FF1DC06A017B01EC016DE2EA
:102450000E9479118C0144275527BA014C195D0956
:102460006E097F092AE0CE010E949611800F911F0C
:10247000DF91CF911F910F91FF90EF90DF90CF9060
:1024800008952AE0DF91CF911F910F91FF90EF9077
:10249000DF90CF900C9496119A01AB01770F660BE9
:1024A000770B0C9404127F928F929F92AF92BF92FF
:1024B000CF92DF92EF92FF920F931F93CF93DF9310
:1024C0008C016A017B01722E9A01AB01C701B60132
:1024D0000E942215882319F06DEA71E027C0460199
:1024E0005701E894B7F82FEF3FEF4FE75FE7C501DB
:1024F000B4010E94221581110DC02FEF3FEF4FE76D
:102500005FE7C501B4010E94B60B18161CF461EB1D
:1025100071E00CC02FEF3FEF4FE75FE4C701B6015A
:102520000E946D0D181694F465EB71E0C801DF91FF
:10253000CF911F910F91FF90EF90DF90CF90BF90C0
:10254000AF909F908F907F900C9462112FEF3FEF90
:102550004FE75FECC701B6010E94B60B87FDE4CFE1
:1025600020E030E0A901C701B6010E94B60B87FF49
:102570000AC06DE2C8010E947911EC01F7FAF094EB
:10258000F7F8F09402C0C0E0D0E0B12C60E070E059
:1025900080E09FE37B1441F020E030E040E251E432
:1025A0000E94BB0BB394F6CFA70196010E944A0B81
:1025B0006B017C010E94340C4B015C012AE0AB01F1
:1025C000BC01C8010E949611C80FD91F7720B9F12C
:1025D000C501B4010E94630C9B01AC01C701B601A7
:1025E0000E94490B6B017C016EE2C8010E947911C7
:1025F000C80FD91F20E030E040E251E4C701B60126
:102600000E94C20D4B015C010E94340C6B017C01E5
:102610004AE050E0C8010E94EC11C80FD91FB60172
:1026200080E090E00E94630C9B01AC01C501B40105
:102630000E94490B6B017C017A947110DBCFCE01B3
:10264000DF91CF911F910F91FF90EF90DF90CF908E
:10265000BF90AF909F908F907F9008950C945312ED
:102660000F931F93CF93DF93EC010E9453128C01C1
:10267000CE010E948011800F911FDF91CF911F9199
:102680000F910895FC0144835583668377830895F1
:102690001F920F920FB60F9211242F933F938F9397
:1026A0009F93AF93BF938091DA039091DB03A09146
:1026B000DC03B091DD033091D90323E0230F2D37E4
:1026C00020F40196A11DB11D05C026E8230F029636
:1026D000A11DB11D2093D9038093DA039093DB03EE
:1026E000A093DC03B093DD038091DE039091DF03C0
:1026F000A091E003B091E1030196A11DB11D80936B
:10270000DE039093DF03A093E003B093E103BF9156
:10271000AF919F918F913F912F910F900FBE0F908E
:102720001F9018953FB7F8948091DE039091DF03D6
:10273000A091E003B091E10326B5A89B05C02F3F0F
:1027400019F00196A11DB11D3FBFBA2FA92F982FD7
:102750008827820F911DA11DB11DBC01CD0142E052
:10276000660F771F881F991F4A95D1F708958F929A
:102770009F92AF92BF92CF92DF92EF92FF926B0146
:102780007C010E9492134B015C01C114D104E1044D
:10279000F10401F10E9421150E949213DC01CB018A
:1027A00088199909AA09BB09883E9340A105B1057A
:1027B00060F321E0C21AD108E108F10888EE880E22
:1027C00083E0981EA11CB11CC114D104E104F104E2
:1027D00019F7DBCFFF90EF90DF90CF90BF90AF90D5
:1027E0009F908F900895789484B5826084BD84B55D
:1027F000816084BD85B5826085BD85B5816085BDFC
:10280000EEE6F0E0808181608083E1E8F0E0108214
:10281000808182608083808181608083E0E8F0E055
:10282000808181608083E1EBF0E08081846080833F
:10283000E0EBF0E0808181608083EAE7F0E0808176
:1028400084608083808182608083808181608083D6
:102850008081806880831092C1000895833081F068
:1028600028F4813099F08230A1F008958730A9F0E2
:102870008830B9F08430D1F4809180008F7D03C01E
:10288000809180008F7780938000089584B58F7742
:1028900002C084B58F7D84BD08958091B0008F778C
:1028A00003C08091B0008F7D8093B0000895CF93D6
:1028B000DF9390E0FC01EC5AFE4F2491FC01E859B3
:1028C000FE4F8491882361F190E0880F991FFC01ED
:1028D000E057FE4FC591D491FC01EA57FE4FA591F8
:1028E000B491611109C09FB7F89488812095822323
:1028F0008883EC912E230BC0623061F49FB7F8946B
:102900008881322F309583238883EC912E2B2C9352
:102910009FBF06C08FB7F894E8812E2B28838FBF06
:10292000DF91CF9108951F93CF93DF93282F30E04D
:10293000F901E05CFE4F8491F901EC5AFE4FD4910D
:10294000F901E859FE4FC491CC23C1F0162F811133
:102950000E942E14EC2FF0E0EE0FFF1FEA57FE4FFF
:10296000A591B4919FB7F894111104C08C91D095A2
:10297000D82302C0EC91DE2BDC939FBFDF91CF9177
:102980001F910895CF93DF93282F30E0F901E05C89
:10299000FE4F8491F901EC5AFE4FD491F901E859A8
:1029A000FE4FC491CC2391F081110E942E14EC2F84
:1029B000F0E0EE0FFF1FE458FE4FA591B491EC91AB
:1029C000ED2381E090E021F480E002C080E090E01F
:1029D000DF91CF910895CF93CFB7F8948091E5031D
:1029E000811127C0E2E7F1E08491EEE5F1E09491F6
:1029F000E82FF0E0EE0FFF1FE057FE4FA591B491D6
:102A0000EC91E92321F461E08AE00E94931461E0F3
:102A10008AE00E9457148CB580618CBD8CB58064AF
:102A20008CBD61E08DE00E94571461E08BE00E9454
:102A300057148091E5038F5F8093E503CFBFCF915B
:102A4000089508950E94B70C880B990B0895A1E290
:102A50001A2EAA1BBB1BFD010DC0AA1FBB1FEE1F18
:102A6000FF1FA217B307E407F50720F0A21BB30B63
:102A7000E40BF50B661F771F881F991F1A9469F7DF
:102A800060957095809590959B01AC01BD01CF013B
:102A90000895052E97FB1EF400940E94601557FDC3
:102AA00007D00E94271507FC03D04EF40C94601544
:102AB00050954095309521953F4F4F4F5F4F08956A
:102AC00090958095709561957F4F8F4F9F4F08959A
:102AD000EE0FFF1F0590F491E02D09940F931F93C3
:102AE000CF93DF938230910510F482E090E0E09183
:102AF000E803F091E90320E030E0A0E0B0E0309797
:102B000019F1408151810281138148175907C8F09A
:102B10008417950769F4109731F012960C93129769
:102B200013961C9327C00093E8031093E90322C077
:102B30002115310519F04217530718F49A01BD0108
:102B4000EF01DF01F801DBCF21153105F9F0281B7A
:102B5000390B2430310580F48A819B816115710520
:102B600021F0FB019383828304C09093E903809357
:102B7000E803FE01329644C0FE01E20FF31F819389
:102B8000919322503109398328833AC02091E6037A
:102B90003091E703232B41F420910201309103018E
:102BA0003093E7032093E603209100013091010167
:102BB0002115310541F42DB73EB7409104015091E4
:102BC0000501241B350BE091E603F091E703E217C2
:102BD000F307A0F42E1B3F0B2817390778F0AC0140
:102BE0004E5F5F4F2417350748F04E0F5F1F50931D
:102BF000E7034093E6038193919302C0E0E0F0E0A5
:102C0000CF01DF91CF911F910F910895CF93DF9363
:102C1000009709F481C0FC01329713821282A091BF
:102C2000E803B091E903109781F420813181820F8C
:102C3000931F2091E6033091E7032817390751F5D8
:102C4000F093E703E093E60367C0ED0120E030E096
:102C5000CE17DF0740F44A815B819E014115510583
:102C6000F1F0EA01F5CFD383C28340815181840F13
:102C7000951FC817D90759F488819981840F951F2A
:102C80000296918380838A819B819383828321151D
:102C9000310529F4F093E903E093E8033DC0E9012D
:102CA000FB83EA8349915991C40FD51FEC17FD07A7
:102CB00061F480819181840F951F0296E9019983C7
:102CC0008883828193819B838A83E0E0F0E012967F
:102CD0008D919C911397009719F0FD01DC01F7CFBE
:102CE0008D919C9111979D012E5F3F4F820F931FF5
:102CF0002091E6033091E7032817390769F43097EC
:102D000029F41092E9031092E80302C013821282A0
:102D1000B093E703A093E603DF91CF91089510E00D
:102D2000C0EDD0E004C0FE010E9468152196C23DAE
:082D3000D107C9F7F894FFCFA9
:102D38000000EA03200057726974652052002030B1
:102D4800780009526561642052006973206C6F63D2
:102D58006B656400706C6C206E6F742073746172A4
:102D680074656400706C6C206C6F636B6564004CF8
:102D78006F636B6564206174203A2000204D487AA7
:102D8800002A2A2A2A2A2A2A2A2A2A2A2A2A2A2AC5
:102D98002A2A2A2A2A2A2A2A2A2A2A004E6F74200C
:102DA8004C6F636B65642061743A2020000000005A
:102DB80000FC00020169732072756E6E696E6720EF
:102DC8006F7574736964650000000000C30F3811E3
:102DD800840F1010560F700F620F0D0A006E616E8F
:0A2DE80000696E66006F7666000059
:00000001FF
