:100000000C947A000C9484000C9484000C9484006A
:100010000C9484000C9484000C9484000C94840050
:100020000C9484000C9484000C9484000C94840040
:100030000C9484000C9484000C9484000C94840030
:100040000C9484000C9484000C9484000C94840020
:100050000C9484000C9484000C9484000C94840010
:100060000C9484000C9484000C9484000C94840000
:100070000C9484000C9484000C9484000C948400F0
:100080000C9484000C9484000C9484000C948400E0
:100090000C9484000C9484000C9484000C948400D0
:1000A0000C9484000C9484000C9484000C948400C0
:1000B0000C9484000C9484000C9484000C948400B0
:1000C0000C9484000C9484000C9484000C948400A0
:1000D0000C9484000C9484000C9484000C94840090
:1000E0000C9484000C9484000C9484000C94840080
:1000F0000C94840011241FBECFEFCDBFDFE7DEBF1D
:100100000E9489000C94EE000C9400000E94DC0018
:1001100008950E948600FFCF1092A90080E0089504
:1001200042E068ED80E790E00E94E70044E268ED7D
:1001300088E690E00E94E700E0E6F0E0858185FF38
:10014000FDCF80E0089580E00895E0E1F4E0808153
:1001500088608193E83184E0F807C9F7E0E3F4E0D0
:10016000808188608193E83384E0F807C9F7E0E58F
:10017000F4E0808188608193E83584E0F807C9F76E
:10018000E0E7F4E0808188608193E83784E0F80755
:10019000C9F7E0E9F4E0808188608193E83984E080
:1001A000F807C9F7E0EBF4E0808188608193E83BD1
:1001B00084E0F807C9F708950E94A5000E94900006
:1001C0000E94EC000E94A3000E948C0008951BBEB8
:1001D000FC0164BF4083089580E00895F894FFCF48
:00000001FF
