S01F00005A65726F5F43726F73735F4465746563746F725F6C69622E73726563CD
S11300000C947C000C94A6000C94A6000C94A600FE
S11300100C94A6000C94CF000C94A6000C94A6009B
S11300200C94A6000C94A6000C94A6000C94A600B4
S11300300C94A6000C94A6000C9400020C94A60048
S11300400C94A6000C94C1010C94A6000C94A60078
S11300500C94A6000C94A6000C94A6000C94A60084
S11300600C94A6000C94A6000C94A6000C94A60074
S11300700C9463010C94A6000C94A6000C94430207
S11300800C94A6000C94A6000C94A6000C94A60054
S11300900C94A6000C94A6000C94A6000C94A60044
S11300A00C94A6000C94A6000C94A6000C94A60034
S11300B00C94A6000C94A6000C94A6000C94A60024
S11300C00C94A6000C94A6000C94A6000C94A60014
S11300D00C9484010C94A6000C94A6000C94A60025
S11300E00C94A6000C94A6000C94A6000C94A600F4
S11300F00C94A60055015C0111241FBECFEFCDBFA7
S1130100DFE7DEBF10E4A0E0B0E4E8ECFEE000E0EE
S11301100BBF02C007900D92AC33B107D9F720E4AE
S1130120ACE3B0E401C01D92A635B207E1F710E0DC
S1130130CBE7D0E004C02197FE010E948604CA37B1
S1130140D107C9F70E94E1000C9457070C940000F2
S11301500F931F93CF93DF93EC018B01019739F435
S11301606F3F7F4F21F48CE390E40E94A101CD2BDB
S113017039F40F3F1F4F21F48CE390E40E94A60151
S1130180DF91CF911F910F9108958091410180FDDE
S1130190FCCFE0E4F1E080818160808308951F92C8
S11301A00F920FB60F9211248F9386B1886086B98F
S11301B081E0809343018F910F900FBE0F901F90A9
S11301C018950E947E020E94C500789400008EE07B
S11301D090E49F938F930E948F040F900F90812C33
S11301E0912C5401C12CD12C760120913F403091A7
S11301F0404040E050E060E076E38EE691E00E940B
S1130200450429013A0182169306A406B506C1F0F5
S113021080913F4090914040892B91F07F926F9262
S11302205F922F9386E190E49F938F930E948F04B3
S11302300F900F900F900F900F900F905301420169
S1130240209141403091424040E050E060E076E34C
S11302508EE691E00E94450429013A01C216D306B4
S1130260E406F506C1F08091414090914240892B0B
S113027091F07F926F925F922F9389E290E49F9323
S11302808F930E948F040F900F900F900F900F90F8
S11302900F90730162012FEF82E597E021508040B7
S11302A09040E1F700C00000A0CF6FEF7FEF81E046
S11302B090E00E94A80008956FEF7FEF80E090E047
S11302C00E94A80008951F920F920FB60F92112456
S11302D00BB60F928F93EF93FF93E0914C40F09104
S11302E04D4081E08083E0914C40F0914D4012827A
S11302F08093C306FF91EF918F910F900BBE0F90E7
S11303000FBE0F901F9018951F920F920FB60F9269
S113031011240BB60F928F93EF93FF93E0914C400F
S1130320F0914D4081E0828310828093CB06FF914F
S1130330EF918F910F900BBE0F900FBE0F901F90F7
S1130340189580934C4090934D4008950895FC0176
S11303508385882339F08091A20B9091A30B878326
S1130360908706C08091A40B9091A50B81879287FA
S113037084E08093840B938581E0892783871082AE
S113038008951F920F920FB60F9211240BB60F927D
S11303902F933F934F935F936F937F938F939F9389
S11303A0AF93BF93EF93FF938091A20B9091A30B14
S11303B08091A40B9091A50B80914C4090914D405D
S11303C00E94A7018CE080938D0BFF91EF91BF9168
S11303D0AF919F918F917F916F915F914F913F91D9
S11303E02F910F900BBE0F900FBE0F901F9018957A
S11303F020914A4030914B40FC0125833683089577
S11304001F920F920FB60F9211240BB60F922F93D7
S11304103F934F935F936F937F938F939F93AF9388
S1130420BF93EF93FF9380910A0B90910B0B8093F2
S11304304A4090934B40E0914C40F0914D40808174
S1130440882319F0CF010E94F80181E08093060B04
S1130450FF91EF91BF91AF919F918F917F916F9198
S11304605F914F913F912F910F900BBE0F900FBE54
S11304700F901F9018952091484030914940FC01FD
S11304802383348308951F920F920FB60F92112481
S11304900BB60F922F933F934F935F936F937F937A
S11304A08F939F93AF93BF93EF93FF9380912A0B06
S11304B090912B0B8093484090934940E0914C409D
S11304C0F0914D408281882319F0CF010E943B02B4
S11304D081E08093260BFF91EF91BF91AF919F91A3
S11304E08F917F916F915F914F913F912F910F90D9
S11304F00BBE0F900FBE0F901F9018950E944203E1
S1130500089580E008C0E82FF0E0E05FFB4F9081A1
S1130510986090838F5F8830B0F380E008C0E82F44
S1130520F0E0E05DFB4F9081986090838F5F8830AE
S1130530B0F380E008C0E82FF0E0E05BFB4F90816F
S1130540986090838F5F8830B0F380E008C0E82F14
S1130550F0E0E059FB4F9081986090838F5F883082
S1130560B0F380E008C0E82FF0E0E057FB4F908143
S1130570986090838F5F8830B0F380E008C0E82FE4
S1130580F0E0E055FB4F9081986090838F5F883056
S1130590B0F30895E7E7F4E08081887F8460808386
S11305A08081877F8083E5E7F4E08081887F8460B1
S11305B080838081877F80830E948C03089584B127
S11305C08D7F84B9E1E3F4E08081877F808385B106
S11305D08E7F85B984B1816084B90E94F503089542
S11305E00E947B030895E1E7F4E08081887F8460C2
S11305F080838081877F80830E9411040895E3E9CA
S1130600F4E08081887F846080838081877F808319
S11306100E941804089580B18F7D80B9E5E1F4E06B
S11306208081877F808381B18F7E81B980B1806131
S113063080B981B18F7B81B980B1806480B90E9417
S1130640B003089588B18D7F88B9E1E5F4E0808135
S1130650877F808389B18E7F89B988B1816088B9A9
S113066089B18B7F89B988B1846088B90E94B90344
S113067008950E94C20308950E94D40308950E941D
S1130680DF0308950E94810281B18F7781B980B11F
S1130690806880B985B1877F85B984B1886084B961
S11306A089B1886089B988B1886088B98DB18B7F38
S11306B08DB98CB184608CB90E94CA020E94240452
S11306C00E94DF020E94F0020E94AE030E943E04D8
S11306D00E94F3020E94FF020E940B030E94220365
S11306E00E949D030E9439030E943C030E943F0321
S11306F00E9420040895E0E0F2E080E3808B81E32F
S1130700818B91E096AF82E08093420290934802FD
S11307108093490280E00895E0E0F7E081E080837F
S1130720818387E182838FE7848F85E8808F89EED8
S1130730828F84E1838F80E008958091410181114B
S1130740FCCFE0E4F1E088EA80838FEF91E08287D8
S11307509387178281E0828380E0089580E0089582
S1130760E0E4F9E081E2808381E0828310924F40EB
S11307700895E0E6F9E081E2808381E082831092CB
S11307804E400895E0E0FBE08FEF9FEF848795876C
S11307908287938783E0818381E080878483858354
S11307A081E4808380E00895E0E2FBE083E48183D8
S11307B081E08483858381E4808380E00895E0E898
S11307C0FBE08FEF9FE080A791A784A795A785E121
S11307D0808781878CE0848780918E0B80FFFCCF9B
S11307E081E28093800B80E00895E0E6F8E081E404
S11307F093E08087918780EC868380E090E4809307
S113080052409093534080E008959091640895FF7E
S1130810FCCF8093620808950E94050480E090E074
S11308200895E0ECF6E081E08083828380E008951F
S1130830E8ECF6E081E0808382E0828380E0089542
S11308401092A90080E0089545E868ED8CE790E0F7
S11308500E94400441E868ED80E790E00E94400473
S11308604CE068ED80E890E00E94400444E268EDCA
S113087088E690E00E94400480E0089580E00895B6
S11308801BBEFC0164BF40830895052E97FB1EF434
S113089000940E945C0457FD07D00E94640407FC86
S11308A003D04EF40C945C045095409530952195FA
S11308B03F4F4F4F5F4F0895909580957095619588
S11308C07F4F8F4F9F4F0895A1E21A2EAA1BBB1B87
S11308D0FD010DC0AA1FBB1FEE1FFF1FA217B30708
S11308E0E407F50720F0A21BB30BE40BF50B661F1E
S11308F0771F881F991F1A9469F7609570958095E2
S113090090959B01AC01BD01CF010895EE0FFF1F2F
S11309100024001C0BBE0790F691E02D0994CF93A0
S1130920DF93CDB7DEB7AE014B5F5F4FFA01619144
S11309307191AF0180915240909153400E94A30461
S1130940DF91CF9108952F923F924F925F926F92D1
S11309507F928F929F92AF92BF92CF92DF92EF924B
S1130960FF920F931F93CF93DF93CDB7DEB72B97EF
S1130970CDBFDEBF6C017B018A01FC0116821782A8
S1130980838181FFCCC1CE0101963C01F6019381A4
S1130990F70193FD859193FF81917F01882309F4E9
S11309A0BAC1853239F493FD859193FF81917F011A
S11309B0853229F4B60190E00E94BD06E7CF912C60
S11309C0212C312CFFE1F315D8F08B3279F038F477
S11309D0803279F08332A1F4232D20611DC08D3241
S11309E061F0803369F4232D216016C0832D826069
S11309F0382EE32DE4603E2E2AC0F32DF8601DC08E
S1130A0037FC2DC020ED280F2A3040F08E32B9F487
S1130A1036FC81C1232D2064322E19C036FE06C057
S1130A208AE0989E200D1124922E11C0EAE02E9E99
S1130A30200D1124222EF32DF0623F2E08C08C3697
S1130A4021F4832D8068382E02C0883641F4F701E2
S1130A5093FD859193FF81917F018111B3CF982FED
S1130A609F7D9554933028F40C5F1F4F9FE3998327
S1130A700DC0833631F0833771F0833509F059C0E6
S1130A8021C0F801808189830E5F1F4F88248394DD
S1130A90912C530113C02801F2E04F0E511CF801B0
S1130AA0A080B18036FE03C0692D70E002C06FEFF4
S1130AB07FEFC5010E94B2064C018201F32DFF773E
S1130AC03F2E16C0280122E0420E511CF801A080DE
S1130AD0B18036FE03C0692D70E002C06FEF7FEF76
S1130AE0C5010E94A7064C01F32DF0683F2E820138
S1130AF033FC1BC0822D90E088169906B0F4B60131
S1130B0080E290E00E94BD062A94F4CFF50137FC00
S1130B10859137FE81915F01B60190E00E94BD0688
S1130B2021102A9421E0821A91088114910471F70A
S1130B30E8C0843611F0893641F5F80137FE07C064
S1130B4060817181828193810C5F1F4F08C0608135
S1130B507181072E000C880B990B0E5F1F4FF32D2C
S1130B60FF763F2E97FF09C090958095709561950B
S1130B707F4F8F4F9F4FF0683F2E2AE030E0A30154
S1130B800E94F906882E861845C0853731F4232D36
S1130B902F7EB22E2AE030E025C0932D997FB92E06
S1130BA08F36C1F018F4883579F0B5C0803719F064
S1130BB0883721F0B0C0E92FE061BE2EB4FE0DC02D
S1130BC0FB2DF460BF2E09C034FE0AC0292F266015
S1130BD0B22E06C028E030E005C020E130E002C0BB
S1130BE020E132E0F801B7FE07C0608171818281A3
S1130BF093810C5F1F4F06C06081718180E090E09B
S1130C000E5F1F4FA3010E94F906882E8618FB2D44
S1130C10FF773F2E36FE0DC0232D2E7FA22E891482
S1130C2058F434FE0BC032FC09C0832D8E7EA82EEE
S1130C3005C0B82CA32C03C0B82C01C0B92CA4FE49
S1130C400FC0FE01E80DF11D8081803321F49A2D3F
S1130C50997EA92E09C0A2FE06C0B394B39404C021
S1130C608A2D867809F0B394A3FC11C0A0FE06C0B7
S1130C70B21488F4280C922C9B180EC0B21460F4A1
S1130C80B60180E290E00E94BD06B394F7CFB2149F
S1130C9018F42B1802C0982C212CA4FE10C0B60105
S1130CA080E390E00E94BD06A2FE17C0A1FC03C031
S1130CB088E790E002C088E590E0B6010CC08A2D78
S1130CC0867859F0A1FE02C08BE201C080E2A7FC45
S1130CD08DE2B60190E00E94BD06891438F4B60195
S1130CE080E390E00E94BD069A94F7CF8A94F301C2
S1130CF0E80DF11D8081B60190E00E94BD068110CF
S1130D00F5CF222009F442CEB60180E290E00E94A1
S1130D10BD062A94F6CFF6018681978102C08FEF33
S1130D209FEF2B96CDBFDEBFDF91CF911F910F9127
S1130D30FF90EF90DF90CF90BF90AF909F908F90F7
S1130D407F906F905F904F903F902F900895FC019B
S1130D500590615070400110D8F7809590958E0FE2
S1130D609F1F0895FC016150704001900110D8F755
S1130D70809590958E0F9F1F08950F931F93CF9387
S1130D80DF93FB01238121FD03C08FEF9FEF2CC074
S1130D9022FF16C0468157812481358142175307AB
S1130DA044F4A081B1819D012F5F3F4F20833183A3
S1130DB08C93268137812F5F3F4F2683378314C05E
S1130DC08B01EC01FB010084F185E02D0995892B51
S1130DD0E1F6D80116968D919C9117970196169677
S1130DE08D939C931797CE01DF91CF911F910F9113
S1130DF00895FA01AA27283051F1203181F1E894AD
S1130E006F936E7F6E5F7F4F8F4F9F4FAF4FB1E0F9
S1130E103ED0B4E03CD0670F781F891F9A1FA11DF4
S1130E20680F791F8A1F911DA11D6A0F711D811DF5
S1130E30911DA11D20D009F468943F912AE0269FBA
S1130E4011243019305D3193DEF6CF010895462F19
S1130E504770405D4193B3E00FD0C9F7F6CF462FFA
S1130E604F70405D4A3318F0495D31FD4052419363
S1130E7002D0A9F7EACFB4E0A69597958795779520
S1130E806795BA95C9F700976105710508959B01A7
S1130E90AC010A2E06945795479537952795BA9530
S1130EA0C9F7620F731F841F951FA01D089510E0DA
S1130EB0CBE7D0E004C0FE010E9486042196CC3723
S10B0EC0D107C9F7F894FFCF34
S1130EC800000002000000000C0400000000686537
S1130ED86C6C6F0A0D00436F756E74657220432045
S1130EE83A20256C75200A0D00436F756E7465727F
S10F0EF82042203A20256C75200A0D00D1
S9030000FC
