:100000000C947C000C94A6000C94A6000C94A60002
:100010000C94A6000C94FF000C94A6000C94A6006F
:100020000C94A6000C94A6000C94A6000C94A600B8
:100030000C94A6000C94A6000C9419030C945E0377
:100040000C94A6000C94A3030C94A6000C94A60098
:100050000C94B5060C94A6000C94A6000C94A60073
:100060000C94A6000C94A6000C94A6000C94A60078
:100070000C94AF020C94A6000C94A6000C94A6005D
:100080000C94A6000C94A6000C94A6000C94A60058
:100090000C94A6000C94A6000C94A6000C94A60048
:1000A0000C94A6000C94A6000C94A6000C94A60038
:1000B0000C94A6000C94A6000C94A6000C94A60028
:1000C0000C94A6000C94A6000C94A6000C94A60018
:1000D0000C94E4020C94A6000C94A6000C94A600C8
:1000E0000C94A6000C94A6000C94A6000C94A600F8
:1000F0000C94A6009502A20211241FBECFEFCDBF23
:10010000DFE7DEBF10E4A0E0B0E4E0E5F5E100E009
:100110000BBF02C007900D92AC33B107D9F720E4B2
:10012000ACE3B0E401C01D92AE35B207E1F710E0D8
:10013000CBE7D0E004C02197FE010E94CA07CA376E
:10014000D107C9F70E9437010C949B0A0C94000058
:10015000CF93DF931F92CDB7DEB7898384E090E021
:1001600024E030E0F9012281622F2981422F50E002
:1001700021E030E002C0220F331F4A95E2F7262B20
:10018000FC01228300000F90DF91CF910895CF935F
:10019000DF93CDB7DEB783E00E94A8000000DF91B7
:1001A000CF910895CF93DF9300D0CDB7DEB7898389
:1001B0009A8381E00F900F90DF91CF910895CF93B4
:1001C000DF93CDB7DEB780E491E0FC018181882F19
:1001D00090E08170992721E0892B09F420E0222307
:1001E00009F0F1CF80E491E020E431E0F9012081D1
:1001F0002160FC0120830000DF91CF9108951F92C0
:100200000F9200903F000F92112400903B000F923C
:100210002F933F934F935F936F937F938F939F930E
:10022000AF93BF93EF93FF93CF93DF93CDB7DEB739
:100230000E94C70080E491E021E0FC0123830000DC
:10024000DF91CF91FF91EF91BF91AF919F918F91EE
:100250007F916F915F914F913F912F910F900092FD
:100260003B000F9000923F000F901F901895CF9386
:10027000DF93CDB7DEB76E97CDBFDEBF19821A828E
:100280001B821C821D821E821F82188619861A8676
:100290001B861C861D861E861F86188A0E94A50541
:1002A0000E94DF0078948CE390E40E94D20000006A
:1002B0008EE090E4892F8F938EE090E48F930E94DC
:1002C000D3070F900F9080913F40909140409C0148
:1002D00040E050E080E096E3AEE6B1E0BC01CD0145
:1002E0000E948907DA01C9018D879E87AF87B88B85
:1002F0002D813E814F8158858D859E85AF85B8893A
:10030000281739074A075B0749F180913F409091D0
:10031000404021E0892B09F420E02223F9F08D856B
:100320009E85AF85B8898D839E83AF83B887888982
:100330008F938F858F938E858F938D858F9386E195
:1003400090E4892F8F9386E190E48F930E94D307E6
:100350000F900F900F900F900F900F908091414051
:10036000909142409C0140E050E080E096E3AEE690
:10037000B1E0BC01CD010E948907DA01C90189877A
:100380009A87AB87BC8729813A814B815C818985BB
:100390009A85AB85BC85281739074A075B0749F161
:1003A000809141409091424021E0892B09F420E066
:1003B0002223F9F089859A85AB85BC8589839A8348
:1003C000AB83BC838C858F938B858F938A858F932A
:1003D00089858F9389E290E4892F8F9389E290E455
:1003E0008F930E94D3070F900F900F900F900F9054
:1003F0000F9080E090E0A8ECB2E4898B9A8BAB8BF5
:10040000BC8B20E030E84BEB55E469897A898B8915
:100410009C890E941005DC01CB018D8B9E8BAF8BDC
:10042000B88F20E030E040E85FE36D897E898F89F6
:10043000988D0E948A0488232CF481E090E0898FB3
:100440009A8F3FC020E03FEF4FE757E46D897E89E8
:100450008F89988D0E940B0518164CF520E030E02E
:1004600040E251E469897A898B899C890E94100550
:10047000DC01CB01BC01CD010E948F04DC01CB016A
:10048000898F9A8F898D9A8D892B09F41CCF88E5E5
:1004900092E08B8F9C8F8B8D9C8D0197F1F78B8FCA
:1004A0009C8F898D9A8D0197898F9A8FEBCF6D895B
:1004B0007E898F89988D0E948F04DC01CB01898F02
:1004C0009A8F898D9A8D8D8F9E8F8D8D9E8D0197A0
:1004D000F1F78D8F9E8FF7CECF93DF9300D000D0B2
:1004E000CDB7DEB789839A836B837C8389819A81B8
:1004F000019741F48B819C81019621F48CE390E477
:100500000E94E80389819A81892B41F48B819C8127
:10051000019621F48CE390E40E94FB0300002496F2
:10052000CDBFDEBFDF91CF910895CF93DF93CDB7DD
:10053000DEB76FEF7FEF81E090E00E946C02DF9109
:10054000CF910895CF93DF93CDB7DEB76FEF7FEFF5
:1005500080E090E00E946C02DF91CF9108951F929D
:100560000F9200903F000F92112400903B000F92D9
:100570002F938F939F93EF93FF93CF93DF93CDB7F9
:10058000DEB7809148409091494021E0FC012083F2
:100590008091484090914940FC01128280EC96E0A5
:1005A00021E0FC0123830000DF91CF91FF91EF91C7
:1005B0009F918F912F910F9000923B000F9000928E
:1005C0003F000F901F9018951F920F9200903F00D0
:1005D0000F92112400903B000F922F938F939F93C3
:1005E000EF93FF93CF93DF93CDB7DEB78091484071
:1005F0009091494021E0FC012283809148409091F4
:100600004940FC01108288EC96E021E0FC01238344
:100610000000DF91CF91FF91EF919F918F912F91EA
:100620000F9000923B000F9000923F000F901F90A0
:1006300018951F920F9200903F000F921124009086
:100640003B000F922F933F934F935F936F937F9352
:100650008F939F93AF93BF93EF93FF93CF93DF93CA
:10066000CDB7DEB780E09BE0FC0182859385809367
:100670004A4090934B4080914840909149400E945D
:100680005E0480E09BE021E0FC0126830000DF9116
:10069000CF91FF91EF91BF91AF919F918F917F91FA
:1006A0006F915F914F913F912F910F9000923B007E
:1006B0000F9000923F000F901F9018951F920F927D
:1006C00000903F000F92112400903B000F922F9357
:1006D0003F934F935F936F937F938F939F93AF93CA
:1006E000BF93EF93FF93CF93DF93CDB7DEB780E156
:1006F0009BE0FC018285938580934C4090934D4014
:1007000080914840909149400E94740480E19BE0B0
:1007100021E0FC0126830000DF91CF91FF91EF9152
:10072000BF91AF919F918F917F916F915F914F9109
:100730003F912F910F9000923B000F9000923F004D
:100740000F901F9018951F920F9200903F000F92EC
:10075000112400903B000F922F933F934F935F9390
:100760006F937F938F939F93AF93BF93EF93FF9379
:10077000CF93DF93CDB7DEB782EA9BE0FC018081A7
:10078000918180934E4090934F408091484090914A
:1007900049400E94080480E89BE02CE0FC0125878A
:1007A0000000DF91CF91FF91EF91BF91AF919F91A9
:1007B0008F917F916F915F914F913F912F910F900A
:1007C00000923B000F9000923F000F901F901895F1
:1007D000CF93DF9300D0CDB7DEB789839A83898129
:1007E0009A81809348409093494000000F900F9069
:1007F000DF91CF910895CF93DF9300D0CDB7DEB7CF
:1008000089839A8300000F900F90DF91CF91089514
:10081000CF93DF9300D0CDB7DEB789839A838981E8
:100820009A81FC018385882399F080E89BE0FC0194
:1008300022A133A189819A81FC0127833087898194
:100840009A81FC0187819085892BF1F000001CC002
:1008500080E89BE0FC0122A133A189819A81FC01FF
:100860002187328780E89BE0FC0122A133A18981A6
:100870009A81FC012187328789819A81FC018185D7
:100880009285892B09F0000080E89BE024E0FC01C0
:10089000248389819A81FC01938581E0292F28276F
:1008A00089819A81FC01238789819A81FC011082C8
:1008B00000000F900F90DF91CF910895CF93DF93B9
:1008C00000D0CDB7DEB789839A8320914A4030911A
:1008D0004B4089819A81FC012583368300000F906B
:1008E0000F90DF91CF910895CF93DF9300D0CDB7D4
:1008F000DEB789839A8320914C4030914D408981A5
:100900009A81FC012383348300000F900F90DF91C4
:10091000CF9108950E94BE0408F481E008950E94DA
:10092000EA0488F09F5798F0B92F9927B751B0F093
:10093000E1F0660F771F881F991F1AF0BA95C9F763
:1009400014C0B13091F00E940405B1E008950C94F8
:100950000405672F782F8827B85F39F0B93FCCF3AB
:10096000869577956795B395D9F73EF490958095E0
:10097000709561957F4F8F4F9F4F0895990F000895
:10098000550FAA0BE0E8FEEF16161706E807F90761
:10099000C0F012161306E407F50798F0621B730BFC
:1009A000840B950B39F40A2661F0232B242B252B7D
:1009B00021F408950A2609F4A140A6958FEF811D20
:1009C000811D089557FD9058440F551F59F05F3F02
:1009D00071F04795880F97FB991F61F09F3F79F061
:1009E00087950895121613061406551FF2CF4695E3
:1009F000F1DF08C0161617061806991FF1CF869565
:100A00007105610508940895E894BB276627772748
:100A1000CB0197F908950E94BE0408F48FEF089562
:100A20000E9423050C9494050E94860538F00E94CC
:100A30008D0520F0952311F00C947D050C94830511
:100A400011240C9405050E94E20470F3959FC1F3F4
:100A5000950F50E0551F629FF001729FBB27F00D6C
:100A6000B11D639FAA27F00DB11DAA1F649F6627C1
:100A7000B00DA11D661F829F2227B00DA11D621F10
:100A8000739FB00DA11D621F839FA00D611D221FCA
:100A9000749F3327A00D611D231F849F600D211DAE
:100AA000822F762F6A2F11249F5750409AF0F1F031
:100AB00088234AF0EE0FFF1FBB1F661F771F881F9A
:100AC00091505040A9F79E3F510580F00C947D0550
:100AD0000C9405055F3FE4F3983ED4F38695779533
:100AE0006795B795F795E7959F5FC1F7FE2B880F40
:100AF000911D9695879597F9089597F99F6780E8D6
:100B000070E060E008959FEF80EC089500240A945F
:100B10001616170618060906089500240A941216D8
:100B20001306140605060895092E0394000C11F40B
:100B3000882352F0BB0F40F4BF2B11F460FF04C0B8
:100B40006F5F7F4F8F4F9F4F08950E945406089507
:100B500080E008C0E82FF0E0E05FFB4F90819860F4
:100B600090838F5F8830B0F380E008C0E82FF0E01A
:100B7000E05DFB4F9081986090838F5F8830B0F389
:100B800080E008C0E82FF0E0E05BFB4F90819860C8
:100B900090838F5F8830B0F380E008C0E82FF0E0EA
:100BA000E059FB4F9081986090838F5F8830B0F35D
:100BB00080E008C0E82FF0E0E057FB4F908198609C
:100BC00090838F5F8830B0F380E008C0E82FF0E0BA
:100BD000E055FB4F9081986090838F5F8830B0F331
:100BE000089584B18D7F84B9E1E3F4E08081877F4B
:100BF000808385B18E7F85B984B1816084B90E947C
:100C0000450708950E9487060895E1E7F4E0808192
:100C1000887F846080838081877F80830E946607CD
:100C20000895E3E9F4E08081887F84608083808197
:100C3000877F80830E946B07089580B18F7D80B984
:100C4000E5E1F4E08081877F808381B18F7E81B987
:100C500080B1806180B981B18F7B81B980B18064BE
:100C600080B90E94A906089588B18D7F88B9E1E511
:100C7000F4E08081877F808389B18E7F89B988B1D4
:100C8000816088B989B18B7F89B988B1846088B95E
:100C90000E940C0708950E94120708950E941E07E3
:100CA00008950E94300708950E94A80581B18F77AA
:100CB00081B980B1806880B985B1877F85B984B1F9
:100CC000886084B989B1886089B988B1886088B939
:100CD0000E9474070E94F1050E9402060E94A70666
:100CE0000E9482070E9405060E9411060E941D06AE
:100CF0000E9434060E9496060E944B060E944E06F1
:100D00000E9451060E9461070E9470070895E0E06A
:100D1000F2E080E3808B81E3818B81E086AF92E01B
:100D2000909340028093480280E0089580914101B1
:100D30008111FCCFE0E4F1E088EA80838FEF91E05D
:100D400082879387178281E0828380E0089580E024
:100D50000895E0E4F9E081E2808381E08283E1E5C7
:100D6000F0E410821582168208951F920F920FB63A
:100D70000F9211240BB60F922F933F934F935F93D3
:100D80006F937F938F939F93AF93BF93EF93FF9353
:100D9000E0E4F9E0948180E88383809155408230DB
:100DA00029F0E0915240F09153409083E1E5F0E466
:100DB000A181B2819D012F5F3F4F2183328381301A
:100DC00019F011969C9101C090E0E1E5F0E4838177
:100DD00081508383882319F0909344090AC0E1E588
:100DE000F0E483E080830580F681E02D309709F000
:100DF0000995FF91EF91BF91AF919F918F917F9155
:100E00006F915F914F913F912F910F900BBE0F907B
:100E10000FBE0F901F90189581E280936009109289
:100E200050400895E0E0FBE083E4818381E0808727
:100E30008483858381E1808380E00895E0E1FBE0A5
:100E40008FEF9FEF848795878287938783E48183E1
:100E500081E080878483858381E1808380E00895B9
:100E6000E0E8FBE08FEF9FE080A791A782A793A720
:100E700085E5808784E0848780918E0B80FFFCCF9E
:100E800081E28093800B80E00895E0E6F8E081E461
:100E900093E08087918780EC868380E090E4809364
:100EA0005A4090935B4080E008959091640895FFCC
:100EB000FCCF8093620808950E94550780E090E07F
:100EC000089585E88093B40080E0089581E48093DC
:100ED000C00680E0089589E48093C80680E0089504
:100EE0001092A90080E0089541E868ED80E790E065
:100EF0000E94840744E268ED88E690E00E9484073F
:100F000080E0089580E008951BBEFC0164BF40832B
:100F10000895052E97FB1EF400940E94A00757FD2C
:100F200007D00E94A80707FC03D04EF40C94A0073A
:100F300050954095309521953F4F4F4F5F4F089505
:100F400090958095709561957F4F8F4F9F4F089535
:100F5000A1E21A2EAA1BBB1BFD010DC0AA1FBB1FBD
:100F6000EE1FFF1FA217B307E407F50720F0A21B2F
:100F7000B30BE40BF50B661F771F881F991F1A949C
:100F800069F760957095809590959B01AC01BD01C6
:100F9000CF010895EE0FFF1F0024001C0BBE079029
:100FA000F691E02D0994CF93DF93CDB7DEB7AE0174
:100FB0004B5F5F4FFA0161917191AF0180915A408F
:100FC00090915B400E94E707DF91CF9108952F92A7
:100FD0003F924F925F926F927F928F929F92AF92C9
:100FE000BF92CF92DF92EF92FF920F931F93CF9316
:100FF000DF93CDB7DEB72B97CDBFDEBF6C017B0192
:101000008A01FC0116821782838181FFCCC1CE0147
:1010100001963C01F6019381F70193FD859193FFC1
:1010200081917F01882309F4BAC1853239F493FD97
:10103000859193FF81917F01853229F4B60190E07B
:101040000E94010AE7CF912C212C312CFFE1F315EE
:10105000D8F08B3279F038F4803279F08332A1F411
:10106000232D20611DC08D3261F0803369F4232D62
:10107000216016C0832D8260382EE32DE4603E2E61
:101080002AC0F32DF8601DC037FC2DC020ED280FBD
:101090002A3040F08E32B9F436FC81C1232D206411
:1010A000322E19C036FE06C08AE0989E200D11240B
:1010B000922E11C0EAE02E9E200D1124222EF32D37
:1010C000F0623F2E08C08C3621F4832D8068382EC4
:1010D00002C0883641F4F70193FD859193FF819119
:1010E0007F018111B3CF982F9F7D9554933028F4C1
:1010F0000C5F1F4F9FE399830DC0833631F0833718
:1011000071F0833509F059C021C0F80180818983CD
:101110000E5F1F4F88248394912C530113C0280124
:10112000F2E04F0E511CF801A080B18036FE03C0E2
:10113000692D70E002C06FEF7FEFC5010E94F609D4
:101140004C018201F32DFF773F2E16C0280122E0CB
:10115000420E511CF801A080B18036FE03C0692DFB
:1011600070E002C06FEF7FEFC5010E94EB094C01F8
:10117000F32DF0683F2E820133FC1BC0822D90E0DE
:1011800088169906B0F4B60180E290E00E94010A48
:101190002A94F4CFF50137FC859137FE81915F01E8
:1011A000B60190E00E94010A21102A9421E0821ADF
:1011B00091088114910471F7E8C0843611F08936E2
:1011C00041F5F80137FE07C060817181828193810A
:1011D0000C5F1F4F08C060817181072E000C880BC7
:1011E000990B0E5F1F4FF32DFF763F2E97FF09C01F
:1011F00090958095709561957F4F8F4F9F4FF068C8
:101200003F2E2AE030E0A3010E943D0A882E861876
:1012100045C0853731F4232D2F7EB22E2AE030E0F1
:1012200025C0932D997FB92E8F36C1F018F48835DB
:1012300079F0B5C0803719F0883721F0B0C0E92FB8
:10124000E061BE2EB4FE0DC0FB2DF460BF2E09C0C0
:1012500034FE0AC0292F2660B22E06C028E030E0F6
:1012600005C020E130E002C020E132E0F801B7FE25
:1012700007C060817181828193810C5F1F4F06C01E
:101280006081718180E090E00E5F1F4FA3010E949A
:101290003D0A882E8618FB2DFF773F2E36FE0DC0A7
:1012A000232D2E7FA22E891458F434FE0BC032FC5D
:1012B00009C0832D8E7EA82E05C0B82CA32C03C098
:1012C000B82C01C0B92CA4FE0FC0FE01E80DF11D21
:1012D0008081803321F49A2D997EA92E09C0A2FE27
:1012E00006C0B394B39404C08A2D867809F0B394F1
:1012F000A3FC11C0A0FE06C0B21488F4280C922CE6
:101300009B180EC0B21460F4B60180E290E00E9417
:10131000010AB394F7CFB21418F42B1802C0982C1A
:10132000212CA4FE10C0B60180E390E00E94010AC7
:10133000A2FE17C0A1FC03C088E790E002C088E5C8
:1013400090E0B6010CC08A2D867859F0A1FE02C04B
:101350008BE201C080E2A7FC8DE2B60190E00E9422
:10136000010A891438F4B60180E390E00E94010A72
:101370009A94F7CF8A94F301E80DF11D8081B601AC
:1013800090E00E94010A8110F5CF222009F442CE9C
:10139000B60180E290E00E94010A2A94F6CFF6019D
:1013A0008681978102C08FEF9FEF2B96CDBFDEBF66
:1013B000DF91CF911F910F91FF90EF90DF90CF9031
:1013C000BF90AF909F908F907F906F905F904F9065
:1013D0003F902F900895FC010590615070400110DE
:1013E000D8F7809590958E0F9F1F0895FC0161504E
:1013F000704001900110D8F7809590958E0F9F1F37
:1014000008950F931F93CF93DF93FB01238121FD59
:1014100003C08FEF9FEF2CC022FF16C0468157817B
:10142000248135814217530744F4A081B1819D0185
:101430002F5F3F4F208331838C93268137812F5F2D
:101440003F4F2683378314C08B01EC01FB010084DE
:10145000F185E02D0995892BE1F6D80116968D913D
:101460009C911797019616968D939C931797CE0192
:10147000DF91CF911F910F910895FA01AA2728308B
:1014800051F1203181F1E8946F936E7F6E5F7F4F51
:101490008F4F9F4FAF4FB1E03ED0B4E03CD0670FCD
:1014A000781F891F9A1FA11D680F791F8A1F911D20
:1014B000A11D6A0F711D811D911DA11D20D009F470
:1014C00068943F912AE0269F11243019305D3193B2
:1014D000DEF6CF010895462F4770405D4193B3E09B
:1014E0000FD0C9F7F6CF462F4F70405D4A3318F042
:1014F000495D31FD4052419302D0A9F7EACFB4E0F3
:10150000A6959795879577956795BA95C9F70097AA
:101510006105710508959B01AC010A2E069457954B
:10152000479537952795BA95C9F7620F731F841FA2
:10153000951FA01D089510E0CBE7D0E004C0FE0188
:101540000E94CA072196CC37D107C9F7F894FFCF7C
:1015500000000002000000005C0700000000686559
:101560006C6C6F0A0D00436F756E746572204320BA
:101570003A20256C75200A0D00436F756E746572F4
:0C1580002042203A20256C75200A0D0046
:00000001FF
